{"contracts/ODIM.sol":{"ODIM":{"abi":[{"anonymous":false,"inputs":[{"indexed":false,"internalType":"string","name":"addedBy","type":"string"},{"indexed":false,"internalType":"string","name":"newIdentity","type":"string"}],"name":"IdentityAdded","type":"event"},{"anonymous":false,"inputs":[{"indexed":false,"internalType":"string","name":"removedBy","type":"string"},{"indexed":false,"internalType":"string","name":"removedIdentity","type":"string"}],"name":"IdentityRemoved","type":"event"},{"inputs":[{"internalType":"string","name":"newIdentity","type":"string"},{"components":[{"components":[{"internalType":"uint256","name":"X","type":"uint256"},{"internalType":"uint256","name":"Y","type":"uint256"}],"internalType":"struct Pairing.G1Point","name":"a","type":"tuple"},{"components":[{"internalType":"uint256[2]","name":"X","type":"uint256[2]"},{"internalType":"uint256[2]","name":"Y","type":"uint256[2]"}],"internalType":"struct Pairing.G2Point","name":"b","type":"tuple"},{"components":[{"internalType":"uint256","name":"X","type":"uint256"},{"internalType":"uint256","name":"Y","type":"uint256"}],"internalType":"struct Pairing.G1Point","name":"c","type":"tuple"}],"internalType":"struct ODIM.Proof","name":"proof","type":"tuple"},{"internalType":"uint256[4]","name":"input","type":"uint256[4]"}],"name":"addIdentity","outputs":[],"stateMutability":"nonpayable","type":"function"},{"inputs":[{"internalType":"string","name":"key","type":"string"}],"name":"getNextIdentity","outputs":[{"internalType":"string","name":"","type":"string"}],"stateMutability":"view","type":"function"},{"inputs":[{"internalType":"string","name":"identity","type":"string"}],"name":"getPublicKey","outputs":[{"internalType":"uint256[2]","name":"","type":"uint256[2]"}],"stateMutability":"view","type":"function"},{"inputs":[{"internalType":"string","name":"toBeRemovedIdentity","type":"string"}],"name":"removeIdentity","outputs":[],"stateMutability":"nonpayable","type":"function"},{"inputs":[{"components":[{"components":[{"internalType":"uint256","name":"X","type":"uint256"},{"internalType":"uint256","name":"Y","type":"uint256"}],"internalType":"struct Pairing.G1Point","name":"a","type":"tuple"},{"components":[{"internalType":"uint256[2]","name":"X","type":"uint256[2]"},{"internalType":"uint256[2]","name":"Y","type":"uint256[2]"}],"internalType":"struct Pairing.G2Point","name":"b","type":"tuple"},{"components":[{"internalType":"uint256","name":"X","type":"uint256"},{"internalType":"uint256","name":"Y","type":"uint256"}],"internalType":"struct Pairing.G1Point","name":"c","type":"tuple"}],"internalType":"struct ODIM.Proof","name":"proof","type":"tuple"},{"internalType":"uint256[4]","name":"input","type":"uint256[4]"}],"name":"verifyTx","outputs":[{"internalType":"bool","name":"r","type":"bool"}],"stateMutability":"view","type":"function"}],"evm":{"bytecode":{"linkReferences":{},"object":"6080604052348015600f57600080fd5b50612cba8061001f6000396000f3fe608060405234801561001057600080fd5b50600436106100575760003560e01c8063055d24c11461005c57806309f1ae081461008c578063799afa76146100a8578063bff90821146100d8578063ca364a3a14610108575b600080fd5b61007660048036038101906100719190611dcc565b610124565b6040516100839190611e94565b60405180910390f35b6100a660048036038101906100a1919061215d565b6101d4565b005b6100c260048036038101906100bd91906121ce565b610485565b6040516100cf919061222b565b60405180910390f35b6100f260048036038101906100ed9190611dcc565b61054c565b6040516100ff91906122f1565b60405180910390f35b610122600480360381019061011d9190611dcc565b6105b5565b005b60606000826040516101369190612348565b9081526020016040518091039020805461014f9061238e565b80601f016020809104026020016040519081016040528092919081815260200182805461017b9061238e565b80156101c85780601f1061019d576101008083540402835291602001916101c8565b820191906000526020600020905b8154815290600101906020018083116101ab57829003601f168201915b50505050509050919050565b600080846040516101e59190612348565b908152602001604051809103902080546101fe9061238e565b905014610240576040517f08c379a000000000000000000000000000000000000000000000000000000000815260040161023790612431565b60405180910390fd5b61024a8282610485565b610289576040517f08c379a0000000000000000000000000000000000000000000000000000000008152600401610280906124c3565b60405180910390fd5b6040518060400160405280826000600481106102a8576102a76124e3565b5b60200201518152602001826001600481106102c6576102c56124e3565b5b60200201518152506001846040516102de9190612348565b90815260200160405180910390209060026102fa929190611af8565b506000610306336109b6565b9050600080826040516103199190612348565b908152602001604051809103902080546103329061238e565b80601f016020809104026020016040519081016040528092919081815260200182805461035e9061238e565b80156103ab5780601f10610380576101008083540402835291602001916103ab565b820191906000526020600020905b81548152906001019060200180831161038e57829003601f168201915b50505050509050846000836040516103c39190612348565b908152602001604051809103902090816103dd91906126be565b50600081510361041857816000866040516103f89190612348565b9081526020016040518091039020908161041291906126be565b50610445565b806000866040516104299190612348565b9081526020016040518091039020908161044391906126be565b505b7fa758369d21d836b8337f4e4928fa9645a718ce6cb6d395f8d77e81d1c8f0d5608286604051610476929190612790565b60405180910390a15050505050565b600080600467ffffffffffffffff8111156104a3576104a2611ca1565b5b6040519080825280602002602001820160405280156104d15781602001602082028036833780820191505090505b50905060005b6004811015610524578381600481106104f3576104f26124e3565b5b602002015182828151811061050b5761050a6124e3565b5b60200260200101818152505080806001019150506104d7565b5060006105318286610ccf565b03610540576001915050610546565b60009150505b92915050565b610554611b38565b6001826040516105649190612348565b90815260200160405180910390206002806020026040519081016040528092919082600280156105a9576020028201915b815481526020019060010190808311610595575b50505050509050919050565b600080826040516105c69190612348565b908152602001604051809103902080546105df9061238e565b905003610621576040517f08c379a000000000000000000000000000000000000000000000000000000000815260040161061890612839565b60405180910390fd5b600061062c336109b6565b90506000826040516020016106419190612348565b60405160208183030381529060405280519060200120905060008260405160200161066c9190612348565b60405160208183030381529060405280519060200120905060008390506000808560405161069a9190612348565b908152602001604051809103902080546106b39061238e565b80601f01602080910402602001604051908101604052809291908181526020018280546106df9061238e565b801561072c5780601f106107015761010080835404028352916020019161072c565b820191906000526020600020905b81548152906001019060200180831161070f57829003601f168201915b505050505090506000815103610777576040517f08c379a000000000000000000000000000000000000000000000000000000000815260040161076e906128cb565b60405180910390fd5b60008160405160200161078a9190612348565b6040516020818303038152906040528051906020012090505b8085146108c6578381036107ec576040517f08c379a00000000000000000000000000000000000000000000000000000000081526004016107e390612983565b60405180910390fd5b8192506000826040516107ff9190612348565b908152602001604051809103902080546108189061238e565b80601f01602080910402602001604051908101604052809291908181526020018280546108449061238e565b80156108915780601f1061086657610100808354040283529160200191610891565b820191906000526020600020905b81548152906001019060200180831161087457829003601f168201915b50505050509150816040516020016108a99190612348565b6040516020818303038152906040528051906020012090506107a3565b6000876040516108d69190612348565b90815260200160405180910390206000846040516108f49190612348565b9081526020016040518091039020908161090e91906129ce565b506040518060200160405280600081525060008860405161092f9190612348565b9081526020016040518091039020908161094991906126be565b5060018760405161095a9190612348565b908152602001604051809103902060006109749190611b5a565b7f71d4b586de62e0dd07f2ab987f1b608166194d3f4b54d915e8a10f4a5c957f8186886040516109a5929190612790565b60405180910390a150505050505050565b60606000826040516020016109cb9190612b30565b604051602081830303815290604052905060006040518060400160405280601081526020017f30313233343536373839616263646566000000000000000000000000000000008152509050600060028351610a269190612b7a565b6002610a329190612bbc565b67ffffffffffffffff811115610a4b57610a4a611ca1565b5b6040519080825280601f01601f191660200182016040528015610a7d5781602001600182028036833780820191505090505b5090507f300000000000000000000000000000000000000000000000000000000000000081600081518110610ab557610ab46124e3565b5b60200101907effffffffffffffffffffffffffffffffffffffffffffffffffffffffffffff1916908160001a9053507f780000000000000000000000000000000000000000000000000000000000000081600181518110610b1957610b186124e3565b5b60200101907effffffffffffffffffffffffffffffffffffffffffffffffffffffffffffff1916908160001a90535060005b8351811015610cc357826004858381518110610b6a57610b696124e3565b5b602001015160f81c60f81b7effffffffffffffffffffffffffffffffffffffffffffffffffffffffffffff1916901c60f81c60ff1681518110610bb057610baf6124e3565b5b602001015160f81c60f81b82600283610bc99190612b7a565b6002610bd59190612bbc565b81518110610be657610be56124e3565b5b60200101907effffffffffffffffffffffffffffffffffffffffffffffffffffffffffffff1916908160001a90535082600f60f81b858381518110610c2e57610c2d6124e3565b5b602001015160f81c60f81b1660f81c60ff1681518110610c5157610c506124e3565b5b602001015160f81c60f81b82600283610c6a9190612b7a565b6003610c769190612bbc565b81518110610c8757610c866124e3565b5b60200101907effffffffffffffffffffffffffffffffffffffffffffffffffffffffffffff1916908160001a9053508080600101915050610b4b565b50809350505050919050565b6000807f30644e72e131a029b85045b68181585d2833e84879b9709143e1f593f000000190506000610cff610e60565b905080608001515160018651610d159190612bbc565b14610d1f57600080fd5b60006040518060400160405280600081526020016000815250905060005b8651811015610dd25783878281518110610d5a57610d596124e3565b5b602002602001015110610d6c57600080fd5b610dc382610dbe8560800151600185610d859190612bbc565b81518110610d9657610d956124e3565b5b60200260200101518a8581518110610db157610db06124e3565b5b60200260200101516113cc565b61146e565b91508080600101915050610d3d565b50610dfc818360800151600081518110610def57610dee6124e3565b5b602002602001015161146e565b9050610e4285600001518660200151610e1484611536565b8560400151610e268a60400151611536565b8760600151610e388960000151611536565b89602001516115db565b610e525760019350505050610e5a565b600093505050505b92915050565b610e68611b68565b60405180604001604052807f2f5e6af506b96774e2925365c3321345ab256e893511ffa46ecd791a2b287b6081526020017f05a0204a91ba0d8e72ecafd94fc63edcd0a2cca50e7549d0d83bb0b0b000942a8152508160000181905250604051806040016040528060405180604001604052807f0fc4d876c4b0000d6d623ccedefe8ea74e434f530b1dbc983368bf04934235ed81526020017f1fdd473eb14c6bdf4bd5657cc16142d3202f5e3bdc4154643552718d7e94010c815250815260200160405180604001604052807f28ea5438112033a6f687d6cc45889e190ac48e6d8531961dc40978ffb8d9d19081526020017f158e624699f5391e0dc3a137f641ab56ba79d2e716606da48f7b836a5931e8108152508152508160200181905250604051806040016040528060405180604001604052807f0b53988a08178909f759edcd1a77ea41715ad14c7caf6157acd583dc41a9b31081526020017f14791244c423d2beb727a55784b31fcb5d92f0a7e192f2e3f9b7752633d56cbf815250815260200160405180604001604052807f1b624abd12a5810d8d16ee53cc9cfba66de28fddc0674b60b6944970c471909481526020017f09df1760dd611dee6de8572575ab0b8142e7557be61334c05b63d30df9d08b428152508152508160400181905250604051806040016040528060405180604001604052807f1f74b0713025db4df4578d294f8b8f621810939fac569cc7d79ad4918085377681526020017f16f23c3152a8e86756a5d93344b1ce5cdee88178d2508ad22522d1dd373260ed815250815260200160405180604001604052807f1034505b233386f7d899b1578ca346bc2dc0b5b000713ec6300761c70bf716b381526020017f19e53e7bd2b633e93403afbd9a03ffd158fc363d8af40ed1cb7df23b339a21d58152508152508160600181905250600567ffffffffffffffff81111561112f5761112e611ca1565b5b60405190808252806020026020018201604052801561116857816020015b611155611baf565b81526020019060019003908161114d5790505b50816080018190525060405180604001604052807f25bd36b30a82e6f6ac8621d99e20a8af6ca97da2d7b5fe880901d61e60ae1ca181526020017f20eaaa7f9fae79f789f96dff742170c6e5fd18c96c284d75489cd66f659e63ba81525081608001516000815181106111de576111dd6124e3565b5b602002602001018190525060405180604001604052807f2b8507accbf4846476aafb36dad3c7f9694b317cf4951b1444de897a27bb3a4181526020017f154be64c8b3b929a656048310f46ea999c243fa3931ef5febd675542f4b1bed28152508160800151600181518110611256576112556124e3565b5b602002602001018190525060405180604001604052807f298e5732c627eed58eb7f7a58df2ac1699fe27953e3ac249a27d24ad2a2c3f4d81526020017f059cc84bfd7b0fb48297cbfbd56a05248ed2819265bb9fc0079ce4f21d4e70ed81525081608001516002815181106112ce576112cd6124e3565b5b602002602001018190525060405180604001604052807f0838c912682118e141da1ec9eb259c180f860f28646729f361d94c94a8aa727f81526020017f01809de65884e45c1229794a15468011dfc04b37afcc2ed1fba1fb508457e9ac8152508160800151600381518110611346576113456124e3565b5b602002602001018190525060405180604001604052807f0462ce76cc1ed5d937aeb12932b1caff41052f0940e8527aafda3d080b677ba681526020017f15b1f680bde4e1a42ec7a624ccc1083270aecf263137602f54ef7db91440a0dd81525081608001516004815181106113be576113bd6124e3565b5b602002602001018190525090565b6113d4611baf565b6113dc611bc9565b8360000151816000600381106113f5576113f46124e3565b5b602002018181525050836020015181600160038110611417576114166124e3565b5b6020020181815250508281600260038110611435576114346124e3565b5b602002018181525050600060608360808460076107d05a03fa9050806000810361145b57fe5b508061146657600080fd5b505092915050565b611476611baf565b61147e611beb565b836000015181600060048110611497576114966124e3565b5b6020020181815250508360200151816001600481106114b9576114b86124e3565b5b6020020181815250508260000151816002600481106114db576114da6124e3565b5b6020020181815250508260200151816003600481106114fd576114fc6124e3565b5b602002018181525050600060608360c08460066107d05a03fa9050806000810361152357fe5b508061152e57600080fd5b505092915050565b61153e611baf565b60007f30644e72e131a029b85045b68181585d97816a916871ca8d3c208c16d87cfd4790506000836000015114801561157b575060008360200151145b1561159f5760405180604001604052806000815260200160008152509150506115d6565b6040518060400160405280846000015181526020018285602001516115c49190612c1f565b836115cf9190612c50565b8152509150505b919050565b600080600467ffffffffffffffff8111156115f9576115f8611ca1565b5b60405190808252806020026020018201604052801561163257816020015b61161f611baf565b8152602001906001900390816116175790505b5090506000600467ffffffffffffffff81111561165257611651611ca1565b5b60405190808252806020026020018201604052801561168b57816020015b611678611c0d565b8152602001906001900390816116705790505b5090508a826000815181106116a3576116a26124e3565b5b602002602001018190525088826001815181106116c3576116c26124e3565b5b602002602001018190525086826002815181106116e3576116e26124e3565b5b60200260200101819052508482600381518110611703576117026124e3565b5b60200260200101819052508981600081518110611723576117226124e3565b5b60200260200101819052508781600181518110611743576117426124e3565b5b60200260200101819052508581600281518110611763576117626124e3565b5b60200260200101819052508381600381518110611783576117826124e3565b5b602002602001018190525061179882826117a8565b9250505098975050505050505050565b600081518351146117b857600080fd5b60008351905060006006826117cd9190612b7a565b905060008167ffffffffffffffff8111156117eb576117ea611ca1565b5b6040519080825280602002602001820160405280156118195781602001602082028036833780820191505090505b50905060005b83811015611a985786818151811061183a576118396124e3565b5b6020026020010151600001518260006006846118569190612b7a565b6118609190612bbc565b81518110611871576118706124e3565b5b6020026020010181815250508681815181106118905761188f6124e3565b5b6020026020010151602001518260016006846118ac9190612b7a565b6118b69190612bbc565b815181106118c7576118c66124e3565b5b6020026020010181815250508581815181106118e6576118e56124e3565b5b602002602001015160000151600160028110611905576119046124e3565b5b602002015182600260068461191a9190612b7a565b6119249190612bbc565b81518110611935576119346124e3565b5b602002602001018181525050858181518110611954576119536124e3565b5b602002602001015160000151600060028110611973576119726124e3565b5b60200201518260036006846119889190612b7a565b6119929190612bbc565b815181106119a3576119a26124e3565b5b6020026020010181815250508581815181106119c2576119c16124e3565b5b6020026020010151602001516001600281106119e1576119e06124e3565b5b60200201518260046006846119f69190612b7a565b611a009190612bbc565b81518110611a1157611a106124e3565b5b602002602001018181525050858181518110611a3057611a2f6124e3565b5b602002602001015160200151600060028110611a4f57611a4e6124e3565b5b6020020151826005600684611a649190612b7a565b611a6e9190612bbc565b81518110611a7f57611a7e6124e3565b5b602002602001018181525050808060010191505061181f565b50611aa1611c33565b6000602082602086026020860160086107d05a03fa90508060008103611ac357fe5b5080611ace57600080fd5b600082600060018110611ae457611ae36124e3565b5b602002015114159550505050505092915050565b8260028101928215611b27579160200282015b82811115611b26578251825591602001919060010190611b0b565b5b509050611b349190611c55565b5090565b6040518060400160405280600290602082028036833780820191505090505090565b506000815560010160009055565b6040518060a00160405280611b7b611baf565b8152602001611b88611c0d565b8152602001611b95611c0d565b8152602001611ba2611c0d565b8152602001606081525090565b604051806040016040528060008152602001600081525090565b6040518060600160405280600390602082028036833780820191505090505090565b6040518060800160405280600490602082028036833780820191505090505090565b6040518060400160405280611c20611b38565b8152602001611c2d611b38565b81525090565b6040518060200160405280600190602082028036833780820191505090505090565b5b80821115611c6e576000816000905550600101611c56565b5090565b6000604051905090565b600080fd5b600080fd5b600080fd5b600080fd5b6000601f19601f8301169050919050565b7f4e487b7100000000000000000000000000000000000000000000000000000000600052604160045260246000fd5b611cd982611c90565b810181811067ffffffffffffffff82111715611cf857611cf7611ca1565b5b80604052505050565b6000611d0b611c72565b9050611d178282611cd0565b919050565b600067ffffffffffffffff821115611d3757611d36611ca1565b5b611d4082611c90565b9050602081019050919050565b82818337600083830152505050565b6000611d6f611d6a84611d1c565b611d01565b905082815260208101848484011115611d8b57611d8a611c8b565b5b611d96848285611d4d565b509392505050565b600082601f830112611db357611db2611c86565b5b8135611dc3848260208601611d5c565b91505092915050565b600060208284031215611de257611de1611c7c565b5b600082013567ffffffffffffffff811115611e0057611dff611c81565b5b611e0c84828501611d9e565b91505092915050565b600081519050919050565b600082825260208201905092915050565b60005b83811015611e4f578082015181840152602081019050611e34565b60008484015250505050565b6000611e6682611e15565b611e708185611e20565b9350611e80818560208601611e31565b611e8981611c90565b840191505092915050565b60006020820190508181036000830152611eae8184611e5b565b905092915050565b600080fd5b6000819050919050565b611ece81611ebb565b8114611ed957600080fd5b50565b600081359050611eeb81611ec5565b92915050565b600060408284031215611f0757611f06611eb6565b5b611f116040611d01565b90506000611f2184828501611edc565b6000830152506020611f3584828501611edc565b60208301525092915050565b600067ffffffffffffffff821115611f5c57611f5b611ca1565b5b602082029050919050565b600080fd5b6000611f7f611f7a84611f41565b611d01565b90508060208402830185811115611f9957611f98611f67565b5b835b81811015611fc25780611fae8882611edc565b845260208401935050602081019050611f9b565b5050509392505050565b600082601f830112611fe157611fe0611c86565b5b6002611fee848285611f6c565b91505092915050565b60006080828403121561200d5761200c611eb6565b5b6120176040611d01565b9050600061202784828501611fcc565b600083015250604061203b84828501611fcc565b60208301525092915050565b6000610100828403121561205e5761205d611eb6565b5b6120686060611d01565b9050600061207884828501611ef1565b600083015250604061208c84828501611ff7565b60208301525060c06120a084828501611ef1565b60408301525092915050565b600067ffffffffffffffff8211156120c7576120c6611ca1565b5b602082029050919050565b60006120e56120e0846120ac565b611d01565b905080602084028301858111156120ff576120fe611f67565b5b835b8181101561212857806121148882611edc565b845260208401935050602081019050612101565b5050509392505050565b600082601f83011261214757612146611c86565b5b60046121548482856120d2565b91505092915050565b60008060006101a0848603121561217757612176611c7c565b5b600084013567ffffffffffffffff81111561219557612194611c81565b5b6121a186828701611d9e565b93505060206121b286828701612047565b9250506101206121c486828701612132565b9150509250925092565b60008061018083850312156121e6576121e5611c7c565b5b60006121f485828601612047565b92505061010061220685828601612132565b9150509250929050565b60008115159050919050565b61222581612210565b82525050565b6000602082019050612240600083018461221c565b92915050565b600060029050919050565b600081905092915050565b6000819050919050565b61226f81611ebb565b82525050565b60006122818383612266565b60208301905092915050565b6000602082019050919050565b6122a381612246565b6122ad8184612251565b92506122b88261225c565b8060005b838110156122e95781516122d08782612275565b96506122db8361228d565b9250506001810190506122bc565b505050505050565b6000604082019050612306600083018461229a565b92915050565b600081905092915050565b600061232282611e15565b61232c818561230c565b935061233c818560208601611e31565b80840191505092915050565b60006123548284612317565b915081905092915050565b7f4e487b7100000000000000000000000000000000000000000000000000000000600052602260045260246000fd5b600060028204905060018216806123a657607f821691505b6020821081036123b9576123b861235f565b5b50919050565b7f6e65774964656e7469747920697320616c72656164792070617274206f66207260008201527f656769737465726564206964656e746974696573000000000000000000000000602082015250565b600061241b603483611e20565b9150612426826123bf565b604082019050919050565b6000602082019050818103600083015261244a8161240e565b9050919050565b7f70726f76696e67206f776e657273686970206f66206e65774964656e7469747960008201527f206661696c656400000000000000000000000000000000000000000000000000602082015250565b60006124ad602783611e20565b91506124b882612451565b604082019050919050565b600060208201905081810360008301526124dc816124a0565b9050919050565b7f4e487b7100000000000000000000000000000000000000000000000000000000600052603260045260246000fd5b60008190508160005260206000209050919050565b60006020601f8301049050919050565b600082821b905092915050565b6000600883026125747fffffffffffffffffffffffffffffffffffffffffffffffffffffffffffffffff82612537565b61257e8683612537565b95508019841693508086168417925050509392505050565b6000819050919050565b60006125bb6125b66125b184611ebb565b612596565b611ebb565b9050919050565b6000819050919050565b6125d5836125a0565b6125e96125e1826125c2565b848454612544565b825550505050565b600090565b6125fe6125f1565b6126098184846125cc565b505050565b5b8181101561262d576126226000826125f6565b60018101905061260f565b5050565b601f8211156126725761264381612512565b61264c84612527565b8101602085101561265b578190505b61266f61266785612527565b83018261260e565b50505b505050565b600082821c905092915050565b600061269560001984600802612677565b1980831691505092915050565b60006126ae8383612684565b9150826002028217905092915050565b6126c782611e15565b67ffffffffffffffff8111156126e0576126df611ca1565b5b6126ea825461238e565b6126f5828285612631565b600060209050601f8311600181146127285760008415612716578287015190505b61272085826126a2565b865550612788565b601f19841661273686612512565b60005b8281101561275e57848901518255600182019150602085019450602081019050612739565b8683101561277b5784890151612777601f891682612684565b8355505b6001600288020188555050505b505050505050565b600060408201905081810360008301526127aa8185611e5b565b905081810360208301526127be8184611e5b565b90509392505050565b7f746f426552656d6f7665644964656e74697479206973206e6f7420706172742060008201527f6f662072656769737465726564206964656e7469746965730000000000000000602082015250565b6000612823603883611e20565b915061282e826127c7565b604082019050919050565b6000602082019050818103600083015261285281612816565b9050919050565b7f6d73672e73656e646572206973206e6f742070617274206f662072656769737460008201527f65726564206964656e7469746965730000000000000000000000000000000000602082015250565b60006128b5602f83611e20565b91506128c082612859565b604082019050919050565b600060208201905081810360008301526128e4816128a8565b9050919050565b7f746f426552656d6f7665644964656e74697479206973206e6f7420706172742060008201527f6f66206d73672e73656e64657227732063697263756c6172206c696e6b65642060208201527f6c697374206f66206964656e7469746965730000000000000000000000000000604082015250565b600061296d605283611e20565b9150612978826128eb565b606082019050919050565b6000602082019050818103600083015261299c81612960565b9050919050565b6000815490506129b28161238e565b9050919050565b60008190508160005260206000209050919050565b8181036129dc575050612ab4565b6129e5826129a3565b67ffffffffffffffff8111156129fe576129fd611ca1565b5b612a08825461238e565b612a13828285612631565b6000601f831160018114612a425760008415612a30578287015490505b612a3a85826126a2565b865550612aad565b601f198416612a50876129b9565b9650612a5b86612512565b60005b82811015612a8357848901548255600182019150600185019450602081019050612a5e565b86831015612aa05784890154612a9c601f891682612684565b8355505b6001600288020188555050505b5050505050505b565b600073ffffffffffffffffffffffffffffffffffffffff82169050919050565b6000612ae182612ab6565b9050919050565b60008160601b9050919050565b6000612b0082612ae8565b9050919050565b6000612b1282612af5565b9050919050565b612b2a612b2582612ad6565b612b07565b82525050565b6000612b3c8284612b19565b60148201915081905092915050565b7f4e487b7100000000000000000000000000000000000000000000000000000000600052601160045260246000fd5b6000612b8582611ebb565b9150612b9083611ebb565b9250828202612b9e81611ebb565b91508282048414831517612bb557612bb4612b4b565b5b5092915050565b6000612bc782611ebb565b9150612bd283611ebb565b9250828201905080821115612bea57612be9612b4b565b5b92915050565b7f4e487b7100000000000000000000000000000000000000000000000000000000600052601260045260246000fd5b6000612c2a82611ebb565b9150612c3583611ebb565b925082612c4557612c44612bf0565b5b828206905092915050565b6000612c5b82611ebb565b9150612c6683611ebb565b9250828203905081811115612c7e57612c7d612b4b565b5b9291505056fea2646970667358221220c1cf906f6383180c0005bbe76b3bfde223c58813f6597f7f5fb9699f2b96aae464736f6c634300081b0033","opcodes":"PUSH1 0x80 PUSH1 0x40 MSTORE CALLVALUE DUP1 ISZERO PUSH1 0xF JUMPI PUSH1 0x0 DUP1 REVERT JUMPDEST POP PUSH2 0x2CBA DUP1 PUSH2 0x1F PUSH1 0x0 CODECOPY PUSH1 0x0 RETURN INVALID PUSH1 0x80 PUSH1 0x40 MSTORE CALLVALUE DUP1 ISZERO PUSH2 0x10 JUMPI PUSH1 0x0 DUP1 REVERT JUMPDEST POP PUSH1 0x4 CALLDATASIZE LT PUSH2 0x57 JUMPI PUSH1 0x0 CALLDATALOAD PUSH1 0xE0 SHR DUP1 PUSH4 0x55D24C1 EQ PUSH2 0x5C JUMPI DUP1 PUSH4 0x9F1AE08 EQ PUSH2 0x8C JUMPI DUP1 PUSH4 0x799AFA76 EQ PUSH2 0xA8 JUMPI DUP1 PUSH4 0xBFF90821 EQ PUSH2 0xD8 JUMPI DUP1 PUSH4 0xCA364A3A EQ PUSH2 0x108 JUMPI JUMPDEST PUSH1 0x0 DUP1 REVERT JUMPDEST PUSH2 0x76 PUSH1 0x4 DUP1 CALLDATASIZE SUB DUP2 ADD SWAP1 PUSH2 0x71 SWAP2 SWAP1 PUSH2 0x1DCC JUMP JUMPDEST PUSH2 0x124 JUMP JUMPDEST PUSH1 0x40 MLOAD PUSH2 0x83 SWAP2 SWAP1 PUSH2 0x1E94 JUMP JUMPDEST PUSH1 0x40 MLOAD DUP1 SWAP2 SUB SWAP1 RETURN JUMPDEST PUSH2 0xA6 PUSH1 0x4 DUP1 CALLDATASIZE SUB DUP2 ADD SWAP1 PUSH2 0xA1 SWAP2 SWAP1 PUSH2 0x215D JUMP JUMPDEST PUSH2 0x1D4 JUMP JUMPDEST STOP JUMPDEST PUSH2 0xC2 PUSH1 0x4 DUP1 CALLDATASIZE SUB DUP2 ADD SWAP1 PUSH2 0xBD SWAP2 SWAP1 PUSH2 0x21CE JUMP JUMPDEST PUSH2 0x485 JUMP JUMPDEST PUSH1 0x40 MLOAD PUSH2 0xCF SWAP2 SWAP1 PUSH2 0x222B JUMP JUMPDEST PUSH1 0x40 MLOAD DUP1 SWAP2 SUB SWAP1 RETURN JUMPDEST PUSH2 0xF2 PUSH1 0x4 DUP1 CALLDATASIZE SUB DUP2 ADD SWAP1 PUSH2 0xED SWAP2 SWAP1 PUSH2 0x1DCC JUMP JUMPDEST PUSH2 0x54C JUMP JUMPDEST PUSH1 0x40 MLOAD PUSH2 0xFF SWAP2 SWAP1 PUSH2 0x22F1 JUMP JUMPDEST PUSH1 0x40 MLOAD DUP1 SWAP2 SUB SWAP1 RETURN JUMPDEST PUSH2 0x122 PUSH1 0x4 DUP1 CALLDATASIZE SUB DUP2 ADD SWAP1 PUSH2 0x11D SWAP2 SWAP1 PUSH2 0x1DCC JUMP JUMPDEST PUSH2 0x5B5 JUMP JUMPDEST STOP JUMPDEST PUSH1 0x60 PUSH1 0x0 DUP3 PUSH1 0x40 MLOAD PUSH2 0x136 SWAP2 SWAP1 PUSH2 0x2348 JUMP JUMPDEST SWAP1 DUP2 MSTORE PUSH1 0x20 ADD PUSH1 0x40 MLOAD DUP1 SWAP2 SUB SWAP1 KECCAK256 DUP1 SLOAD PUSH2 0x14F SWAP1 PUSH2 0x238E JUMP JUMPDEST DUP1 PUSH1 0x1F ADD PUSH1 0x20 DUP1 SWAP2 DIV MUL PUSH1 0x20 ADD PUSH1 0x40 MLOAD SWAP1 DUP2 ADD PUSH1 0x40 MSTORE DUP1 SWAP3 SWAP2 SWAP1 DUP2 DUP2 MSTORE PUSH1 0x20 ADD DUP3 DUP1 SLOAD PUSH2 0x17B SWAP1 PUSH2 0x238E JUMP JUMPDEST DUP1 ISZERO PUSH2 0x1C8 JUMPI DUP1 PUSH1 0x1F LT PUSH2 0x19D JUMPI PUSH2 0x100 DUP1 DUP4 SLOAD DIV MUL DUP4 MSTORE SWAP2 PUSH1 0x20 ADD SWAP2 PUSH2 0x1C8 JUMP JUMPDEST DUP3 ADD SWAP2 SWAP1 PUSH1 0x0 MSTORE PUSH1 0x20 PUSH1 0x0 KECCAK256 SWAP1 JUMPDEST DUP2 SLOAD DUP2 MSTORE SWAP1 PUSH1 0x1 ADD SWAP1 PUSH1 0x20 ADD DUP1 DUP4 GT PUSH2 0x1AB JUMPI DUP3 SWAP1 SUB PUSH1 0x1F AND DUP3 ADD SWAP2 JUMPDEST POP POP POP POP POP SWAP1 POP SWAP2 SWAP1 POP JUMP JUMPDEST PUSH1 0x0 DUP1 DUP5 PUSH1 0x40 MLOAD PUSH2 0x1E5 SWAP2 SWAP1 PUSH2 0x2348 JUMP JUMPDEST SWAP1 DUP2 MSTORE PUSH1 0x20 ADD PUSH1 0x40 MLOAD DUP1 SWAP2 SUB SWAP1 KECCAK256 DUP1 SLOAD PUSH2 0x1FE SWAP1 PUSH2 0x238E JUMP JUMPDEST SWAP1 POP EQ PUSH2 0x240 JUMPI PUSH1 0x40 MLOAD PUSH32 0x8C379A000000000000000000000000000000000000000000000000000000000 DUP2 MSTORE PUSH1 0x4 ADD PUSH2 0x237 SWAP1 PUSH2 0x2431 JUMP JUMPDEST PUSH1 0x40 MLOAD DUP1 SWAP2 SUB SWAP1 REVERT JUMPDEST PUSH2 0x24A DUP3 DUP3 PUSH2 0x485 JUMP JUMPDEST PUSH2 0x289 JUMPI PUSH1 0x40 MLOAD PUSH32 0x8C379A000000000000000000000000000000000000000000000000000000000 DUP2 MSTORE PUSH1 0x4 ADD PUSH2 0x280 SWAP1 PUSH2 0x24C3 JUMP JUMPDEST PUSH1 0x40 MLOAD DUP1 SWAP2 SUB SWAP1 REVERT JUMPDEST PUSH1 0x40 MLOAD DUP1 PUSH1 0x40 ADD PUSH1 0x40 MSTORE DUP1 DUP3 PUSH1 0x0 PUSH1 0x4 DUP2 LT PUSH2 0x2A8 JUMPI PUSH2 0x2A7 PUSH2 0x24E3 JUMP JUMPDEST JUMPDEST PUSH1 0x20 MUL ADD MLOAD DUP2 MSTORE PUSH1 0x20 ADD DUP3 PUSH1 0x1 PUSH1 0x4 DUP2 LT PUSH2 0x2C6 JUMPI PUSH2 0x2C5 PUSH2 0x24E3 JUMP JUMPDEST JUMPDEST PUSH1 0x20 MUL ADD MLOAD DUP2 MSTORE POP PUSH1 0x1 DUP5 PUSH1 0x40 MLOAD PUSH2 0x2DE SWAP2 SWAP1 PUSH2 0x2348 JUMP JUMPDEST SWAP1 DUP2 MSTORE PUSH1 0x20 ADD PUSH1 0x40 MLOAD DUP1 SWAP2 SUB SWAP1 KECCAK256 SWAP1 PUSH1 0x2 PUSH2 0x2FA SWAP3 SWAP2 SWAP1 PUSH2 0x1AF8 JUMP JUMPDEST POP PUSH1 0x0 PUSH2 0x306 CALLER PUSH2 0x9B6 JUMP JUMPDEST SWAP1 POP PUSH1 0x0 DUP1 DUP3 PUSH1 0x40 MLOAD PUSH2 0x319 SWAP2 SWAP1 PUSH2 0x2348 JUMP JUMPDEST SWAP1 DUP2 MSTORE PUSH1 0x20 ADD PUSH1 0x40 MLOAD DUP1 SWAP2 SUB SWAP1 KECCAK256 DUP1 SLOAD PUSH2 0x332 SWAP1 PUSH2 0x238E JUMP JUMPDEST DUP1 PUSH1 0x1F ADD PUSH1 0x20 DUP1 SWAP2 DIV MUL PUSH1 0x20 ADD PUSH1 0x40 MLOAD SWAP1 DUP2 ADD PUSH1 0x40 MSTORE DUP1 SWAP3 SWAP2 SWAP1 DUP2 DUP2 MSTORE PUSH1 0x20 ADD DUP3 DUP1 SLOAD PUSH2 0x35E SWAP1 PUSH2 0x238E JUMP JUMPDEST DUP1 ISZERO PUSH2 0x3AB JUMPI DUP1 PUSH1 0x1F LT PUSH2 0x380 JUMPI PUSH2 0x100 DUP1 DUP4 SLOAD DIV MUL DUP4 MSTORE SWAP2 PUSH1 0x20 ADD SWAP2 PUSH2 0x3AB JUMP JUMPDEST DUP3 ADD SWAP2 SWAP1 PUSH1 0x0 MSTORE PUSH1 0x20 PUSH1 0x0 KECCAK256 SWAP1 JUMPDEST DUP2 SLOAD DUP2 MSTORE SWAP1 PUSH1 0x1 ADD SWAP1 PUSH1 0x20 ADD DUP1 DUP4 GT PUSH2 0x38E JUMPI DUP3 SWAP1 SUB PUSH1 0x1F AND DUP3 ADD SWAP2 JUMPDEST POP POP POP POP POP SWAP1 POP DUP5 PUSH1 0x0 DUP4 PUSH1 0x40 MLOAD PUSH2 0x3C3 SWAP2 SWAP1 PUSH2 0x2348 JUMP JUMPDEST SWAP1 DUP2 MSTORE PUSH1 0x20 ADD PUSH1 0x40 MLOAD DUP1 SWAP2 SUB SWAP1 KECCAK256 SWAP1 DUP2 PUSH2 0x3DD SWAP2 SWAP1 PUSH2 0x26BE JUMP JUMPDEST POP PUSH1 0x0 DUP2 MLOAD SUB PUSH2 0x418 JUMPI DUP2 PUSH1 0x0 DUP7 PUSH1 0x40 MLOAD PUSH2 0x3F8 SWAP2 SWAP1 PUSH2 0x2348 JUMP JUMPDEST SWAP1 DUP2 MSTORE PUSH1 0x20 ADD PUSH1 0x40 MLOAD DUP1 SWAP2 SUB SWAP1 KECCAK256 SWAP1 DUP2 PUSH2 0x412 SWAP2 SWAP1 PUSH2 0x26BE JUMP JUMPDEST POP PUSH2 0x445 JUMP JUMPDEST DUP1 PUSH1 0x0 DUP7 PUSH1 0x40 MLOAD PUSH2 0x429 SWAP2 SWAP1 PUSH2 0x2348 JUMP JUMPDEST SWAP1 DUP2 MSTORE PUSH1 0x20 ADD PUSH1 0x40 MLOAD DUP1 SWAP2 SUB SWAP1 KECCAK256 SWAP1 DUP2 PUSH2 0x443 SWAP2 SWAP1 PUSH2 0x26BE JUMP JUMPDEST POP JUMPDEST PUSH32 0xA758369D21D836B8337F4E4928FA9645A718CE6CB6D395F8D77E81D1C8F0D560 DUP3 DUP7 PUSH1 0x40 MLOAD PUSH2 0x476 SWAP3 SWAP2 SWAP1 PUSH2 0x2790 JUMP JUMPDEST PUSH1 0x40 MLOAD DUP1 SWAP2 SUB SWAP1 LOG1 POP POP POP POP POP JUMP JUMPDEST PUSH1 0x0 DUP1 PUSH1 0x4 PUSH8 0xFFFFFFFFFFFFFFFF DUP2 GT ISZERO PUSH2 0x4A3 JUMPI PUSH2 0x4A2 PUSH2 0x1CA1 JUMP JUMPDEST JUMPDEST PUSH1 0x40 MLOAD SWAP1 DUP1 DUP3 MSTORE DUP1 PUSH1 0x20 MUL PUSH1 0x20 ADD DUP3 ADD PUSH1 0x40 MSTORE DUP1 ISZERO PUSH2 0x4D1 JUMPI DUP2 PUSH1 0x20 ADD PUSH1 0x20 DUP3 MUL DUP1 CALLDATASIZE DUP4 CALLDATACOPY DUP1 DUP3 ADD SWAP2 POP POP SWAP1 POP JUMPDEST POP SWAP1 POP PUSH1 0x0 JUMPDEST PUSH1 0x4 DUP2 LT ISZERO PUSH2 0x524 JUMPI DUP4 DUP2 PUSH1 0x4 DUP2 LT PUSH2 0x4F3 JUMPI PUSH2 0x4F2 PUSH2 0x24E3 JUMP JUMPDEST JUMPDEST PUSH1 0x20 MUL ADD MLOAD DUP3 DUP3 DUP2 MLOAD DUP2 LT PUSH2 0x50B JUMPI PUSH2 0x50A PUSH2 0x24E3 JUMP JUMPDEST JUMPDEST PUSH1 0x20 MUL PUSH1 0x20 ADD ADD DUP2 DUP2 MSTORE POP POP DUP1 DUP1 PUSH1 0x1 ADD SWAP2 POP POP PUSH2 0x4D7 JUMP JUMPDEST POP PUSH1 0x0 PUSH2 0x531 DUP3 DUP7 PUSH2 0xCCF JUMP JUMPDEST SUB PUSH2 0x540 JUMPI PUSH1 0x1 SWAP2 POP POP PUSH2 0x546 JUMP JUMPDEST PUSH1 0x0 SWAP2 POP POP JUMPDEST SWAP3 SWAP2 POP POP JUMP JUMPDEST PUSH2 0x554 PUSH2 0x1B38 JUMP JUMPDEST PUSH1 0x1 DUP3 PUSH1 0x40 MLOAD PUSH2 0x564 SWAP2 SWAP1 PUSH2 0x2348 JUMP JUMPDEST SWAP1 DUP2 MSTORE PUSH1 0x20 ADD PUSH1 0x40 MLOAD DUP1 SWAP2 SUB SWAP1 KECCAK256 PUSH1 0x2 DUP1 PUSH1 0x20 MUL PUSH1 0x40 MLOAD SWAP1 DUP2 ADD PUSH1 0x40 MSTORE DUP1 SWAP3 SWAP2 SWAP1 DUP3 PUSH1 0x2 DUP1 ISZERO PUSH2 0x5A9 JUMPI PUSH1 0x20 MUL DUP3 ADD SWAP2 JUMPDEST DUP2 SLOAD DUP2 MSTORE PUSH1 0x20 ADD SWAP1 PUSH1 0x1 ADD SWAP1 DUP1 DUP4 GT PUSH2 0x595 JUMPI JUMPDEST POP POP POP POP POP SWAP1 POP SWAP2 SWAP1 POP JUMP JUMPDEST PUSH1 0x0 DUP1 DUP3 PUSH1 0x40 MLOAD PUSH2 0x5C6 SWAP2 SWAP1 PUSH2 0x2348 JUMP JUMPDEST SWAP1 DUP2 MSTORE PUSH1 0x20 ADD PUSH1 0x40 MLOAD DUP1 SWAP2 SUB SWAP1 KECCAK256 DUP1 SLOAD PUSH2 0x5DF SWAP1 PUSH2 0x238E JUMP JUMPDEST SWAP1 POP SUB PUSH2 0x621 JUMPI PUSH1 0x40 MLOAD PUSH32 0x8C379A000000000000000000000000000000000000000000000000000000000 DUP2 MSTORE PUSH1 0x4 ADD PUSH2 0x618 SWAP1 PUSH2 0x2839 JUMP JUMPDEST PUSH1 0x40 MLOAD DUP1 SWAP2 SUB SWAP1 REVERT JUMPDEST PUSH1 0x0 PUSH2 0x62C CALLER PUSH2 0x9B6 JUMP JUMPDEST SWAP1 POP PUSH1 0x0 DUP3 PUSH1 0x40 MLOAD PUSH1 0x20 ADD PUSH2 0x641 SWAP2 SWAP1 PUSH2 0x2348 JUMP JUMPDEST PUSH1 0x40 MLOAD PUSH1 0x20 DUP2 DUP4 SUB SUB DUP2 MSTORE SWAP1 PUSH1 0x40 MSTORE DUP1 MLOAD SWAP1 PUSH1 0x20 ADD KECCAK256 SWAP1 POP PUSH1 0x0 DUP3 PUSH1 0x40 MLOAD PUSH1 0x20 ADD PUSH2 0x66C SWAP2 SWAP1 PUSH2 0x2348 JUMP JUMPDEST PUSH1 0x40 MLOAD PUSH1 0x20 DUP2 DUP4 SUB SUB DUP2 MSTORE SWAP1 PUSH1 0x40 MSTORE DUP1 MLOAD SWAP1 PUSH1 0x20 ADD KECCAK256 SWAP1 POP PUSH1 0x0 DUP4 SWAP1 POP PUSH1 0x0 DUP1 DUP6 PUSH1 0x40 MLOAD PUSH2 0x69A SWAP2 SWAP1 PUSH2 0x2348 JUMP JUMPDEST SWAP1 DUP2 MSTORE PUSH1 0x20 ADD PUSH1 0x40 MLOAD DUP1 SWAP2 SUB SWAP1 KECCAK256 DUP1 SLOAD PUSH2 0x6B3 SWAP1 PUSH2 0x238E JUMP JUMPDEST DUP1 PUSH1 0x1F ADD PUSH1 0x20 DUP1 SWAP2 DIV MUL PUSH1 0x20 ADD PUSH1 0x40 MLOAD SWAP1 DUP2 ADD PUSH1 0x40 MSTORE DUP1 SWAP3 SWAP2 SWAP1 DUP2 DUP2 MSTORE PUSH1 0x20 ADD DUP3 DUP1 SLOAD PUSH2 0x6DF SWAP1 PUSH2 0x238E JUMP JUMPDEST DUP1 ISZERO PUSH2 0x72C JUMPI DUP1 PUSH1 0x1F LT PUSH2 0x701 JUMPI PUSH2 0x100 DUP1 DUP4 SLOAD DIV MUL DUP4 MSTORE SWAP2 PUSH1 0x20 ADD SWAP2 PUSH2 0x72C JUMP JUMPDEST DUP3 ADD SWAP2 SWAP1 PUSH1 0x0 MSTORE PUSH1 0x20 PUSH1 0x0 KECCAK256 SWAP1 JUMPDEST DUP2 SLOAD DUP2 MSTORE SWAP1 PUSH1 0x1 ADD SWAP1 PUSH1 0x20 ADD DUP1 DUP4 GT PUSH2 0x70F JUMPI DUP3 SWAP1 SUB PUSH1 0x1F AND DUP3 ADD SWAP2 JUMPDEST POP POP POP POP POP SWAP1 POP PUSH1 0x0 DUP2 MLOAD SUB PUSH2 0x777 JUMPI PUSH1 0x40 MLOAD PUSH32 0x8C379A000000000000000000000000000000000000000000000000000000000 DUP2 MSTORE PUSH1 0x4 ADD PUSH2 0x76E SWAP1 PUSH2 0x28CB JUMP JUMPDEST PUSH1 0x40 MLOAD DUP1 SWAP2 SUB SWAP1 REVERT JUMPDEST PUSH1 0x0 DUP2 PUSH1 0x40 MLOAD PUSH1 0x20 ADD PUSH2 0x78A SWAP2 SWAP1 PUSH2 0x2348 JUMP JUMPDEST PUSH1 0x40 MLOAD PUSH1 0x20 DUP2 DUP4 SUB SUB DUP2 MSTORE SWAP1 PUSH1 0x40 MSTORE DUP1 MLOAD SWAP1 PUSH1 0x20 ADD KECCAK256 SWAP1 POP JUMPDEST DUP1 DUP6 EQ PUSH2 0x8C6 JUMPI DUP4 DUP2 SUB PUSH2 0x7EC JUMPI PUSH1 0x40 MLOAD PUSH32 0x8C379A000000000000000000000000000000000000000000000000000000000 DUP2 MSTORE PUSH1 0x4 ADD PUSH2 0x7E3 SWAP1 PUSH2 0x2983 JUMP JUMPDEST PUSH1 0x40 MLOAD DUP1 SWAP2 SUB SWAP1 REVERT JUMPDEST DUP2 SWAP3 POP PUSH1 0x0 DUP3 PUSH1 0x40 MLOAD PUSH2 0x7FF SWAP2 SWAP1 PUSH2 0x2348 JUMP JUMPDEST SWAP1 DUP2 MSTORE PUSH1 0x20 ADD PUSH1 0x40 MLOAD DUP1 SWAP2 SUB SWAP1 KECCAK256 DUP1 SLOAD PUSH2 0x818 SWAP1 PUSH2 0x238E JUMP JUMPDEST DUP1 PUSH1 0x1F ADD PUSH1 0x20 DUP1 SWAP2 DIV MUL PUSH1 0x20 ADD PUSH1 0x40 MLOAD SWAP1 DUP2 ADD PUSH1 0x40 MSTORE DUP1 SWAP3 SWAP2 SWAP1 DUP2 DUP2 MSTORE PUSH1 0x20 ADD DUP3 DUP1 SLOAD PUSH2 0x844 SWAP1 PUSH2 0x238E JUMP JUMPDEST DUP1 ISZERO PUSH2 0x891 JUMPI DUP1 PUSH1 0x1F LT PUSH2 0x866 JUMPI PUSH2 0x100 DUP1 DUP4 SLOAD DIV MUL DUP4 MSTORE SWAP2 PUSH1 0x20 ADD SWAP2 PUSH2 0x891 JUMP JUMPDEST DUP3 ADD SWAP2 SWAP1 PUSH1 0x0 MSTORE PUSH1 0x20 PUSH1 0x0 KECCAK256 SWAP1 JUMPDEST DUP2 SLOAD DUP2 MSTORE SWAP1 PUSH1 0x1 ADD SWAP1 PUSH1 0x20 ADD DUP1 DUP4 GT PUSH2 0x874 JUMPI DUP3 SWAP1 SUB PUSH1 0x1F AND DUP3 ADD SWAP2 JUMPDEST POP POP POP POP POP SWAP2 POP DUP2 PUSH1 0x40 MLOAD PUSH1 0x20 ADD PUSH2 0x8A9 SWAP2 SWAP1 PUSH2 0x2348 JUMP JUMPDEST PUSH1 0x40 MLOAD PUSH1 0x20 DUP2 DUP4 SUB SUB DUP2 MSTORE SWAP1 PUSH1 0x40 MSTORE DUP1 MLOAD SWAP1 PUSH1 0x20 ADD KECCAK256 SWAP1 POP PUSH2 0x7A3 JUMP JUMPDEST PUSH1 0x0 DUP8 PUSH1 0x40 MLOAD PUSH2 0x8D6 SWAP2 SWAP1 PUSH2 0x2348 JUMP JUMPDEST SWAP1 DUP2 MSTORE PUSH1 0x20 ADD PUSH1 0x40 MLOAD DUP1 SWAP2 SUB SWAP1 KECCAK256 PUSH1 0x0 DUP5 PUSH1 0x40 MLOAD PUSH2 0x8F4 SWAP2 SWAP1 PUSH2 0x2348 JUMP JUMPDEST SWAP1 DUP2 MSTORE PUSH1 0x20 ADD PUSH1 0x40 MLOAD DUP1 SWAP2 SUB SWAP1 KECCAK256 SWAP1 DUP2 PUSH2 0x90E SWAP2 SWAP1 PUSH2 0x29CE JUMP JUMPDEST POP PUSH1 0x40 MLOAD DUP1 PUSH1 0x20 ADD PUSH1 0x40 MSTORE DUP1 PUSH1 0x0 DUP2 MSTORE POP PUSH1 0x0 DUP9 PUSH1 0x40 MLOAD PUSH2 0x92F SWAP2 SWAP1 PUSH2 0x2348 JUMP JUMPDEST SWAP1 DUP2 MSTORE PUSH1 0x20 ADD PUSH1 0x40 MLOAD DUP1 SWAP2 SUB SWAP1 KECCAK256 SWAP1 DUP2 PUSH2 0x949 SWAP2 SWAP1 PUSH2 0x26BE JUMP JUMPDEST POP PUSH1 0x1 DUP8 PUSH1 0x40 MLOAD PUSH2 0x95A SWAP2 SWAP1 PUSH2 0x2348 JUMP JUMPDEST SWAP1 DUP2 MSTORE PUSH1 0x20 ADD PUSH1 0x40 MLOAD DUP1 SWAP2 SUB SWAP1 KECCAK256 PUSH1 0x0 PUSH2 0x974 SWAP2 SWAP1 PUSH2 0x1B5A JUMP JUMPDEST PUSH32 0x71D4B586DE62E0DD07F2AB987F1B608166194D3F4B54D915E8A10F4A5C957F81 DUP7 DUP9 PUSH1 0x40 MLOAD PUSH2 0x9A5 SWAP3 SWAP2 SWAP1 PUSH2 0x2790 JUMP JUMPDEST PUSH1 0x40 MLOAD DUP1 SWAP2 SUB SWAP1 LOG1 POP POP POP POP POP POP POP JUMP JUMPDEST PUSH1 0x60 PUSH1 0x0 DUP3 PUSH1 0x40 MLOAD PUSH1 0x20 ADD PUSH2 0x9CB SWAP2 SWAP1 PUSH2 0x2B30 JUMP JUMPDEST PUSH1 0x40 MLOAD PUSH1 0x20 DUP2 DUP4 SUB SUB DUP2 MSTORE SWAP1 PUSH1 0x40 MSTORE SWAP1 POP PUSH1 0x0 PUSH1 0x40 MLOAD DUP1 PUSH1 0x40 ADD PUSH1 0x40 MSTORE DUP1 PUSH1 0x10 DUP2 MSTORE PUSH1 0x20 ADD PUSH32 0x3031323334353637383961626364656600000000000000000000000000000000 DUP2 MSTORE POP SWAP1 POP PUSH1 0x0 PUSH1 0x2 DUP4 MLOAD PUSH2 0xA26 SWAP2 SWAP1 PUSH2 0x2B7A JUMP JUMPDEST PUSH1 0x2 PUSH2 0xA32 SWAP2 SWAP1 PUSH2 0x2BBC JUMP JUMPDEST PUSH8 0xFFFFFFFFFFFFFFFF DUP2 GT ISZERO PUSH2 0xA4B JUMPI PUSH2 0xA4A PUSH2 0x1CA1 JUMP JUMPDEST JUMPDEST PUSH1 0x40 MLOAD SWAP1 DUP1 DUP3 MSTORE DUP1 PUSH1 0x1F ADD PUSH1 0x1F NOT AND PUSH1 0x20 ADD DUP3 ADD PUSH1 0x40 MSTORE DUP1 ISZERO PUSH2 0xA7D JUMPI DUP2 PUSH1 0x20 ADD PUSH1 0x1 DUP3 MUL DUP1 CALLDATASIZE DUP4 CALLDATACOPY DUP1 DUP3 ADD SWAP2 POP POP SWAP1 POP JUMPDEST POP SWAP1 POP PUSH32 0x3000000000000000000000000000000000000000000000000000000000000000 DUP2 PUSH1 0x0 DUP2 MLOAD DUP2 LT PUSH2 0xAB5 JUMPI PUSH2 0xAB4 PUSH2 0x24E3 JUMP JUMPDEST JUMPDEST PUSH1 0x20 ADD ADD SWAP1 PUSH31 0xFFFFFFFFFFFFFFFFFFFFFFFFFFFFFFFFFFFFFFFFFFFFFFFFFFFFFFFFFFFFFF NOT AND SWAP1 DUP2 PUSH1 0x0 BYTE SWAP1 MSTORE8 POP PUSH32 0x7800000000000000000000000000000000000000000000000000000000000000 DUP2 PUSH1 0x1 DUP2 MLOAD DUP2 LT PUSH2 0xB19 JUMPI PUSH2 0xB18 PUSH2 0x24E3 JUMP JUMPDEST JUMPDEST PUSH1 0x20 ADD ADD SWAP1 PUSH31 0xFFFFFFFFFFFFFFFFFFFFFFFFFFFFFFFFFFFFFFFFFFFFFFFFFFFFFFFFFFFFFF NOT AND SWAP1 DUP2 PUSH1 0x0 BYTE SWAP1 MSTORE8 POP PUSH1 0x0 JUMPDEST DUP4 MLOAD DUP2 LT ISZERO PUSH2 0xCC3 JUMPI DUP3 PUSH1 0x4 DUP6 DUP4 DUP2 MLOAD DUP2 LT PUSH2 0xB6A JUMPI PUSH2 0xB69 PUSH2 0x24E3 JUMP JUMPDEST JUMPDEST PUSH1 0x20 ADD ADD MLOAD PUSH1 0xF8 SHR PUSH1 0xF8 SHL PUSH31 0xFFFFFFFFFFFFFFFFFFFFFFFFFFFFFFFFFFFFFFFFFFFFFFFFFFFFFFFFFFFFFF NOT AND SWAP1 SHR PUSH1 0xF8 SHR PUSH1 0xFF AND DUP2 MLOAD DUP2 LT PUSH2 0xBB0 JUMPI PUSH2 0xBAF PUSH2 0x24E3 JUMP JUMPDEST JUMPDEST PUSH1 0x20 ADD ADD MLOAD PUSH1 0xF8 SHR PUSH1 0xF8 SHL DUP3 PUSH1 0x2 DUP4 PUSH2 0xBC9 SWAP2 SWAP1 PUSH2 0x2B7A JUMP JUMPDEST PUSH1 0x2 PUSH2 0xBD5 SWAP2 SWAP1 PUSH2 0x2BBC JUMP JUMPDEST DUP2 MLOAD DUP2 LT PUSH2 0xBE6 JUMPI PUSH2 0xBE5 PUSH2 0x24E3 JUMP JUMPDEST JUMPDEST PUSH1 0x20 ADD ADD SWAP1 PUSH31 0xFFFFFFFFFFFFFFFFFFFFFFFFFFFFFFFFFFFFFFFFFFFFFFFFFFFFFFFFFFFFFF NOT AND SWAP1 DUP2 PUSH1 0x0 BYTE SWAP1 MSTORE8 POP DUP3 PUSH1 0xF PUSH1 0xF8 SHL DUP6 DUP4 DUP2 MLOAD DUP2 LT PUSH2 0xC2E JUMPI PUSH2 0xC2D PUSH2 0x24E3 JUMP JUMPDEST JUMPDEST PUSH1 0x20 ADD ADD MLOAD PUSH1 0xF8 SHR PUSH1 0xF8 SHL AND PUSH1 0xF8 SHR PUSH1 0xFF AND DUP2 MLOAD DUP2 LT PUSH2 0xC51 JUMPI PUSH2 0xC50 PUSH2 0x24E3 JUMP JUMPDEST JUMPDEST PUSH1 0x20 ADD ADD MLOAD PUSH1 0xF8 SHR PUSH1 0xF8 SHL DUP3 PUSH1 0x2 DUP4 PUSH2 0xC6A SWAP2 SWAP1 PUSH2 0x2B7A JUMP JUMPDEST PUSH1 0x3 PUSH2 0xC76 SWAP2 SWAP1 PUSH2 0x2BBC JUMP JUMPDEST DUP2 MLOAD DUP2 LT PUSH2 0xC87 JUMPI PUSH2 0xC86 PUSH2 0x24E3 JUMP JUMPDEST JUMPDEST PUSH1 0x20 ADD ADD SWAP1 PUSH31 0xFFFFFFFFFFFFFFFFFFFFFFFFFFFFFFFFFFFFFFFFFFFFFFFFFFFFFFFFFFFFFF NOT AND SWAP1 DUP2 PUSH1 0x0 BYTE SWAP1 MSTORE8 POP DUP1 DUP1 PUSH1 0x1 ADD SWAP2 POP POP PUSH2 0xB4B JUMP JUMPDEST POP DUP1 SWAP4 POP POP POP POP SWAP2 SWAP1 POP JUMP JUMPDEST PUSH1 0x0 DUP1 PUSH32 0x30644E72E131A029B85045B68181585D2833E84879B9709143E1F593F0000001 SWAP1 POP PUSH1 0x0 PUSH2 0xCFF PUSH2 0xE60 JUMP JUMPDEST SWAP1 POP DUP1 PUSH1 0x80 ADD MLOAD MLOAD PUSH1 0x1 DUP7 MLOAD PUSH2 0xD15 SWAP2 SWAP1 PUSH2 0x2BBC JUMP JUMPDEST EQ PUSH2 0xD1F JUMPI PUSH1 0x0 DUP1 REVERT JUMPDEST PUSH1 0x0 PUSH1 0x40 MLOAD DUP1 PUSH1 0x40 ADD PUSH1 0x40 MSTORE DUP1 PUSH1 0x0 DUP2 MSTORE PUSH1 0x20 ADD PUSH1 0x0 DUP2 MSTORE POP SWAP1 POP PUSH1 0x0 JUMPDEST DUP7 MLOAD DUP2 LT ISZERO PUSH2 0xDD2 JUMPI DUP4 DUP8 DUP3 DUP2 MLOAD DUP2 LT PUSH2 0xD5A JUMPI PUSH2 0xD59 PUSH2 0x24E3 JUMP JUMPDEST JUMPDEST PUSH1 0x20 MUL PUSH1 0x20 ADD ADD MLOAD LT PUSH2 0xD6C JUMPI PUSH1 0x0 DUP1 REVERT JUMPDEST PUSH2 0xDC3 DUP3 PUSH2 0xDBE DUP6 PUSH1 0x80 ADD MLOAD PUSH1 0x1 DUP6 PUSH2 0xD85 SWAP2 SWAP1 PUSH2 0x2BBC JUMP JUMPDEST DUP2 MLOAD DUP2 LT PUSH2 0xD96 JUMPI PUSH2 0xD95 PUSH2 0x24E3 JUMP JUMPDEST JUMPDEST PUSH1 0x20 MUL PUSH1 0x20 ADD ADD MLOAD DUP11 DUP6 DUP2 MLOAD DUP2 LT PUSH2 0xDB1 JUMPI PUSH2 0xDB0 PUSH2 0x24E3 JUMP JUMPDEST JUMPDEST PUSH1 0x20 MUL PUSH1 0x20 ADD ADD MLOAD PUSH2 0x13CC JUMP JUMPDEST PUSH2 0x146E JUMP JUMPDEST SWAP2 POP DUP1 DUP1 PUSH1 0x1 ADD SWAP2 POP POP PUSH2 0xD3D JUMP JUMPDEST POP PUSH2 0xDFC DUP2 DUP4 PUSH1 0x80 ADD MLOAD PUSH1 0x0 DUP2 MLOAD DUP2 LT PUSH2 0xDEF JUMPI PUSH2 0xDEE PUSH2 0x24E3 JUMP JUMPDEST JUMPDEST PUSH1 0x20 MUL PUSH1 0x20 ADD ADD MLOAD PUSH2 0x146E JUMP JUMPDEST SWAP1 POP PUSH2 0xE42 DUP6 PUSH1 0x0 ADD MLOAD DUP7 PUSH1 0x20 ADD MLOAD PUSH2 0xE14 DUP5 PUSH2 0x1536 JUMP JUMPDEST DUP6 PUSH1 0x40 ADD MLOAD PUSH2 0xE26 DUP11 PUSH1 0x40 ADD MLOAD PUSH2 0x1536 JUMP JUMPDEST DUP8 PUSH1 0x60 ADD MLOAD PUSH2 0xE38 DUP10 PUSH1 0x0 ADD MLOAD PUSH2 0x1536 JUMP JUMPDEST DUP10 PUSH1 0x20 ADD MLOAD PUSH2 0x15DB JUMP JUMPDEST PUSH2 0xE52 JUMPI PUSH1 0x1 SWAP4 POP POP POP POP PUSH2 0xE5A JUMP JUMPDEST PUSH1 0x0 SWAP4 POP POP POP POP JUMPDEST SWAP3 SWAP2 POP POP JUMP JUMPDEST PUSH2 0xE68 PUSH2 0x1B68 JUMP JUMPDEST PUSH1 0x40 MLOAD DUP1 PUSH1 0x40 ADD PUSH1 0x40 MSTORE DUP1 PUSH32 0x2F5E6AF506B96774E2925365C3321345AB256E893511FFA46ECD791A2B287B60 DUP2 MSTORE PUSH1 0x20 ADD PUSH32 0x5A0204A91BA0D8E72ECAFD94FC63EDCD0A2CCA50E7549D0D83BB0B0B000942A DUP2 MSTORE POP DUP2 PUSH1 0x0 ADD DUP2 SWAP1 MSTORE POP PUSH1 0x40 MLOAD DUP1 PUSH1 0x40 ADD PUSH1 0x40 MSTORE DUP1 PUSH1 0x40 MLOAD DUP1 PUSH1 0x40 ADD PUSH1 0x40 MSTORE DUP1 PUSH32 0xFC4D876C4B0000D6D623CCEDEFE8EA74E434F530B1DBC983368BF04934235ED DUP2 MSTORE PUSH1 0x20 ADD PUSH32 0x1FDD473EB14C6BDF4BD5657CC16142D3202F5E3BDC4154643552718D7E94010C DUP2 MSTORE POP DUP2 MSTORE PUSH1 0x20 ADD PUSH1 0x40 MLOAD DUP1 PUSH1 0x40 ADD PUSH1 0x40 MSTORE DUP1 PUSH32 0x28EA5438112033A6F687D6CC45889E190AC48E6D8531961DC40978FFB8D9D190 DUP2 MSTORE PUSH1 0x20 ADD PUSH32 0x158E624699F5391E0DC3A137F641AB56BA79D2E716606DA48F7B836A5931E810 DUP2 MSTORE POP DUP2 MSTORE POP DUP2 PUSH1 0x20 ADD DUP2 SWAP1 MSTORE POP PUSH1 0x40 MLOAD DUP1 PUSH1 0x40 ADD PUSH1 0x40 MSTORE DUP1 PUSH1 0x40 MLOAD DUP1 PUSH1 0x40 ADD PUSH1 0x40 MSTORE DUP1 PUSH32 0xB53988A08178909F759EDCD1A77EA41715AD14C7CAF6157ACD583DC41A9B310 DUP2 MSTORE PUSH1 0x20 ADD PUSH32 0x14791244C423D2BEB727A55784B31FCB5D92F0A7E192F2E3F9B7752633D56CBF DUP2 MSTORE POP DUP2 MSTORE PUSH1 0x20 ADD PUSH1 0x40 MLOAD DUP1 PUSH1 0x40 ADD PUSH1 0x40 MSTORE DUP1 PUSH32 0x1B624ABD12A5810D8D16EE53CC9CFBA66DE28FDDC0674B60B6944970C4719094 DUP2 MSTORE PUSH1 0x20 ADD PUSH32 0x9DF1760DD611DEE6DE8572575AB0B8142E7557BE61334C05B63D30DF9D08B42 DUP2 MSTORE POP DUP2 MSTORE POP DUP2 PUSH1 0x40 ADD DUP2 SWAP1 MSTORE POP PUSH1 0x40 MLOAD DUP1 PUSH1 0x40 ADD PUSH1 0x40 MSTORE DUP1 PUSH1 0x40 MLOAD DUP1 PUSH1 0x40 ADD PUSH1 0x40 MSTORE DUP1 PUSH32 0x1F74B0713025DB4DF4578D294F8B8F621810939FAC569CC7D79AD49180853776 DUP2 MSTORE PUSH1 0x20 ADD PUSH32 0x16F23C3152A8E86756A5D93344B1CE5CDEE88178D2508AD22522D1DD373260ED DUP2 MSTORE POP DUP2 MSTORE PUSH1 0x20 ADD PUSH1 0x40 MLOAD DUP1 PUSH1 0x40 ADD PUSH1 0x40 MSTORE DUP1 PUSH32 0x1034505B233386F7D899B1578CA346BC2DC0B5B000713EC6300761C70BF716B3 DUP2 MSTORE PUSH1 0x20 ADD PUSH32 0x19E53E7BD2B633E93403AFBD9A03FFD158FC363D8AF40ED1CB7DF23B339A21D5 DUP2 MSTORE POP DUP2 MSTORE POP DUP2 PUSH1 0x60 ADD DUP2 SWAP1 MSTORE POP PUSH1 0x5 PUSH8 0xFFFFFFFFFFFFFFFF DUP2 GT ISZERO PUSH2 0x112F JUMPI PUSH2 0x112E PUSH2 0x1CA1 JUMP JUMPDEST JUMPDEST PUSH1 0x40 MLOAD SWAP1 DUP1 DUP3 MSTORE DUP1 PUSH1 0x20 MUL PUSH1 0x20 ADD DUP3 ADD PUSH1 0x40 MSTORE DUP1 ISZERO PUSH2 0x1168 JUMPI DUP2 PUSH1 0x20 ADD JUMPDEST PUSH2 0x1155 PUSH2 0x1BAF JUMP JUMPDEST DUP2 MSTORE PUSH1 0x20 ADD SWAP1 PUSH1 0x1 SWAP1 SUB SWAP1 DUP2 PUSH2 0x114D JUMPI SWAP1 POP JUMPDEST POP DUP2 PUSH1 0x80 ADD DUP2 SWAP1 MSTORE POP PUSH1 0x40 MLOAD DUP1 PUSH1 0x40 ADD PUSH1 0x40 MSTORE DUP1 PUSH32 0x25BD36B30A82E6F6AC8621D99E20A8AF6CA97DA2D7B5FE880901D61E60AE1CA1 DUP2 MSTORE PUSH1 0x20 ADD PUSH32 0x20EAAA7F9FAE79F789F96DFF742170C6E5FD18C96C284D75489CD66F659E63BA DUP2 MSTORE POP DUP2 PUSH1 0x80 ADD MLOAD PUSH1 0x0 DUP2 MLOAD DUP2 LT PUSH2 0x11DE JUMPI PUSH2 0x11DD PUSH2 0x24E3 JUMP JUMPDEST JUMPDEST PUSH1 0x20 MUL PUSH1 0x20 ADD ADD DUP2 SWAP1 MSTORE POP PUSH1 0x40 MLOAD DUP1 PUSH1 0x40 ADD PUSH1 0x40 MSTORE DUP1 PUSH32 0x2B8507ACCBF4846476AAFB36DAD3C7F9694B317CF4951B1444DE897A27BB3A41 DUP2 MSTORE PUSH1 0x20 ADD PUSH32 0x154BE64C8B3B929A656048310F46EA999C243FA3931EF5FEBD675542F4B1BED2 DUP2 MSTORE POP DUP2 PUSH1 0x80 ADD MLOAD PUSH1 0x1 DUP2 MLOAD DUP2 LT PUSH2 0x1256 JUMPI PUSH2 0x1255 PUSH2 0x24E3 JUMP JUMPDEST JUMPDEST PUSH1 0x20 MUL PUSH1 0x20 ADD ADD DUP2 SWAP1 MSTORE POP PUSH1 0x40 MLOAD DUP1 PUSH1 0x40 ADD PUSH1 0x40 MSTORE DUP1 PUSH32 0x298E5732C627EED58EB7F7A58DF2AC1699FE27953E3AC249A27D24AD2A2C3F4D DUP2 MSTORE PUSH1 0x20 ADD PUSH32 0x59CC84BFD7B0FB48297CBFBD56A05248ED2819265BB9FC0079CE4F21D4E70ED DUP2 MSTORE POP DUP2 PUSH1 0x80 ADD MLOAD PUSH1 0x2 DUP2 MLOAD DUP2 LT PUSH2 0x12CE JUMPI PUSH2 0x12CD PUSH2 0x24E3 JUMP JUMPDEST JUMPDEST PUSH1 0x20 MUL PUSH1 0x20 ADD ADD DUP2 SWAP1 MSTORE POP PUSH1 0x40 MLOAD DUP1 PUSH1 0x40 ADD PUSH1 0x40 MSTORE DUP1 PUSH32 0x838C912682118E141DA1EC9EB259C180F860F28646729F361D94C94A8AA727F DUP2 MSTORE PUSH1 0x20 ADD PUSH32 0x1809DE65884E45C1229794A15468011DFC04B37AFCC2ED1FBA1FB508457E9AC DUP2 MSTORE POP DUP2 PUSH1 0x80 ADD MLOAD PUSH1 0x3 DUP2 MLOAD DUP2 LT PUSH2 0x1346 JUMPI PUSH2 0x1345 PUSH2 0x24E3 JUMP JUMPDEST JUMPDEST PUSH1 0x20 MUL PUSH1 0x20 ADD ADD DUP2 SWAP1 MSTORE POP PUSH1 0x40 MLOAD DUP1 PUSH1 0x40 ADD PUSH1 0x40 MSTORE DUP1 PUSH32 0x462CE76CC1ED5D937AEB12932B1CAFF41052F0940E8527AAFDA3D080B677BA6 DUP2 MSTORE PUSH1 0x20 ADD PUSH32 0x15B1F680BDE4E1A42EC7A624CCC1083270AECF263137602F54EF7DB91440A0DD DUP2 MSTORE POP DUP2 PUSH1 0x80 ADD MLOAD PUSH1 0x4 DUP2 MLOAD DUP2 LT PUSH2 0x13BE JUMPI PUSH2 0x13BD PUSH2 0x24E3 JUMP JUMPDEST JUMPDEST PUSH1 0x20 MUL PUSH1 0x20 ADD ADD DUP2 SWAP1 MSTORE POP SWAP1 JUMP JUMPDEST PUSH2 0x13D4 PUSH2 0x1BAF JUMP JUMPDEST PUSH2 0x13DC PUSH2 0x1BC9 JUMP JUMPDEST DUP4 PUSH1 0x0 ADD MLOAD DUP2 PUSH1 0x0 PUSH1 0x3 DUP2 LT PUSH2 0x13F5 JUMPI PUSH2 0x13F4 PUSH2 0x24E3 JUMP JUMPDEST JUMPDEST PUSH1 0x20 MUL ADD DUP2 DUP2 MSTORE POP POP DUP4 PUSH1 0x20 ADD MLOAD DUP2 PUSH1 0x1 PUSH1 0x3 DUP2 LT PUSH2 0x1417 JUMPI PUSH2 0x1416 PUSH2 0x24E3 JUMP JUMPDEST JUMPDEST PUSH1 0x20 MUL ADD DUP2 DUP2 MSTORE POP POP DUP3 DUP2 PUSH1 0x2 PUSH1 0x3 DUP2 LT PUSH2 0x1435 JUMPI PUSH2 0x1434 PUSH2 0x24E3 JUMP JUMPDEST JUMPDEST PUSH1 0x20 MUL ADD DUP2 DUP2 MSTORE POP POP PUSH1 0x0 PUSH1 0x60 DUP4 PUSH1 0x80 DUP5 PUSH1 0x7 PUSH2 0x7D0 GAS SUB STATICCALL SWAP1 POP DUP1 PUSH1 0x0 DUP2 SUB PUSH2 0x145B JUMPI INVALID JUMPDEST POP DUP1 PUSH2 0x1466 JUMPI PUSH1 0x0 DUP1 REVERT JUMPDEST POP POP SWAP3 SWAP2 POP POP JUMP JUMPDEST PUSH2 0x1476 PUSH2 0x1BAF JUMP JUMPDEST PUSH2 0x147E PUSH2 0x1BEB JUMP JUMPDEST DUP4 PUSH1 0x0 ADD MLOAD DUP2 PUSH1 0x0 PUSH1 0x4 DUP2 LT PUSH2 0x1497 JUMPI PUSH2 0x1496 PUSH2 0x24E3 JUMP JUMPDEST JUMPDEST PUSH1 0x20 MUL ADD DUP2 DUP2 MSTORE POP POP DUP4 PUSH1 0x20 ADD MLOAD DUP2 PUSH1 0x1 PUSH1 0x4 DUP2 LT PUSH2 0x14B9 JUMPI PUSH2 0x14B8 PUSH2 0x24E3 JUMP JUMPDEST JUMPDEST PUSH1 0x20 MUL ADD DUP2 DUP2 MSTORE POP POP DUP3 PUSH1 0x0 ADD MLOAD DUP2 PUSH1 0x2 PUSH1 0x4 DUP2 LT PUSH2 0x14DB JUMPI PUSH2 0x14DA PUSH2 0x24E3 JUMP JUMPDEST JUMPDEST PUSH1 0x20 MUL ADD DUP2 DUP2 MSTORE POP POP DUP3 PUSH1 0x20 ADD MLOAD DUP2 PUSH1 0x3 PUSH1 0x4 DUP2 LT PUSH2 0x14FD JUMPI PUSH2 0x14FC PUSH2 0x24E3 JUMP JUMPDEST JUMPDEST PUSH1 0x20 MUL ADD DUP2 DUP2 MSTORE POP POP PUSH1 0x0 PUSH1 0x60 DUP4 PUSH1 0xC0 DUP5 PUSH1 0x6 PUSH2 0x7D0 GAS SUB STATICCALL SWAP1 POP DUP1 PUSH1 0x0 DUP2 SUB PUSH2 0x1523 JUMPI INVALID JUMPDEST POP DUP1 PUSH2 0x152E JUMPI PUSH1 0x0 DUP1 REVERT JUMPDEST POP POP SWAP3 SWAP2 POP POP JUMP JUMPDEST PUSH2 0x153E PUSH2 0x1BAF JUMP JUMPDEST PUSH1 0x0 PUSH32 0x30644E72E131A029B85045B68181585D97816A916871CA8D3C208C16D87CFD47 SWAP1 POP PUSH1 0x0 DUP4 PUSH1 0x0 ADD MLOAD EQ DUP1 ISZERO PUSH2 0x157B JUMPI POP PUSH1 0x0 DUP4 PUSH1 0x20 ADD MLOAD EQ JUMPDEST ISZERO PUSH2 0x159F JUMPI PUSH1 0x40 MLOAD DUP1 PUSH1 0x40 ADD PUSH1 0x40 MSTORE DUP1 PUSH1 0x0 DUP2 MSTORE PUSH1 0x20 ADD PUSH1 0x0 DUP2 MSTORE POP SWAP2 POP POP PUSH2 0x15D6 JUMP JUMPDEST PUSH1 0x40 MLOAD DUP1 PUSH1 0x40 ADD PUSH1 0x40 MSTORE DUP1 DUP5 PUSH1 0x0 ADD MLOAD DUP2 MSTORE PUSH1 0x20 ADD DUP3 DUP6 PUSH1 0x20 ADD MLOAD PUSH2 0x15C4 SWAP2 SWAP1 PUSH2 0x2C1F JUMP JUMPDEST DUP4 PUSH2 0x15CF SWAP2 SWAP1 PUSH2 0x2C50 JUMP JUMPDEST DUP2 MSTORE POP SWAP2 POP POP JUMPDEST SWAP2 SWAP1 POP JUMP JUMPDEST PUSH1 0x0 DUP1 PUSH1 0x4 PUSH8 0xFFFFFFFFFFFFFFFF DUP2 GT ISZERO PUSH2 0x15F9 JUMPI PUSH2 0x15F8 PUSH2 0x1CA1 JUMP JUMPDEST JUMPDEST PUSH1 0x40 MLOAD SWAP1 DUP1 DUP3 MSTORE DUP1 PUSH1 0x20 MUL PUSH1 0x20 ADD DUP3 ADD PUSH1 0x40 MSTORE DUP1 ISZERO PUSH2 0x1632 JUMPI DUP2 PUSH1 0x20 ADD JUMPDEST PUSH2 0x161F PUSH2 0x1BAF JUMP JUMPDEST DUP2 MSTORE PUSH1 0x20 ADD SWAP1 PUSH1 0x1 SWAP1 SUB SWAP1 DUP2 PUSH2 0x1617 JUMPI SWAP1 POP JUMPDEST POP SWAP1 POP PUSH1 0x0 PUSH1 0x4 PUSH8 0xFFFFFFFFFFFFFFFF DUP2 GT ISZERO PUSH2 0x1652 JUMPI PUSH2 0x1651 PUSH2 0x1CA1 JUMP JUMPDEST JUMPDEST PUSH1 0x40 MLOAD SWAP1 DUP1 DUP3 MSTORE DUP1 PUSH1 0x20 MUL PUSH1 0x20 ADD DUP3 ADD PUSH1 0x40 MSTORE DUP1 ISZERO PUSH2 0x168B JUMPI DUP2 PUSH1 0x20 ADD JUMPDEST PUSH2 0x1678 PUSH2 0x1C0D JUMP JUMPDEST DUP2 MSTORE PUSH1 0x20 ADD SWAP1 PUSH1 0x1 SWAP1 SUB SWAP1 DUP2 PUSH2 0x1670 JUMPI SWAP1 POP JUMPDEST POP SWAP1 POP DUP11 DUP3 PUSH1 0x0 DUP2 MLOAD DUP2 LT PUSH2 0x16A3 JUMPI PUSH2 0x16A2 PUSH2 0x24E3 JUMP JUMPDEST JUMPDEST PUSH1 0x20 MUL PUSH1 0x20 ADD ADD DUP2 SWAP1 MSTORE POP DUP9 DUP3 PUSH1 0x1 DUP2 MLOAD DUP2 LT PUSH2 0x16C3 JUMPI PUSH2 0x16C2 PUSH2 0x24E3 JUMP JUMPDEST JUMPDEST PUSH1 0x20 MUL PUSH1 0x20 ADD ADD DUP2 SWAP1 MSTORE POP DUP7 DUP3 PUSH1 0x2 DUP2 MLOAD DUP2 LT PUSH2 0x16E3 JUMPI PUSH2 0x16E2 PUSH2 0x24E3 JUMP JUMPDEST JUMPDEST PUSH1 0x20 MUL PUSH1 0x20 ADD ADD DUP2 SWAP1 MSTORE POP DUP5 DUP3 PUSH1 0x3 DUP2 MLOAD DUP2 LT PUSH2 0x1703 JUMPI PUSH2 0x1702 PUSH2 0x24E3 JUMP JUMPDEST JUMPDEST PUSH1 0x20 MUL PUSH1 0x20 ADD ADD DUP2 SWAP1 MSTORE POP DUP10 DUP2 PUSH1 0x0 DUP2 MLOAD DUP2 LT PUSH2 0x1723 JUMPI PUSH2 0x1722 PUSH2 0x24E3 JUMP JUMPDEST JUMPDEST PUSH1 0x20 MUL PUSH1 0x20 ADD ADD DUP2 SWAP1 MSTORE POP DUP8 DUP2 PUSH1 0x1 DUP2 MLOAD DUP2 LT PUSH2 0x1743 JUMPI PUSH2 0x1742 PUSH2 0x24E3 JUMP JUMPDEST JUMPDEST PUSH1 0x20 MUL PUSH1 0x20 ADD ADD DUP2 SWAP1 MSTORE POP DUP6 DUP2 PUSH1 0x2 DUP2 MLOAD DUP2 LT PUSH2 0x1763 JUMPI PUSH2 0x1762 PUSH2 0x24E3 JUMP JUMPDEST JUMPDEST PUSH1 0x20 MUL PUSH1 0x20 ADD ADD DUP2 SWAP1 MSTORE POP DUP4 DUP2 PUSH1 0x3 DUP2 MLOAD DUP2 LT PUSH2 0x1783 JUMPI PUSH2 0x1782 PUSH2 0x24E3 JUMP JUMPDEST JUMPDEST PUSH1 0x20 MUL PUSH1 0x20 ADD ADD DUP2 SWAP1 MSTORE POP PUSH2 0x1798 DUP3 DUP3 PUSH2 0x17A8 JUMP JUMPDEST SWAP3 POP POP POP SWAP9 SWAP8 POP POP POP POP POP POP POP POP JUMP JUMPDEST PUSH1 0x0 DUP2 MLOAD DUP4 MLOAD EQ PUSH2 0x17B8 JUMPI PUSH1 0x0 DUP1 REVERT JUMPDEST PUSH1 0x0 DUP4 MLOAD SWAP1 POP PUSH1 0x0 PUSH1 0x6 DUP3 PUSH2 0x17CD SWAP2 SWAP1 PUSH2 0x2B7A JUMP JUMPDEST SWAP1 POP PUSH1 0x0 DUP2 PUSH8 0xFFFFFFFFFFFFFFFF DUP2 GT ISZERO PUSH2 0x17EB JUMPI PUSH2 0x17EA PUSH2 0x1CA1 JUMP JUMPDEST JUMPDEST PUSH1 0x40 MLOAD SWAP1 DUP1 DUP3 MSTORE DUP1 PUSH1 0x20 MUL PUSH1 0x20 ADD DUP3 ADD PUSH1 0x40 MSTORE DUP1 ISZERO PUSH2 0x1819 JUMPI DUP2 PUSH1 0x20 ADD PUSH1 0x20 DUP3 MUL DUP1 CALLDATASIZE DUP4 CALLDATACOPY DUP1 DUP3 ADD SWAP2 POP POP SWAP1 POP JUMPDEST POP SWAP1 POP PUSH1 0x0 JUMPDEST DUP4 DUP2 LT ISZERO PUSH2 0x1A98 JUMPI DUP7 DUP2 DUP2 MLOAD DUP2 LT PUSH2 0x183A JUMPI PUSH2 0x1839 PUSH2 0x24E3 JUMP JUMPDEST JUMPDEST PUSH1 0x20 MUL PUSH1 0x20 ADD ADD MLOAD PUSH1 0x0 ADD MLOAD DUP3 PUSH1 0x0 PUSH1 0x6 DUP5 PUSH2 0x1856 SWAP2 SWAP1 PUSH2 0x2B7A JUMP JUMPDEST PUSH2 0x1860 SWAP2 SWAP1 PUSH2 0x2BBC JUMP JUMPDEST DUP2 MLOAD DUP2 LT PUSH2 0x1871 JUMPI PUSH2 0x1870 PUSH2 0x24E3 JUMP JUMPDEST JUMPDEST PUSH1 0x20 MUL PUSH1 0x20 ADD ADD DUP2 DUP2 MSTORE POP POP DUP7 DUP2 DUP2 MLOAD DUP2 LT PUSH2 0x1890 JUMPI PUSH2 0x188F PUSH2 0x24E3 JUMP JUMPDEST JUMPDEST PUSH1 0x20 MUL PUSH1 0x20 ADD ADD MLOAD PUSH1 0x20 ADD MLOAD DUP3 PUSH1 0x1 PUSH1 0x6 DUP5 PUSH2 0x18AC SWAP2 SWAP1 PUSH2 0x2B7A JUMP JUMPDEST PUSH2 0x18B6 SWAP2 SWAP1 PUSH2 0x2BBC JUMP JUMPDEST DUP2 MLOAD DUP2 LT PUSH2 0x18C7 JUMPI PUSH2 0x18C6 PUSH2 0x24E3 JUMP JUMPDEST JUMPDEST PUSH1 0x20 MUL PUSH1 0x20 ADD ADD DUP2 DUP2 MSTORE POP POP DUP6 DUP2 DUP2 MLOAD DUP2 LT PUSH2 0x18E6 JUMPI PUSH2 0x18E5 PUSH2 0x24E3 JUMP JUMPDEST JUMPDEST PUSH1 0x20 MUL PUSH1 0x20 ADD ADD MLOAD PUSH1 0x0 ADD MLOAD PUSH1 0x1 PUSH1 0x2 DUP2 LT PUSH2 0x1905 JUMPI PUSH2 0x1904 PUSH2 0x24E3 JUMP JUMPDEST JUMPDEST PUSH1 0x20 MUL ADD MLOAD DUP3 PUSH1 0x2 PUSH1 0x6 DUP5 PUSH2 0x191A SWAP2 SWAP1 PUSH2 0x2B7A JUMP JUMPDEST PUSH2 0x1924 SWAP2 SWAP1 PUSH2 0x2BBC JUMP JUMPDEST DUP2 MLOAD DUP2 LT PUSH2 0x1935 JUMPI PUSH2 0x1934 PUSH2 0x24E3 JUMP JUMPDEST JUMPDEST PUSH1 0x20 MUL PUSH1 0x20 ADD ADD DUP2 DUP2 MSTORE POP POP DUP6 DUP2 DUP2 MLOAD DUP2 LT PUSH2 0x1954 JUMPI PUSH2 0x1953 PUSH2 0x24E3 JUMP JUMPDEST JUMPDEST PUSH1 0x20 MUL PUSH1 0x20 ADD ADD MLOAD PUSH1 0x0 ADD MLOAD PUSH1 0x0 PUSH1 0x2 DUP2 LT PUSH2 0x1973 JUMPI PUSH2 0x1972 PUSH2 0x24E3 JUMP JUMPDEST JUMPDEST PUSH1 0x20 MUL ADD MLOAD DUP3 PUSH1 0x3 PUSH1 0x6 DUP5 PUSH2 0x1988 SWAP2 SWAP1 PUSH2 0x2B7A JUMP JUMPDEST PUSH2 0x1992 SWAP2 SWAP1 PUSH2 0x2BBC JUMP JUMPDEST DUP2 MLOAD DUP2 LT PUSH2 0x19A3 JUMPI PUSH2 0x19A2 PUSH2 0x24E3 JUMP JUMPDEST JUMPDEST PUSH1 0x20 MUL PUSH1 0x20 ADD ADD DUP2 DUP2 MSTORE POP POP DUP6 DUP2 DUP2 MLOAD DUP2 LT PUSH2 0x19C2 JUMPI PUSH2 0x19C1 PUSH2 0x24E3 JUMP JUMPDEST JUMPDEST PUSH1 0x20 MUL PUSH1 0x20 ADD ADD MLOAD PUSH1 0x20 ADD MLOAD PUSH1 0x1 PUSH1 0x2 DUP2 LT PUSH2 0x19E1 JUMPI PUSH2 0x19E0 PUSH2 0x24E3 JUMP JUMPDEST JUMPDEST PUSH1 0x20 MUL ADD MLOAD DUP3 PUSH1 0x4 PUSH1 0x6 DUP5 PUSH2 0x19F6 SWAP2 SWAP1 PUSH2 0x2B7A JUMP JUMPDEST PUSH2 0x1A00 SWAP2 SWAP1 PUSH2 0x2BBC JUMP JUMPDEST DUP2 MLOAD DUP2 LT PUSH2 0x1A11 JUMPI PUSH2 0x1A10 PUSH2 0x24E3 JUMP JUMPDEST JUMPDEST PUSH1 0x20 MUL PUSH1 0x20 ADD ADD DUP2 DUP2 MSTORE POP POP DUP6 DUP2 DUP2 MLOAD DUP2 LT PUSH2 0x1A30 JUMPI PUSH2 0x1A2F PUSH2 0x24E3 JUMP JUMPDEST JUMPDEST PUSH1 0x20 MUL PUSH1 0x20 ADD ADD MLOAD PUSH1 0x20 ADD MLOAD PUSH1 0x0 PUSH1 0x2 DUP2 LT PUSH2 0x1A4F JUMPI PUSH2 0x1A4E PUSH2 0x24E3 JUMP JUMPDEST JUMPDEST PUSH1 0x20 MUL ADD MLOAD DUP3 PUSH1 0x5 PUSH1 0x6 DUP5 PUSH2 0x1A64 SWAP2 SWAP1 PUSH2 0x2B7A JUMP JUMPDEST PUSH2 0x1A6E SWAP2 SWAP1 PUSH2 0x2BBC JUMP JUMPDEST DUP2 MLOAD DUP2 LT PUSH2 0x1A7F JUMPI PUSH2 0x1A7E PUSH2 0x24E3 JUMP JUMPDEST JUMPDEST PUSH1 0x20 MUL PUSH1 0x20 ADD ADD DUP2 DUP2 MSTORE POP POP DUP1 DUP1 PUSH1 0x1 ADD SWAP2 POP POP PUSH2 0x181F JUMP JUMPDEST POP PUSH2 0x1AA1 PUSH2 0x1C33 JUMP JUMPDEST PUSH1 0x0 PUSH1 0x20 DUP3 PUSH1 0x20 DUP7 MUL PUSH1 0x20 DUP7 ADD PUSH1 0x8 PUSH2 0x7D0 GAS SUB STATICCALL SWAP1 POP DUP1 PUSH1 0x0 DUP2 SUB PUSH2 0x1AC3 JUMPI INVALID JUMPDEST POP DUP1 PUSH2 0x1ACE JUMPI PUSH1 0x0 DUP1 REVERT JUMPDEST PUSH1 0x0 DUP3 PUSH1 0x0 PUSH1 0x1 DUP2 LT PUSH2 0x1AE4 JUMPI PUSH2 0x1AE3 PUSH2 0x24E3 JUMP JUMPDEST JUMPDEST PUSH1 0x20 MUL ADD MLOAD EQ ISZERO SWAP6 POP POP POP POP POP POP SWAP3 SWAP2 POP POP JUMP JUMPDEST DUP3 PUSH1 0x2 DUP2 ADD SWAP3 DUP3 ISZERO PUSH2 0x1B27 JUMPI SWAP2 PUSH1 0x20 MUL DUP3 ADD JUMPDEST DUP3 DUP2 GT ISZERO PUSH2 0x1B26 JUMPI DUP3 MLOAD DUP3 SSTORE SWAP2 PUSH1 0x20 ADD SWAP2 SWAP1 PUSH1 0x1 ADD SWAP1 PUSH2 0x1B0B JUMP JUMPDEST JUMPDEST POP SWAP1 POP PUSH2 0x1B34 SWAP2 SWAP1 PUSH2 0x1C55 JUMP JUMPDEST POP SWAP1 JUMP JUMPDEST PUSH1 0x40 MLOAD DUP1 PUSH1 0x40 ADD PUSH1 0x40 MSTORE DUP1 PUSH1 0x2 SWAP1 PUSH1 0x20 DUP3 MUL DUP1 CALLDATASIZE DUP4 CALLDATACOPY DUP1 DUP3 ADD SWAP2 POP POP SWAP1 POP POP SWAP1 JUMP JUMPDEST POP PUSH1 0x0 DUP2 SSTORE PUSH1 0x1 ADD PUSH1 0x0 SWAP1 SSTORE JUMP JUMPDEST PUSH1 0x40 MLOAD DUP1 PUSH1 0xA0 ADD PUSH1 0x40 MSTORE DUP1 PUSH2 0x1B7B PUSH2 0x1BAF JUMP JUMPDEST DUP2 MSTORE PUSH1 0x20 ADD PUSH2 0x1B88 PUSH2 0x1C0D JUMP JUMPDEST DUP2 MSTORE PUSH1 0x20 ADD PUSH2 0x1B95 PUSH2 0x1C0D JUMP JUMPDEST DUP2 MSTORE PUSH1 0x20 ADD PUSH2 0x1BA2 PUSH2 0x1C0D JUMP JUMPDEST DUP2 MSTORE PUSH1 0x20 ADD PUSH1 0x60 DUP2 MSTORE POP SWAP1 JUMP JUMPDEST PUSH1 0x40 MLOAD DUP1 PUSH1 0x40 ADD PUSH1 0x40 MSTORE DUP1 PUSH1 0x0 DUP2 MSTORE PUSH1 0x20 ADD PUSH1 0x0 DUP2 MSTORE POP SWAP1 JUMP JUMPDEST PUSH1 0x40 MLOAD DUP1 PUSH1 0x60 ADD PUSH1 0x40 MSTORE DUP1 PUSH1 0x3 SWAP1 PUSH1 0x20 DUP3 MUL DUP1 CALLDATASIZE DUP4 CALLDATACOPY DUP1 DUP3 ADD SWAP2 POP POP SWAP1 POP POP SWAP1 JUMP JUMPDEST PUSH1 0x40 MLOAD DUP1 PUSH1 0x80 ADD PUSH1 0x40 MSTORE DUP1 PUSH1 0x4 SWAP1 PUSH1 0x20 DUP3 MUL DUP1 CALLDATASIZE DUP4 CALLDATACOPY DUP1 DUP3 ADD SWAP2 POP POP SWAP1 POP POP SWAP1 JUMP JUMPDEST PUSH1 0x40 MLOAD DUP1 PUSH1 0x40 ADD PUSH1 0x40 MSTORE DUP1 PUSH2 0x1C20 PUSH2 0x1B38 JUMP JUMPDEST DUP2 MSTORE PUSH1 0x20 ADD PUSH2 0x1C2D PUSH2 0x1B38 JUMP JUMPDEST DUP2 MSTORE POP SWAP1 JUMP JUMPDEST PUSH1 0x40 MLOAD DUP1 PUSH1 0x20 ADD PUSH1 0x40 MSTORE DUP1 PUSH1 0x1 SWAP1 PUSH1 0x20 DUP3 MUL DUP1 CALLDATASIZE DUP4 CALLDATACOPY DUP1 DUP3 ADD SWAP2 POP POP SWAP1 POP POP SWAP1 JUMP JUMPDEST JUMPDEST DUP1 DUP3 GT ISZERO PUSH2 0x1C6E JUMPI PUSH1 0x0 DUP2 PUSH1 0x0 SWAP1 SSTORE POP PUSH1 0x1 ADD PUSH2 0x1C56 JUMP JUMPDEST POP SWAP1 JUMP JUMPDEST PUSH1 0x0 PUSH1 0x40 MLOAD SWAP1 POP SWAP1 JUMP JUMPDEST PUSH1 0x0 DUP1 REVERT JUMPDEST PUSH1 0x0 DUP1 REVERT JUMPDEST PUSH1 0x0 DUP1 REVERT JUMPDEST PUSH1 0x0 DUP1 REVERT JUMPDEST PUSH1 0x0 PUSH1 0x1F NOT PUSH1 0x1F DUP4 ADD AND SWAP1 POP SWAP2 SWAP1 POP JUMP JUMPDEST PUSH32 0x4E487B7100000000000000000000000000000000000000000000000000000000 PUSH1 0x0 MSTORE PUSH1 0x41 PUSH1 0x4 MSTORE PUSH1 0x24 PUSH1 0x0 REVERT JUMPDEST PUSH2 0x1CD9 DUP3 PUSH2 0x1C90 JUMP JUMPDEST DUP2 ADD DUP2 DUP2 LT PUSH8 0xFFFFFFFFFFFFFFFF DUP3 GT OR ISZERO PUSH2 0x1CF8 JUMPI PUSH2 0x1CF7 PUSH2 0x1CA1 JUMP JUMPDEST JUMPDEST DUP1 PUSH1 0x40 MSTORE POP POP POP JUMP JUMPDEST PUSH1 0x0 PUSH2 0x1D0B PUSH2 0x1C72 JUMP JUMPDEST SWAP1 POP PUSH2 0x1D17 DUP3 DUP3 PUSH2 0x1CD0 JUMP JUMPDEST SWAP2 SWAP1 POP JUMP JUMPDEST PUSH1 0x0 PUSH8 0xFFFFFFFFFFFFFFFF DUP3 GT ISZERO PUSH2 0x1D37 JUMPI PUSH2 0x1D36 PUSH2 0x1CA1 JUMP JUMPDEST JUMPDEST PUSH2 0x1D40 DUP3 PUSH2 0x1C90 JUMP JUMPDEST SWAP1 POP PUSH1 0x20 DUP2 ADD SWAP1 POP SWAP2 SWAP1 POP JUMP JUMPDEST DUP3 DUP2 DUP4 CALLDATACOPY PUSH1 0x0 DUP4 DUP4 ADD MSTORE POP POP POP JUMP JUMPDEST PUSH1 0x0 PUSH2 0x1D6F PUSH2 0x1D6A DUP5 PUSH2 0x1D1C JUMP JUMPDEST PUSH2 0x1D01 JUMP JUMPDEST SWAP1 POP DUP3 DUP2 MSTORE PUSH1 0x20 DUP2 ADD DUP5 DUP5 DUP5 ADD GT ISZERO PUSH2 0x1D8B JUMPI PUSH2 0x1D8A PUSH2 0x1C8B JUMP JUMPDEST JUMPDEST PUSH2 0x1D96 DUP5 DUP3 DUP6 PUSH2 0x1D4D JUMP JUMPDEST POP SWAP4 SWAP3 POP POP POP JUMP JUMPDEST PUSH1 0x0 DUP3 PUSH1 0x1F DUP4 ADD SLT PUSH2 0x1DB3 JUMPI PUSH2 0x1DB2 PUSH2 0x1C86 JUMP JUMPDEST JUMPDEST DUP2 CALLDATALOAD PUSH2 0x1DC3 DUP5 DUP3 PUSH1 0x20 DUP7 ADD PUSH2 0x1D5C JUMP JUMPDEST SWAP2 POP POP SWAP3 SWAP2 POP POP JUMP JUMPDEST PUSH1 0x0 PUSH1 0x20 DUP3 DUP5 SUB SLT ISZERO PUSH2 0x1DE2 JUMPI PUSH2 0x1DE1 PUSH2 0x1C7C JUMP JUMPDEST JUMPDEST PUSH1 0x0 DUP3 ADD CALLDATALOAD PUSH8 0xFFFFFFFFFFFFFFFF DUP2 GT ISZERO PUSH2 0x1E00 JUMPI PUSH2 0x1DFF PUSH2 0x1C81 JUMP JUMPDEST JUMPDEST PUSH2 0x1E0C DUP5 DUP3 DUP6 ADD PUSH2 0x1D9E JUMP JUMPDEST SWAP2 POP POP SWAP3 SWAP2 POP POP JUMP JUMPDEST PUSH1 0x0 DUP2 MLOAD SWAP1 POP SWAP2 SWAP1 POP JUMP JUMPDEST PUSH1 0x0 DUP3 DUP3 MSTORE PUSH1 0x20 DUP3 ADD SWAP1 POP SWAP3 SWAP2 POP POP JUMP JUMPDEST PUSH1 0x0 JUMPDEST DUP4 DUP2 LT ISZERO PUSH2 0x1E4F JUMPI DUP1 DUP3 ADD MLOAD DUP2 DUP5 ADD MSTORE PUSH1 0x20 DUP2 ADD SWAP1 POP PUSH2 0x1E34 JUMP JUMPDEST PUSH1 0x0 DUP5 DUP5 ADD MSTORE POP POP POP POP JUMP JUMPDEST PUSH1 0x0 PUSH2 0x1E66 DUP3 PUSH2 0x1E15 JUMP JUMPDEST PUSH2 0x1E70 DUP2 DUP6 PUSH2 0x1E20 JUMP JUMPDEST SWAP4 POP PUSH2 0x1E80 DUP2 DUP6 PUSH1 0x20 DUP7 ADD PUSH2 0x1E31 JUMP JUMPDEST PUSH2 0x1E89 DUP2 PUSH2 0x1C90 JUMP JUMPDEST DUP5 ADD SWAP2 POP POP SWAP3 SWAP2 POP POP JUMP JUMPDEST PUSH1 0x0 PUSH1 0x20 DUP3 ADD SWAP1 POP DUP2 DUP2 SUB PUSH1 0x0 DUP4 ADD MSTORE PUSH2 0x1EAE DUP2 DUP5 PUSH2 0x1E5B JUMP JUMPDEST SWAP1 POP SWAP3 SWAP2 POP POP JUMP JUMPDEST PUSH1 0x0 DUP1 REVERT JUMPDEST PUSH1 0x0 DUP2 SWAP1 POP SWAP2 SWAP1 POP JUMP JUMPDEST PUSH2 0x1ECE DUP2 PUSH2 0x1EBB JUMP JUMPDEST DUP2 EQ PUSH2 0x1ED9 JUMPI PUSH1 0x0 DUP1 REVERT JUMPDEST POP JUMP JUMPDEST PUSH1 0x0 DUP2 CALLDATALOAD SWAP1 POP PUSH2 0x1EEB DUP2 PUSH2 0x1EC5 JUMP JUMPDEST SWAP3 SWAP2 POP POP JUMP JUMPDEST PUSH1 0x0 PUSH1 0x40 DUP3 DUP5 SUB SLT ISZERO PUSH2 0x1F07 JUMPI PUSH2 0x1F06 PUSH2 0x1EB6 JUMP JUMPDEST JUMPDEST PUSH2 0x1F11 PUSH1 0x40 PUSH2 0x1D01 JUMP JUMPDEST SWAP1 POP PUSH1 0x0 PUSH2 0x1F21 DUP5 DUP3 DUP6 ADD PUSH2 0x1EDC JUMP JUMPDEST PUSH1 0x0 DUP4 ADD MSTORE POP PUSH1 0x20 PUSH2 0x1F35 DUP5 DUP3 DUP6 ADD PUSH2 0x1EDC JUMP JUMPDEST PUSH1 0x20 DUP4 ADD MSTORE POP SWAP3 SWAP2 POP POP JUMP JUMPDEST PUSH1 0x0 PUSH8 0xFFFFFFFFFFFFFFFF DUP3 GT ISZERO PUSH2 0x1F5C JUMPI PUSH2 0x1F5B PUSH2 0x1CA1 JUMP JUMPDEST JUMPDEST PUSH1 0x20 DUP3 MUL SWAP1 POP SWAP2 SWAP1 POP JUMP JUMPDEST PUSH1 0x0 DUP1 REVERT JUMPDEST PUSH1 0x0 PUSH2 0x1F7F PUSH2 0x1F7A DUP5 PUSH2 0x1F41 JUMP JUMPDEST PUSH2 0x1D01 JUMP JUMPDEST SWAP1 POP DUP1 PUSH1 0x20 DUP5 MUL DUP4 ADD DUP6 DUP2 GT ISZERO PUSH2 0x1F99 JUMPI PUSH2 0x1F98 PUSH2 0x1F67 JUMP JUMPDEST JUMPDEST DUP4 JUMPDEST DUP2 DUP2 LT ISZERO PUSH2 0x1FC2 JUMPI DUP1 PUSH2 0x1FAE DUP9 DUP3 PUSH2 0x1EDC JUMP JUMPDEST DUP5 MSTORE PUSH1 0x20 DUP5 ADD SWAP4 POP POP PUSH1 0x20 DUP2 ADD SWAP1 POP PUSH2 0x1F9B JUMP JUMPDEST POP POP POP SWAP4 SWAP3 POP POP POP JUMP JUMPDEST PUSH1 0x0 DUP3 PUSH1 0x1F DUP4 ADD SLT PUSH2 0x1FE1 JUMPI PUSH2 0x1FE0 PUSH2 0x1C86 JUMP JUMPDEST JUMPDEST PUSH1 0x2 PUSH2 0x1FEE DUP5 DUP3 DUP6 PUSH2 0x1F6C JUMP JUMPDEST SWAP2 POP POP SWAP3 SWAP2 POP POP JUMP JUMPDEST PUSH1 0x0 PUSH1 0x80 DUP3 DUP5 SUB SLT ISZERO PUSH2 0x200D JUMPI PUSH2 0x200C PUSH2 0x1EB6 JUMP JUMPDEST JUMPDEST PUSH2 0x2017 PUSH1 0x40 PUSH2 0x1D01 JUMP JUMPDEST SWAP1 POP PUSH1 0x0 PUSH2 0x2027 DUP5 DUP3 DUP6 ADD PUSH2 0x1FCC JUMP JUMPDEST PUSH1 0x0 DUP4 ADD MSTORE POP PUSH1 0x40 PUSH2 0x203B DUP5 DUP3 DUP6 ADD PUSH2 0x1FCC JUMP JUMPDEST PUSH1 0x20 DUP4 ADD MSTORE POP SWAP3 SWAP2 POP POP JUMP JUMPDEST PUSH1 0x0 PUSH2 0x100 DUP3 DUP5 SUB SLT ISZERO PUSH2 0x205E JUMPI PUSH2 0x205D PUSH2 0x1EB6 JUMP JUMPDEST JUMPDEST PUSH2 0x2068 PUSH1 0x60 PUSH2 0x1D01 JUMP JUMPDEST SWAP1 POP PUSH1 0x0 PUSH2 0x2078 DUP5 DUP3 DUP6 ADD PUSH2 0x1EF1 JUMP JUMPDEST PUSH1 0x0 DUP4 ADD MSTORE POP PUSH1 0x40 PUSH2 0x208C DUP5 DUP3 DUP6 ADD PUSH2 0x1FF7 JUMP JUMPDEST PUSH1 0x20 DUP4 ADD MSTORE POP PUSH1 0xC0 PUSH2 0x20A0 DUP5 DUP3 DUP6 ADD PUSH2 0x1EF1 JUMP JUMPDEST PUSH1 0x40 DUP4 ADD MSTORE POP SWAP3 SWAP2 POP POP JUMP JUMPDEST PUSH1 0x0 PUSH8 0xFFFFFFFFFFFFFFFF DUP3 GT ISZERO PUSH2 0x20C7 JUMPI PUSH2 0x20C6 PUSH2 0x1CA1 JUMP JUMPDEST JUMPDEST PUSH1 0x20 DUP3 MUL SWAP1 POP SWAP2 SWAP1 POP JUMP JUMPDEST PUSH1 0x0 PUSH2 0x20E5 PUSH2 0x20E0 DUP5 PUSH2 0x20AC JUMP JUMPDEST PUSH2 0x1D01 JUMP JUMPDEST SWAP1 POP DUP1 PUSH1 0x20 DUP5 MUL DUP4 ADD DUP6 DUP2 GT ISZERO PUSH2 0x20FF JUMPI PUSH2 0x20FE PUSH2 0x1F67 JUMP JUMPDEST JUMPDEST DUP4 JUMPDEST DUP2 DUP2 LT ISZERO PUSH2 0x2128 JUMPI DUP1 PUSH2 0x2114 DUP9 DUP3 PUSH2 0x1EDC JUMP JUMPDEST DUP5 MSTORE PUSH1 0x20 DUP5 ADD SWAP4 POP POP PUSH1 0x20 DUP2 ADD SWAP1 POP PUSH2 0x2101 JUMP JUMPDEST POP POP POP SWAP4 SWAP3 POP POP POP JUMP JUMPDEST PUSH1 0x0 DUP3 PUSH1 0x1F DUP4 ADD SLT PUSH2 0x2147 JUMPI PUSH2 0x2146 PUSH2 0x1C86 JUMP JUMPDEST JUMPDEST PUSH1 0x4 PUSH2 0x2154 DUP5 DUP3 DUP6 PUSH2 0x20D2 JUMP JUMPDEST SWAP2 POP POP SWAP3 SWAP2 POP POP JUMP JUMPDEST PUSH1 0x0 DUP1 PUSH1 0x0 PUSH2 0x1A0 DUP5 DUP7 SUB SLT ISZERO PUSH2 0x2177 JUMPI PUSH2 0x2176 PUSH2 0x1C7C JUMP JUMPDEST JUMPDEST PUSH1 0x0 DUP5 ADD CALLDATALOAD PUSH8 0xFFFFFFFFFFFFFFFF DUP2 GT ISZERO PUSH2 0x2195 JUMPI PUSH2 0x2194 PUSH2 0x1C81 JUMP JUMPDEST JUMPDEST PUSH2 0x21A1 DUP7 DUP3 DUP8 ADD PUSH2 0x1D9E JUMP JUMPDEST SWAP4 POP POP PUSH1 0x20 PUSH2 0x21B2 DUP7 DUP3 DUP8 ADD PUSH2 0x2047 JUMP JUMPDEST SWAP3 POP POP PUSH2 0x120 PUSH2 0x21C4 DUP7 DUP3 DUP8 ADD PUSH2 0x2132 JUMP JUMPDEST SWAP2 POP POP SWAP3 POP SWAP3 POP SWAP3 JUMP JUMPDEST PUSH1 0x0 DUP1 PUSH2 0x180 DUP4 DUP6 SUB SLT ISZERO PUSH2 0x21E6 JUMPI PUSH2 0x21E5 PUSH2 0x1C7C JUMP JUMPDEST JUMPDEST PUSH1 0x0 PUSH2 0x21F4 DUP6 DUP3 DUP7 ADD PUSH2 0x2047 JUMP JUMPDEST SWAP3 POP POP PUSH2 0x100 PUSH2 0x2206 DUP6 DUP3 DUP7 ADD PUSH2 0x2132 JUMP JUMPDEST SWAP2 POP POP SWAP3 POP SWAP3 SWAP1 POP JUMP JUMPDEST PUSH1 0x0 DUP2 ISZERO ISZERO SWAP1 POP SWAP2 SWAP1 POP JUMP JUMPDEST PUSH2 0x2225 DUP2 PUSH2 0x2210 JUMP JUMPDEST DUP3 MSTORE POP POP JUMP JUMPDEST PUSH1 0x0 PUSH1 0x20 DUP3 ADD SWAP1 POP PUSH2 0x2240 PUSH1 0x0 DUP4 ADD DUP5 PUSH2 0x221C JUMP JUMPDEST SWAP3 SWAP2 POP POP JUMP JUMPDEST PUSH1 0x0 PUSH1 0x2 SWAP1 POP SWAP2 SWAP1 POP JUMP JUMPDEST PUSH1 0x0 DUP2 SWAP1 POP SWAP3 SWAP2 POP POP JUMP JUMPDEST PUSH1 0x0 DUP2 SWAP1 POP SWAP2 SWAP1 POP JUMP JUMPDEST PUSH2 0x226F DUP2 PUSH2 0x1EBB JUMP JUMPDEST DUP3 MSTORE POP POP JUMP JUMPDEST PUSH1 0x0 PUSH2 0x2281 DUP4 DUP4 PUSH2 0x2266 JUMP JUMPDEST PUSH1 0x20 DUP4 ADD SWAP1 POP SWAP3 SWAP2 POP POP JUMP JUMPDEST PUSH1 0x0 PUSH1 0x20 DUP3 ADD SWAP1 POP SWAP2 SWAP1 POP JUMP JUMPDEST PUSH2 0x22A3 DUP2 PUSH2 0x2246 JUMP JUMPDEST PUSH2 0x22AD DUP2 DUP5 PUSH2 0x2251 JUMP JUMPDEST SWAP3 POP PUSH2 0x22B8 DUP3 PUSH2 0x225C JUMP JUMPDEST DUP1 PUSH1 0x0 JUMPDEST DUP4 DUP2 LT ISZERO PUSH2 0x22E9 JUMPI DUP2 MLOAD PUSH2 0x22D0 DUP8 DUP3 PUSH2 0x2275 JUMP JUMPDEST SWAP7 POP PUSH2 0x22DB DUP4 PUSH2 0x228D JUMP JUMPDEST SWAP3 POP POP PUSH1 0x1 DUP2 ADD SWAP1 POP PUSH2 0x22BC JUMP JUMPDEST POP POP POP POP POP POP JUMP JUMPDEST PUSH1 0x0 PUSH1 0x40 DUP3 ADD SWAP1 POP PUSH2 0x2306 PUSH1 0x0 DUP4 ADD DUP5 PUSH2 0x229A JUMP JUMPDEST SWAP3 SWAP2 POP POP JUMP JUMPDEST PUSH1 0x0 DUP2 SWAP1 POP SWAP3 SWAP2 POP POP JUMP JUMPDEST PUSH1 0x0 PUSH2 0x2322 DUP3 PUSH2 0x1E15 JUMP JUMPDEST PUSH2 0x232C DUP2 DUP6 PUSH2 0x230C JUMP JUMPDEST SWAP4 POP PUSH2 0x233C DUP2 DUP6 PUSH1 0x20 DUP7 ADD PUSH2 0x1E31 JUMP JUMPDEST DUP1 DUP5 ADD SWAP2 POP POP SWAP3 SWAP2 POP POP JUMP JUMPDEST PUSH1 0x0 PUSH2 0x2354 DUP3 DUP5 PUSH2 0x2317 JUMP JUMPDEST SWAP2 POP DUP2 SWAP1 POP SWAP3 SWAP2 POP POP JUMP JUMPDEST PUSH32 0x4E487B7100000000000000000000000000000000000000000000000000000000 PUSH1 0x0 MSTORE PUSH1 0x22 PUSH1 0x4 MSTORE PUSH1 0x24 PUSH1 0x0 REVERT JUMPDEST PUSH1 0x0 PUSH1 0x2 DUP3 DIV SWAP1 POP PUSH1 0x1 DUP3 AND DUP1 PUSH2 0x23A6 JUMPI PUSH1 0x7F DUP3 AND SWAP2 POP JUMPDEST PUSH1 0x20 DUP3 LT DUP2 SUB PUSH2 0x23B9 JUMPI PUSH2 0x23B8 PUSH2 0x235F JUMP JUMPDEST JUMPDEST POP SWAP2 SWAP1 POP JUMP JUMPDEST PUSH32 0x6E65774964656E7469747920697320616C72656164792070617274206F662072 PUSH1 0x0 DUP3 ADD MSTORE PUSH32 0x656769737465726564206964656E746974696573000000000000000000000000 PUSH1 0x20 DUP3 ADD MSTORE POP JUMP JUMPDEST PUSH1 0x0 PUSH2 0x241B PUSH1 0x34 DUP4 PUSH2 0x1E20 JUMP JUMPDEST SWAP2 POP PUSH2 0x2426 DUP3 PUSH2 0x23BF JUMP JUMPDEST PUSH1 0x40 DUP3 ADD SWAP1 POP SWAP2 SWAP1 POP JUMP JUMPDEST PUSH1 0x0 PUSH1 0x20 DUP3 ADD SWAP1 POP DUP2 DUP2 SUB PUSH1 0x0 DUP4 ADD MSTORE PUSH2 0x244A DUP2 PUSH2 0x240E JUMP JUMPDEST SWAP1 POP SWAP2 SWAP1 POP JUMP JUMPDEST PUSH32 0x70726F76696E67206F776E657273686970206F66206E65774964656E74697479 PUSH1 0x0 DUP3 ADD MSTORE PUSH32 0x206661696C656400000000000000000000000000000000000000000000000000 PUSH1 0x20 DUP3 ADD MSTORE POP JUMP JUMPDEST PUSH1 0x0 PUSH2 0x24AD PUSH1 0x27 DUP4 PUSH2 0x1E20 JUMP JUMPDEST SWAP2 POP PUSH2 0x24B8 DUP3 PUSH2 0x2451 JUMP JUMPDEST PUSH1 0x40 DUP3 ADD SWAP1 POP SWAP2 SWAP1 POP JUMP JUMPDEST PUSH1 0x0 PUSH1 0x20 DUP3 ADD SWAP1 POP DUP2 DUP2 SUB PUSH1 0x0 DUP4 ADD MSTORE PUSH2 0x24DC DUP2 PUSH2 0x24A0 JUMP JUMPDEST SWAP1 POP SWAP2 SWAP1 POP JUMP JUMPDEST PUSH32 0x4E487B7100000000000000000000000000000000000000000000000000000000 PUSH1 0x0 MSTORE PUSH1 0x32 PUSH1 0x4 MSTORE PUSH1 0x24 PUSH1 0x0 REVERT JUMPDEST PUSH1 0x0 DUP2 SWAP1 POP DUP2 PUSH1 0x0 MSTORE PUSH1 0x20 PUSH1 0x0 KECCAK256 SWAP1 POP SWAP2 SWAP1 POP JUMP JUMPDEST PUSH1 0x0 PUSH1 0x20 PUSH1 0x1F DUP4 ADD DIV SWAP1 POP SWAP2 SWAP1 POP JUMP JUMPDEST PUSH1 0x0 DUP3 DUP3 SHL SWAP1 POP SWAP3 SWAP2 POP POP JUMP JUMPDEST PUSH1 0x0 PUSH1 0x8 DUP4 MUL PUSH2 0x2574 PUSH32 0xFFFFFFFFFFFFFFFFFFFFFFFFFFFFFFFFFFFFFFFFFFFFFFFFFFFFFFFFFFFFFFFF DUP3 PUSH2 0x2537 JUMP JUMPDEST PUSH2 0x257E DUP7 DUP4 PUSH2 0x2537 JUMP JUMPDEST SWAP6 POP DUP1 NOT DUP5 AND SWAP4 POP DUP1 DUP7 AND DUP5 OR SWAP3 POP POP POP SWAP4 SWAP3 POP POP POP JUMP JUMPDEST PUSH1 0x0 DUP2 SWAP1 POP SWAP2 SWAP1 POP JUMP JUMPDEST PUSH1 0x0 PUSH2 0x25BB PUSH2 0x25B6 PUSH2 0x25B1 DUP5 PUSH2 0x1EBB JUMP JUMPDEST PUSH2 0x2596 JUMP JUMPDEST PUSH2 0x1EBB JUMP JUMPDEST SWAP1 POP SWAP2 SWAP1 POP JUMP JUMPDEST PUSH1 0x0 DUP2 SWAP1 POP SWAP2 SWAP1 POP JUMP JUMPDEST PUSH2 0x25D5 DUP4 PUSH2 0x25A0 JUMP JUMPDEST PUSH2 0x25E9 PUSH2 0x25E1 DUP3 PUSH2 0x25C2 JUMP JUMPDEST DUP5 DUP5 SLOAD PUSH2 0x2544 JUMP JUMPDEST DUP3 SSTORE POP POP POP POP JUMP JUMPDEST PUSH1 0x0 SWAP1 JUMP JUMPDEST PUSH2 0x25FE PUSH2 0x25F1 JUMP JUMPDEST PUSH2 0x2609 DUP2 DUP5 DUP5 PUSH2 0x25CC JUMP JUMPDEST POP POP POP JUMP JUMPDEST JUMPDEST DUP2 DUP2 LT ISZERO PUSH2 0x262D JUMPI PUSH2 0x2622 PUSH1 0x0 DUP3 PUSH2 0x25F6 JUMP JUMPDEST PUSH1 0x1 DUP2 ADD SWAP1 POP PUSH2 0x260F JUMP JUMPDEST POP POP JUMP JUMPDEST PUSH1 0x1F DUP3 GT ISZERO PUSH2 0x2672 JUMPI PUSH2 0x2643 DUP2 PUSH2 0x2512 JUMP JUMPDEST PUSH2 0x264C DUP5 PUSH2 0x2527 JUMP JUMPDEST DUP2 ADD PUSH1 0x20 DUP6 LT ISZERO PUSH2 0x265B JUMPI DUP2 SWAP1 POP JUMPDEST PUSH2 0x266F PUSH2 0x2667 DUP6 PUSH2 0x2527 JUMP JUMPDEST DUP4 ADD DUP3 PUSH2 0x260E JUMP JUMPDEST POP POP JUMPDEST POP POP POP JUMP JUMPDEST PUSH1 0x0 DUP3 DUP3 SHR SWAP1 POP SWAP3 SWAP2 POP POP JUMP JUMPDEST PUSH1 0x0 PUSH2 0x2695 PUSH1 0x0 NOT DUP5 PUSH1 0x8 MUL PUSH2 0x2677 JUMP JUMPDEST NOT DUP1 DUP4 AND SWAP2 POP POP SWAP3 SWAP2 POP POP JUMP JUMPDEST PUSH1 0x0 PUSH2 0x26AE DUP4 DUP4 PUSH2 0x2684 JUMP JUMPDEST SWAP2 POP DUP3 PUSH1 0x2 MUL DUP3 OR SWAP1 POP SWAP3 SWAP2 POP POP JUMP JUMPDEST PUSH2 0x26C7 DUP3 PUSH2 0x1E15 JUMP JUMPDEST PUSH8 0xFFFFFFFFFFFFFFFF DUP2 GT ISZERO PUSH2 0x26E0 JUMPI PUSH2 0x26DF PUSH2 0x1CA1 JUMP JUMPDEST JUMPDEST PUSH2 0x26EA DUP3 SLOAD PUSH2 0x238E JUMP JUMPDEST PUSH2 0x26F5 DUP3 DUP3 DUP6 PUSH2 0x2631 JUMP JUMPDEST PUSH1 0x0 PUSH1 0x20 SWAP1 POP PUSH1 0x1F DUP4 GT PUSH1 0x1 DUP2 EQ PUSH2 0x2728 JUMPI PUSH1 0x0 DUP5 ISZERO PUSH2 0x2716 JUMPI DUP3 DUP8 ADD MLOAD SWAP1 POP JUMPDEST PUSH2 0x2720 DUP6 DUP3 PUSH2 0x26A2 JUMP JUMPDEST DUP7 SSTORE POP PUSH2 0x2788 JUMP JUMPDEST PUSH1 0x1F NOT DUP5 AND PUSH2 0x2736 DUP7 PUSH2 0x2512 JUMP JUMPDEST PUSH1 0x0 JUMPDEST DUP3 DUP2 LT ISZERO PUSH2 0x275E JUMPI DUP5 DUP10 ADD MLOAD DUP3 SSTORE PUSH1 0x1 DUP3 ADD SWAP2 POP PUSH1 0x20 DUP6 ADD SWAP5 POP PUSH1 0x20 DUP2 ADD SWAP1 POP PUSH2 0x2739 JUMP JUMPDEST DUP7 DUP4 LT ISZERO PUSH2 0x277B JUMPI DUP5 DUP10 ADD MLOAD PUSH2 0x2777 PUSH1 0x1F DUP10 AND DUP3 PUSH2 0x2684 JUMP JUMPDEST DUP4 SSTORE POP JUMPDEST PUSH1 0x1 PUSH1 0x2 DUP9 MUL ADD DUP9 SSTORE POP POP POP JUMPDEST POP POP POP POP POP POP JUMP JUMPDEST PUSH1 0x0 PUSH1 0x40 DUP3 ADD SWAP1 POP DUP2 DUP2 SUB PUSH1 0x0 DUP4 ADD MSTORE PUSH2 0x27AA DUP2 DUP6 PUSH2 0x1E5B JUMP JUMPDEST SWAP1 POP DUP2 DUP2 SUB PUSH1 0x20 DUP4 ADD MSTORE PUSH2 0x27BE DUP2 DUP5 PUSH2 0x1E5B JUMP JUMPDEST SWAP1 POP SWAP4 SWAP3 POP POP POP JUMP JUMPDEST PUSH32 0x746F426552656D6F7665644964656E74697479206973206E6F74207061727420 PUSH1 0x0 DUP3 ADD MSTORE PUSH32 0x6F662072656769737465726564206964656E7469746965730000000000000000 PUSH1 0x20 DUP3 ADD MSTORE POP JUMP JUMPDEST PUSH1 0x0 PUSH2 0x2823 PUSH1 0x38 DUP4 PUSH2 0x1E20 JUMP JUMPDEST SWAP2 POP PUSH2 0x282E DUP3 PUSH2 0x27C7 JUMP JUMPDEST PUSH1 0x40 DUP3 ADD SWAP1 POP SWAP2 SWAP1 POP JUMP JUMPDEST PUSH1 0x0 PUSH1 0x20 DUP3 ADD SWAP1 POP DUP2 DUP2 SUB PUSH1 0x0 DUP4 ADD MSTORE PUSH2 0x2852 DUP2 PUSH2 0x2816 JUMP JUMPDEST SWAP1 POP SWAP2 SWAP1 POP JUMP JUMPDEST PUSH32 0x6D73672E73656E646572206973206E6F742070617274206F6620726567697374 PUSH1 0x0 DUP3 ADD MSTORE PUSH32 0x65726564206964656E7469746965730000000000000000000000000000000000 PUSH1 0x20 DUP3 ADD MSTORE POP JUMP JUMPDEST PUSH1 0x0 PUSH2 0x28B5 PUSH1 0x2F DUP4 PUSH2 0x1E20 JUMP JUMPDEST SWAP2 POP PUSH2 0x28C0 DUP3 PUSH2 0x2859 JUMP JUMPDEST PUSH1 0x40 DUP3 ADD SWAP1 POP SWAP2 SWAP1 POP JUMP JUMPDEST PUSH1 0x0 PUSH1 0x20 DUP3 ADD SWAP1 POP DUP2 DUP2 SUB PUSH1 0x0 DUP4 ADD MSTORE PUSH2 0x28E4 DUP2 PUSH2 0x28A8 JUMP JUMPDEST SWAP1 POP SWAP2 SWAP1 POP JUMP JUMPDEST PUSH32 0x746F426552656D6F7665644964656E74697479206973206E6F74207061727420 PUSH1 0x0 DUP3 ADD MSTORE PUSH32 0x6F66206D73672E73656E64657227732063697263756C6172206C696E6B656420 PUSH1 0x20 DUP3 ADD MSTORE PUSH32 0x6C697374206F66206964656E7469746965730000000000000000000000000000 PUSH1 0x40 DUP3 ADD MSTORE POP JUMP JUMPDEST PUSH1 0x0 PUSH2 0x296D PUSH1 0x52 DUP4 PUSH2 0x1E20 JUMP JUMPDEST SWAP2 POP PUSH2 0x2978 DUP3 PUSH2 0x28EB JUMP JUMPDEST PUSH1 0x60 DUP3 ADD SWAP1 POP SWAP2 SWAP1 POP JUMP JUMPDEST PUSH1 0x0 PUSH1 0x20 DUP3 ADD SWAP1 POP DUP2 DUP2 SUB PUSH1 0x0 DUP4 ADD MSTORE PUSH2 0x299C DUP2 PUSH2 0x2960 JUMP JUMPDEST SWAP1 POP SWAP2 SWAP1 POP JUMP JUMPDEST PUSH1 0x0 DUP2 SLOAD SWAP1 POP PUSH2 0x29B2 DUP2 PUSH2 0x238E JUMP JUMPDEST SWAP1 POP SWAP2 SWAP1 POP JUMP JUMPDEST PUSH1 0x0 DUP2 SWAP1 POP DUP2 PUSH1 0x0 MSTORE PUSH1 0x20 PUSH1 0x0 KECCAK256 SWAP1 POP SWAP2 SWAP1 POP JUMP JUMPDEST DUP2 DUP2 SUB PUSH2 0x29DC JUMPI POP POP PUSH2 0x2AB4 JUMP JUMPDEST PUSH2 0x29E5 DUP3 PUSH2 0x29A3 JUMP JUMPDEST PUSH8 0xFFFFFFFFFFFFFFFF DUP2 GT ISZERO PUSH2 0x29FE JUMPI PUSH2 0x29FD PUSH2 0x1CA1 JUMP JUMPDEST JUMPDEST PUSH2 0x2A08 DUP3 SLOAD PUSH2 0x238E JUMP JUMPDEST PUSH2 0x2A13 DUP3 DUP3 DUP6 PUSH2 0x2631 JUMP JUMPDEST PUSH1 0x0 PUSH1 0x1F DUP4 GT PUSH1 0x1 DUP2 EQ PUSH2 0x2A42 JUMPI PUSH1 0x0 DUP5 ISZERO PUSH2 0x2A30 JUMPI DUP3 DUP8 ADD SLOAD SWAP1 POP JUMPDEST PUSH2 0x2A3A DUP6 DUP3 PUSH2 0x26A2 JUMP JUMPDEST DUP7 SSTORE POP PUSH2 0x2AAD JUMP JUMPDEST PUSH1 0x1F NOT DUP5 AND PUSH2 0x2A50 DUP8 PUSH2 0x29B9 JUMP JUMPDEST SWAP7 POP PUSH2 0x2A5B DUP7 PUSH2 0x2512 JUMP JUMPDEST PUSH1 0x0 JUMPDEST DUP3 DUP2 LT ISZERO PUSH2 0x2A83 JUMPI DUP5 DUP10 ADD SLOAD DUP3 SSTORE PUSH1 0x1 DUP3 ADD SWAP2 POP PUSH1 0x1 DUP6 ADD SWAP5 POP PUSH1 0x20 DUP2 ADD SWAP1 POP PUSH2 0x2A5E JUMP JUMPDEST DUP7 DUP4 LT ISZERO PUSH2 0x2AA0 JUMPI DUP5 DUP10 ADD SLOAD PUSH2 0x2A9C PUSH1 0x1F DUP10 AND DUP3 PUSH2 0x2684 JUMP JUMPDEST DUP4 SSTORE POP JUMPDEST PUSH1 0x1 PUSH1 0x2 DUP9 MUL ADD DUP9 SSTORE POP POP POP JUMPDEST POP POP POP POP POP POP JUMPDEST JUMP JUMPDEST PUSH1 0x0 PUSH20 0xFFFFFFFFFFFFFFFFFFFFFFFFFFFFFFFFFFFFFFFF DUP3 AND SWAP1 POP SWAP2 SWAP1 POP JUMP JUMPDEST PUSH1 0x0 PUSH2 0x2AE1 DUP3 PUSH2 0x2AB6 JUMP JUMPDEST SWAP1 POP SWAP2 SWAP1 POP JUMP JUMPDEST PUSH1 0x0 DUP2 PUSH1 0x60 SHL SWAP1 POP SWAP2 SWAP1 POP JUMP JUMPDEST PUSH1 0x0 PUSH2 0x2B00 DUP3 PUSH2 0x2AE8 JUMP JUMPDEST SWAP1 POP SWAP2 SWAP1 POP JUMP JUMPDEST PUSH1 0x0 PUSH2 0x2B12 DUP3 PUSH2 0x2AF5 JUMP JUMPDEST SWAP1 POP SWAP2 SWAP1 POP JUMP JUMPDEST PUSH2 0x2B2A PUSH2 0x2B25 DUP3 PUSH2 0x2AD6 JUMP JUMPDEST PUSH2 0x2B07 JUMP JUMPDEST DUP3 MSTORE POP POP JUMP JUMPDEST PUSH1 0x0 PUSH2 0x2B3C DUP3 DUP5 PUSH2 0x2B19 JUMP JUMPDEST PUSH1 0x14 DUP3 ADD SWAP2 POP DUP2 SWAP1 POP SWAP3 SWAP2 POP POP JUMP JUMPDEST PUSH32 0x4E487B7100000000000000000000000000000000000000000000000000000000 PUSH1 0x0 MSTORE PUSH1 0x11 PUSH1 0x4 MSTORE PUSH1 0x24 PUSH1 0x0 REVERT JUMPDEST PUSH1 0x0 PUSH2 0x2B85 DUP3 PUSH2 0x1EBB JUMP JUMPDEST SWAP2 POP PUSH2 0x2B90 DUP4 PUSH2 0x1EBB JUMP JUMPDEST SWAP3 POP DUP3 DUP3 MUL PUSH2 0x2B9E DUP2 PUSH2 0x1EBB JUMP JUMPDEST SWAP2 POP DUP3 DUP3 DIV DUP5 EQ DUP4 ISZERO OR PUSH2 0x2BB5 JUMPI PUSH2 0x2BB4 PUSH2 0x2B4B JUMP JUMPDEST JUMPDEST POP SWAP3 SWAP2 POP POP JUMP JUMPDEST PUSH1 0x0 PUSH2 0x2BC7 DUP3 PUSH2 0x1EBB JUMP JUMPDEST SWAP2 POP PUSH2 0x2BD2 DUP4 PUSH2 0x1EBB JUMP JUMPDEST SWAP3 POP DUP3 DUP3 ADD SWAP1 POP DUP1 DUP3 GT ISZERO PUSH2 0x2BEA JUMPI PUSH2 0x2BE9 PUSH2 0x2B4B JUMP JUMPDEST JUMPDEST SWAP3 SWAP2 POP POP JUMP JUMPDEST PUSH32 0x4E487B7100000000000000000000000000000000000000000000000000000000 PUSH1 0x0 MSTORE PUSH1 0x12 PUSH1 0x4 MSTORE PUSH1 0x24 PUSH1 0x0 REVERT JUMPDEST PUSH1 0x0 PUSH2 0x2C2A DUP3 PUSH2 0x1EBB JUMP JUMPDEST SWAP2 POP PUSH2 0x2C35 DUP4 PUSH2 0x1EBB JUMP JUMPDEST SWAP3 POP DUP3 PUSH2 0x2C45 JUMPI PUSH2 0x2C44 PUSH2 0x2BF0 JUMP JUMPDEST JUMPDEST DUP3 DUP3 MOD SWAP1 POP SWAP3 SWAP2 POP POP JUMP JUMPDEST PUSH1 0x0 PUSH2 0x2C5B DUP3 PUSH2 0x1EBB JUMP JUMPDEST SWAP2 POP PUSH2 0x2C66 DUP4 PUSH2 0x1EBB JUMP JUMPDEST SWAP3 POP DUP3 DUP3 SUB SWAP1 POP DUP2 DUP2 GT ISZERO PUSH2 0x2C7E JUMPI PUSH2 0x2C7D PUSH2 0x2B4B JUMP JUMPDEST JUMPDEST SWAP3 SWAP2 POP POP JUMP INVALID LOG2 PUSH5 0x6970667358 0x22 SLT KECCAK256 0xC1 0xCF SWAP1 PUSH16 0x6383180C0005BBE76B3BFDE223C58813 0xF6 MSIZE PUSH32 0x7F5FB9699F2B96AAE464736F6C634300081B0033000000000000000000000000 "},"methodIdentifiers":{"addIdentity(string,((uint256,uint256),(uint256[2],uint256[2]),(uint256,uint256)),uint256[4])":"09f1ae08","getNextIdentity(string)":"055d24c1","getPublicKey(string)":"bff90821","removeIdentity(string)":"ca364a3a","verifyTx(((uint256,uint256),(uint256[2],uint256[2]),(uint256,uint256)),uint256[4])":"799afa76"}}}}}