{"contracts/ODIM.sol":{"ODIM":{"abi":[{"anonymous":false,"inputs":[{"indexed":false,"internalType":"string","name":"addedBy","type":"string"},{"indexed":false,"internalType":"string","name":"newIdentity","type":"string"}],"name":"IdentityAdded","type":"event"},{"anonymous":false,"inputs":[{"indexed":false,"internalType":"string","name":"removedBy","type":"string"},{"indexed":false,"internalType":"string","name":"removedIdentity","type":"string"}],"name":"IdentityRemoved","type":"event"},{"inputs":[{"internalType":"string","name":"newIdentity","type":"string"},{"components":[{"components":[{"internalType":"uint256","name":"X","type":"uint256"},{"internalType":"uint256","name":"Y","type":"uint256"}],"internalType":"struct Pairing.G1Point","name":"a","type":"tuple"},{"components":[{"internalType":"uint256[2]","name":"X","type":"uint256[2]"},{"internalType":"uint256[2]","name":"Y","type":"uint256[2]"}],"internalType":"struct Pairing.G2Point","name":"b","type":"tuple"},{"components":[{"internalType":"uint256","name":"X","type":"uint256"},{"internalType":"uint256","name":"Y","type":"uint256"}],"internalType":"struct Pairing.G1Point","name":"c","type":"tuple"}],"internalType":"struct ODIM.Proof","name":"proof","type":"tuple"},{"internalType":"uint256[4]","name":"input","type":"uint256[4]"}],"name":"addIdentity","outputs":[],"stateMutability":"nonpayable","type":"function"},{"inputs":[{"internalType":"string","name":"key","type":"string"}],"name":"getNextIdentity","outputs":[{"internalType":"string","name":"","type":"string"}],"stateMutability":"view","type":"function"},{"inputs":[{"internalType":"string","name":"identity","type":"string"}],"name":"getPublicKey","outputs":[{"internalType":"uint256[2]","name":"","type":"uint256[2]"}],"stateMutability":"view","type":"function"},{"inputs":[{"internalType":"string","name":"","type":"string"}],"name":"identities","outputs":[{"internalType":"string","name":"","type":"string"}],"stateMutability":"view","type":"function"},{"inputs":[{"internalType":"string","name":"","type":"string"},{"internalType":"uint256","name":"","type":"uint256"}],"name":"publicKeys","outputs":[{"internalType":"uint256","name":"","type":"uint256"}],"stateMutability":"view","type":"function"},{"inputs":[{"internalType":"string","name":"toBeRemovedIdentity","type":"string"}],"name":"removeIdentity","outputs":[],"stateMutability":"nonpayable","type":"function"},{"inputs":[{"components":[{"components":[{"internalType":"uint256","name":"X","type":"uint256"},{"internalType":"uint256","name":"Y","type":"uint256"}],"internalType":"struct Pairing.G1Point","name":"a","type":"tuple"},{"components":[{"internalType":"uint256[2]","name":"X","type":"uint256[2]"},{"internalType":"uint256[2]","name":"Y","type":"uint256[2]"}],"internalType":"struct Pairing.G2Point","name":"b","type":"tuple"},{"components":[{"internalType":"uint256","name":"X","type":"uint256"},{"internalType":"uint256","name":"Y","type":"uint256"}],"internalType":"struct Pairing.G1Point","name":"c","type":"tuple"}],"internalType":"struct ODIM.Proof","name":"proof","type":"tuple"},{"internalType":"uint256[4]","name":"input","type":"uint256[4]"}],"name":"verifyTx","outputs":[{"internalType":"bool","name":"r","type":"bool"}],"stateMutability":"view","type":"function"}],"evm":{"bytecode":{"linkReferences":{},"object":"6080604052348015600f57600080fd5b50612eba8061001f6000396000f3fe608060405234801561001057600080fd5b506004361061007d5760003560e01c80633619059b1161005b5780633619059b146100fe578063799afa761461012e578063bff908211461015e578063ca364a3a1461018e5761007d565b806301e21afb14610082578063055d24c1146100b257806309f1ae08146100e2575b600080fd5b61009c60048036038101906100979190611f46565b6101aa565b6040516100a9919061200e565b60405180910390f35b6100cc60048036038101906100c79190611f46565b610260565b6040516100d9919061200e565b60405180910390f35b6100fc60048036038101906100f791906122d7565b610310565b005b61011860048036038101906101139190612348565b6105c1565b60405161012591906123b3565b60405180910390f35b610148600480360381019061014391906123ce565b6105ff565b604051610155919061242b565b60405180910390f35b61017860048036038101906101739190611f46565b6106c6565b60405161018591906124f1565b60405180910390f35b6101a860048036038101906101a39190611f46565b61072f565b005b60008180516020810182018051848252602083016020850120818352809550505050505060009150905080546101df9061253b565b80601f016020809104026020016040519081016040528092919081815260200182805461020b9061253b565b80156102585780601f1061022d57610100808354040283529160200191610258565b820191906000526020600020905b81548152906001019060200180831161023b57829003601f168201915b505050505081565b606060008260405161027291906125a8565b9081526020016040518091039020805461028b9061253b565b80601f01602080910402602001604051908101604052809291908181526020018280546102b79061253b565b80156103045780601f106102d957610100808354040283529160200191610304565b820191906000526020600020905b8154815290600101906020018083116102e757829003601f168201915b50505050509050919050565b6000808460405161032191906125a8565b9081526020016040518091039020805461033a9061253b565b90501461037c576040517f08c379a000000000000000000000000000000000000000000000000000000000815260040161037390612631565b60405180910390fd5b61038682826105ff565b6103c5576040517f08c379a00000000000000000000000000000000000000000000000000000000081526004016103bc906126c3565b60405180910390fd5b6040518060400160405280826000600481106103e4576103e36126e3565b5b6020020151815260200182600160048110610402576104016126e3565b5b602002015181525060018460405161041a91906125a8565b9081526020016040518091039020906002610436929190611c72565b50600061044233610b30565b90506000808260405161045591906125a8565b9081526020016040518091039020805461046e9061253b565b80601f016020809104026020016040519081016040528092919081815260200182805461049a9061253b565b80156104e75780601f106104bc576101008083540402835291602001916104e7565b820191906000526020600020905b8154815290600101906020018083116104ca57829003601f168201915b50505050509050846000836040516104ff91906125a8565b9081526020016040518091039020908161051991906128be565b506000815103610554578160008660405161053491906125a8565b9081526020016040518091039020908161054e91906128be565b50610581565b8060008660405161056591906125a8565b9081526020016040518091039020908161057f91906128be565b505b7fa758369d21d836b8337f4e4928fa9645a718ce6cb6d395f8d77e81d1c8f0d56082866040516105b2929190612990565b60405180910390a15050505050565b60018280516020810182018051848252602083016020850120818352809550505050505081600281106105f357600080fd5b01600091509150505481565b600080600467ffffffffffffffff81111561061d5761061c611e1b565b5b60405190808252806020026020018201604052801561064b5781602001602082028036833780820191505090505b50905060005b600481101561069e5783816004811061066d5761066c6126e3565b5b6020020151828281518110610685576106846126e3565b5b6020026020010181815250508080600101915050610651565b5060006106ab8286610e49565b036106ba5760019150506106c0565b60009150505b92915050565b6106ce611cb2565b6001826040516106de91906125a8565b9081526020016040518091039020600280602002604051908101604052809291908260028015610723576020028201915b81548152602001906001019080831161070f575b50505050509050919050565b6000808260405161074091906125a8565b908152602001604051809103902080546107599061253b565b90500361079b576040517f08c379a000000000000000000000000000000000000000000000000000000000815260040161079290612a39565b60405180910390fd5b60006107a633610b30565b90506000826040516020016107bb91906125a8565b6040516020818303038152906040528051906020012090506000826040516020016107e691906125a8565b60405160208183030381529060405280519060200120905060008390506000808560405161081491906125a8565b9081526020016040518091039020805461082d9061253b565b80601f01602080910402602001604051908101604052809291908181526020018280546108599061253b565b80156108a65780601f1061087b576101008083540402835291602001916108a6565b820191906000526020600020905b81548152906001019060200180831161088957829003601f168201915b5050505050905060008151036108f1576040517f08c379a00000000000000000000000000000000000000000000000000000000081526004016108e890612acb565b60405180910390fd5b60008160405160200161090491906125a8565b6040516020818303038152906040528051906020012090505b808514610a4057838103610966576040517f08c379a000000000000000000000000000000000000000000000000000000000815260040161095d90612b83565b60405180910390fd5b81925060008260405161097991906125a8565b908152602001604051809103902080546109929061253b565b80601f01602080910402602001604051908101604052809291908181526020018280546109be9061253b565b8015610a0b5780601f106109e057610100808354040283529160200191610a0b565b820191906000526020600020905b8154815290600101906020018083116109ee57829003601f168201915b5050505050915081604051602001610a2391906125a8565b60405160208183030381529060405280519060200120905061091d565b600087604051610a5091906125a8565b9081526020016040518091039020600084604051610a6e91906125a8565b90815260200160405180910390209081610a889190612bce565b5060405180602001604052806000815250600088604051610aa991906125a8565b90815260200160405180910390209081610ac391906128be565b50600187604051610ad491906125a8565b90815260200160405180910390206000610aee9190611cd4565b7f71d4b586de62e0dd07f2ab987f1b608166194d3f4b54d915e8a10f4a5c957f818688604051610b1f929190612990565b60405180910390a150505050505050565b6060600082604051602001610b459190612d30565b604051602081830303815290604052905060006040518060400160405280601081526020017f30313233343536373839616263646566000000000000000000000000000000008152509050600060028351610ba09190612d7a565b6002610bac9190612dbc565b67ffffffffffffffff811115610bc557610bc4611e1b565b5b6040519080825280601f01601f191660200182016040528015610bf75781602001600182028036833780820191505090505b5090507f300000000000000000000000000000000000000000000000000000000000000081600081518110610c2f57610c2e6126e3565b5b60200101907effffffffffffffffffffffffffffffffffffffffffffffffffffffffffffff1916908160001a9053507f780000000000000000000000000000000000000000000000000000000000000081600181518110610c9357610c926126e3565b5b60200101907effffffffffffffffffffffffffffffffffffffffffffffffffffffffffffff1916908160001a90535060005b8351811015610e3d57826004858381518110610ce457610ce36126e3565b5b602001015160f81c60f81b7effffffffffffffffffffffffffffffffffffffffffffffffffffffffffffff1916901c60f81c60ff1681518110610d2a57610d296126e3565b5b602001015160f81c60f81b82600283610d439190612d7a565b6002610d4f9190612dbc565b81518110610d6057610d5f6126e3565b5b60200101907effffffffffffffffffffffffffffffffffffffffffffffffffffffffffffff1916908160001a90535082600f60f81b858381518110610da857610da76126e3565b5b602001015160f81c60f81b1660f81c60ff1681518110610dcb57610dca6126e3565b5b602001015160f81c60f81b82600283610de49190612d7a565b6003610df09190612dbc565b81518110610e0157610e006126e3565b5b60200101907effffffffffffffffffffffffffffffffffffffffffffffffffffffffffffff1916908160001a9053508080600101915050610cc5565b50809350505050919050565b6000807f30644e72e131a029b85045b68181585d2833e84879b9709143e1f593f000000190506000610e79610fda565b905080608001515160018651610e8f9190612dbc565b14610e9957600080fd5b60006040518060400160405280600081526020016000815250905060005b8651811015610f4c5783878281518110610ed457610ed36126e3565b5b602002602001015110610ee657600080fd5b610f3d82610f388560800151600185610eff9190612dbc565b81518110610f1057610f0f6126e3565b5b60200260200101518a8581518110610f2b57610f2a6126e3565b5b6020026020010151611546565b6115e8565b91508080600101915050610eb7565b50610f76818360800151600081518110610f6957610f686126e3565b5b60200260200101516115e8565b9050610fbc85600001518660200151610f8e846116b0565b8560400151610fa08a604001516116b0565b8760600151610fb289600001516116b0565b8960200151611755565b610fcc5760019350505050610fd4565b600093505050505b92915050565b610fe2611ce2565b60405180604001604052807f2f5e6af506b96774e2925365c3321345ab256e893511ffa46ecd791a2b287b6081526020017f05a0204a91ba0d8e72ecafd94fc63edcd0a2cca50e7549d0d83bb0b0b000942a8152508160000181905250604051806040016040528060405180604001604052807f0fc4d876c4b0000d6d623ccedefe8ea74e434f530b1dbc983368bf04934235ed81526020017f1fdd473eb14c6bdf4bd5657cc16142d3202f5e3bdc4154643552718d7e94010c815250815260200160405180604001604052807f28ea5438112033a6f687d6cc45889e190ac48e6d8531961dc40978ffb8d9d19081526020017f158e624699f5391e0dc3a137f641ab56ba79d2e716606da48f7b836a5931e8108152508152508160200181905250604051806040016040528060405180604001604052807f0b53988a08178909f759edcd1a77ea41715ad14c7caf6157acd583dc41a9b31081526020017f14791244c423d2beb727a55784b31fcb5d92f0a7e192f2e3f9b7752633d56cbf815250815260200160405180604001604052807f1b624abd12a5810d8d16ee53cc9cfba66de28fddc0674b60b6944970c471909481526020017f09df1760dd611dee6de8572575ab0b8142e7557be61334c05b63d30df9d08b428152508152508160400181905250604051806040016040528060405180604001604052807f1f74b0713025db4df4578d294f8b8f621810939fac569cc7d79ad4918085377681526020017f16f23c3152a8e86756a5d93344b1ce5cdee88178d2508ad22522d1dd373260ed815250815260200160405180604001604052807f1034505b233386f7d899b1578ca346bc2dc0b5b000713ec6300761c70bf716b381526020017f19e53e7bd2b633e93403afbd9a03ffd158fc363d8af40ed1cb7df23b339a21d58152508152508160600181905250600567ffffffffffffffff8111156112a9576112a8611e1b565b5b6040519080825280602002602001820160405280156112e257816020015b6112cf611d29565b8152602001906001900390816112c75790505b50816080018190525060405180604001604052807f25bd36b30a82e6f6ac8621d99e20a8af6ca97da2d7b5fe880901d61e60ae1ca181526020017f20eaaa7f9fae79f789f96dff742170c6e5fd18c96c284d75489cd66f659e63ba8152508160800151600081518110611358576113576126e3565b5b602002602001018190525060405180604001604052807f2b8507accbf4846476aafb36dad3c7f9694b317cf4951b1444de897a27bb3a4181526020017f154be64c8b3b929a656048310f46ea999c243fa3931ef5febd675542f4b1bed281525081608001516001815181106113d0576113cf6126e3565b5b602002602001018190525060405180604001604052807f298e5732c627eed58eb7f7a58df2ac1699fe27953e3ac249a27d24ad2a2c3f4d81526020017f059cc84bfd7b0fb48297cbfbd56a05248ed2819265bb9fc0079ce4f21d4e70ed8152508160800151600281518110611448576114476126e3565b5b602002602001018190525060405180604001604052807f0838c912682118e141da1ec9eb259c180f860f28646729f361d94c94a8aa727f81526020017f01809de65884e45c1229794a15468011dfc04b37afcc2ed1fba1fb508457e9ac81525081608001516003815181106114c0576114bf6126e3565b5b602002602001018190525060405180604001604052807f0462ce76cc1ed5d937aeb12932b1caff41052f0940e8527aafda3d080b677ba681526020017f15b1f680bde4e1a42ec7a624ccc1083270aecf263137602f54ef7db91440a0dd8152508160800151600481518110611538576115376126e3565b5b602002602001018190525090565b61154e611d29565b611556611d43565b83600001518160006003811061156f5761156e6126e3565b5b602002018181525050836020015181600160038110611591576115906126e3565b5b60200201818152505082816002600381106115af576115ae6126e3565b5b602002018181525050600060608360808460076107d05a03fa905080600081036115d557fe5b50806115e057600080fd5b505092915050565b6115f0611d29565b6115f8611d65565b836000015181600060048110611611576116106126e3565b5b602002018181525050836020015181600160048110611633576116326126e3565b5b602002018181525050826000015181600260048110611655576116546126e3565b5b602002018181525050826020015181600360048110611677576116766126e3565b5b602002018181525050600060608360c08460066107d05a03fa9050806000810361169d57fe5b50806116a857600080fd5b505092915050565b6116b8611d29565b60007f30644e72e131a029b85045b68181585d97816a916871ca8d3c208c16d87cfd479050600083600001511480156116f5575060008360200151145b15611719576040518060400160405280600081526020016000815250915050611750565b60405180604001604052808460000151815260200182856020015161173e9190612e1f565b836117499190612e50565b8152509150505b919050565b600080600467ffffffffffffffff81111561177357611772611e1b565b5b6040519080825280602002602001820160405280156117ac57816020015b611799611d29565b8152602001906001900390816117915790505b5090506000600467ffffffffffffffff8111156117cc576117cb611e1b565b5b60405190808252806020026020018201604052801561180557816020015b6117f2611d87565b8152602001906001900390816117ea5790505b5090508a8260008151811061181d5761181c6126e3565b5b6020026020010181905250888260018151811061183d5761183c6126e3565b5b6020026020010181905250868260028151811061185d5761185c6126e3565b5b6020026020010181905250848260038151811061187d5761187c6126e3565b5b6020026020010181905250898160008151811061189d5761189c6126e3565b5b602002602001018190525087816001815181106118bd576118bc6126e3565b5b602002602001018190525085816002815181106118dd576118dc6126e3565b5b602002602001018190525083816003815181106118fd576118fc6126e3565b5b60200260200101819052506119128282611922565b9250505098975050505050505050565b6000815183511461193257600080fd5b60008351905060006006826119479190612d7a565b905060008167ffffffffffffffff81111561196557611964611e1b565b5b6040519080825280602002602001820160405280156119935781602001602082028036833780820191505090505b50905060005b83811015611c12578681815181106119b4576119b36126e3565b5b6020026020010151600001518260006006846119d09190612d7a565b6119da9190612dbc565b815181106119eb576119ea6126e3565b5b602002602001018181525050868181518110611a0a57611a096126e3565b5b602002602001015160200151826001600684611a269190612d7a565b611a309190612dbc565b81518110611a4157611a406126e3565b5b602002602001018181525050858181518110611a6057611a5f6126e3565b5b602002602001015160000151600160028110611a7f57611a7e6126e3565b5b6020020151826002600684611a949190612d7a565b611a9e9190612dbc565b81518110611aaf57611aae6126e3565b5b602002602001018181525050858181518110611ace57611acd6126e3565b5b602002602001015160000151600060028110611aed57611aec6126e3565b5b6020020151826003600684611b029190612d7a565b611b0c9190612dbc565b81518110611b1d57611b1c6126e3565b5b602002602001018181525050858181518110611b3c57611b3b6126e3565b5b602002602001015160200151600160028110611b5b57611b5a6126e3565b5b6020020151826004600684611b709190612d7a565b611b7a9190612dbc565b81518110611b8b57611b8a6126e3565b5b602002602001018181525050858181518110611baa57611ba96126e3565b5b602002602001015160200151600060028110611bc957611bc86126e3565b5b6020020151826005600684611bde9190612d7a565b611be89190612dbc565b81518110611bf957611bf86126e3565b5b6020026020010181815250508080600101915050611999565b50611c1b611dad565b6000602082602086026020860160086107d05a03fa90508060008103611c3d57fe5b5080611c4857600080fd5b600082600060018110611c5e57611c5d6126e3565b5b602002015114159550505050505092915050565b8260028101928215611ca1579160200282015b82811115611ca0578251825591602001919060010190611c85565b5b509050611cae9190611dcf565b5090565b6040518060400160405280600290602082028036833780820191505090505090565b506000815560010160009055565b6040518060a00160405280611cf5611d29565b8152602001611d02611d87565b8152602001611d0f611d87565b8152602001611d1c611d87565b8152602001606081525090565b604051806040016040528060008152602001600081525090565b6040518060600160405280600390602082028036833780820191505090505090565b6040518060800160405280600490602082028036833780820191505090505090565b6040518060400160405280611d9a611cb2565b8152602001611da7611cb2565b81525090565b6040518060200160405280600190602082028036833780820191505090505090565b5b80821115611de8576000816000905550600101611dd0565b5090565b6000604051905090565b600080fd5b600080fd5b600080fd5b600080fd5b6000601f19601f8301169050919050565b7f4e487b7100000000000000000000000000000000000000000000000000000000600052604160045260246000fd5b611e5382611e0a565b810181811067ffffffffffffffff82111715611e7257611e71611e1b565b5b80604052505050565b6000611e85611dec565b9050611e918282611e4a565b919050565b600067ffffffffffffffff821115611eb157611eb0611e1b565b5b611eba82611e0a565b9050602081019050919050565b82818337600083830152505050565b6000611ee9611ee484611e96565b611e7b565b905082815260208101848484011115611f0557611f04611e05565b5b611f10848285611ec7565b509392505050565b600082601f830112611f2d57611f2c611e00565b5b8135611f3d848260208601611ed6565b91505092915050565b600060208284031215611f5c57611f5b611df6565b5b600082013567ffffffffffffffff811115611f7a57611f79611dfb565b5b611f8684828501611f18565b91505092915050565b600081519050919050565b600082825260208201905092915050565b60005b83811015611fc9578082015181840152602081019050611fae565b60008484015250505050565b6000611fe082611f8f565b611fea8185611f9a565b9350611ffa818560208601611fab565b61200381611e0a565b840191505092915050565b600060208201905081810360008301526120288184611fd5565b905092915050565b600080fd5b6000819050919050565b61204881612035565b811461205357600080fd5b50565b6000813590506120658161203f565b92915050565b60006040828403121561208157612080612030565b5b61208b6040611e7b565b9050600061209b84828501612056565b60008301525060206120af84828501612056565b60208301525092915050565b600067ffffffffffffffff8211156120d6576120d5611e1b565b5b602082029050919050565b600080fd5b60006120f96120f4846120bb565b611e7b565b90508060208402830185811115612113576121126120e1565b5b835b8181101561213c57806121288882612056565b845260208401935050602081019050612115565b5050509392505050565b600082601f83011261215b5761215a611e00565b5b60026121688482856120e6565b91505092915050565b60006080828403121561218757612186612030565b5b6121916040611e7b565b905060006121a184828501612146565b60008301525060406121b584828501612146565b60208301525092915050565b600061010082840312156121d8576121d7612030565b5b6121e26060611e7b565b905060006121f28482850161206b565b600083015250604061220684828501612171565b60208301525060c061221a8482850161206b565b60408301525092915050565b600067ffffffffffffffff82111561224157612240611e1b565b5b602082029050919050565b600061225f61225a84612226565b611e7b565b90508060208402830185811115612279576122786120e1565b5b835b818110156122a2578061228e8882612056565b84526020840193505060208101905061227b565b5050509392505050565b600082601f8301126122c1576122c0611e00565b5b60046122ce84828561224c565b91505092915050565b60008060006101a084860312156122f1576122f0611df6565b5b600084013567ffffffffffffffff81111561230f5761230e611dfb565b5b61231b86828701611f18565b935050602061232c868287016121c1565b92505061012061233e868287016122ac565b9150509250925092565b6000806040838503121561235f5761235e611df6565b5b600083013567ffffffffffffffff81111561237d5761237c611dfb565b5b61238985828601611f18565b925050602061239a85828601612056565b9150509250929050565b6123ad81612035565b82525050565b60006020820190506123c860008301846123a4565b92915050565b60008061018083850312156123e6576123e5611df6565b5b60006123f4858286016121c1565b925050610100612406858286016122ac565b9150509250929050565b60008115159050919050565b61242581612410565b82525050565b6000602082019050612440600083018461241c565b92915050565b600060029050919050565b600081905092915050565b6000819050919050565b61246f81612035565b82525050565b60006124818383612466565b60208301905092915050565b6000602082019050919050565b6124a381612446565b6124ad8184612451565b92506124b88261245c565b8060005b838110156124e95781516124d08782612475565b96506124db8361248d565b9250506001810190506124bc565b505050505050565b6000604082019050612506600083018461249a565b92915050565b7f4e487b7100000000000000000000000000000000000000000000000000000000600052602260045260246000fd5b6000600282049050600182168061255357607f821691505b6020821081036125665761256561250c565b5b50919050565b600081905092915050565b600061258282611f8f565b61258c818561256c565b935061259c818560208601611fab565b80840191505092915050565b60006125b48284612577565b915081905092915050565b7f6e65774964656e7469747920697320616c72656164792070617274206f66207260008201527f656769737465726564206964656e746974696573000000000000000000000000602082015250565b600061261b603483611f9a565b9150612626826125bf565b604082019050919050565b6000602082019050818103600083015261264a8161260e565b9050919050565b7f70726f76696e67206f776e657273686970206f66206e65774964656e7469747960008201527f206661696c656400000000000000000000000000000000000000000000000000602082015250565b60006126ad602783611f9a565b91506126b882612651565b604082019050919050565b600060208201905081810360008301526126dc816126a0565b9050919050565b7f4e487b7100000000000000000000000000000000000000000000000000000000600052603260045260246000fd5b60008190508160005260206000209050919050565b60006020601f8301049050919050565b600082821b905092915050565b6000600883026127747fffffffffffffffffffffffffffffffffffffffffffffffffffffffffffffffff82612737565b61277e8683612737565b95508019841693508086168417925050509392505050565b6000819050919050565b60006127bb6127b66127b184612035565b612796565b612035565b9050919050565b6000819050919050565b6127d5836127a0565b6127e96127e1826127c2565b848454612744565b825550505050565b600090565b6127fe6127f1565b6128098184846127cc565b505050565b5b8181101561282d576128226000826127f6565b60018101905061280f565b5050565b601f8211156128725761284381612712565b61284c84612727565b8101602085101561285b578190505b61286f61286785612727565b83018261280e565b50505b505050565b600082821c905092915050565b600061289560001984600802612877565b1980831691505092915050565b60006128ae8383612884565b9150826002028217905092915050565b6128c782611f8f565b67ffffffffffffffff8111156128e0576128df611e1b565b5b6128ea825461253b565b6128f5828285612831565b600060209050601f8311600181146129285760008415612916578287015190505b61292085826128a2565b865550612988565b601f19841661293686612712565b60005b8281101561295e57848901518255600182019150602085019450602081019050612939565b8683101561297b5784890151612977601f891682612884565b8355505b6001600288020188555050505b505050505050565b600060408201905081810360008301526129aa8185611fd5565b905081810360208301526129be8184611fd5565b90509392505050565b7f746f426552656d6f7665644964656e74697479206973206e6f7420706172742060008201527f6f662072656769737465726564206964656e7469746965730000000000000000602082015250565b6000612a23603883611f9a565b9150612a2e826129c7565b604082019050919050565b60006020820190508181036000830152612a5281612a16565b9050919050565b7f6d73672e73656e646572206973206e6f742070617274206f662072656769737460008201527f65726564206964656e7469746965730000000000000000000000000000000000602082015250565b6000612ab5602f83611f9a565b9150612ac082612a59565b604082019050919050565b60006020820190508181036000830152612ae481612aa8565b9050919050565b7f746f426552656d6f7665644964656e74697479206973206e6f7420706172742060008201527f6f66206d73672e73656e64657227732063697263756c6172206c696e6b65642060208201527f6c697374206f66206964656e7469746965730000000000000000000000000000604082015250565b6000612b6d605283611f9a565b9150612b7882612aeb565b606082019050919050565b60006020820190508181036000830152612b9c81612b60565b9050919050565b600081549050612bb28161253b565b9050919050565b60008190508160005260206000209050919050565b818103612bdc575050612cb4565b612be582612ba3565b67ffffffffffffffff811115612bfe57612bfd611e1b565b5b612c08825461253b565b612c13828285612831565b6000601f831160018114612c425760008415612c30578287015490505b612c3a85826128a2565b865550612cad565b601f198416612c5087612bb9565b9650612c5b86612712565b60005b82811015612c8357848901548255600182019150600185019450602081019050612c5e565b86831015612ca05784890154612c9c601f891682612884565b8355505b6001600288020188555050505b5050505050505b565b600073ffffffffffffffffffffffffffffffffffffffff82169050919050565b6000612ce182612cb6565b9050919050565b60008160601b9050919050565b6000612d0082612ce8565b9050919050565b6000612d1282612cf5565b9050919050565b612d2a612d2582612cd6565b612d07565b82525050565b6000612d3c8284612d19565b60148201915081905092915050565b7f4e487b7100000000000000000000000000000000000000000000000000000000600052601160045260246000fd5b6000612d8582612035565b9150612d9083612035565b9250828202612d9e81612035565b91508282048414831517612db557612db4612d4b565b5b5092915050565b6000612dc782612035565b9150612dd283612035565b9250828201905080821115612dea57612de9612d4b565b5b92915050565b7f4e487b7100000000000000000000000000000000000000000000000000000000600052601260045260246000fd5b6000612e2a82612035565b9150612e3583612035565b925082612e4557612e44612df0565b5b828206905092915050565b6000612e5b82612035565b9150612e6683612035565b9250828203905081811115612e7e57612e7d612d4b565b5b9291505056fea264697066735822122052d94ac1988bc2ad5d829caf8dae4b2439c9654370a4901295af0461f387763864736f6c634300081b0033","opcodes":"PUSH1 0x80 PUSH1 0x40 MSTORE CALLVALUE DUP1 ISZERO PUSH1 0xF JUMPI PUSH1 0x0 DUP1 REVERT JUMPDEST POP PUSH2 0x2EBA DUP1 PUSH2 0x1F PUSH1 0x0 CODECOPY PUSH1 0x0 RETURN INVALID PUSH1 0x80 PUSH1 0x40 MSTORE CALLVALUE DUP1 ISZERO PUSH2 0x10 JUMPI PUSH1 0x0 DUP1 REVERT JUMPDEST POP PUSH1 0x4 CALLDATASIZE LT PUSH2 0x7D JUMPI PUSH1 0x0 CALLDATALOAD PUSH1 0xE0 SHR DUP1 PUSH4 0x3619059B GT PUSH2 0x5B JUMPI DUP1 PUSH4 0x3619059B EQ PUSH2 0xFE JUMPI DUP1 PUSH4 0x799AFA76 EQ PUSH2 0x12E JUMPI DUP1 PUSH4 0xBFF90821 EQ PUSH2 0x15E JUMPI DUP1 PUSH4 0xCA364A3A EQ PUSH2 0x18E JUMPI PUSH2 0x7D JUMP JUMPDEST DUP1 PUSH4 0x1E21AFB EQ PUSH2 0x82 JUMPI DUP1 PUSH4 0x55D24C1 EQ PUSH2 0xB2 JUMPI DUP1 PUSH4 0x9F1AE08 EQ PUSH2 0xE2 JUMPI JUMPDEST PUSH1 0x0 DUP1 REVERT JUMPDEST PUSH2 0x9C PUSH1 0x4 DUP1 CALLDATASIZE SUB DUP2 ADD SWAP1 PUSH2 0x97 SWAP2 SWAP1 PUSH2 0x1F46 JUMP JUMPDEST PUSH2 0x1AA JUMP JUMPDEST PUSH1 0x40 MLOAD PUSH2 0xA9 SWAP2 SWAP1 PUSH2 0x200E JUMP JUMPDEST PUSH1 0x40 MLOAD DUP1 SWAP2 SUB SWAP1 RETURN JUMPDEST PUSH2 0xCC PUSH1 0x4 DUP1 CALLDATASIZE SUB DUP2 ADD SWAP1 PUSH2 0xC7 SWAP2 SWAP1 PUSH2 0x1F46 JUMP JUMPDEST PUSH2 0x260 JUMP JUMPDEST PUSH1 0x40 MLOAD PUSH2 0xD9 SWAP2 SWAP1 PUSH2 0x200E JUMP JUMPDEST PUSH1 0x40 MLOAD DUP1 SWAP2 SUB SWAP1 RETURN JUMPDEST PUSH2 0xFC PUSH1 0x4 DUP1 CALLDATASIZE SUB DUP2 ADD SWAP1 PUSH2 0xF7 SWAP2 SWAP1 PUSH2 0x22D7 JUMP JUMPDEST PUSH2 0x310 JUMP JUMPDEST STOP JUMPDEST PUSH2 0x118 PUSH1 0x4 DUP1 CALLDATASIZE SUB DUP2 ADD SWAP1 PUSH2 0x113 SWAP2 SWAP1 PUSH2 0x2348 JUMP JUMPDEST PUSH2 0x5C1 JUMP JUMPDEST PUSH1 0x40 MLOAD PUSH2 0x125 SWAP2 SWAP1 PUSH2 0x23B3 JUMP JUMPDEST PUSH1 0x40 MLOAD DUP1 SWAP2 SUB SWAP1 RETURN JUMPDEST PUSH2 0x148 PUSH1 0x4 DUP1 CALLDATASIZE SUB DUP2 ADD SWAP1 PUSH2 0x143 SWAP2 SWAP1 PUSH2 0x23CE JUMP JUMPDEST PUSH2 0x5FF JUMP JUMPDEST PUSH1 0x40 MLOAD PUSH2 0x155 SWAP2 SWAP1 PUSH2 0x242B JUMP JUMPDEST PUSH1 0x40 MLOAD DUP1 SWAP2 SUB SWAP1 RETURN JUMPDEST PUSH2 0x178 PUSH1 0x4 DUP1 CALLDATASIZE SUB DUP2 ADD SWAP1 PUSH2 0x173 SWAP2 SWAP1 PUSH2 0x1F46 JUMP JUMPDEST PUSH2 0x6C6 JUMP JUMPDEST PUSH1 0x40 MLOAD PUSH2 0x185 SWAP2 SWAP1 PUSH2 0x24F1 JUMP JUMPDEST PUSH1 0x40 MLOAD DUP1 SWAP2 SUB SWAP1 RETURN JUMPDEST PUSH2 0x1A8 PUSH1 0x4 DUP1 CALLDATASIZE SUB DUP2 ADD SWAP1 PUSH2 0x1A3 SWAP2 SWAP1 PUSH2 0x1F46 JUMP JUMPDEST PUSH2 0x72F JUMP JUMPDEST STOP JUMPDEST PUSH1 0x0 DUP2 DUP1 MLOAD PUSH1 0x20 DUP2 ADD DUP3 ADD DUP1 MLOAD DUP5 DUP3 MSTORE PUSH1 0x20 DUP4 ADD PUSH1 0x20 DUP6 ADD KECCAK256 DUP2 DUP4 MSTORE DUP1 SWAP6 POP POP POP POP POP POP PUSH1 0x0 SWAP2 POP SWAP1 POP DUP1 SLOAD PUSH2 0x1DF SWAP1 PUSH2 0x253B JUMP JUMPDEST DUP1 PUSH1 0x1F ADD PUSH1 0x20 DUP1 SWAP2 DIV MUL PUSH1 0x20 ADD PUSH1 0x40 MLOAD SWAP1 DUP2 ADD PUSH1 0x40 MSTORE DUP1 SWAP3 SWAP2 SWAP1 DUP2 DUP2 MSTORE PUSH1 0x20 ADD DUP3 DUP1 SLOAD PUSH2 0x20B SWAP1 PUSH2 0x253B JUMP JUMPDEST DUP1 ISZERO PUSH2 0x258 JUMPI DUP1 PUSH1 0x1F LT PUSH2 0x22D JUMPI PUSH2 0x100 DUP1 DUP4 SLOAD DIV MUL DUP4 MSTORE SWAP2 PUSH1 0x20 ADD SWAP2 PUSH2 0x258 JUMP JUMPDEST DUP3 ADD SWAP2 SWAP1 PUSH1 0x0 MSTORE PUSH1 0x20 PUSH1 0x0 KECCAK256 SWAP1 JUMPDEST DUP2 SLOAD DUP2 MSTORE SWAP1 PUSH1 0x1 ADD SWAP1 PUSH1 0x20 ADD DUP1 DUP4 GT PUSH2 0x23B JUMPI DUP3 SWAP1 SUB PUSH1 0x1F AND DUP3 ADD SWAP2 JUMPDEST POP POP POP POP POP DUP2 JUMP JUMPDEST PUSH1 0x60 PUSH1 0x0 DUP3 PUSH1 0x40 MLOAD PUSH2 0x272 SWAP2 SWAP1 PUSH2 0x25A8 JUMP JUMPDEST SWAP1 DUP2 MSTORE PUSH1 0x20 ADD PUSH1 0x40 MLOAD DUP1 SWAP2 SUB SWAP1 KECCAK256 DUP1 SLOAD PUSH2 0x28B SWAP1 PUSH2 0x253B JUMP JUMPDEST DUP1 PUSH1 0x1F ADD PUSH1 0x20 DUP1 SWAP2 DIV MUL PUSH1 0x20 ADD PUSH1 0x40 MLOAD SWAP1 DUP2 ADD PUSH1 0x40 MSTORE DUP1 SWAP3 SWAP2 SWAP1 DUP2 DUP2 MSTORE PUSH1 0x20 ADD DUP3 DUP1 SLOAD PUSH2 0x2B7 SWAP1 PUSH2 0x253B JUMP JUMPDEST DUP1 ISZERO PUSH2 0x304 JUMPI DUP1 PUSH1 0x1F LT PUSH2 0x2D9 JUMPI PUSH2 0x100 DUP1 DUP4 SLOAD DIV MUL DUP4 MSTORE SWAP2 PUSH1 0x20 ADD SWAP2 PUSH2 0x304 JUMP JUMPDEST DUP3 ADD SWAP2 SWAP1 PUSH1 0x0 MSTORE PUSH1 0x20 PUSH1 0x0 KECCAK256 SWAP1 JUMPDEST DUP2 SLOAD DUP2 MSTORE SWAP1 PUSH1 0x1 ADD SWAP1 PUSH1 0x20 ADD DUP1 DUP4 GT PUSH2 0x2E7 JUMPI DUP3 SWAP1 SUB PUSH1 0x1F AND DUP3 ADD SWAP2 JUMPDEST POP POP POP POP POP SWAP1 POP SWAP2 SWAP1 POP JUMP JUMPDEST PUSH1 0x0 DUP1 DUP5 PUSH1 0x40 MLOAD PUSH2 0x321 SWAP2 SWAP1 PUSH2 0x25A8 JUMP JUMPDEST SWAP1 DUP2 MSTORE PUSH1 0x20 ADD PUSH1 0x40 MLOAD DUP1 SWAP2 SUB SWAP1 KECCAK256 DUP1 SLOAD PUSH2 0x33A SWAP1 PUSH2 0x253B JUMP JUMPDEST SWAP1 POP EQ PUSH2 0x37C JUMPI PUSH1 0x40 MLOAD PUSH32 0x8C379A000000000000000000000000000000000000000000000000000000000 DUP2 MSTORE PUSH1 0x4 ADD PUSH2 0x373 SWAP1 PUSH2 0x2631 JUMP JUMPDEST PUSH1 0x40 MLOAD DUP1 SWAP2 SUB SWAP1 REVERT JUMPDEST PUSH2 0x386 DUP3 DUP3 PUSH2 0x5FF JUMP JUMPDEST PUSH2 0x3C5 JUMPI PUSH1 0x40 MLOAD PUSH32 0x8C379A000000000000000000000000000000000000000000000000000000000 DUP2 MSTORE PUSH1 0x4 ADD PUSH2 0x3BC SWAP1 PUSH2 0x26C3 JUMP JUMPDEST PUSH1 0x40 MLOAD DUP1 SWAP2 SUB SWAP1 REVERT JUMPDEST PUSH1 0x40 MLOAD DUP1 PUSH1 0x40 ADD PUSH1 0x40 MSTORE DUP1 DUP3 PUSH1 0x0 PUSH1 0x4 DUP2 LT PUSH2 0x3E4 JUMPI PUSH2 0x3E3 PUSH2 0x26E3 JUMP JUMPDEST JUMPDEST PUSH1 0x20 MUL ADD MLOAD DUP2 MSTORE PUSH1 0x20 ADD DUP3 PUSH1 0x1 PUSH1 0x4 DUP2 LT PUSH2 0x402 JUMPI PUSH2 0x401 PUSH2 0x26E3 JUMP JUMPDEST JUMPDEST PUSH1 0x20 MUL ADD MLOAD DUP2 MSTORE POP PUSH1 0x1 DUP5 PUSH1 0x40 MLOAD PUSH2 0x41A SWAP2 SWAP1 PUSH2 0x25A8 JUMP JUMPDEST SWAP1 DUP2 MSTORE PUSH1 0x20 ADD PUSH1 0x40 MLOAD DUP1 SWAP2 SUB SWAP1 KECCAK256 SWAP1 PUSH1 0x2 PUSH2 0x436 SWAP3 SWAP2 SWAP1 PUSH2 0x1C72 JUMP JUMPDEST POP PUSH1 0x0 PUSH2 0x442 CALLER PUSH2 0xB30 JUMP JUMPDEST SWAP1 POP PUSH1 0x0 DUP1 DUP3 PUSH1 0x40 MLOAD PUSH2 0x455 SWAP2 SWAP1 PUSH2 0x25A8 JUMP JUMPDEST SWAP1 DUP2 MSTORE PUSH1 0x20 ADD PUSH1 0x40 MLOAD DUP1 SWAP2 SUB SWAP1 KECCAK256 DUP1 SLOAD PUSH2 0x46E SWAP1 PUSH2 0x253B JUMP JUMPDEST DUP1 PUSH1 0x1F ADD PUSH1 0x20 DUP1 SWAP2 DIV MUL PUSH1 0x20 ADD PUSH1 0x40 MLOAD SWAP1 DUP2 ADD PUSH1 0x40 MSTORE DUP1 SWAP3 SWAP2 SWAP1 DUP2 DUP2 MSTORE PUSH1 0x20 ADD DUP3 DUP1 SLOAD PUSH2 0x49A SWAP1 PUSH2 0x253B JUMP JUMPDEST DUP1 ISZERO PUSH2 0x4E7 JUMPI DUP1 PUSH1 0x1F LT PUSH2 0x4BC JUMPI PUSH2 0x100 DUP1 DUP4 SLOAD DIV MUL DUP4 MSTORE SWAP2 PUSH1 0x20 ADD SWAP2 PUSH2 0x4E7 JUMP JUMPDEST DUP3 ADD SWAP2 SWAP1 PUSH1 0x0 MSTORE PUSH1 0x20 PUSH1 0x0 KECCAK256 SWAP1 JUMPDEST DUP2 SLOAD DUP2 MSTORE SWAP1 PUSH1 0x1 ADD SWAP1 PUSH1 0x20 ADD DUP1 DUP4 GT PUSH2 0x4CA JUMPI DUP3 SWAP1 SUB PUSH1 0x1F AND DUP3 ADD SWAP2 JUMPDEST POP POP POP POP POP SWAP1 POP DUP5 PUSH1 0x0 DUP4 PUSH1 0x40 MLOAD PUSH2 0x4FF SWAP2 SWAP1 PUSH2 0x25A8 JUMP JUMPDEST SWAP1 DUP2 MSTORE PUSH1 0x20 ADD PUSH1 0x40 MLOAD DUP1 SWAP2 SUB SWAP1 KECCAK256 SWAP1 DUP2 PUSH2 0x519 SWAP2 SWAP1 PUSH2 0x28BE JUMP JUMPDEST POP PUSH1 0x0 DUP2 MLOAD SUB PUSH2 0x554 JUMPI DUP2 PUSH1 0x0 DUP7 PUSH1 0x40 MLOAD PUSH2 0x534 SWAP2 SWAP1 PUSH2 0x25A8 JUMP JUMPDEST SWAP1 DUP2 MSTORE PUSH1 0x20 ADD PUSH1 0x40 MLOAD DUP1 SWAP2 SUB SWAP1 KECCAK256 SWAP1 DUP2 PUSH2 0x54E SWAP2 SWAP1 PUSH2 0x28BE JUMP JUMPDEST POP PUSH2 0x581 JUMP JUMPDEST DUP1 PUSH1 0x0 DUP7 PUSH1 0x40 MLOAD PUSH2 0x565 SWAP2 SWAP1 PUSH2 0x25A8 JUMP JUMPDEST SWAP1 DUP2 MSTORE PUSH1 0x20 ADD PUSH1 0x40 MLOAD DUP1 SWAP2 SUB SWAP1 KECCAK256 SWAP1 DUP2 PUSH2 0x57F SWAP2 SWAP1 PUSH2 0x28BE JUMP JUMPDEST POP JUMPDEST PUSH32 0xA758369D21D836B8337F4E4928FA9645A718CE6CB6D395F8D77E81D1C8F0D560 DUP3 DUP7 PUSH1 0x40 MLOAD PUSH2 0x5B2 SWAP3 SWAP2 SWAP1 PUSH2 0x2990 JUMP JUMPDEST PUSH1 0x40 MLOAD DUP1 SWAP2 SUB SWAP1 LOG1 POP POP POP POP POP JUMP JUMPDEST PUSH1 0x1 DUP3 DUP1 MLOAD PUSH1 0x20 DUP2 ADD DUP3 ADD DUP1 MLOAD DUP5 DUP3 MSTORE PUSH1 0x20 DUP4 ADD PUSH1 0x20 DUP6 ADD KECCAK256 DUP2 DUP4 MSTORE DUP1 SWAP6 POP POP POP POP POP POP DUP2 PUSH1 0x2 DUP2 LT PUSH2 0x5F3 JUMPI PUSH1 0x0 DUP1 REVERT JUMPDEST ADD PUSH1 0x0 SWAP2 POP SWAP2 POP POP SLOAD DUP2 JUMP JUMPDEST PUSH1 0x0 DUP1 PUSH1 0x4 PUSH8 0xFFFFFFFFFFFFFFFF DUP2 GT ISZERO PUSH2 0x61D JUMPI PUSH2 0x61C PUSH2 0x1E1B JUMP JUMPDEST JUMPDEST PUSH1 0x40 MLOAD SWAP1 DUP1 DUP3 MSTORE DUP1 PUSH1 0x20 MUL PUSH1 0x20 ADD DUP3 ADD PUSH1 0x40 MSTORE DUP1 ISZERO PUSH2 0x64B JUMPI DUP2 PUSH1 0x20 ADD PUSH1 0x20 DUP3 MUL DUP1 CALLDATASIZE DUP4 CALLDATACOPY DUP1 DUP3 ADD SWAP2 POP POP SWAP1 POP JUMPDEST POP SWAP1 POP PUSH1 0x0 JUMPDEST PUSH1 0x4 DUP2 LT ISZERO PUSH2 0x69E JUMPI DUP4 DUP2 PUSH1 0x4 DUP2 LT PUSH2 0x66D JUMPI PUSH2 0x66C PUSH2 0x26E3 JUMP JUMPDEST JUMPDEST PUSH1 0x20 MUL ADD MLOAD DUP3 DUP3 DUP2 MLOAD DUP2 LT PUSH2 0x685 JUMPI PUSH2 0x684 PUSH2 0x26E3 JUMP JUMPDEST JUMPDEST PUSH1 0x20 MUL PUSH1 0x20 ADD ADD DUP2 DUP2 MSTORE POP POP DUP1 DUP1 PUSH1 0x1 ADD SWAP2 POP POP PUSH2 0x651 JUMP JUMPDEST POP PUSH1 0x0 PUSH2 0x6AB DUP3 DUP7 PUSH2 0xE49 JUMP JUMPDEST SUB PUSH2 0x6BA JUMPI PUSH1 0x1 SWAP2 POP POP PUSH2 0x6C0 JUMP JUMPDEST PUSH1 0x0 SWAP2 POP POP JUMPDEST SWAP3 SWAP2 POP POP JUMP JUMPDEST PUSH2 0x6CE PUSH2 0x1CB2 JUMP JUMPDEST PUSH1 0x1 DUP3 PUSH1 0x40 MLOAD PUSH2 0x6DE SWAP2 SWAP1 PUSH2 0x25A8 JUMP JUMPDEST SWAP1 DUP2 MSTORE PUSH1 0x20 ADD PUSH1 0x40 MLOAD DUP1 SWAP2 SUB SWAP1 KECCAK256 PUSH1 0x2 DUP1 PUSH1 0x20 MUL PUSH1 0x40 MLOAD SWAP1 DUP2 ADD PUSH1 0x40 MSTORE DUP1 SWAP3 SWAP2 SWAP1 DUP3 PUSH1 0x2 DUP1 ISZERO PUSH2 0x723 JUMPI PUSH1 0x20 MUL DUP3 ADD SWAP2 JUMPDEST DUP2 SLOAD DUP2 MSTORE PUSH1 0x20 ADD SWAP1 PUSH1 0x1 ADD SWAP1 DUP1 DUP4 GT PUSH2 0x70F JUMPI JUMPDEST POP POP POP POP POP SWAP1 POP SWAP2 SWAP1 POP JUMP JUMPDEST PUSH1 0x0 DUP1 DUP3 PUSH1 0x40 MLOAD PUSH2 0x740 SWAP2 SWAP1 PUSH2 0x25A8 JUMP JUMPDEST SWAP1 DUP2 MSTORE PUSH1 0x20 ADD PUSH1 0x40 MLOAD DUP1 SWAP2 SUB SWAP1 KECCAK256 DUP1 SLOAD PUSH2 0x759 SWAP1 PUSH2 0x253B JUMP JUMPDEST SWAP1 POP SUB PUSH2 0x79B JUMPI PUSH1 0x40 MLOAD PUSH32 0x8C379A000000000000000000000000000000000000000000000000000000000 DUP2 MSTORE PUSH1 0x4 ADD PUSH2 0x792 SWAP1 PUSH2 0x2A39 JUMP JUMPDEST PUSH1 0x40 MLOAD DUP1 SWAP2 SUB SWAP1 REVERT JUMPDEST PUSH1 0x0 PUSH2 0x7A6 CALLER PUSH2 0xB30 JUMP JUMPDEST SWAP1 POP PUSH1 0x0 DUP3 PUSH1 0x40 MLOAD PUSH1 0x20 ADD PUSH2 0x7BB SWAP2 SWAP1 PUSH2 0x25A8 JUMP JUMPDEST PUSH1 0x40 MLOAD PUSH1 0x20 DUP2 DUP4 SUB SUB DUP2 MSTORE SWAP1 PUSH1 0x40 MSTORE DUP1 MLOAD SWAP1 PUSH1 0x20 ADD KECCAK256 SWAP1 POP PUSH1 0x0 DUP3 PUSH1 0x40 MLOAD PUSH1 0x20 ADD PUSH2 0x7E6 SWAP2 SWAP1 PUSH2 0x25A8 JUMP JUMPDEST PUSH1 0x40 MLOAD PUSH1 0x20 DUP2 DUP4 SUB SUB DUP2 MSTORE SWAP1 PUSH1 0x40 MSTORE DUP1 MLOAD SWAP1 PUSH1 0x20 ADD KECCAK256 SWAP1 POP PUSH1 0x0 DUP4 SWAP1 POP PUSH1 0x0 DUP1 DUP6 PUSH1 0x40 MLOAD PUSH2 0x814 SWAP2 SWAP1 PUSH2 0x25A8 JUMP JUMPDEST SWAP1 DUP2 MSTORE PUSH1 0x20 ADD PUSH1 0x40 MLOAD DUP1 SWAP2 SUB SWAP1 KECCAK256 DUP1 SLOAD PUSH2 0x82D SWAP1 PUSH2 0x253B JUMP JUMPDEST DUP1 PUSH1 0x1F ADD PUSH1 0x20 DUP1 SWAP2 DIV MUL PUSH1 0x20 ADD PUSH1 0x40 MLOAD SWAP1 DUP2 ADD PUSH1 0x40 MSTORE DUP1 SWAP3 SWAP2 SWAP1 DUP2 DUP2 MSTORE PUSH1 0x20 ADD DUP3 DUP1 SLOAD PUSH2 0x859 SWAP1 PUSH2 0x253B JUMP JUMPDEST DUP1 ISZERO PUSH2 0x8A6 JUMPI DUP1 PUSH1 0x1F LT PUSH2 0x87B JUMPI PUSH2 0x100 DUP1 DUP4 SLOAD DIV MUL DUP4 MSTORE SWAP2 PUSH1 0x20 ADD SWAP2 PUSH2 0x8A6 JUMP JUMPDEST DUP3 ADD SWAP2 SWAP1 PUSH1 0x0 MSTORE PUSH1 0x20 PUSH1 0x0 KECCAK256 SWAP1 JUMPDEST DUP2 SLOAD DUP2 MSTORE SWAP1 PUSH1 0x1 ADD SWAP1 PUSH1 0x20 ADD DUP1 DUP4 GT PUSH2 0x889 JUMPI DUP3 SWAP1 SUB PUSH1 0x1F AND DUP3 ADD SWAP2 JUMPDEST POP POP POP POP POP SWAP1 POP PUSH1 0x0 DUP2 MLOAD SUB PUSH2 0x8F1 JUMPI PUSH1 0x40 MLOAD PUSH32 0x8C379A000000000000000000000000000000000000000000000000000000000 DUP2 MSTORE PUSH1 0x4 ADD PUSH2 0x8E8 SWAP1 PUSH2 0x2ACB JUMP JUMPDEST PUSH1 0x40 MLOAD DUP1 SWAP2 SUB SWAP1 REVERT JUMPDEST PUSH1 0x0 DUP2 PUSH1 0x40 MLOAD PUSH1 0x20 ADD PUSH2 0x904 SWAP2 SWAP1 PUSH2 0x25A8 JUMP JUMPDEST PUSH1 0x40 MLOAD PUSH1 0x20 DUP2 DUP4 SUB SUB DUP2 MSTORE SWAP1 PUSH1 0x40 MSTORE DUP1 MLOAD SWAP1 PUSH1 0x20 ADD KECCAK256 SWAP1 POP JUMPDEST DUP1 DUP6 EQ PUSH2 0xA40 JUMPI DUP4 DUP2 SUB PUSH2 0x966 JUMPI PUSH1 0x40 MLOAD PUSH32 0x8C379A000000000000000000000000000000000000000000000000000000000 DUP2 MSTORE PUSH1 0x4 ADD PUSH2 0x95D SWAP1 PUSH2 0x2B83 JUMP JUMPDEST PUSH1 0x40 MLOAD DUP1 SWAP2 SUB SWAP1 REVERT JUMPDEST DUP2 SWAP3 POP PUSH1 0x0 DUP3 PUSH1 0x40 MLOAD PUSH2 0x979 SWAP2 SWAP1 PUSH2 0x25A8 JUMP JUMPDEST SWAP1 DUP2 MSTORE PUSH1 0x20 ADD PUSH1 0x40 MLOAD DUP1 SWAP2 SUB SWAP1 KECCAK256 DUP1 SLOAD PUSH2 0x992 SWAP1 PUSH2 0x253B JUMP JUMPDEST DUP1 PUSH1 0x1F ADD PUSH1 0x20 DUP1 SWAP2 DIV MUL PUSH1 0x20 ADD PUSH1 0x40 MLOAD SWAP1 DUP2 ADD PUSH1 0x40 MSTORE DUP1 SWAP3 SWAP2 SWAP1 DUP2 DUP2 MSTORE PUSH1 0x20 ADD DUP3 DUP1 SLOAD PUSH2 0x9BE SWAP1 PUSH2 0x253B JUMP JUMPDEST DUP1 ISZERO PUSH2 0xA0B JUMPI DUP1 PUSH1 0x1F LT PUSH2 0x9E0 JUMPI PUSH2 0x100 DUP1 DUP4 SLOAD DIV MUL DUP4 MSTORE SWAP2 PUSH1 0x20 ADD SWAP2 PUSH2 0xA0B JUMP JUMPDEST DUP3 ADD SWAP2 SWAP1 PUSH1 0x0 MSTORE PUSH1 0x20 PUSH1 0x0 KECCAK256 SWAP1 JUMPDEST DUP2 SLOAD DUP2 MSTORE SWAP1 PUSH1 0x1 ADD SWAP1 PUSH1 0x20 ADD DUP1 DUP4 GT PUSH2 0x9EE JUMPI DUP3 SWAP1 SUB PUSH1 0x1F AND DUP3 ADD SWAP2 JUMPDEST POP POP POP POP POP SWAP2 POP DUP2 PUSH1 0x40 MLOAD PUSH1 0x20 ADD PUSH2 0xA23 SWAP2 SWAP1 PUSH2 0x25A8 JUMP JUMPDEST PUSH1 0x40 MLOAD PUSH1 0x20 DUP2 DUP4 SUB SUB DUP2 MSTORE SWAP1 PUSH1 0x40 MSTORE DUP1 MLOAD SWAP1 PUSH1 0x20 ADD KECCAK256 SWAP1 POP PUSH2 0x91D JUMP JUMPDEST PUSH1 0x0 DUP8 PUSH1 0x40 MLOAD PUSH2 0xA50 SWAP2 SWAP1 PUSH2 0x25A8 JUMP JUMPDEST SWAP1 DUP2 MSTORE PUSH1 0x20 ADD PUSH1 0x40 MLOAD DUP1 SWAP2 SUB SWAP1 KECCAK256 PUSH1 0x0 DUP5 PUSH1 0x40 MLOAD PUSH2 0xA6E SWAP2 SWAP1 PUSH2 0x25A8 JUMP JUMPDEST SWAP1 DUP2 MSTORE PUSH1 0x20 ADD PUSH1 0x40 MLOAD DUP1 SWAP2 SUB SWAP1 KECCAK256 SWAP1 DUP2 PUSH2 0xA88 SWAP2 SWAP1 PUSH2 0x2BCE JUMP JUMPDEST POP PUSH1 0x40 MLOAD DUP1 PUSH1 0x20 ADD PUSH1 0x40 MSTORE DUP1 PUSH1 0x0 DUP2 MSTORE POP PUSH1 0x0 DUP9 PUSH1 0x40 MLOAD PUSH2 0xAA9 SWAP2 SWAP1 PUSH2 0x25A8 JUMP JUMPDEST SWAP1 DUP2 MSTORE PUSH1 0x20 ADD PUSH1 0x40 MLOAD DUP1 SWAP2 SUB SWAP1 KECCAK256 SWAP1 DUP2 PUSH2 0xAC3 SWAP2 SWAP1 PUSH2 0x28BE JUMP JUMPDEST POP PUSH1 0x1 DUP8 PUSH1 0x40 MLOAD PUSH2 0xAD4 SWAP2 SWAP1 PUSH2 0x25A8 JUMP JUMPDEST SWAP1 DUP2 MSTORE PUSH1 0x20 ADD PUSH1 0x40 MLOAD DUP1 SWAP2 SUB SWAP1 KECCAK256 PUSH1 0x0 PUSH2 0xAEE SWAP2 SWAP1 PUSH2 0x1CD4 JUMP JUMPDEST PUSH32 0x71D4B586DE62E0DD07F2AB987F1B608166194D3F4B54D915E8A10F4A5C957F81 DUP7 DUP9 PUSH1 0x40 MLOAD PUSH2 0xB1F SWAP3 SWAP2 SWAP1 PUSH2 0x2990 JUMP JUMPDEST PUSH1 0x40 MLOAD DUP1 SWAP2 SUB SWAP1 LOG1 POP POP POP POP POP POP POP JUMP JUMPDEST PUSH1 0x60 PUSH1 0x0 DUP3 PUSH1 0x40 MLOAD PUSH1 0x20 ADD PUSH2 0xB45 SWAP2 SWAP1 PUSH2 0x2D30 JUMP JUMPDEST PUSH1 0x40 MLOAD PUSH1 0x20 DUP2 DUP4 SUB SUB DUP2 MSTORE SWAP1 PUSH1 0x40 MSTORE SWAP1 POP PUSH1 0x0 PUSH1 0x40 MLOAD DUP1 PUSH1 0x40 ADD PUSH1 0x40 MSTORE DUP1 PUSH1 0x10 DUP2 MSTORE PUSH1 0x20 ADD PUSH32 0x3031323334353637383961626364656600000000000000000000000000000000 DUP2 MSTORE POP SWAP1 POP PUSH1 0x0 PUSH1 0x2 DUP4 MLOAD PUSH2 0xBA0 SWAP2 SWAP1 PUSH2 0x2D7A JUMP JUMPDEST PUSH1 0x2 PUSH2 0xBAC SWAP2 SWAP1 PUSH2 0x2DBC JUMP JUMPDEST PUSH8 0xFFFFFFFFFFFFFFFF DUP2 GT ISZERO PUSH2 0xBC5 JUMPI PUSH2 0xBC4 PUSH2 0x1E1B JUMP JUMPDEST JUMPDEST PUSH1 0x40 MLOAD SWAP1 DUP1 DUP3 MSTORE DUP1 PUSH1 0x1F ADD PUSH1 0x1F NOT AND PUSH1 0x20 ADD DUP3 ADD PUSH1 0x40 MSTORE DUP1 ISZERO PUSH2 0xBF7 JUMPI DUP2 PUSH1 0x20 ADD PUSH1 0x1 DUP3 MUL DUP1 CALLDATASIZE DUP4 CALLDATACOPY DUP1 DUP3 ADD SWAP2 POP POP SWAP1 POP JUMPDEST POP SWAP1 POP PUSH32 0x3000000000000000000000000000000000000000000000000000000000000000 DUP2 PUSH1 0x0 DUP2 MLOAD DUP2 LT PUSH2 0xC2F JUMPI PUSH2 0xC2E PUSH2 0x26E3 JUMP JUMPDEST JUMPDEST PUSH1 0x20 ADD ADD SWAP1 PUSH31 0xFFFFFFFFFFFFFFFFFFFFFFFFFFFFFFFFFFFFFFFFFFFFFFFFFFFFFFFFFFFFFF NOT AND SWAP1 DUP2 PUSH1 0x0 BYTE SWAP1 MSTORE8 POP PUSH32 0x7800000000000000000000000000000000000000000000000000000000000000 DUP2 PUSH1 0x1 DUP2 MLOAD DUP2 LT PUSH2 0xC93 JUMPI PUSH2 0xC92 PUSH2 0x26E3 JUMP JUMPDEST JUMPDEST PUSH1 0x20 ADD ADD SWAP1 PUSH31 0xFFFFFFFFFFFFFFFFFFFFFFFFFFFFFFFFFFFFFFFFFFFFFFFFFFFFFFFFFFFFFF NOT AND SWAP1 DUP2 PUSH1 0x0 BYTE SWAP1 MSTORE8 POP PUSH1 0x0 JUMPDEST DUP4 MLOAD DUP2 LT ISZERO PUSH2 0xE3D JUMPI DUP3 PUSH1 0x4 DUP6 DUP4 DUP2 MLOAD DUP2 LT PUSH2 0xCE4 JUMPI PUSH2 0xCE3 PUSH2 0x26E3 JUMP JUMPDEST JUMPDEST PUSH1 0x20 ADD ADD MLOAD PUSH1 0xF8 SHR PUSH1 0xF8 SHL PUSH31 0xFFFFFFFFFFFFFFFFFFFFFFFFFFFFFFFFFFFFFFFFFFFFFFFFFFFFFFFFFFFFFF NOT AND SWAP1 SHR PUSH1 0xF8 SHR PUSH1 0xFF AND DUP2 MLOAD DUP2 LT PUSH2 0xD2A JUMPI PUSH2 0xD29 PUSH2 0x26E3 JUMP JUMPDEST JUMPDEST PUSH1 0x20 ADD ADD MLOAD PUSH1 0xF8 SHR PUSH1 0xF8 SHL DUP3 PUSH1 0x2 DUP4 PUSH2 0xD43 SWAP2 SWAP1 PUSH2 0x2D7A JUMP JUMPDEST PUSH1 0x2 PUSH2 0xD4F SWAP2 SWAP1 PUSH2 0x2DBC JUMP JUMPDEST DUP2 MLOAD DUP2 LT PUSH2 0xD60 JUMPI PUSH2 0xD5F PUSH2 0x26E3 JUMP JUMPDEST JUMPDEST PUSH1 0x20 ADD ADD SWAP1 PUSH31 0xFFFFFFFFFFFFFFFFFFFFFFFFFFFFFFFFFFFFFFFFFFFFFFFFFFFFFFFFFFFFFF NOT AND SWAP1 DUP2 PUSH1 0x0 BYTE SWAP1 MSTORE8 POP DUP3 PUSH1 0xF PUSH1 0xF8 SHL DUP6 DUP4 DUP2 MLOAD DUP2 LT PUSH2 0xDA8 JUMPI PUSH2 0xDA7 PUSH2 0x26E3 JUMP JUMPDEST JUMPDEST PUSH1 0x20 ADD ADD MLOAD PUSH1 0xF8 SHR PUSH1 0xF8 SHL AND PUSH1 0xF8 SHR PUSH1 0xFF AND DUP2 MLOAD DUP2 LT PUSH2 0xDCB JUMPI PUSH2 0xDCA PUSH2 0x26E3 JUMP JUMPDEST JUMPDEST PUSH1 0x20 ADD ADD MLOAD PUSH1 0xF8 SHR PUSH1 0xF8 SHL DUP3 PUSH1 0x2 DUP4 PUSH2 0xDE4 SWAP2 SWAP1 PUSH2 0x2D7A JUMP JUMPDEST PUSH1 0x3 PUSH2 0xDF0 SWAP2 SWAP1 PUSH2 0x2DBC JUMP JUMPDEST DUP2 MLOAD DUP2 LT PUSH2 0xE01 JUMPI PUSH2 0xE00 PUSH2 0x26E3 JUMP JUMPDEST JUMPDEST PUSH1 0x20 ADD ADD SWAP1 PUSH31 0xFFFFFFFFFFFFFFFFFFFFFFFFFFFFFFFFFFFFFFFFFFFFFFFFFFFFFFFFFFFFFF NOT AND SWAP1 DUP2 PUSH1 0x0 BYTE SWAP1 MSTORE8 POP DUP1 DUP1 PUSH1 0x1 ADD SWAP2 POP POP PUSH2 0xCC5 JUMP JUMPDEST POP DUP1 SWAP4 POP POP POP POP SWAP2 SWAP1 POP JUMP JUMPDEST PUSH1 0x0 DUP1 PUSH32 0x30644E72E131A029B85045B68181585D2833E84879B9709143E1F593F0000001 SWAP1 POP PUSH1 0x0 PUSH2 0xE79 PUSH2 0xFDA JUMP JUMPDEST SWAP1 POP DUP1 PUSH1 0x80 ADD MLOAD MLOAD PUSH1 0x1 DUP7 MLOAD PUSH2 0xE8F SWAP2 SWAP1 PUSH2 0x2DBC JUMP JUMPDEST EQ PUSH2 0xE99 JUMPI PUSH1 0x0 DUP1 REVERT JUMPDEST PUSH1 0x0 PUSH1 0x40 MLOAD DUP1 PUSH1 0x40 ADD PUSH1 0x40 MSTORE DUP1 PUSH1 0x0 DUP2 MSTORE PUSH1 0x20 ADD PUSH1 0x0 DUP2 MSTORE POP SWAP1 POP PUSH1 0x0 JUMPDEST DUP7 MLOAD DUP2 LT ISZERO PUSH2 0xF4C JUMPI DUP4 DUP8 DUP3 DUP2 MLOAD DUP2 LT PUSH2 0xED4 JUMPI PUSH2 0xED3 PUSH2 0x26E3 JUMP JUMPDEST JUMPDEST PUSH1 0x20 MUL PUSH1 0x20 ADD ADD MLOAD LT PUSH2 0xEE6 JUMPI PUSH1 0x0 DUP1 REVERT JUMPDEST PUSH2 0xF3D DUP3 PUSH2 0xF38 DUP6 PUSH1 0x80 ADD MLOAD PUSH1 0x1 DUP6 PUSH2 0xEFF SWAP2 SWAP1 PUSH2 0x2DBC JUMP JUMPDEST DUP2 MLOAD DUP2 LT PUSH2 0xF10 JUMPI PUSH2 0xF0F PUSH2 0x26E3 JUMP JUMPDEST JUMPDEST PUSH1 0x20 MUL PUSH1 0x20 ADD ADD MLOAD DUP11 DUP6 DUP2 MLOAD DUP2 LT PUSH2 0xF2B JUMPI PUSH2 0xF2A PUSH2 0x26E3 JUMP JUMPDEST JUMPDEST PUSH1 0x20 MUL PUSH1 0x20 ADD ADD MLOAD PUSH2 0x1546 JUMP JUMPDEST PUSH2 0x15E8 JUMP JUMPDEST SWAP2 POP DUP1 DUP1 PUSH1 0x1 ADD SWAP2 POP POP PUSH2 0xEB7 JUMP JUMPDEST POP PUSH2 0xF76 DUP2 DUP4 PUSH1 0x80 ADD MLOAD PUSH1 0x0 DUP2 MLOAD DUP2 LT PUSH2 0xF69 JUMPI PUSH2 0xF68 PUSH2 0x26E3 JUMP JUMPDEST JUMPDEST PUSH1 0x20 MUL PUSH1 0x20 ADD ADD MLOAD PUSH2 0x15E8 JUMP JUMPDEST SWAP1 POP PUSH2 0xFBC DUP6 PUSH1 0x0 ADD MLOAD DUP7 PUSH1 0x20 ADD MLOAD PUSH2 0xF8E DUP5 PUSH2 0x16B0 JUMP JUMPDEST DUP6 PUSH1 0x40 ADD MLOAD PUSH2 0xFA0 DUP11 PUSH1 0x40 ADD MLOAD PUSH2 0x16B0 JUMP JUMPDEST DUP8 PUSH1 0x60 ADD MLOAD PUSH2 0xFB2 DUP10 PUSH1 0x0 ADD MLOAD PUSH2 0x16B0 JUMP JUMPDEST DUP10 PUSH1 0x20 ADD MLOAD PUSH2 0x1755 JUMP JUMPDEST PUSH2 0xFCC JUMPI PUSH1 0x1 SWAP4 POP POP POP POP PUSH2 0xFD4 JUMP JUMPDEST PUSH1 0x0 SWAP4 POP POP POP POP JUMPDEST SWAP3 SWAP2 POP POP JUMP JUMPDEST PUSH2 0xFE2 PUSH2 0x1CE2 JUMP JUMPDEST PUSH1 0x40 MLOAD DUP1 PUSH1 0x40 ADD PUSH1 0x40 MSTORE DUP1 PUSH32 0x2F5E6AF506B96774E2925365C3321345AB256E893511FFA46ECD791A2B287B60 DUP2 MSTORE PUSH1 0x20 ADD PUSH32 0x5A0204A91BA0D8E72ECAFD94FC63EDCD0A2CCA50E7549D0D83BB0B0B000942A DUP2 MSTORE POP DUP2 PUSH1 0x0 ADD DUP2 SWAP1 MSTORE POP PUSH1 0x40 MLOAD DUP1 PUSH1 0x40 ADD PUSH1 0x40 MSTORE DUP1 PUSH1 0x40 MLOAD DUP1 PUSH1 0x40 ADD PUSH1 0x40 MSTORE DUP1 PUSH32 0xFC4D876C4B0000D6D623CCEDEFE8EA74E434F530B1DBC983368BF04934235ED DUP2 MSTORE PUSH1 0x20 ADD PUSH32 0x1FDD473EB14C6BDF4BD5657CC16142D3202F5E3BDC4154643552718D7E94010C DUP2 MSTORE POP DUP2 MSTORE PUSH1 0x20 ADD PUSH1 0x40 MLOAD DUP1 PUSH1 0x40 ADD PUSH1 0x40 MSTORE DUP1 PUSH32 0x28EA5438112033A6F687D6CC45889E190AC48E6D8531961DC40978FFB8D9D190 DUP2 MSTORE PUSH1 0x20 ADD PUSH32 0x158E624699F5391E0DC3A137F641AB56BA79D2E716606DA48F7B836A5931E810 DUP2 MSTORE POP DUP2 MSTORE POP DUP2 PUSH1 0x20 ADD DUP2 SWAP1 MSTORE POP PUSH1 0x40 MLOAD DUP1 PUSH1 0x40 ADD PUSH1 0x40 MSTORE DUP1 PUSH1 0x40 MLOAD DUP1 PUSH1 0x40 ADD PUSH1 0x40 MSTORE DUP1 PUSH32 0xB53988A08178909F759EDCD1A77EA41715AD14C7CAF6157ACD583DC41A9B310 DUP2 MSTORE PUSH1 0x20 ADD PUSH32 0x14791244C423D2BEB727A55784B31FCB5D92F0A7E192F2E3F9B7752633D56CBF DUP2 MSTORE POP DUP2 MSTORE PUSH1 0x20 ADD PUSH1 0x40 MLOAD DUP1 PUSH1 0x40 ADD PUSH1 0x40 MSTORE DUP1 PUSH32 0x1B624ABD12A5810D8D16EE53CC9CFBA66DE28FDDC0674B60B6944970C4719094 DUP2 MSTORE PUSH1 0x20 ADD PUSH32 0x9DF1760DD611DEE6DE8572575AB0B8142E7557BE61334C05B63D30DF9D08B42 DUP2 MSTORE POP DUP2 MSTORE POP DUP2 PUSH1 0x40 ADD DUP2 SWAP1 MSTORE POP PUSH1 0x40 MLOAD DUP1 PUSH1 0x40 ADD PUSH1 0x40 MSTORE DUP1 PUSH1 0x40 MLOAD DUP1 PUSH1 0x40 ADD PUSH1 0x40 MSTORE DUP1 PUSH32 0x1F74B0713025DB4DF4578D294F8B8F621810939FAC569CC7D79AD49180853776 DUP2 MSTORE PUSH1 0x20 ADD PUSH32 0x16F23C3152A8E86756A5D93344B1CE5CDEE88178D2508AD22522D1DD373260ED DUP2 MSTORE POP DUP2 MSTORE PUSH1 0x20 ADD PUSH1 0x40 MLOAD DUP1 PUSH1 0x40 ADD PUSH1 0x40 MSTORE DUP1 PUSH32 0x1034505B233386F7D899B1578CA346BC2DC0B5B000713EC6300761C70BF716B3 DUP2 MSTORE PUSH1 0x20 ADD PUSH32 0x19E53E7BD2B633E93403AFBD9A03FFD158FC363D8AF40ED1CB7DF23B339A21D5 DUP2 MSTORE POP DUP2 MSTORE POP DUP2 PUSH1 0x60 ADD DUP2 SWAP1 MSTORE POP PUSH1 0x5 PUSH8 0xFFFFFFFFFFFFFFFF DUP2 GT ISZERO PUSH2 0x12A9 JUMPI PUSH2 0x12A8 PUSH2 0x1E1B JUMP JUMPDEST JUMPDEST PUSH1 0x40 MLOAD SWAP1 DUP1 DUP3 MSTORE DUP1 PUSH1 0x20 MUL PUSH1 0x20 ADD DUP3 ADD PUSH1 0x40 MSTORE DUP1 ISZERO PUSH2 0x12E2 JUMPI DUP2 PUSH1 0x20 ADD JUMPDEST PUSH2 0x12CF PUSH2 0x1D29 JUMP JUMPDEST DUP2 MSTORE PUSH1 0x20 ADD SWAP1 PUSH1 0x1 SWAP1 SUB SWAP1 DUP2 PUSH2 0x12C7 JUMPI SWAP1 POP JUMPDEST POP DUP2 PUSH1 0x80 ADD DUP2 SWAP1 MSTORE POP PUSH1 0x40 MLOAD DUP1 PUSH1 0x40 ADD PUSH1 0x40 MSTORE DUP1 PUSH32 0x25BD36B30A82E6F6AC8621D99E20A8AF6CA97DA2D7B5FE880901D61E60AE1CA1 DUP2 MSTORE PUSH1 0x20 ADD PUSH32 0x20EAAA7F9FAE79F789F96DFF742170C6E5FD18C96C284D75489CD66F659E63BA DUP2 MSTORE POP DUP2 PUSH1 0x80 ADD MLOAD PUSH1 0x0 DUP2 MLOAD DUP2 LT PUSH2 0x1358 JUMPI PUSH2 0x1357 PUSH2 0x26E3 JUMP JUMPDEST JUMPDEST PUSH1 0x20 MUL PUSH1 0x20 ADD ADD DUP2 SWAP1 MSTORE POP PUSH1 0x40 MLOAD DUP1 PUSH1 0x40 ADD PUSH1 0x40 MSTORE DUP1 PUSH32 0x2B8507ACCBF4846476AAFB36DAD3C7F9694B317CF4951B1444DE897A27BB3A41 DUP2 MSTORE PUSH1 0x20 ADD PUSH32 0x154BE64C8B3B929A656048310F46EA999C243FA3931EF5FEBD675542F4B1BED2 DUP2 MSTORE POP DUP2 PUSH1 0x80 ADD MLOAD PUSH1 0x1 DUP2 MLOAD DUP2 LT PUSH2 0x13D0 JUMPI PUSH2 0x13CF PUSH2 0x26E3 JUMP JUMPDEST JUMPDEST PUSH1 0x20 MUL PUSH1 0x20 ADD ADD DUP2 SWAP1 MSTORE POP PUSH1 0x40 MLOAD DUP1 PUSH1 0x40 ADD PUSH1 0x40 MSTORE DUP1 PUSH32 0x298E5732C627EED58EB7F7A58DF2AC1699FE27953E3AC249A27D24AD2A2C3F4D DUP2 MSTORE PUSH1 0x20 ADD PUSH32 0x59CC84BFD7B0FB48297CBFBD56A05248ED2819265BB9FC0079CE4F21D4E70ED DUP2 MSTORE POP DUP2 PUSH1 0x80 ADD MLOAD PUSH1 0x2 DUP2 MLOAD DUP2 LT PUSH2 0x1448 JUMPI PUSH2 0x1447 PUSH2 0x26E3 JUMP JUMPDEST JUMPDEST PUSH1 0x20 MUL PUSH1 0x20 ADD ADD DUP2 SWAP1 MSTORE POP PUSH1 0x40 MLOAD DUP1 PUSH1 0x40 ADD PUSH1 0x40 MSTORE DUP1 PUSH32 0x838C912682118E141DA1EC9EB259C180F860F28646729F361D94C94A8AA727F DUP2 MSTORE PUSH1 0x20 ADD PUSH32 0x1809DE65884E45C1229794A15468011DFC04B37AFCC2ED1FBA1FB508457E9AC DUP2 MSTORE POP DUP2 PUSH1 0x80 ADD MLOAD PUSH1 0x3 DUP2 MLOAD DUP2 LT PUSH2 0x14C0 JUMPI PUSH2 0x14BF PUSH2 0x26E3 JUMP JUMPDEST JUMPDEST PUSH1 0x20 MUL PUSH1 0x20 ADD ADD DUP2 SWAP1 MSTORE POP PUSH1 0x40 MLOAD DUP1 PUSH1 0x40 ADD PUSH1 0x40 MSTORE DUP1 PUSH32 0x462CE76CC1ED5D937AEB12932B1CAFF41052F0940E8527AAFDA3D080B677BA6 DUP2 MSTORE PUSH1 0x20 ADD PUSH32 0x15B1F680BDE4E1A42EC7A624CCC1083270AECF263137602F54EF7DB91440A0DD DUP2 MSTORE POP DUP2 PUSH1 0x80 ADD MLOAD PUSH1 0x4 DUP2 MLOAD DUP2 LT PUSH2 0x1538 JUMPI PUSH2 0x1537 PUSH2 0x26E3 JUMP JUMPDEST JUMPDEST PUSH1 0x20 MUL PUSH1 0x20 ADD ADD DUP2 SWAP1 MSTORE POP SWAP1 JUMP JUMPDEST PUSH2 0x154E PUSH2 0x1D29 JUMP JUMPDEST PUSH2 0x1556 PUSH2 0x1D43 JUMP JUMPDEST DUP4 PUSH1 0x0 ADD MLOAD DUP2 PUSH1 0x0 PUSH1 0x3 DUP2 LT PUSH2 0x156F JUMPI PUSH2 0x156E PUSH2 0x26E3 JUMP JUMPDEST JUMPDEST PUSH1 0x20 MUL ADD DUP2 DUP2 MSTORE POP POP DUP4 PUSH1 0x20 ADD MLOAD DUP2 PUSH1 0x1 PUSH1 0x3 DUP2 LT PUSH2 0x1591 JUMPI PUSH2 0x1590 PUSH2 0x26E3 JUMP JUMPDEST JUMPDEST PUSH1 0x20 MUL ADD DUP2 DUP2 MSTORE POP POP DUP3 DUP2 PUSH1 0x2 PUSH1 0x3 DUP2 LT PUSH2 0x15AF JUMPI PUSH2 0x15AE PUSH2 0x26E3 JUMP JUMPDEST JUMPDEST PUSH1 0x20 MUL ADD DUP2 DUP2 MSTORE POP POP PUSH1 0x0 PUSH1 0x60 DUP4 PUSH1 0x80 DUP5 PUSH1 0x7 PUSH2 0x7D0 GAS SUB STATICCALL SWAP1 POP DUP1 PUSH1 0x0 DUP2 SUB PUSH2 0x15D5 JUMPI INVALID JUMPDEST POP DUP1 PUSH2 0x15E0 JUMPI PUSH1 0x0 DUP1 REVERT JUMPDEST POP POP SWAP3 SWAP2 POP POP JUMP JUMPDEST PUSH2 0x15F0 PUSH2 0x1D29 JUMP JUMPDEST PUSH2 0x15F8 PUSH2 0x1D65 JUMP JUMPDEST DUP4 PUSH1 0x0 ADD MLOAD DUP2 PUSH1 0x0 PUSH1 0x4 DUP2 LT PUSH2 0x1611 JUMPI PUSH2 0x1610 PUSH2 0x26E3 JUMP JUMPDEST JUMPDEST PUSH1 0x20 MUL ADD DUP2 DUP2 MSTORE POP POP DUP4 PUSH1 0x20 ADD MLOAD DUP2 PUSH1 0x1 PUSH1 0x4 DUP2 LT PUSH2 0x1633 JUMPI PUSH2 0x1632 PUSH2 0x26E3 JUMP JUMPDEST JUMPDEST PUSH1 0x20 MUL ADD DUP2 DUP2 MSTORE POP POP DUP3 PUSH1 0x0 ADD MLOAD DUP2 PUSH1 0x2 PUSH1 0x4 DUP2 LT PUSH2 0x1655 JUMPI PUSH2 0x1654 PUSH2 0x26E3 JUMP JUMPDEST JUMPDEST PUSH1 0x20 MUL ADD DUP2 DUP2 MSTORE POP POP DUP3 PUSH1 0x20 ADD MLOAD DUP2 PUSH1 0x3 PUSH1 0x4 DUP2 LT PUSH2 0x1677 JUMPI PUSH2 0x1676 PUSH2 0x26E3 JUMP JUMPDEST JUMPDEST PUSH1 0x20 MUL ADD DUP2 DUP2 MSTORE POP POP PUSH1 0x0 PUSH1 0x60 DUP4 PUSH1 0xC0 DUP5 PUSH1 0x6 PUSH2 0x7D0 GAS SUB STATICCALL SWAP1 POP DUP1 PUSH1 0x0 DUP2 SUB PUSH2 0x169D JUMPI INVALID JUMPDEST POP DUP1 PUSH2 0x16A8 JUMPI PUSH1 0x0 DUP1 REVERT JUMPDEST POP POP SWAP3 SWAP2 POP POP JUMP JUMPDEST PUSH2 0x16B8 PUSH2 0x1D29 JUMP JUMPDEST PUSH1 0x0 PUSH32 0x30644E72E131A029B85045B68181585D97816A916871CA8D3C208C16D87CFD47 SWAP1 POP PUSH1 0x0 DUP4 PUSH1 0x0 ADD MLOAD EQ DUP1 ISZERO PUSH2 0x16F5 JUMPI POP PUSH1 0x0 DUP4 PUSH1 0x20 ADD MLOAD EQ JUMPDEST ISZERO PUSH2 0x1719 JUMPI PUSH1 0x40 MLOAD DUP1 PUSH1 0x40 ADD PUSH1 0x40 MSTORE DUP1 PUSH1 0x0 DUP2 MSTORE PUSH1 0x20 ADD PUSH1 0x0 DUP2 MSTORE POP SWAP2 POP POP PUSH2 0x1750 JUMP JUMPDEST PUSH1 0x40 MLOAD DUP1 PUSH1 0x40 ADD PUSH1 0x40 MSTORE DUP1 DUP5 PUSH1 0x0 ADD MLOAD DUP2 MSTORE PUSH1 0x20 ADD DUP3 DUP6 PUSH1 0x20 ADD MLOAD PUSH2 0x173E SWAP2 SWAP1 PUSH2 0x2E1F JUMP JUMPDEST DUP4 PUSH2 0x1749 SWAP2 SWAP1 PUSH2 0x2E50 JUMP JUMPDEST DUP2 MSTORE POP SWAP2 POP POP JUMPDEST SWAP2 SWAP1 POP JUMP JUMPDEST PUSH1 0x0 DUP1 PUSH1 0x4 PUSH8 0xFFFFFFFFFFFFFFFF DUP2 GT ISZERO PUSH2 0x1773 JUMPI PUSH2 0x1772 PUSH2 0x1E1B JUMP JUMPDEST JUMPDEST PUSH1 0x40 MLOAD SWAP1 DUP1 DUP3 MSTORE DUP1 PUSH1 0x20 MUL PUSH1 0x20 ADD DUP3 ADD PUSH1 0x40 MSTORE DUP1 ISZERO PUSH2 0x17AC JUMPI DUP2 PUSH1 0x20 ADD JUMPDEST PUSH2 0x1799 PUSH2 0x1D29 JUMP JUMPDEST DUP2 MSTORE PUSH1 0x20 ADD SWAP1 PUSH1 0x1 SWAP1 SUB SWAP1 DUP2 PUSH2 0x1791 JUMPI SWAP1 POP JUMPDEST POP SWAP1 POP PUSH1 0x0 PUSH1 0x4 PUSH8 0xFFFFFFFFFFFFFFFF DUP2 GT ISZERO PUSH2 0x17CC JUMPI PUSH2 0x17CB PUSH2 0x1E1B JUMP JUMPDEST JUMPDEST PUSH1 0x40 MLOAD SWAP1 DUP1 DUP3 MSTORE DUP1 PUSH1 0x20 MUL PUSH1 0x20 ADD DUP3 ADD PUSH1 0x40 MSTORE DUP1 ISZERO PUSH2 0x1805 JUMPI DUP2 PUSH1 0x20 ADD JUMPDEST PUSH2 0x17F2 PUSH2 0x1D87 JUMP JUMPDEST DUP2 MSTORE PUSH1 0x20 ADD SWAP1 PUSH1 0x1 SWAP1 SUB SWAP1 DUP2 PUSH2 0x17EA JUMPI SWAP1 POP JUMPDEST POP SWAP1 POP DUP11 DUP3 PUSH1 0x0 DUP2 MLOAD DUP2 LT PUSH2 0x181D JUMPI PUSH2 0x181C PUSH2 0x26E3 JUMP JUMPDEST JUMPDEST PUSH1 0x20 MUL PUSH1 0x20 ADD ADD DUP2 SWAP1 MSTORE POP DUP9 DUP3 PUSH1 0x1 DUP2 MLOAD DUP2 LT PUSH2 0x183D JUMPI PUSH2 0x183C PUSH2 0x26E3 JUMP JUMPDEST JUMPDEST PUSH1 0x20 MUL PUSH1 0x20 ADD ADD DUP2 SWAP1 MSTORE POP DUP7 DUP3 PUSH1 0x2 DUP2 MLOAD DUP2 LT PUSH2 0x185D JUMPI PUSH2 0x185C PUSH2 0x26E3 JUMP JUMPDEST JUMPDEST PUSH1 0x20 MUL PUSH1 0x20 ADD ADD DUP2 SWAP1 MSTORE POP DUP5 DUP3 PUSH1 0x3 DUP2 MLOAD DUP2 LT PUSH2 0x187D JUMPI PUSH2 0x187C PUSH2 0x26E3 JUMP JUMPDEST JUMPDEST PUSH1 0x20 MUL PUSH1 0x20 ADD ADD DUP2 SWAP1 MSTORE POP DUP10 DUP2 PUSH1 0x0 DUP2 MLOAD DUP2 LT PUSH2 0x189D JUMPI PUSH2 0x189C PUSH2 0x26E3 JUMP JUMPDEST JUMPDEST PUSH1 0x20 MUL PUSH1 0x20 ADD ADD DUP2 SWAP1 MSTORE POP DUP8 DUP2 PUSH1 0x1 DUP2 MLOAD DUP2 LT PUSH2 0x18BD JUMPI PUSH2 0x18BC PUSH2 0x26E3 JUMP JUMPDEST JUMPDEST PUSH1 0x20 MUL PUSH1 0x20 ADD ADD DUP2 SWAP1 MSTORE POP DUP6 DUP2 PUSH1 0x2 DUP2 MLOAD DUP2 LT PUSH2 0x18DD JUMPI PUSH2 0x18DC PUSH2 0x26E3 JUMP JUMPDEST JUMPDEST PUSH1 0x20 MUL PUSH1 0x20 ADD ADD DUP2 SWAP1 MSTORE POP DUP4 DUP2 PUSH1 0x3 DUP2 MLOAD DUP2 LT PUSH2 0x18FD JUMPI PUSH2 0x18FC PUSH2 0x26E3 JUMP JUMPDEST JUMPDEST PUSH1 0x20 MUL PUSH1 0x20 ADD ADD DUP2 SWAP1 MSTORE POP PUSH2 0x1912 DUP3 DUP3 PUSH2 0x1922 JUMP JUMPDEST SWAP3 POP POP POP SWAP9 SWAP8 POP POP POP POP POP POP POP POP JUMP JUMPDEST PUSH1 0x0 DUP2 MLOAD DUP4 MLOAD EQ PUSH2 0x1932 JUMPI PUSH1 0x0 DUP1 REVERT JUMPDEST PUSH1 0x0 DUP4 MLOAD SWAP1 POP PUSH1 0x0 PUSH1 0x6 DUP3 PUSH2 0x1947 SWAP2 SWAP1 PUSH2 0x2D7A JUMP JUMPDEST SWAP1 POP PUSH1 0x0 DUP2 PUSH8 0xFFFFFFFFFFFFFFFF DUP2 GT ISZERO PUSH2 0x1965 JUMPI PUSH2 0x1964 PUSH2 0x1E1B JUMP JUMPDEST JUMPDEST PUSH1 0x40 MLOAD SWAP1 DUP1 DUP3 MSTORE DUP1 PUSH1 0x20 MUL PUSH1 0x20 ADD DUP3 ADD PUSH1 0x40 MSTORE DUP1 ISZERO PUSH2 0x1993 JUMPI DUP2 PUSH1 0x20 ADD PUSH1 0x20 DUP3 MUL DUP1 CALLDATASIZE DUP4 CALLDATACOPY DUP1 DUP3 ADD SWAP2 POP POP SWAP1 POP JUMPDEST POP SWAP1 POP PUSH1 0x0 JUMPDEST DUP4 DUP2 LT ISZERO PUSH2 0x1C12 JUMPI DUP7 DUP2 DUP2 MLOAD DUP2 LT PUSH2 0x19B4 JUMPI PUSH2 0x19B3 PUSH2 0x26E3 JUMP JUMPDEST JUMPDEST PUSH1 0x20 MUL PUSH1 0x20 ADD ADD MLOAD PUSH1 0x0 ADD MLOAD DUP3 PUSH1 0x0 PUSH1 0x6 DUP5 PUSH2 0x19D0 SWAP2 SWAP1 PUSH2 0x2D7A JUMP JUMPDEST PUSH2 0x19DA SWAP2 SWAP1 PUSH2 0x2DBC JUMP JUMPDEST DUP2 MLOAD DUP2 LT PUSH2 0x19EB JUMPI PUSH2 0x19EA PUSH2 0x26E3 JUMP JUMPDEST JUMPDEST PUSH1 0x20 MUL PUSH1 0x20 ADD ADD DUP2 DUP2 MSTORE POP POP DUP7 DUP2 DUP2 MLOAD DUP2 LT PUSH2 0x1A0A JUMPI PUSH2 0x1A09 PUSH2 0x26E3 JUMP JUMPDEST JUMPDEST PUSH1 0x20 MUL PUSH1 0x20 ADD ADD MLOAD PUSH1 0x20 ADD MLOAD DUP3 PUSH1 0x1 PUSH1 0x6 DUP5 PUSH2 0x1A26 SWAP2 SWAP1 PUSH2 0x2D7A JUMP JUMPDEST PUSH2 0x1A30 SWAP2 SWAP1 PUSH2 0x2DBC JUMP JUMPDEST DUP2 MLOAD DUP2 LT PUSH2 0x1A41 JUMPI PUSH2 0x1A40 PUSH2 0x26E3 JUMP JUMPDEST JUMPDEST PUSH1 0x20 MUL PUSH1 0x20 ADD ADD DUP2 DUP2 MSTORE POP POP DUP6 DUP2 DUP2 MLOAD DUP2 LT PUSH2 0x1A60 JUMPI PUSH2 0x1A5F PUSH2 0x26E3 JUMP JUMPDEST JUMPDEST PUSH1 0x20 MUL PUSH1 0x20 ADD ADD MLOAD PUSH1 0x0 ADD MLOAD PUSH1 0x1 PUSH1 0x2 DUP2 LT PUSH2 0x1A7F JUMPI PUSH2 0x1A7E PUSH2 0x26E3 JUMP JUMPDEST JUMPDEST PUSH1 0x20 MUL ADD MLOAD DUP3 PUSH1 0x2 PUSH1 0x6 DUP5 PUSH2 0x1A94 SWAP2 SWAP1 PUSH2 0x2D7A JUMP JUMPDEST PUSH2 0x1A9E SWAP2 SWAP1 PUSH2 0x2DBC JUMP JUMPDEST DUP2 MLOAD DUP2 LT PUSH2 0x1AAF JUMPI PUSH2 0x1AAE PUSH2 0x26E3 JUMP JUMPDEST JUMPDEST PUSH1 0x20 MUL PUSH1 0x20 ADD ADD DUP2 DUP2 MSTORE POP POP DUP6 DUP2 DUP2 MLOAD DUP2 LT PUSH2 0x1ACE JUMPI PUSH2 0x1ACD PUSH2 0x26E3 JUMP JUMPDEST JUMPDEST PUSH1 0x20 MUL PUSH1 0x20 ADD ADD MLOAD PUSH1 0x0 ADD MLOAD PUSH1 0x0 PUSH1 0x2 DUP2 LT PUSH2 0x1AED JUMPI PUSH2 0x1AEC PUSH2 0x26E3 JUMP JUMPDEST JUMPDEST PUSH1 0x20 MUL ADD MLOAD DUP3 PUSH1 0x3 PUSH1 0x6 DUP5 PUSH2 0x1B02 SWAP2 SWAP1 PUSH2 0x2D7A JUMP JUMPDEST PUSH2 0x1B0C SWAP2 SWAP1 PUSH2 0x2DBC JUMP JUMPDEST DUP2 MLOAD DUP2 LT PUSH2 0x1B1D JUMPI PUSH2 0x1B1C PUSH2 0x26E3 JUMP JUMPDEST JUMPDEST PUSH1 0x20 MUL PUSH1 0x20 ADD ADD DUP2 DUP2 MSTORE POP POP DUP6 DUP2 DUP2 MLOAD DUP2 LT PUSH2 0x1B3C JUMPI PUSH2 0x1B3B PUSH2 0x26E3 JUMP JUMPDEST JUMPDEST PUSH1 0x20 MUL PUSH1 0x20 ADD ADD MLOAD PUSH1 0x20 ADD MLOAD PUSH1 0x1 PUSH1 0x2 DUP2 LT PUSH2 0x1B5B JUMPI PUSH2 0x1B5A PUSH2 0x26E3 JUMP JUMPDEST JUMPDEST PUSH1 0x20 MUL ADD MLOAD DUP3 PUSH1 0x4 PUSH1 0x6 DUP5 PUSH2 0x1B70 SWAP2 SWAP1 PUSH2 0x2D7A JUMP JUMPDEST PUSH2 0x1B7A SWAP2 SWAP1 PUSH2 0x2DBC JUMP JUMPDEST DUP2 MLOAD DUP2 LT PUSH2 0x1B8B JUMPI PUSH2 0x1B8A PUSH2 0x26E3 JUMP JUMPDEST JUMPDEST PUSH1 0x20 MUL PUSH1 0x20 ADD ADD DUP2 DUP2 MSTORE POP POP DUP6 DUP2 DUP2 MLOAD DUP2 LT PUSH2 0x1BAA JUMPI PUSH2 0x1BA9 PUSH2 0x26E3 JUMP JUMPDEST JUMPDEST PUSH1 0x20 MUL PUSH1 0x20 ADD ADD MLOAD PUSH1 0x20 ADD MLOAD PUSH1 0x0 PUSH1 0x2 DUP2 LT PUSH2 0x1BC9 JUMPI PUSH2 0x1BC8 PUSH2 0x26E3 JUMP JUMPDEST JUMPDEST PUSH1 0x20 MUL ADD MLOAD DUP3 PUSH1 0x5 PUSH1 0x6 DUP5 PUSH2 0x1BDE SWAP2 SWAP1 PUSH2 0x2D7A JUMP JUMPDEST PUSH2 0x1BE8 SWAP2 SWAP1 PUSH2 0x2DBC JUMP JUMPDEST DUP2 MLOAD DUP2 LT PUSH2 0x1BF9 JUMPI PUSH2 0x1BF8 PUSH2 0x26E3 JUMP JUMPDEST JUMPDEST PUSH1 0x20 MUL PUSH1 0x20 ADD ADD DUP2 DUP2 MSTORE POP POP DUP1 DUP1 PUSH1 0x1 ADD SWAP2 POP POP PUSH2 0x1999 JUMP JUMPDEST POP PUSH2 0x1C1B PUSH2 0x1DAD JUMP JUMPDEST PUSH1 0x0 PUSH1 0x20 DUP3 PUSH1 0x20 DUP7 MUL PUSH1 0x20 DUP7 ADD PUSH1 0x8 PUSH2 0x7D0 GAS SUB STATICCALL SWAP1 POP DUP1 PUSH1 0x0 DUP2 SUB PUSH2 0x1C3D JUMPI INVALID JUMPDEST POP DUP1 PUSH2 0x1C48 JUMPI PUSH1 0x0 DUP1 REVERT JUMPDEST PUSH1 0x0 DUP3 PUSH1 0x0 PUSH1 0x1 DUP2 LT PUSH2 0x1C5E JUMPI PUSH2 0x1C5D PUSH2 0x26E3 JUMP JUMPDEST JUMPDEST PUSH1 0x20 MUL ADD MLOAD EQ ISZERO SWAP6 POP POP POP POP POP POP SWAP3 SWAP2 POP POP JUMP JUMPDEST DUP3 PUSH1 0x2 DUP2 ADD SWAP3 DUP3 ISZERO PUSH2 0x1CA1 JUMPI SWAP2 PUSH1 0x20 MUL DUP3 ADD JUMPDEST DUP3 DUP2 GT ISZERO PUSH2 0x1CA0 JUMPI DUP3 MLOAD DUP3 SSTORE SWAP2 PUSH1 0x20 ADD SWAP2 SWAP1 PUSH1 0x1 ADD SWAP1 PUSH2 0x1C85 JUMP JUMPDEST JUMPDEST POP SWAP1 POP PUSH2 0x1CAE SWAP2 SWAP1 PUSH2 0x1DCF JUMP JUMPDEST POP SWAP1 JUMP JUMPDEST PUSH1 0x40 MLOAD DUP1 PUSH1 0x40 ADD PUSH1 0x40 MSTORE DUP1 PUSH1 0x2 SWAP1 PUSH1 0x20 DUP3 MUL DUP1 CALLDATASIZE DUP4 CALLDATACOPY DUP1 DUP3 ADD SWAP2 POP POP SWAP1 POP POP SWAP1 JUMP JUMPDEST POP PUSH1 0x0 DUP2 SSTORE PUSH1 0x1 ADD PUSH1 0x0 SWAP1 SSTORE JUMP JUMPDEST PUSH1 0x40 MLOAD DUP1 PUSH1 0xA0 ADD PUSH1 0x40 MSTORE DUP1 PUSH2 0x1CF5 PUSH2 0x1D29 JUMP JUMPDEST DUP2 MSTORE PUSH1 0x20 ADD PUSH2 0x1D02 PUSH2 0x1D87 JUMP JUMPDEST DUP2 MSTORE PUSH1 0x20 ADD PUSH2 0x1D0F PUSH2 0x1D87 JUMP JUMPDEST DUP2 MSTORE PUSH1 0x20 ADD PUSH2 0x1D1C PUSH2 0x1D87 JUMP JUMPDEST DUP2 MSTORE PUSH1 0x20 ADD PUSH1 0x60 DUP2 MSTORE POP SWAP1 JUMP JUMPDEST PUSH1 0x40 MLOAD DUP1 PUSH1 0x40 ADD PUSH1 0x40 MSTORE DUP1 PUSH1 0x0 DUP2 MSTORE PUSH1 0x20 ADD PUSH1 0x0 DUP2 MSTORE POP SWAP1 JUMP JUMPDEST PUSH1 0x40 MLOAD DUP1 PUSH1 0x60 ADD PUSH1 0x40 MSTORE DUP1 PUSH1 0x3 SWAP1 PUSH1 0x20 DUP3 MUL DUP1 CALLDATASIZE DUP4 CALLDATACOPY DUP1 DUP3 ADD SWAP2 POP POP SWAP1 POP POP SWAP1 JUMP JUMPDEST PUSH1 0x40 MLOAD DUP1 PUSH1 0x80 ADD PUSH1 0x40 MSTORE DUP1 PUSH1 0x4 SWAP1 PUSH1 0x20 DUP3 MUL DUP1 CALLDATASIZE DUP4 CALLDATACOPY DUP1 DUP3 ADD SWAP2 POP POP SWAP1 POP POP SWAP1 JUMP JUMPDEST PUSH1 0x40 MLOAD DUP1 PUSH1 0x40 ADD PUSH1 0x40 MSTORE DUP1 PUSH2 0x1D9A PUSH2 0x1CB2 JUMP JUMPDEST DUP2 MSTORE PUSH1 0x20 ADD PUSH2 0x1DA7 PUSH2 0x1CB2 JUMP JUMPDEST DUP2 MSTORE POP SWAP1 JUMP JUMPDEST PUSH1 0x40 MLOAD DUP1 PUSH1 0x20 ADD PUSH1 0x40 MSTORE DUP1 PUSH1 0x1 SWAP1 PUSH1 0x20 DUP3 MUL DUP1 CALLDATASIZE DUP4 CALLDATACOPY DUP1 DUP3 ADD SWAP2 POP POP SWAP1 POP POP SWAP1 JUMP JUMPDEST JUMPDEST DUP1 DUP3 GT ISZERO PUSH2 0x1DE8 JUMPI PUSH1 0x0 DUP2 PUSH1 0x0 SWAP1 SSTORE POP PUSH1 0x1 ADD PUSH2 0x1DD0 JUMP JUMPDEST POP SWAP1 JUMP JUMPDEST PUSH1 0x0 PUSH1 0x40 MLOAD SWAP1 POP SWAP1 JUMP JUMPDEST PUSH1 0x0 DUP1 REVERT JUMPDEST PUSH1 0x0 DUP1 REVERT JUMPDEST PUSH1 0x0 DUP1 REVERT JUMPDEST PUSH1 0x0 DUP1 REVERT JUMPDEST PUSH1 0x0 PUSH1 0x1F NOT PUSH1 0x1F DUP4 ADD AND SWAP1 POP SWAP2 SWAP1 POP JUMP JUMPDEST PUSH32 0x4E487B7100000000000000000000000000000000000000000000000000000000 PUSH1 0x0 MSTORE PUSH1 0x41 PUSH1 0x4 MSTORE PUSH1 0x24 PUSH1 0x0 REVERT JUMPDEST PUSH2 0x1E53 DUP3 PUSH2 0x1E0A JUMP JUMPDEST DUP2 ADD DUP2 DUP2 LT PUSH8 0xFFFFFFFFFFFFFFFF DUP3 GT OR ISZERO PUSH2 0x1E72 JUMPI PUSH2 0x1E71 PUSH2 0x1E1B JUMP JUMPDEST JUMPDEST DUP1 PUSH1 0x40 MSTORE POP POP POP JUMP JUMPDEST PUSH1 0x0 PUSH2 0x1E85 PUSH2 0x1DEC JUMP JUMPDEST SWAP1 POP PUSH2 0x1E91 DUP3 DUP3 PUSH2 0x1E4A JUMP JUMPDEST SWAP2 SWAP1 POP JUMP JUMPDEST PUSH1 0x0 PUSH8 0xFFFFFFFFFFFFFFFF DUP3 GT ISZERO PUSH2 0x1EB1 JUMPI PUSH2 0x1EB0 PUSH2 0x1E1B JUMP JUMPDEST JUMPDEST PUSH2 0x1EBA DUP3 PUSH2 0x1E0A JUMP JUMPDEST SWAP1 POP PUSH1 0x20 DUP2 ADD SWAP1 POP SWAP2 SWAP1 POP JUMP JUMPDEST DUP3 DUP2 DUP4 CALLDATACOPY PUSH1 0x0 DUP4 DUP4 ADD MSTORE POP POP POP JUMP JUMPDEST PUSH1 0x0 PUSH2 0x1EE9 PUSH2 0x1EE4 DUP5 PUSH2 0x1E96 JUMP JUMPDEST PUSH2 0x1E7B JUMP JUMPDEST SWAP1 POP DUP3 DUP2 MSTORE PUSH1 0x20 DUP2 ADD DUP5 DUP5 DUP5 ADD GT ISZERO PUSH2 0x1F05 JUMPI PUSH2 0x1F04 PUSH2 0x1E05 JUMP JUMPDEST JUMPDEST PUSH2 0x1F10 DUP5 DUP3 DUP6 PUSH2 0x1EC7 JUMP JUMPDEST POP SWAP4 SWAP3 POP POP POP JUMP JUMPDEST PUSH1 0x0 DUP3 PUSH1 0x1F DUP4 ADD SLT PUSH2 0x1F2D JUMPI PUSH2 0x1F2C PUSH2 0x1E00 JUMP JUMPDEST JUMPDEST DUP2 CALLDATALOAD PUSH2 0x1F3D DUP5 DUP3 PUSH1 0x20 DUP7 ADD PUSH2 0x1ED6 JUMP JUMPDEST SWAP2 POP POP SWAP3 SWAP2 POP POP JUMP JUMPDEST PUSH1 0x0 PUSH1 0x20 DUP3 DUP5 SUB SLT ISZERO PUSH2 0x1F5C JUMPI PUSH2 0x1F5B PUSH2 0x1DF6 JUMP JUMPDEST JUMPDEST PUSH1 0x0 DUP3 ADD CALLDATALOAD PUSH8 0xFFFFFFFFFFFFFFFF DUP2 GT ISZERO PUSH2 0x1F7A JUMPI PUSH2 0x1F79 PUSH2 0x1DFB JUMP JUMPDEST JUMPDEST PUSH2 0x1F86 DUP5 DUP3 DUP6 ADD PUSH2 0x1F18 JUMP JUMPDEST SWAP2 POP POP SWAP3 SWAP2 POP POP JUMP JUMPDEST PUSH1 0x0 DUP2 MLOAD SWAP1 POP SWAP2 SWAP1 POP JUMP JUMPDEST PUSH1 0x0 DUP3 DUP3 MSTORE PUSH1 0x20 DUP3 ADD SWAP1 POP SWAP3 SWAP2 POP POP JUMP JUMPDEST PUSH1 0x0 JUMPDEST DUP4 DUP2 LT ISZERO PUSH2 0x1FC9 JUMPI DUP1 DUP3 ADD MLOAD DUP2 DUP5 ADD MSTORE PUSH1 0x20 DUP2 ADD SWAP1 POP PUSH2 0x1FAE JUMP JUMPDEST PUSH1 0x0 DUP5 DUP5 ADD MSTORE POP POP POP POP JUMP JUMPDEST PUSH1 0x0 PUSH2 0x1FE0 DUP3 PUSH2 0x1F8F JUMP JUMPDEST PUSH2 0x1FEA DUP2 DUP6 PUSH2 0x1F9A JUMP JUMPDEST SWAP4 POP PUSH2 0x1FFA DUP2 DUP6 PUSH1 0x20 DUP7 ADD PUSH2 0x1FAB JUMP JUMPDEST PUSH2 0x2003 DUP2 PUSH2 0x1E0A JUMP JUMPDEST DUP5 ADD SWAP2 POP POP SWAP3 SWAP2 POP POP JUMP JUMPDEST PUSH1 0x0 PUSH1 0x20 DUP3 ADD SWAP1 POP DUP2 DUP2 SUB PUSH1 0x0 DUP4 ADD MSTORE PUSH2 0x2028 DUP2 DUP5 PUSH2 0x1FD5 JUMP JUMPDEST SWAP1 POP SWAP3 SWAP2 POP POP JUMP JUMPDEST PUSH1 0x0 DUP1 REVERT JUMPDEST PUSH1 0x0 DUP2 SWAP1 POP SWAP2 SWAP1 POP JUMP JUMPDEST PUSH2 0x2048 DUP2 PUSH2 0x2035 JUMP JUMPDEST DUP2 EQ PUSH2 0x2053 JUMPI PUSH1 0x0 DUP1 REVERT JUMPDEST POP JUMP JUMPDEST PUSH1 0x0 DUP2 CALLDATALOAD SWAP1 POP PUSH2 0x2065 DUP2 PUSH2 0x203F JUMP JUMPDEST SWAP3 SWAP2 POP POP JUMP JUMPDEST PUSH1 0x0 PUSH1 0x40 DUP3 DUP5 SUB SLT ISZERO PUSH2 0x2081 JUMPI PUSH2 0x2080 PUSH2 0x2030 JUMP JUMPDEST JUMPDEST PUSH2 0x208B PUSH1 0x40 PUSH2 0x1E7B JUMP JUMPDEST SWAP1 POP PUSH1 0x0 PUSH2 0x209B DUP5 DUP3 DUP6 ADD PUSH2 0x2056 JUMP JUMPDEST PUSH1 0x0 DUP4 ADD MSTORE POP PUSH1 0x20 PUSH2 0x20AF DUP5 DUP3 DUP6 ADD PUSH2 0x2056 JUMP JUMPDEST PUSH1 0x20 DUP4 ADD MSTORE POP SWAP3 SWAP2 POP POP JUMP JUMPDEST PUSH1 0x0 PUSH8 0xFFFFFFFFFFFFFFFF DUP3 GT ISZERO PUSH2 0x20D6 JUMPI PUSH2 0x20D5 PUSH2 0x1E1B JUMP JUMPDEST JUMPDEST PUSH1 0x20 DUP3 MUL SWAP1 POP SWAP2 SWAP1 POP JUMP JUMPDEST PUSH1 0x0 DUP1 REVERT JUMPDEST PUSH1 0x0 PUSH2 0x20F9 PUSH2 0x20F4 DUP5 PUSH2 0x20BB JUMP JUMPDEST PUSH2 0x1E7B JUMP JUMPDEST SWAP1 POP DUP1 PUSH1 0x20 DUP5 MUL DUP4 ADD DUP6 DUP2 GT ISZERO PUSH2 0x2113 JUMPI PUSH2 0x2112 PUSH2 0x20E1 JUMP JUMPDEST JUMPDEST DUP4 JUMPDEST DUP2 DUP2 LT ISZERO PUSH2 0x213C JUMPI DUP1 PUSH2 0x2128 DUP9 DUP3 PUSH2 0x2056 JUMP JUMPDEST DUP5 MSTORE PUSH1 0x20 DUP5 ADD SWAP4 POP POP PUSH1 0x20 DUP2 ADD SWAP1 POP PUSH2 0x2115 JUMP JUMPDEST POP POP POP SWAP4 SWAP3 POP POP POP JUMP JUMPDEST PUSH1 0x0 DUP3 PUSH1 0x1F DUP4 ADD SLT PUSH2 0x215B JUMPI PUSH2 0x215A PUSH2 0x1E00 JUMP JUMPDEST JUMPDEST PUSH1 0x2 PUSH2 0x2168 DUP5 DUP3 DUP6 PUSH2 0x20E6 JUMP JUMPDEST SWAP2 POP POP SWAP3 SWAP2 POP POP JUMP JUMPDEST PUSH1 0x0 PUSH1 0x80 DUP3 DUP5 SUB SLT ISZERO PUSH2 0x2187 JUMPI PUSH2 0x2186 PUSH2 0x2030 JUMP JUMPDEST JUMPDEST PUSH2 0x2191 PUSH1 0x40 PUSH2 0x1E7B JUMP JUMPDEST SWAP1 POP PUSH1 0x0 PUSH2 0x21A1 DUP5 DUP3 DUP6 ADD PUSH2 0x2146 JUMP JUMPDEST PUSH1 0x0 DUP4 ADD MSTORE POP PUSH1 0x40 PUSH2 0x21B5 DUP5 DUP3 DUP6 ADD PUSH2 0x2146 JUMP JUMPDEST PUSH1 0x20 DUP4 ADD MSTORE POP SWAP3 SWAP2 POP POP JUMP JUMPDEST PUSH1 0x0 PUSH2 0x100 DUP3 DUP5 SUB SLT ISZERO PUSH2 0x21D8 JUMPI PUSH2 0x21D7 PUSH2 0x2030 JUMP JUMPDEST JUMPDEST PUSH2 0x21E2 PUSH1 0x60 PUSH2 0x1E7B JUMP JUMPDEST SWAP1 POP PUSH1 0x0 PUSH2 0x21F2 DUP5 DUP3 DUP6 ADD PUSH2 0x206B JUMP JUMPDEST PUSH1 0x0 DUP4 ADD MSTORE POP PUSH1 0x40 PUSH2 0x2206 DUP5 DUP3 DUP6 ADD PUSH2 0x2171 JUMP JUMPDEST PUSH1 0x20 DUP4 ADD MSTORE POP PUSH1 0xC0 PUSH2 0x221A DUP5 DUP3 DUP6 ADD PUSH2 0x206B JUMP JUMPDEST PUSH1 0x40 DUP4 ADD MSTORE POP SWAP3 SWAP2 POP POP JUMP JUMPDEST PUSH1 0x0 PUSH8 0xFFFFFFFFFFFFFFFF DUP3 GT ISZERO PUSH2 0x2241 JUMPI PUSH2 0x2240 PUSH2 0x1E1B JUMP JUMPDEST JUMPDEST PUSH1 0x20 DUP3 MUL SWAP1 POP SWAP2 SWAP1 POP JUMP JUMPDEST PUSH1 0x0 PUSH2 0x225F PUSH2 0x225A DUP5 PUSH2 0x2226 JUMP JUMPDEST PUSH2 0x1E7B JUMP JUMPDEST SWAP1 POP DUP1 PUSH1 0x20 DUP5 MUL DUP4 ADD DUP6 DUP2 GT ISZERO PUSH2 0x2279 JUMPI PUSH2 0x2278 PUSH2 0x20E1 JUMP JUMPDEST JUMPDEST DUP4 JUMPDEST DUP2 DUP2 LT ISZERO PUSH2 0x22A2 JUMPI DUP1 PUSH2 0x228E DUP9 DUP3 PUSH2 0x2056 JUMP JUMPDEST DUP5 MSTORE PUSH1 0x20 DUP5 ADD SWAP4 POP POP PUSH1 0x20 DUP2 ADD SWAP1 POP PUSH2 0x227B JUMP JUMPDEST POP POP POP SWAP4 SWAP3 POP POP POP JUMP JUMPDEST PUSH1 0x0 DUP3 PUSH1 0x1F DUP4 ADD SLT PUSH2 0x22C1 JUMPI PUSH2 0x22C0 PUSH2 0x1E00 JUMP JUMPDEST JUMPDEST PUSH1 0x4 PUSH2 0x22CE DUP5 DUP3 DUP6 PUSH2 0x224C JUMP JUMPDEST SWAP2 POP POP SWAP3 SWAP2 POP POP JUMP JUMPDEST PUSH1 0x0 DUP1 PUSH1 0x0 PUSH2 0x1A0 DUP5 DUP7 SUB SLT ISZERO PUSH2 0x22F1 JUMPI PUSH2 0x22F0 PUSH2 0x1DF6 JUMP JUMPDEST JUMPDEST PUSH1 0x0 DUP5 ADD CALLDATALOAD PUSH8 0xFFFFFFFFFFFFFFFF DUP2 GT ISZERO PUSH2 0x230F JUMPI PUSH2 0x230E PUSH2 0x1DFB JUMP JUMPDEST JUMPDEST PUSH2 0x231B DUP7 DUP3 DUP8 ADD PUSH2 0x1F18 JUMP JUMPDEST SWAP4 POP POP PUSH1 0x20 PUSH2 0x232C DUP7 DUP3 DUP8 ADD PUSH2 0x21C1 JUMP JUMPDEST SWAP3 POP POP PUSH2 0x120 PUSH2 0x233E DUP7 DUP3 DUP8 ADD PUSH2 0x22AC JUMP JUMPDEST SWAP2 POP POP SWAP3 POP SWAP3 POP SWAP3 JUMP JUMPDEST PUSH1 0x0 DUP1 PUSH1 0x40 DUP4 DUP6 SUB SLT ISZERO PUSH2 0x235F JUMPI PUSH2 0x235E PUSH2 0x1DF6 JUMP JUMPDEST JUMPDEST PUSH1 0x0 DUP4 ADD CALLDATALOAD PUSH8 0xFFFFFFFFFFFFFFFF DUP2 GT ISZERO PUSH2 0x237D JUMPI PUSH2 0x237C PUSH2 0x1DFB JUMP JUMPDEST JUMPDEST PUSH2 0x2389 DUP6 DUP3 DUP7 ADD PUSH2 0x1F18 JUMP JUMPDEST SWAP3 POP POP PUSH1 0x20 PUSH2 0x239A DUP6 DUP3 DUP7 ADD PUSH2 0x2056 JUMP JUMPDEST SWAP2 POP POP SWAP3 POP SWAP3 SWAP1 POP JUMP JUMPDEST PUSH2 0x23AD DUP2 PUSH2 0x2035 JUMP JUMPDEST DUP3 MSTORE POP POP JUMP JUMPDEST PUSH1 0x0 PUSH1 0x20 DUP3 ADD SWAP1 POP PUSH2 0x23C8 PUSH1 0x0 DUP4 ADD DUP5 PUSH2 0x23A4 JUMP JUMPDEST SWAP3 SWAP2 POP POP JUMP JUMPDEST PUSH1 0x0 DUP1 PUSH2 0x180 DUP4 DUP6 SUB SLT ISZERO PUSH2 0x23E6 JUMPI PUSH2 0x23E5 PUSH2 0x1DF6 JUMP JUMPDEST JUMPDEST PUSH1 0x0 PUSH2 0x23F4 DUP6 DUP3 DUP7 ADD PUSH2 0x21C1 JUMP JUMPDEST SWAP3 POP POP PUSH2 0x100 PUSH2 0x2406 DUP6 DUP3 DUP7 ADD PUSH2 0x22AC JUMP JUMPDEST SWAP2 POP POP SWAP3 POP SWAP3 SWAP1 POP JUMP JUMPDEST PUSH1 0x0 DUP2 ISZERO ISZERO SWAP1 POP SWAP2 SWAP1 POP JUMP JUMPDEST PUSH2 0x2425 DUP2 PUSH2 0x2410 JUMP JUMPDEST DUP3 MSTORE POP POP JUMP JUMPDEST PUSH1 0x0 PUSH1 0x20 DUP3 ADD SWAP1 POP PUSH2 0x2440 PUSH1 0x0 DUP4 ADD DUP5 PUSH2 0x241C JUMP JUMPDEST SWAP3 SWAP2 POP POP JUMP JUMPDEST PUSH1 0x0 PUSH1 0x2 SWAP1 POP SWAP2 SWAP1 POP JUMP JUMPDEST PUSH1 0x0 DUP2 SWAP1 POP SWAP3 SWAP2 POP POP JUMP JUMPDEST PUSH1 0x0 DUP2 SWAP1 POP SWAP2 SWAP1 POP JUMP JUMPDEST PUSH2 0x246F DUP2 PUSH2 0x2035 JUMP JUMPDEST DUP3 MSTORE POP POP JUMP JUMPDEST PUSH1 0x0 PUSH2 0x2481 DUP4 DUP4 PUSH2 0x2466 JUMP JUMPDEST PUSH1 0x20 DUP4 ADD SWAP1 POP SWAP3 SWAP2 POP POP JUMP JUMPDEST PUSH1 0x0 PUSH1 0x20 DUP3 ADD SWAP1 POP SWAP2 SWAP1 POP JUMP JUMPDEST PUSH2 0x24A3 DUP2 PUSH2 0x2446 JUMP JUMPDEST PUSH2 0x24AD DUP2 DUP5 PUSH2 0x2451 JUMP JUMPDEST SWAP3 POP PUSH2 0x24B8 DUP3 PUSH2 0x245C JUMP JUMPDEST DUP1 PUSH1 0x0 JUMPDEST DUP4 DUP2 LT ISZERO PUSH2 0x24E9 JUMPI DUP2 MLOAD PUSH2 0x24D0 DUP8 DUP3 PUSH2 0x2475 JUMP JUMPDEST SWAP7 POP PUSH2 0x24DB DUP4 PUSH2 0x248D JUMP JUMPDEST SWAP3 POP POP PUSH1 0x1 DUP2 ADD SWAP1 POP PUSH2 0x24BC JUMP JUMPDEST POP POP POP POP POP POP JUMP JUMPDEST PUSH1 0x0 PUSH1 0x40 DUP3 ADD SWAP1 POP PUSH2 0x2506 PUSH1 0x0 DUP4 ADD DUP5 PUSH2 0x249A JUMP JUMPDEST SWAP3 SWAP2 POP POP JUMP JUMPDEST PUSH32 0x4E487B7100000000000000000000000000000000000000000000000000000000 PUSH1 0x0 MSTORE PUSH1 0x22 PUSH1 0x4 MSTORE PUSH1 0x24 PUSH1 0x0 REVERT JUMPDEST PUSH1 0x0 PUSH1 0x2 DUP3 DIV SWAP1 POP PUSH1 0x1 DUP3 AND DUP1 PUSH2 0x2553 JUMPI PUSH1 0x7F DUP3 AND SWAP2 POP JUMPDEST PUSH1 0x20 DUP3 LT DUP2 SUB PUSH2 0x2566 JUMPI PUSH2 0x2565 PUSH2 0x250C JUMP JUMPDEST JUMPDEST POP SWAP2 SWAP1 POP JUMP JUMPDEST PUSH1 0x0 DUP2 SWAP1 POP SWAP3 SWAP2 POP POP JUMP JUMPDEST PUSH1 0x0 PUSH2 0x2582 DUP3 PUSH2 0x1F8F JUMP JUMPDEST PUSH2 0x258C DUP2 DUP6 PUSH2 0x256C JUMP JUMPDEST SWAP4 POP PUSH2 0x259C DUP2 DUP6 PUSH1 0x20 DUP7 ADD PUSH2 0x1FAB JUMP JUMPDEST DUP1 DUP5 ADD SWAP2 POP POP SWAP3 SWAP2 POP POP JUMP JUMPDEST PUSH1 0x0 PUSH2 0x25B4 DUP3 DUP5 PUSH2 0x2577 JUMP JUMPDEST SWAP2 POP DUP2 SWAP1 POP SWAP3 SWAP2 POP POP JUMP JUMPDEST PUSH32 0x6E65774964656E7469747920697320616C72656164792070617274206F662072 PUSH1 0x0 DUP3 ADD MSTORE PUSH32 0x656769737465726564206964656E746974696573000000000000000000000000 PUSH1 0x20 DUP3 ADD MSTORE POP JUMP JUMPDEST PUSH1 0x0 PUSH2 0x261B PUSH1 0x34 DUP4 PUSH2 0x1F9A JUMP JUMPDEST SWAP2 POP PUSH2 0x2626 DUP3 PUSH2 0x25BF JUMP JUMPDEST PUSH1 0x40 DUP3 ADD SWAP1 POP SWAP2 SWAP1 POP JUMP JUMPDEST PUSH1 0x0 PUSH1 0x20 DUP3 ADD SWAP1 POP DUP2 DUP2 SUB PUSH1 0x0 DUP4 ADD MSTORE PUSH2 0x264A DUP2 PUSH2 0x260E JUMP JUMPDEST SWAP1 POP SWAP2 SWAP1 POP JUMP JUMPDEST PUSH32 0x70726F76696E67206F776E657273686970206F66206E65774964656E74697479 PUSH1 0x0 DUP3 ADD MSTORE PUSH32 0x206661696C656400000000000000000000000000000000000000000000000000 PUSH1 0x20 DUP3 ADD MSTORE POP JUMP JUMPDEST PUSH1 0x0 PUSH2 0x26AD PUSH1 0x27 DUP4 PUSH2 0x1F9A JUMP JUMPDEST SWAP2 POP PUSH2 0x26B8 DUP3 PUSH2 0x2651 JUMP JUMPDEST PUSH1 0x40 DUP3 ADD SWAP1 POP SWAP2 SWAP1 POP JUMP JUMPDEST PUSH1 0x0 PUSH1 0x20 DUP3 ADD SWAP1 POP DUP2 DUP2 SUB PUSH1 0x0 DUP4 ADD MSTORE PUSH2 0x26DC DUP2 PUSH2 0x26A0 JUMP JUMPDEST SWAP1 POP SWAP2 SWAP1 POP JUMP JUMPDEST PUSH32 0x4E487B7100000000000000000000000000000000000000000000000000000000 PUSH1 0x0 MSTORE PUSH1 0x32 PUSH1 0x4 MSTORE PUSH1 0x24 PUSH1 0x0 REVERT JUMPDEST PUSH1 0x0 DUP2 SWAP1 POP DUP2 PUSH1 0x0 MSTORE PUSH1 0x20 PUSH1 0x0 KECCAK256 SWAP1 POP SWAP2 SWAP1 POP JUMP JUMPDEST PUSH1 0x0 PUSH1 0x20 PUSH1 0x1F DUP4 ADD DIV SWAP1 POP SWAP2 SWAP1 POP JUMP JUMPDEST PUSH1 0x0 DUP3 DUP3 SHL SWAP1 POP SWAP3 SWAP2 POP POP JUMP JUMPDEST PUSH1 0x0 PUSH1 0x8 DUP4 MUL PUSH2 0x2774 PUSH32 0xFFFFFFFFFFFFFFFFFFFFFFFFFFFFFFFFFFFFFFFFFFFFFFFFFFFFFFFFFFFFFFFF DUP3 PUSH2 0x2737 JUMP JUMPDEST PUSH2 0x277E DUP7 DUP4 PUSH2 0x2737 JUMP JUMPDEST SWAP6 POP DUP1 NOT DUP5 AND SWAP4 POP DUP1 DUP7 AND DUP5 OR SWAP3 POP POP POP SWAP4 SWAP3 POP POP POP JUMP JUMPDEST PUSH1 0x0 DUP2 SWAP1 POP SWAP2 SWAP1 POP JUMP JUMPDEST PUSH1 0x0 PUSH2 0x27BB PUSH2 0x27B6 PUSH2 0x27B1 DUP5 PUSH2 0x2035 JUMP JUMPDEST PUSH2 0x2796 JUMP JUMPDEST PUSH2 0x2035 JUMP JUMPDEST SWAP1 POP SWAP2 SWAP1 POP JUMP JUMPDEST PUSH1 0x0 DUP2 SWAP1 POP SWAP2 SWAP1 POP JUMP JUMPDEST PUSH2 0x27D5 DUP4 PUSH2 0x27A0 JUMP JUMPDEST PUSH2 0x27E9 PUSH2 0x27E1 DUP3 PUSH2 0x27C2 JUMP JUMPDEST DUP5 DUP5 SLOAD PUSH2 0x2744 JUMP JUMPDEST DUP3 SSTORE POP POP POP POP JUMP JUMPDEST PUSH1 0x0 SWAP1 JUMP JUMPDEST PUSH2 0x27FE PUSH2 0x27F1 JUMP JUMPDEST PUSH2 0x2809 DUP2 DUP5 DUP5 PUSH2 0x27CC JUMP JUMPDEST POP POP POP JUMP JUMPDEST JUMPDEST DUP2 DUP2 LT ISZERO PUSH2 0x282D JUMPI PUSH2 0x2822 PUSH1 0x0 DUP3 PUSH2 0x27F6 JUMP JUMPDEST PUSH1 0x1 DUP2 ADD SWAP1 POP PUSH2 0x280F JUMP JUMPDEST POP POP JUMP JUMPDEST PUSH1 0x1F DUP3 GT ISZERO PUSH2 0x2872 JUMPI PUSH2 0x2843 DUP2 PUSH2 0x2712 JUMP JUMPDEST PUSH2 0x284C DUP5 PUSH2 0x2727 JUMP JUMPDEST DUP2 ADD PUSH1 0x20 DUP6 LT ISZERO PUSH2 0x285B JUMPI DUP2 SWAP1 POP JUMPDEST PUSH2 0x286F PUSH2 0x2867 DUP6 PUSH2 0x2727 JUMP JUMPDEST DUP4 ADD DUP3 PUSH2 0x280E JUMP JUMPDEST POP POP JUMPDEST POP POP POP JUMP JUMPDEST PUSH1 0x0 DUP3 DUP3 SHR SWAP1 POP SWAP3 SWAP2 POP POP JUMP JUMPDEST PUSH1 0x0 PUSH2 0x2895 PUSH1 0x0 NOT DUP5 PUSH1 0x8 MUL PUSH2 0x2877 JUMP JUMPDEST NOT DUP1 DUP4 AND SWAP2 POP POP SWAP3 SWAP2 POP POP JUMP JUMPDEST PUSH1 0x0 PUSH2 0x28AE DUP4 DUP4 PUSH2 0x2884 JUMP JUMPDEST SWAP2 POP DUP3 PUSH1 0x2 MUL DUP3 OR SWAP1 POP SWAP3 SWAP2 POP POP JUMP JUMPDEST PUSH2 0x28C7 DUP3 PUSH2 0x1F8F JUMP JUMPDEST PUSH8 0xFFFFFFFFFFFFFFFF DUP2 GT ISZERO PUSH2 0x28E0 JUMPI PUSH2 0x28DF PUSH2 0x1E1B JUMP JUMPDEST JUMPDEST PUSH2 0x28EA DUP3 SLOAD PUSH2 0x253B JUMP JUMPDEST PUSH2 0x28F5 DUP3 DUP3 DUP6 PUSH2 0x2831 JUMP JUMPDEST PUSH1 0x0 PUSH1 0x20 SWAP1 POP PUSH1 0x1F DUP4 GT PUSH1 0x1 DUP2 EQ PUSH2 0x2928 JUMPI PUSH1 0x0 DUP5 ISZERO PUSH2 0x2916 JUMPI DUP3 DUP8 ADD MLOAD SWAP1 POP JUMPDEST PUSH2 0x2920 DUP6 DUP3 PUSH2 0x28A2 JUMP JUMPDEST DUP7 SSTORE POP PUSH2 0x2988 JUMP JUMPDEST PUSH1 0x1F NOT DUP5 AND PUSH2 0x2936 DUP7 PUSH2 0x2712 JUMP JUMPDEST PUSH1 0x0 JUMPDEST DUP3 DUP2 LT ISZERO PUSH2 0x295E JUMPI DUP5 DUP10 ADD MLOAD DUP3 SSTORE PUSH1 0x1 DUP3 ADD SWAP2 POP PUSH1 0x20 DUP6 ADD SWAP5 POP PUSH1 0x20 DUP2 ADD SWAP1 POP PUSH2 0x2939 JUMP JUMPDEST DUP7 DUP4 LT ISZERO PUSH2 0x297B JUMPI DUP5 DUP10 ADD MLOAD PUSH2 0x2977 PUSH1 0x1F DUP10 AND DUP3 PUSH2 0x2884 JUMP JUMPDEST DUP4 SSTORE POP JUMPDEST PUSH1 0x1 PUSH1 0x2 DUP9 MUL ADD DUP9 SSTORE POP POP POP JUMPDEST POP POP POP POP POP POP JUMP JUMPDEST PUSH1 0x0 PUSH1 0x40 DUP3 ADD SWAP1 POP DUP2 DUP2 SUB PUSH1 0x0 DUP4 ADD MSTORE PUSH2 0x29AA DUP2 DUP6 PUSH2 0x1FD5 JUMP JUMPDEST SWAP1 POP DUP2 DUP2 SUB PUSH1 0x20 DUP4 ADD MSTORE PUSH2 0x29BE DUP2 DUP5 PUSH2 0x1FD5 JUMP JUMPDEST SWAP1 POP SWAP4 SWAP3 POP POP POP JUMP JUMPDEST PUSH32 0x746F426552656D6F7665644964656E74697479206973206E6F74207061727420 PUSH1 0x0 DUP3 ADD MSTORE PUSH32 0x6F662072656769737465726564206964656E7469746965730000000000000000 PUSH1 0x20 DUP3 ADD MSTORE POP JUMP JUMPDEST PUSH1 0x0 PUSH2 0x2A23 PUSH1 0x38 DUP4 PUSH2 0x1F9A JUMP JUMPDEST SWAP2 POP PUSH2 0x2A2E DUP3 PUSH2 0x29C7 JUMP JUMPDEST PUSH1 0x40 DUP3 ADD SWAP1 POP SWAP2 SWAP1 POP JUMP JUMPDEST PUSH1 0x0 PUSH1 0x20 DUP3 ADD SWAP1 POP DUP2 DUP2 SUB PUSH1 0x0 DUP4 ADD MSTORE PUSH2 0x2A52 DUP2 PUSH2 0x2A16 JUMP JUMPDEST SWAP1 POP SWAP2 SWAP1 POP JUMP JUMPDEST PUSH32 0x6D73672E73656E646572206973206E6F742070617274206F6620726567697374 PUSH1 0x0 DUP3 ADD MSTORE PUSH32 0x65726564206964656E7469746965730000000000000000000000000000000000 PUSH1 0x20 DUP3 ADD MSTORE POP JUMP JUMPDEST PUSH1 0x0 PUSH2 0x2AB5 PUSH1 0x2F DUP4 PUSH2 0x1F9A JUMP JUMPDEST SWAP2 POP PUSH2 0x2AC0 DUP3 PUSH2 0x2A59 JUMP JUMPDEST PUSH1 0x40 DUP3 ADD SWAP1 POP SWAP2 SWAP1 POP JUMP JUMPDEST PUSH1 0x0 PUSH1 0x20 DUP3 ADD SWAP1 POP DUP2 DUP2 SUB PUSH1 0x0 DUP4 ADD MSTORE PUSH2 0x2AE4 DUP2 PUSH2 0x2AA8 JUMP JUMPDEST SWAP1 POP SWAP2 SWAP1 POP JUMP JUMPDEST PUSH32 0x746F426552656D6F7665644964656E74697479206973206E6F74207061727420 PUSH1 0x0 DUP3 ADD MSTORE PUSH32 0x6F66206D73672E73656E64657227732063697263756C6172206C696E6B656420 PUSH1 0x20 DUP3 ADD MSTORE PUSH32 0x6C697374206F66206964656E7469746965730000000000000000000000000000 PUSH1 0x40 DUP3 ADD MSTORE POP JUMP JUMPDEST PUSH1 0x0 PUSH2 0x2B6D PUSH1 0x52 DUP4 PUSH2 0x1F9A JUMP JUMPDEST SWAP2 POP PUSH2 0x2B78 DUP3 PUSH2 0x2AEB JUMP JUMPDEST PUSH1 0x60 DUP3 ADD SWAP1 POP SWAP2 SWAP1 POP JUMP JUMPDEST PUSH1 0x0 PUSH1 0x20 DUP3 ADD SWAP1 POP DUP2 DUP2 SUB PUSH1 0x0 DUP4 ADD MSTORE PUSH2 0x2B9C DUP2 PUSH2 0x2B60 JUMP JUMPDEST SWAP1 POP SWAP2 SWAP1 POP JUMP JUMPDEST PUSH1 0x0 DUP2 SLOAD SWAP1 POP PUSH2 0x2BB2 DUP2 PUSH2 0x253B JUMP JUMPDEST SWAP1 POP SWAP2 SWAP1 POP JUMP JUMPDEST PUSH1 0x0 DUP2 SWAP1 POP DUP2 PUSH1 0x0 MSTORE PUSH1 0x20 PUSH1 0x0 KECCAK256 SWAP1 POP SWAP2 SWAP1 POP JUMP JUMPDEST DUP2 DUP2 SUB PUSH2 0x2BDC JUMPI POP POP PUSH2 0x2CB4 JUMP JUMPDEST PUSH2 0x2BE5 DUP3 PUSH2 0x2BA3 JUMP JUMPDEST PUSH8 0xFFFFFFFFFFFFFFFF DUP2 GT ISZERO PUSH2 0x2BFE JUMPI PUSH2 0x2BFD PUSH2 0x1E1B JUMP JUMPDEST JUMPDEST PUSH2 0x2C08 DUP3 SLOAD PUSH2 0x253B JUMP JUMPDEST PUSH2 0x2C13 DUP3 DUP3 DUP6 PUSH2 0x2831 JUMP JUMPDEST PUSH1 0x0 PUSH1 0x1F DUP4 GT PUSH1 0x1 DUP2 EQ PUSH2 0x2C42 JUMPI PUSH1 0x0 DUP5 ISZERO PUSH2 0x2C30 JUMPI DUP3 DUP8 ADD SLOAD SWAP1 POP JUMPDEST PUSH2 0x2C3A DUP6 DUP3 PUSH2 0x28A2 JUMP JUMPDEST DUP7 SSTORE POP PUSH2 0x2CAD JUMP JUMPDEST PUSH1 0x1F NOT DUP5 AND PUSH2 0x2C50 DUP8 PUSH2 0x2BB9 JUMP JUMPDEST SWAP7 POP PUSH2 0x2C5B DUP7 PUSH2 0x2712 JUMP JUMPDEST PUSH1 0x0 JUMPDEST DUP3 DUP2 LT ISZERO PUSH2 0x2C83 JUMPI DUP5 DUP10 ADD SLOAD DUP3 SSTORE PUSH1 0x1 DUP3 ADD SWAP2 POP PUSH1 0x1 DUP6 ADD SWAP5 POP PUSH1 0x20 DUP2 ADD SWAP1 POP PUSH2 0x2C5E JUMP JUMPDEST DUP7 DUP4 LT ISZERO PUSH2 0x2CA0 JUMPI DUP5 DUP10 ADD SLOAD PUSH2 0x2C9C PUSH1 0x1F DUP10 AND DUP3 PUSH2 0x2884 JUMP JUMPDEST DUP4 SSTORE POP JUMPDEST PUSH1 0x1 PUSH1 0x2 DUP9 MUL ADD DUP9 SSTORE POP POP POP JUMPDEST POP POP POP POP POP POP JUMPDEST JUMP JUMPDEST PUSH1 0x0 PUSH20 0xFFFFFFFFFFFFFFFFFFFFFFFFFFFFFFFFFFFFFFFF DUP3 AND SWAP1 POP SWAP2 SWAP1 POP JUMP JUMPDEST PUSH1 0x0 PUSH2 0x2CE1 DUP3 PUSH2 0x2CB6 JUMP JUMPDEST SWAP1 POP SWAP2 SWAP1 POP JUMP JUMPDEST PUSH1 0x0 DUP2 PUSH1 0x60 SHL SWAP1 POP SWAP2 SWAP1 POP JUMP JUMPDEST PUSH1 0x0 PUSH2 0x2D00 DUP3 PUSH2 0x2CE8 JUMP JUMPDEST SWAP1 POP SWAP2 SWAP1 POP JUMP JUMPDEST PUSH1 0x0 PUSH2 0x2D12 DUP3 PUSH2 0x2CF5 JUMP JUMPDEST SWAP1 POP SWAP2 SWAP1 POP JUMP JUMPDEST PUSH2 0x2D2A PUSH2 0x2D25 DUP3 PUSH2 0x2CD6 JUMP JUMPDEST PUSH2 0x2D07 JUMP JUMPDEST DUP3 MSTORE POP POP JUMP JUMPDEST PUSH1 0x0 PUSH2 0x2D3C DUP3 DUP5 PUSH2 0x2D19 JUMP JUMPDEST PUSH1 0x14 DUP3 ADD SWAP2 POP DUP2 SWAP1 POP SWAP3 SWAP2 POP POP JUMP JUMPDEST PUSH32 0x4E487B7100000000000000000000000000000000000000000000000000000000 PUSH1 0x0 MSTORE PUSH1 0x11 PUSH1 0x4 MSTORE PUSH1 0x24 PUSH1 0x0 REVERT JUMPDEST PUSH1 0x0 PUSH2 0x2D85 DUP3 PUSH2 0x2035 JUMP JUMPDEST SWAP2 POP PUSH2 0x2D90 DUP4 PUSH2 0x2035 JUMP JUMPDEST SWAP3 POP DUP3 DUP3 MUL PUSH2 0x2D9E DUP2 PUSH2 0x2035 JUMP JUMPDEST SWAP2 POP DUP3 DUP3 DIV DUP5 EQ DUP4 ISZERO OR PUSH2 0x2DB5 JUMPI PUSH2 0x2DB4 PUSH2 0x2D4B JUMP JUMPDEST JUMPDEST POP SWAP3 SWAP2 POP POP JUMP JUMPDEST PUSH1 0x0 PUSH2 0x2DC7 DUP3 PUSH2 0x2035 JUMP JUMPDEST SWAP2 POP PUSH2 0x2DD2 DUP4 PUSH2 0x2035 JUMP JUMPDEST SWAP3 POP DUP3 DUP3 ADD SWAP1 POP DUP1 DUP3 GT ISZERO PUSH2 0x2DEA JUMPI PUSH2 0x2DE9 PUSH2 0x2D4B JUMP JUMPDEST JUMPDEST SWAP3 SWAP2 POP POP JUMP JUMPDEST PUSH32 0x4E487B7100000000000000000000000000000000000000000000000000000000 PUSH1 0x0 MSTORE PUSH1 0x12 PUSH1 0x4 MSTORE PUSH1 0x24 PUSH1 0x0 REVERT JUMPDEST PUSH1 0x0 PUSH2 0x2E2A DUP3 PUSH2 0x2035 JUMP JUMPDEST SWAP2 POP PUSH2 0x2E35 DUP4 PUSH2 0x2035 JUMP JUMPDEST SWAP3 POP DUP3 PUSH2 0x2E45 JUMPI PUSH2 0x2E44 PUSH2 0x2DF0 JUMP JUMPDEST JUMPDEST DUP3 DUP3 MOD SWAP1 POP SWAP3 SWAP2 POP POP JUMP JUMPDEST PUSH1 0x0 PUSH2 0x2E5B DUP3 PUSH2 0x2035 JUMP JUMPDEST SWAP2 POP PUSH2 0x2E66 DUP4 PUSH2 0x2035 JUMP JUMPDEST SWAP3 POP DUP3 DUP3 SUB SWAP1 POP DUP2 DUP2 GT ISZERO PUSH2 0x2E7E JUMPI PUSH2 0x2E7D PUSH2 0x2D4B JUMP JUMPDEST JUMPDEST SWAP3 SWAP2 POP POP JUMP INVALID LOG2 PUSH5 0x6970667358 0x22 SLT KECCAK256 MSTORE 0xD9 BLOBBASEFEE 0xC1 SWAP9 DUP12 0xC2 0xAD TSTORE DUP3 SWAP13 0xAF DUP14 0xAE 0x4B 0x24 CODECOPY 0xC9 PUSH6 0x4370A4901295 0xAF DIV PUSH2 0xF387 PUSH23 0x3864736F6C634300081B00330000000000000000000000 "},"methodIdentifiers":{"addIdentity(string,((uint256,uint256),(uint256[2],uint256[2]),(uint256,uint256)),uint256[4])":"09f1ae08","getNextIdentity(string)":"055d24c1","getPublicKey(string)":"bff90821","identities(string)":"01e21afb","publicKeys(string,uint256)":"3619059b","removeIdentity(string)":"ca364a3a","verifyTx(((uint256,uint256),(uint256[2],uint256[2]),(uint256,uint256)),uint256[4])":"799afa76"}}}}}