{"contracts/Verifier.sol":{"Verifier":{"abi":[{"anonymous":false,"inputs":[{"indexed":false,"internalType":"string","name":"addedBy","type":"string"},{"indexed":false,"internalType":"string","name":"newIdentity","type":"string"}],"name":"IdentityAdded","type":"event"},{"inputs":[{"internalType":"string","name":"newIdentity","type":"string"},{"components":[{"components":[{"internalType":"uint256","name":"X","type":"uint256"},{"internalType":"uint256","name":"Y","type":"uint256"}],"internalType":"struct Pairing.G1Point","name":"a","type":"tuple"},{"components":[{"internalType":"uint256[2]","name":"X","type":"uint256[2]"},{"internalType":"uint256[2]","name":"Y","type":"uint256[2]"}],"internalType":"struct Pairing.G2Point","name":"b","type":"tuple"},{"components":[{"internalType":"uint256","name":"X","type":"uint256"},{"internalType":"uint256","name":"Y","type":"uint256"}],"internalType":"struct Pairing.G1Point","name":"c","type":"tuple"}],"internalType":"struct Verifier.Proof","name":"proof","type":"tuple"},{"internalType":"uint256[4]","name":"input","type":"uint256[4]"}],"name":"addIdentity","outputs":[],"stateMutability":"nonpayable","type":"function"},{"inputs":[{"internalType":"string","name":"key","type":"string"}],"name":"getNextIdentity","outputs":[{"internalType":"string","name":"","type":"string"}],"stateMutability":"view","type":"function"},{"inputs":[{"internalType":"string","name":"key","type":"string"}],"name":"getPublicKey","outputs":[{"internalType":"uint256[2]","name":"","type":"uint256[2]"}],"stateMutability":"view","type":"function"},{"inputs":[{"internalType":"string","name":"","type":"string"}],"name":"identities","outputs":[{"internalType":"string","name":"","type":"string"}],"stateMutability":"view","type":"function"},{"inputs":[{"internalType":"string","name":"","type":"string"},{"internalType":"uint256","name":"","type":"uint256"}],"name":"publicKeys","outputs":[{"internalType":"uint256","name":"","type":"uint256"}],"stateMutability":"view","type":"function"},{"inputs":[{"internalType":"string","name":"toBeRemovedIdentity","type":"string"}],"name":"removeIdentity","outputs":[],"stateMutability":"nonpayable","type":"function"},{"inputs":[{"components":[{"components":[{"internalType":"uint256","name":"X","type":"uint256"},{"internalType":"uint256","name":"Y","type":"uint256"}],"internalType":"struct Pairing.G1Point","name":"a","type":"tuple"},{"components":[{"internalType":"uint256[2]","name":"X","type":"uint256[2]"},{"internalType":"uint256[2]","name":"Y","type":"uint256[2]"}],"internalType":"struct Pairing.G2Point","name":"b","type":"tuple"},{"components":[{"internalType":"uint256","name":"X","type":"uint256"},{"internalType":"uint256","name":"Y","type":"uint256"}],"internalType":"struct Pairing.G1Point","name":"c","type":"tuple"}],"internalType":"struct Verifier.Proof","name":"proof","type":"tuple"},{"internalType":"uint256[4]","name":"input","type":"uint256[4]"}],"name":"verifyTx","outputs":[{"internalType":"bool","name":"r","type":"bool"}],"stateMutability":"view","type":"function"}],"evm":{"bytecode":{"linkReferences":{},"object":"6080604052348015600f57600080fd5b50612e498061001f6000396000f3fe608060405234801561001057600080fd5b506004361061007d5760003560e01c80633619059b1161005b5780633619059b146100fe578063799afa761461012e578063bff908211461015e578063ca364a3a1461018e5761007d565b806301e21afb14610082578063055d24c1146100b257806309f1ae08146100e2575b600080fd5b61009c60048036038101906100979190611ed5565b6101aa565b6040516100a99190611f9d565b60405180910390f35b6100cc60048036038101906100c79190611ed5565b610260565b6040516100d99190611f9d565b60405180910390f35b6100fc60048036038101906100f79190612266565b610310565b005b610118600480360381019061011391906122d7565b6105c1565b6040516101259190612342565b60405180910390f35b6101486004803603810190610143919061235d565b6105ff565b60405161015591906123ba565b60405180910390f35b61017860048036038101906101739190611ed5565b6106c6565b6040516101859190612480565b60405180910390f35b6101a860048036038101906101a39190611ed5565b61072f565b005b60008180516020810182018051848252602083016020850120818352809550505050505060009150905080546101df906124ca565b80601f016020809104026020016040519081016040528092919081815260200182805461020b906124ca565b80156102585780601f1061022d57610100808354040283529160200191610258565b820191906000526020600020905b81548152906001019060200180831161023b57829003601f168201915b505050505081565b60606000826040516102729190612537565b9081526020016040518091039020805461028b906124ca565b80601f01602080910402602001604051908101604052809291908181526020018280546102b7906124ca565b80156103045780601f106102d957610100808354040283529160200191610304565b820191906000526020600020905b8154815290600101906020018083116102e757829003601f168201915b50505050509050919050565b600080846040516103219190612537565b9081526020016040518091039020805461033a906124ca565b90501461037c576040517f08c379a0000000000000000000000000000000000000000000000000000000008152600401610373906125c0565b60405180910390fd5b61038682826105ff565b6103c5576040517f08c379a00000000000000000000000000000000000000000000000000000000081526004016103bc90612652565b60405180910390fd5b6040518060400160405280826000600481106103e4576103e3612672565b5b602002015181526020018260016004811061040257610401612672565b5b602002015181525060018460405161041a9190612537565b9081526020016040518091039020906002610436929190611c0f565b50600061044233610acd565b9050600080826040516104559190612537565b9081526020016040518091039020805461046e906124ca565b80601f016020809104026020016040519081016040528092919081815260200182805461049a906124ca565b80156104e75780601f106104bc576101008083540402835291602001916104e7565b820191906000526020600020905b8154815290600101906020018083116104ca57829003601f168201915b50505050509050846000836040516104ff9190612537565b90815260200160405180910390209081610519919061284d565b50600081510361055457816000866040516105349190612537565b9081526020016040518091039020908161054e919061284d565b50610581565b806000866040516105659190612537565b9081526020016040518091039020908161057f919061284d565b505b7fa758369d21d836b8337f4e4928fa9645a718ce6cb6d395f8d77e81d1c8f0d56082866040516105b292919061291f565b60405180910390a15050505050565b60018280516020810182018051848252602083016020850120818352809550505050505081600281106105f357600080fd5b01600091509150505481565b600080600467ffffffffffffffff81111561061d5761061c611daa565b5b60405190808252806020026020018201604052801561064b5781602001602082028036833780820191505090505b50905060005b600481101561069e5783816004811061066d5761066c612672565b5b602002015182828151811061068557610684612672565b5b6020026020010181815250508080600101915050610651565b5060006106ab8286610de6565b036106ba5760019150506106c0565b60009150505b92915050565b6106ce611c4f565b6001826040516106de9190612537565b9081526020016040518091039020600280602002604051908101604052809291908260028015610723576020028201915b81548152602001906001019080831161070f575b50505050509050919050565b600080826040516107409190612537565b90815260200160405180910390208054610759906124ca565b90500361079b576040517f08c379a0000000000000000000000000000000000000000000000000000000008152600401610792906129c8565b60405180910390fd5b60006107a633610acd565b90506000826040516020016107bb9190612537565b6040516020818303038152906040528051906020012090506000826040516020016107e69190612537565b6040516020818303038152906040528051906020012090506000839050600080856040516108149190612537565b9081526020016040518091039020805461082d906124ca565b80601f0160208091040260200160405190810160405280929190818152602001828054610859906124ca565b80156108a65780601f1061087b576101008083540402835291602001916108a6565b820191906000526020600020905b81548152906001019060200180831161088957829003601f168201915b5050505050905060008151036108f1576040517f08c379a00000000000000000000000000000000000000000000000000000000081526004016108e890612a5a565b60405180910390fd5b6000816040516020016109049190612537565b6040516020818303038152906040528051906020012090505b808514610a4057838103610966576040517f08c379a000000000000000000000000000000000000000000000000000000000815260040161095d90612b12565b60405180910390fd5b8192506000826040516109799190612537565b90815260200160405180910390208054610992906124ca565b80601f01602080910402602001604051908101604052809291908181526020018280546109be906124ca565b8015610a0b5780601f106109e057610100808354040283529160200191610a0b565b820191906000526020600020905b8154815290600101906020018083116109ee57829003601f168201915b5050505050915081604051602001610a239190612537565b60405160208183030381529060405280519060200120905061091d565b600087604051610a509190612537565b9081526020016040518091039020600084604051610a6e9190612537565b90815260200160405180910390209081610a889190612b5d565b5060405180602001604052806000815250600088604051610aa99190612537565b90815260200160405180910390209081610ac3919061284d565b5050505050505050565b6060600082604051602001610ae29190612cbf565b604051602081830303815290604052905060006040518060400160405280601081526020017f30313233343536373839616263646566000000000000000000000000000000008152509050600060028351610b3d9190612d09565b6002610b499190612d4b565b67ffffffffffffffff811115610b6257610b61611daa565b5b6040519080825280601f01601f191660200182016040528015610b945781602001600182028036833780820191505090505b5090507f300000000000000000000000000000000000000000000000000000000000000081600081518110610bcc57610bcb612672565b5b60200101907effffffffffffffffffffffffffffffffffffffffffffffffffffffffffffff1916908160001a9053507f780000000000000000000000000000000000000000000000000000000000000081600181518110610c3057610c2f612672565b5b60200101907effffffffffffffffffffffffffffffffffffffffffffffffffffffffffffff1916908160001a90535060005b8351811015610dda57826004858381518110610c8157610c80612672565b5b602001015160f81c60f81b7effffffffffffffffffffffffffffffffffffffffffffffffffffffffffffff1916901c60f81c60ff1681518110610cc757610cc6612672565b5b602001015160f81c60f81b82600283610ce09190612d09565b6002610cec9190612d4b565b81518110610cfd57610cfc612672565b5b60200101907effffffffffffffffffffffffffffffffffffffffffffffffffffffffffffff1916908160001a90535082600f60f81b858381518110610d4557610d44612672565b5b602001015160f81c60f81b1660f81c60ff1681518110610d6857610d67612672565b5b602001015160f81c60f81b82600283610d819190612d09565b6003610d8d9190612d4b565b81518110610d9e57610d9d612672565b5b60200101907effffffffffffffffffffffffffffffffffffffffffffffffffffffffffffff1916908160001a9053508080600101915050610c62565b50809350505050919050565b6000807f30644e72e131a029b85045b68181585d2833e84879b9709143e1f593f000000190506000610e16610f77565b905080608001515160018651610e2c9190612d4b565b14610e3657600080fd5b60006040518060400160405280600081526020016000815250905060005b8651811015610ee95783878281518110610e7157610e70612672565b5b602002602001015110610e8357600080fd5b610eda82610ed58560800151600185610e9c9190612d4b565b81518110610ead57610eac612672565b5b60200260200101518a8581518110610ec857610ec7612672565b5b60200260200101516114e3565b611585565b91508080600101915050610e54565b50610f13818360800151600081518110610f0657610f05612672565b5b6020026020010151611585565b9050610f5985600001518660200151610f2b8461164d565b8560400151610f3d8a6040015161164d565b8760600151610f4f896000015161164d565b89602001516116f2565b610f695760019350505050610f71565b600093505050505b92915050565b610f7f611c71565b60405180604001604052807f2f5e6af506b96774e2925365c3321345ab256e893511ffa46ecd791a2b287b6081526020017f05a0204a91ba0d8e72ecafd94fc63edcd0a2cca50e7549d0d83bb0b0b000942a8152508160000181905250604051806040016040528060405180604001604052807f0fc4d876c4b0000d6d623ccedefe8ea74e434f530b1dbc983368bf04934235ed81526020017f1fdd473eb14c6bdf4bd5657cc16142d3202f5e3bdc4154643552718d7e94010c815250815260200160405180604001604052807f28ea5438112033a6f687d6cc45889e190ac48e6d8531961dc40978ffb8d9d19081526020017f158e624699f5391e0dc3a137f641ab56ba79d2e716606da48f7b836a5931e8108152508152508160200181905250604051806040016040528060405180604001604052807f0b53988a08178909f759edcd1a77ea41715ad14c7caf6157acd583dc41a9b31081526020017f14791244c423d2beb727a55784b31fcb5d92f0a7e192f2e3f9b7752633d56cbf815250815260200160405180604001604052807f1b624abd12a5810d8d16ee53cc9cfba66de28fddc0674b60b6944970c471909481526020017f09df1760dd611dee6de8572575ab0b8142e7557be61334c05b63d30df9d08b428152508152508160400181905250604051806040016040528060405180604001604052807f1f74b0713025db4df4578d294f8b8f621810939fac569cc7d79ad4918085377681526020017f16f23c3152a8e86756a5d93344b1ce5cdee88178d2508ad22522d1dd373260ed815250815260200160405180604001604052807f1034505b233386f7d899b1578ca346bc2dc0b5b000713ec6300761c70bf716b381526020017f19e53e7bd2b633e93403afbd9a03ffd158fc363d8af40ed1cb7df23b339a21d58152508152508160600181905250600567ffffffffffffffff81111561124657611245611daa565b5b60405190808252806020026020018201604052801561127f57816020015b61126c611cb8565b8152602001906001900390816112645790505b50816080018190525060405180604001604052807f25bd36b30a82e6f6ac8621d99e20a8af6ca97da2d7b5fe880901d61e60ae1ca181526020017f20eaaa7f9fae79f789f96dff742170c6e5fd18c96c284d75489cd66f659e63ba81525081608001516000815181106112f5576112f4612672565b5b602002602001018190525060405180604001604052807f2b8507accbf4846476aafb36dad3c7f9694b317cf4951b1444de897a27bb3a4181526020017f154be64c8b3b929a656048310f46ea999c243fa3931ef5febd675542f4b1bed2815250816080015160018151811061136d5761136c612672565b5b602002602001018190525060405180604001604052807f298e5732c627eed58eb7f7a58df2ac1699fe27953e3ac249a27d24ad2a2c3f4d81526020017f059cc84bfd7b0fb48297cbfbd56a05248ed2819265bb9fc0079ce4f21d4e70ed81525081608001516002815181106113e5576113e4612672565b5b602002602001018190525060405180604001604052807f0838c912682118e141da1ec9eb259c180f860f28646729f361d94c94a8aa727f81526020017f01809de65884e45c1229794a15468011dfc04b37afcc2ed1fba1fb508457e9ac815250816080015160038151811061145d5761145c612672565b5b602002602001018190525060405180604001604052807f0462ce76cc1ed5d937aeb12932b1caff41052f0940e8527aafda3d080b677ba681526020017f15b1f680bde4e1a42ec7a624ccc1083270aecf263137602f54ef7db91440a0dd81525081608001516004815181106114d5576114d4612672565b5b602002602001018190525090565b6114eb611cb8565b6114f3611cd2565b83600001518160006003811061150c5761150b612672565b5b60200201818152505083602001518160016003811061152e5761152d612672565b5b602002018181525050828160026003811061154c5761154b612672565b5b602002018181525050600060608360808460076107d05a03fa9050806000810361157257fe5b508061157d57600080fd5b505092915050565b61158d611cb8565b611595611cf4565b8360000151816000600481106115ae576115ad612672565b5b6020020181815250508360200151816001600481106115d0576115cf612672565b5b6020020181815250508260000151816002600481106115f2576115f1612672565b5b60200201818152505082602001518160036004811061161457611613612672565b5b602002018181525050600060608360c08460066107d05a03fa9050806000810361163a57fe5b508061164557600080fd5b505092915050565b611655611cb8565b60007f30644e72e131a029b85045b68181585d97816a916871ca8d3c208c16d87cfd47905060008360000151148015611692575060008360200151145b156116b65760405180604001604052806000815260200160008152509150506116ed565b6040518060400160405280846000015181526020018285602001516116db9190612dae565b836116e69190612ddf565b8152509150505b919050565b600080600467ffffffffffffffff8111156117105761170f611daa565b5b60405190808252806020026020018201604052801561174957816020015b611736611cb8565b81526020019060019003908161172e5790505b5090506000600467ffffffffffffffff81111561176957611768611daa565b5b6040519080825280602002602001820160405280156117a257816020015b61178f611d16565b8152602001906001900390816117875790505b5090508a826000815181106117ba576117b9612672565b5b602002602001018190525088826001815181106117da576117d9612672565b5b602002602001018190525086826002815181106117fa576117f9612672565b5b6020026020010181905250848260038151811061181a57611819612672565b5b6020026020010181905250898160008151811061183a57611839612672565b5b6020026020010181905250878160018151811061185a57611859612672565b5b6020026020010181905250858160028151811061187a57611879612672565b5b6020026020010181905250838160038151811061189a57611899612672565b5b60200260200101819052506118af82826118bf565b9250505098975050505050505050565b600081518351146118cf57600080fd5b60008351905060006006826118e49190612d09565b905060008167ffffffffffffffff81111561190257611901611daa565b5b6040519080825280602002602001820160405280156119305781602001602082028036833780820191505090505b50905060005b83811015611baf5786818151811061195157611950612672565b5b60200260200101516000015182600060068461196d9190612d09565b6119779190612d4b565b8151811061198857611987612672565b5b6020026020010181815250508681815181106119a7576119a6612672565b5b6020026020010151602001518260016006846119c39190612d09565b6119cd9190612d4b565b815181106119de576119dd612672565b5b6020026020010181815250508581815181106119fd576119fc612672565b5b602002602001015160000151600160028110611a1c57611a1b612672565b5b6020020151826002600684611a319190612d09565b611a3b9190612d4b565b81518110611a4c57611a4b612672565b5b602002602001018181525050858181518110611a6b57611a6a612672565b5b602002602001015160000151600060028110611a8a57611a89612672565b5b6020020151826003600684611a9f9190612d09565b611aa99190612d4b565b81518110611aba57611ab9612672565b5b602002602001018181525050858181518110611ad957611ad8612672565b5b602002602001015160200151600160028110611af857611af7612672565b5b6020020151826004600684611b0d9190612d09565b611b179190612d4b565b81518110611b2857611b27612672565b5b602002602001018181525050858181518110611b4757611b46612672565b5b602002602001015160200151600060028110611b6657611b65612672565b5b6020020151826005600684611b7b9190612d09565b611b859190612d4b565b81518110611b9657611b95612672565b5b6020026020010181815250508080600101915050611936565b50611bb8611d3c565b6000602082602086026020860160086107d05a03fa90508060008103611bda57fe5b5080611be557600080fd5b600082600060018110611bfb57611bfa612672565b5b602002015114159550505050505092915050565b8260028101928215611c3e579160200282015b82811115611c3d578251825591602001919060010190611c22565b5b509050611c4b9190611d5e565b5090565b6040518060400160405280600290602082028036833780820191505090505090565b6040518060a00160405280611c84611cb8565b8152602001611c91611d16565b8152602001611c9e611d16565b8152602001611cab611d16565b8152602001606081525090565b604051806040016040528060008152602001600081525090565b6040518060600160405280600390602082028036833780820191505090505090565b6040518060800160405280600490602082028036833780820191505090505090565b6040518060400160405280611d29611c4f565b8152602001611d36611c4f565b81525090565b6040518060200160405280600190602082028036833780820191505090505090565b5b80821115611d77576000816000905550600101611d5f565b5090565b6000604051905090565b600080fd5b600080fd5b600080fd5b600080fd5b6000601f19601f8301169050919050565b7f4e487b7100000000000000000000000000000000000000000000000000000000600052604160045260246000fd5b611de282611d99565b810181811067ffffffffffffffff82111715611e0157611e00611daa565b5b80604052505050565b6000611e14611d7b565b9050611e208282611dd9565b919050565b600067ffffffffffffffff821115611e4057611e3f611daa565b5b611e4982611d99565b9050602081019050919050565b82818337600083830152505050565b6000611e78611e7384611e25565b611e0a565b905082815260208101848484011115611e9457611e93611d94565b5b611e9f848285611e56565b509392505050565b600082601f830112611ebc57611ebb611d8f565b5b8135611ecc848260208601611e65565b91505092915050565b600060208284031215611eeb57611eea611d85565b5b600082013567ffffffffffffffff811115611f0957611f08611d8a565b5b611f1584828501611ea7565b91505092915050565b600081519050919050565b600082825260208201905092915050565b60005b83811015611f58578082015181840152602081019050611f3d565b60008484015250505050565b6000611f6f82611f1e565b611f798185611f29565b9350611f89818560208601611f3a565b611f9281611d99565b840191505092915050565b60006020820190508181036000830152611fb78184611f64565b905092915050565b600080fd5b6000819050919050565b611fd781611fc4565b8114611fe257600080fd5b50565b600081359050611ff481611fce565b92915050565b6000604082840312156120105761200f611fbf565b5b61201a6040611e0a565b9050600061202a84828501611fe5565b600083015250602061203e84828501611fe5565b60208301525092915050565b600067ffffffffffffffff82111561206557612064611daa565b5b602082029050919050565b600080fd5b60006120886120838461204a565b611e0a565b905080602084028301858111156120a2576120a1612070565b5b835b818110156120cb57806120b78882611fe5565b8452602084019350506020810190506120a4565b5050509392505050565b600082601f8301126120ea576120e9611d8f565b5b60026120f7848285612075565b91505092915050565b60006080828403121561211657612115611fbf565b5b6121206040611e0a565b90506000612130848285016120d5565b6000830152506040612144848285016120d5565b60208301525092915050565b6000610100828403121561216757612166611fbf565b5b6121716060611e0a565b9050600061218184828501611ffa565b600083015250604061219584828501612100565b60208301525060c06121a984828501611ffa565b60408301525092915050565b600067ffffffffffffffff8211156121d0576121cf611daa565b5b602082029050919050565b60006121ee6121e9846121b5565b611e0a565b9050806020840283018581111561220857612207612070565b5b835b81811015612231578061221d8882611fe5565b84526020840193505060208101905061220a565b5050509392505050565b600082601f8301126122505761224f611d8f565b5b600461225d8482856121db565b91505092915050565b60008060006101a084860312156122805761227f611d85565b5b600084013567ffffffffffffffff81111561229e5761229d611d8a565b5b6122aa86828701611ea7565b93505060206122bb86828701612150565b9250506101206122cd8682870161223b565b9150509250925092565b600080604083850312156122ee576122ed611d85565b5b600083013567ffffffffffffffff81111561230c5761230b611d8a565b5b61231885828601611ea7565b925050602061232985828601611fe5565b9150509250929050565b61233c81611fc4565b82525050565b60006020820190506123576000830184612333565b92915050565b600080610180838503121561237557612374611d85565b5b600061238385828601612150565b9250506101006123958582860161223b565b9150509250929050565b60008115159050919050565b6123b48161239f565b82525050565b60006020820190506123cf60008301846123ab565b92915050565b600060029050919050565b600081905092915050565b6000819050919050565b6123fe81611fc4565b82525050565b600061241083836123f5565b60208301905092915050565b6000602082019050919050565b612432816123d5565b61243c81846123e0565b9250612447826123eb565b8060005b8381101561247857815161245f8782612404565b965061246a8361241c565b92505060018101905061244b565b505050505050565b60006040820190506124956000830184612429565b92915050565b7f4e487b7100000000000000000000000000000000000000000000000000000000600052602260045260246000fd5b600060028204905060018216806124e257607f821691505b6020821081036124f5576124f461249b565b5b50919050565b600081905092915050565b600061251182611f1e565b61251b81856124fb565b935061252b818560208601611f3a565b80840191505092915050565b60006125438284612506565b915081905092915050565b7f6e65774964656e7469747920697320616c72656164792070617274206f66207260008201527f656769737465726564206964656e746974696573000000000000000000000000602082015250565b60006125aa603483611f29565b91506125b58261254e565b604082019050919050565b600060208201905081810360008301526125d98161259d565b9050919050565b7f70726f76696e67206f776e657273686970206f66206e65774964656e7469747960008201527f206661696c656400000000000000000000000000000000000000000000000000602082015250565b600061263c602783611f29565b9150612647826125e0565b604082019050919050565b6000602082019050818103600083015261266b8161262f565b9050919050565b7f4e487b7100000000000000000000000000000000000000000000000000000000600052603260045260246000fd5b60008190508160005260206000209050919050565b60006020601f8301049050919050565b600082821b905092915050565b6000600883026127037fffffffffffffffffffffffffffffffffffffffffffffffffffffffffffffffff826126c6565b61270d86836126c6565b95508019841693508086168417925050509392505050565b6000819050919050565b600061274a61274561274084611fc4565b612725565b611fc4565b9050919050565b6000819050919050565b6127648361272f565b61277861277082612751565b8484546126d3565b825550505050565b600090565b61278d612780565b61279881848461275b565b505050565b5b818110156127bc576127b1600082612785565b60018101905061279e565b5050565b601f821115612801576127d2816126a1565b6127db846126b6565b810160208510156127ea578190505b6127fe6127f6856126b6565b83018261279d565b50505b505050565b600082821c905092915050565b600061282460001984600802612806565b1980831691505092915050565b600061283d8383612813565b9150826002028217905092915050565b61285682611f1e565b67ffffffffffffffff81111561286f5761286e611daa565b5b61287982546124ca565b6128848282856127c0565b600060209050601f8311600181146128b757600084156128a5578287015190505b6128af8582612831565b865550612917565b601f1984166128c5866126a1565b60005b828110156128ed578489015182556001820191506020850194506020810190506128c8565b8683101561290a5784890151612906601f891682612813565b8355505b6001600288020188555050505b505050505050565b600060408201905081810360008301526129398185611f64565b9050818103602083015261294d8184611f64565b90509392505050565b7f746f426552656d6f7665644964656e74697479206973206e6f7420706172742060008201527f6f662072656769737465726564206964656e7469746965730000000000000000602082015250565b60006129b2603883611f29565b91506129bd82612956565b604082019050919050565b600060208201905081810360008301526129e1816129a5565b9050919050565b7f6d73672e73656e646572206973206e6f742070617274206f662072656769737460008201527f65726564206964656e7469746965730000000000000000000000000000000000602082015250565b6000612a44602f83611f29565b9150612a4f826129e8565b604082019050919050565b60006020820190508181036000830152612a7381612a37565b9050919050565b7f746f426552656d6f7665644964656e74697479206973206e6f7420706172742060008201527f6f66206d73672e73656e64657227732063697263756c6172206c696e6b65642060208201527f6c697374206f66206964656e7469746965730000000000000000000000000000604082015250565b6000612afc605283611f29565b9150612b0782612a7a565b606082019050919050565b60006020820190508181036000830152612b2b81612aef565b9050919050565b600081549050612b41816124ca565b9050919050565b60008190508160005260206000209050919050565b818103612b6b575050612c43565b612b7482612b32565b67ffffffffffffffff811115612b8d57612b8c611daa565b5b612b9782546124ca565b612ba28282856127c0565b6000601f831160018114612bd15760008415612bbf578287015490505b612bc98582612831565b865550612c3c565b601f198416612bdf87612b48565b9650612bea866126a1565b60005b82811015612c1257848901548255600182019150600185019450602081019050612bed565b86831015612c2f5784890154612c2b601f891682612813565b8355505b6001600288020188555050505b5050505050505b565b600073ffffffffffffffffffffffffffffffffffffffff82169050919050565b6000612c7082612c45565b9050919050565b60008160601b9050919050565b6000612c8f82612c77565b9050919050565b6000612ca182612c84565b9050919050565b612cb9612cb482612c65565b612c96565b82525050565b6000612ccb8284612ca8565b60148201915081905092915050565b7f4e487b7100000000000000000000000000000000000000000000000000000000600052601160045260246000fd5b6000612d1482611fc4565b9150612d1f83611fc4565b9250828202612d2d81611fc4565b91508282048414831517612d4457612d43612cda565b5b5092915050565b6000612d5682611fc4565b9150612d6183611fc4565b9250828201905080821115612d7957612d78612cda565b5b92915050565b7f4e487b7100000000000000000000000000000000000000000000000000000000600052601260045260246000fd5b6000612db982611fc4565b9150612dc483611fc4565b925082612dd457612dd3612d7f565b5b828206905092915050565b6000612dea82611fc4565b9150612df583611fc4565b9250828203905081811115612e0d57612e0c612cda565b5b9291505056fea264697066735822122097d1714de65aad3c1bf208df74012ea9c053fb497e147e1f4f992b986a684c7c64736f6c634300081b0033","opcodes":"PUSH1 0x80 PUSH1 0x40 MSTORE CALLVALUE DUP1 ISZERO PUSH1 0xF JUMPI PUSH1 0x0 DUP1 REVERT JUMPDEST POP PUSH2 0x2E49 DUP1 PUSH2 0x1F PUSH1 0x0 CODECOPY PUSH1 0x0 RETURN INVALID PUSH1 0x80 PUSH1 0x40 MSTORE CALLVALUE DUP1 ISZERO PUSH2 0x10 JUMPI PUSH1 0x0 DUP1 REVERT JUMPDEST POP PUSH1 0x4 CALLDATASIZE LT PUSH2 0x7D JUMPI PUSH1 0x0 CALLDATALOAD PUSH1 0xE0 SHR DUP1 PUSH4 0x3619059B GT PUSH2 0x5B JUMPI DUP1 PUSH4 0x3619059B EQ PUSH2 0xFE JUMPI DUP1 PUSH4 0x799AFA76 EQ PUSH2 0x12E JUMPI DUP1 PUSH4 0xBFF90821 EQ PUSH2 0x15E JUMPI DUP1 PUSH4 0xCA364A3A EQ PUSH2 0x18E JUMPI PUSH2 0x7D JUMP JUMPDEST DUP1 PUSH4 0x1E21AFB EQ PUSH2 0x82 JUMPI DUP1 PUSH4 0x55D24C1 EQ PUSH2 0xB2 JUMPI DUP1 PUSH4 0x9F1AE08 EQ PUSH2 0xE2 JUMPI JUMPDEST PUSH1 0x0 DUP1 REVERT JUMPDEST PUSH2 0x9C PUSH1 0x4 DUP1 CALLDATASIZE SUB DUP2 ADD SWAP1 PUSH2 0x97 SWAP2 SWAP1 PUSH2 0x1ED5 JUMP JUMPDEST PUSH2 0x1AA JUMP JUMPDEST PUSH1 0x40 MLOAD PUSH2 0xA9 SWAP2 SWAP1 PUSH2 0x1F9D JUMP JUMPDEST PUSH1 0x40 MLOAD DUP1 SWAP2 SUB SWAP1 RETURN JUMPDEST PUSH2 0xCC PUSH1 0x4 DUP1 CALLDATASIZE SUB DUP2 ADD SWAP1 PUSH2 0xC7 SWAP2 SWAP1 PUSH2 0x1ED5 JUMP JUMPDEST PUSH2 0x260 JUMP JUMPDEST PUSH1 0x40 MLOAD PUSH2 0xD9 SWAP2 SWAP1 PUSH2 0x1F9D JUMP JUMPDEST PUSH1 0x40 MLOAD DUP1 SWAP2 SUB SWAP1 RETURN JUMPDEST PUSH2 0xFC PUSH1 0x4 DUP1 CALLDATASIZE SUB DUP2 ADD SWAP1 PUSH2 0xF7 SWAP2 SWAP1 PUSH2 0x2266 JUMP JUMPDEST PUSH2 0x310 JUMP JUMPDEST STOP JUMPDEST PUSH2 0x118 PUSH1 0x4 DUP1 CALLDATASIZE SUB DUP2 ADD SWAP1 PUSH2 0x113 SWAP2 SWAP1 PUSH2 0x22D7 JUMP JUMPDEST PUSH2 0x5C1 JUMP JUMPDEST PUSH1 0x40 MLOAD PUSH2 0x125 SWAP2 SWAP1 PUSH2 0x2342 JUMP JUMPDEST PUSH1 0x40 MLOAD DUP1 SWAP2 SUB SWAP1 RETURN JUMPDEST PUSH2 0x148 PUSH1 0x4 DUP1 CALLDATASIZE SUB DUP2 ADD SWAP1 PUSH2 0x143 SWAP2 SWAP1 PUSH2 0x235D JUMP JUMPDEST PUSH2 0x5FF JUMP JUMPDEST PUSH1 0x40 MLOAD PUSH2 0x155 SWAP2 SWAP1 PUSH2 0x23BA JUMP JUMPDEST PUSH1 0x40 MLOAD DUP1 SWAP2 SUB SWAP1 RETURN JUMPDEST PUSH2 0x178 PUSH1 0x4 DUP1 CALLDATASIZE SUB DUP2 ADD SWAP1 PUSH2 0x173 SWAP2 SWAP1 PUSH2 0x1ED5 JUMP JUMPDEST PUSH2 0x6C6 JUMP JUMPDEST PUSH1 0x40 MLOAD PUSH2 0x185 SWAP2 SWAP1 PUSH2 0x2480 JUMP JUMPDEST PUSH1 0x40 MLOAD DUP1 SWAP2 SUB SWAP1 RETURN JUMPDEST PUSH2 0x1A8 PUSH1 0x4 DUP1 CALLDATASIZE SUB DUP2 ADD SWAP1 PUSH2 0x1A3 SWAP2 SWAP1 PUSH2 0x1ED5 JUMP JUMPDEST PUSH2 0x72F JUMP JUMPDEST STOP JUMPDEST PUSH1 0x0 DUP2 DUP1 MLOAD PUSH1 0x20 DUP2 ADD DUP3 ADD DUP1 MLOAD DUP5 DUP3 MSTORE PUSH1 0x20 DUP4 ADD PUSH1 0x20 DUP6 ADD KECCAK256 DUP2 DUP4 MSTORE DUP1 SWAP6 POP POP POP POP POP POP PUSH1 0x0 SWAP2 POP SWAP1 POP DUP1 SLOAD PUSH2 0x1DF SWAP1 PUSH2 0x24CA JUMP JUMPDEST DUP1 PUSH1 0x1F ADD PUSH1 0x20 DUP1 SWAP2 DIV MUL PUSH1 0x20 ADD PUSH1 0x40 MLOAD SWAP1 DUP2 ADD PUSH1 0x40 MSTORE DUP1 SWAP3 SWAP2 SWAP1 DUP2 DUP2 MSTORE PUSH1 0x20 ADD DUP3 DUP1 SLOAD PUSH2 0x20B SWAP1 PUSH2 0x24CA JUMP JUMPDEST DUP1 ISZERO PUSH2 0x258 JUMPI DUP1 PUSH1 0x1F LT PUSH2 0x22D JUMPI PUSH2 0x100 DUP1 DUP4 SLOAD DIV MUL DUP4 MSTORE SWAP2 PUSH1 0x20 ADD SWAP2 PUSH2 0x258 JUMP JUMPDEST DUP3 ADD SWAP2 SWAP1 PUSH1 0x0 MSTORE PUSH1 0x20 PUSH1 0x0 KECCAK256 SWAP1 JUMPDEST DUP2 SLOAD DUP2 MSTORE SWAP1 PUSH1 0x1 ADD SWAP1 PUSH1 0x20 ADD DUP1 DUP4 GT PUSH2 0x23B JUMPI DUP3 SWAP1 SUB PUSH1 0x1F AND DUP3 ADD SWAP2 JUMPDEST POP POP POP POP POP DUP2 JUMP JUMPDEST PUSH1 0x60 PUSH1 0x0 DUP3 PUSH1 0x40 MLOAD PUSH2 0x272 SWAP2 SWAP1 PUSH2 0x2537 JUMP JUMPDEST SWAP1 DUP2 MSTORE PUSH1 0x20 ADD PUSH1 0x40 MLOAD DUP1 SWAP2 SUB SWAP1 KECCAK256 DUP1 SLOAD PUSH2 0x28B SWAP1 PUSH2 0x24CA JUMP JUMPDEST DUP1 PUSH1 0x1F ADD PUSH1 0x20 DUP1 SWAP2 DIV MUL PUSH1 0x20 ADD PUSH1 0x40 MLOAD SWAP1 DUP2 ADD PUSH1 0x40 MSTORE DUP1 SWAP3 SWAP2 SWAP1 DUP2 DUP2 MSTORE PUSH1 0x20 ADD DUP3 DUP1 SLOAD PUSH2 0x2B7 SWAP1 PUSH2 0x24CA JUMP JUMPDEST DUP1 ISZERO PUSH2 0x304 JUMPI DUP1 PUSH1 0x1F LT PUSH2 0x2D9 JUMPI PUSH2 0x100 DUP1 DUP4 SLOAD DIV MUL DUP4 MSTORE SWAP2 PUSH1 0x20 ADD SWAP2 PUSH2 0x304 JUMP JUMPDEST DUP3 ADD SWAP2 SWAP1 PUSH1 0x0 MSTORE PUSH1 0x20 PUSH1 0x0 KECCAK256 SWAP1 JUMPDEST DUP2 SLOAD DUP2 MSTORE SWAP1 PUSH1 0x1 ADD SWAP1 PUSH1 0x20 ADD DUP1 DUP4 GT PUSH2 0x2E7 JUMPI DUP3 SWAP1 SUB PUSH1 0x1F AND DUP3 ADD SWAP2 JUMPDEST POP POP POP POP POP SWAP1 POP SWAP2 SWAP1 POP JUMP JUMPDEST PUSH1 0x0 DUP1 DUP5 PUSH1 0x40 MLOAD PUSH2 0x321 SWAP2 SWAP1 PUSH2 0x2537 JUMP JUMPDEST SWAP1 DUP2 MSTORE PUSH1 0x20 ADD PUSH1 0x40 MLOAD DUP1 SWAP2 SUB SWAP1 KECCAK256 DUP1 SLOAD PUSH2 0x33A SWAP1 PUSH2 0x24CA JUMP JUMPDEST SWAP1 POP EQ PUSH2 0x37C JUMPI PUSH1 0x40 MLOAD PUSH32 0x8C379A000000000000000000000000000000000000000000000000000000000 DUP2 MSTORE PUSH1 0x4 ADD PUSH2 0x373 SWAP1 PUSH2 0x25C0 JUMP JUMPDEST PUSH1 0x40 MLOAD DUP1 SWAP2 SUB SWAP1 REVERT JUMPDEST PUSH2 0x386 DUP3 DUP3 PUSH2 0x5FF JUMP JUMPDEST PUSH2 0x3C5 JUMPI PUSH1 0x40 MLOAD PUSH32 0x8C379A000000000000000000000000000000000000000000000000000000000 DUP2 MSTORE PUSH1 0x4 ADD PUSH2 0x3BC SWAP1 PUSH2 0x2652 JUMP JUMPDEST PUSH1 0x40 MLOAD DUP1 SWAP2 SUB SWAP1 REVERT JUMPDEST PUSH1 0x40 MLOAD DUP1 PUSH1 0x40 ADD PUSH1 0x40 MSTORE DUP1 DUP3 PUSH1 0x0 PUSH1 0x4 DUP2 LT PUSH2 0x3E4 JUMPI PUSH2 0x3E3 PUSH2 0x2672 JUMP JUMPDEST JUMPDEST PUSH1 0x20 MUL ADD MLOAD DUP2 MSTORE PUSH1 0x20 ADD DUP3 PUSH1 0x1 PUSH1 0x4 DUP2 LT PUSH2 0x402 JUMPI PUSH2 0x401 PUSH2 0x2672 JUMP JUMPDEST JUMPDEST PUSH1 0x20 MUL ADD MLOAD DUP2 MSTORE POP PUSH1 0x1 DUP5 PUSH1 0x40 MLOAD PUSH2 0x41A SWAP2 SWAP1 PUSH2 0x2537 JUMP JUMPDEST SWAP1 DUP2 MSTORE PUSH1 0x20 ADD PUSH1 0x40 MLOAD DUP1 SWAP2 SUB SWAP1 KECCAK256 SWAP1 PUSH1 0x2 PUSH2 0x436 SWAP3 SWAP2 SWAP1 PUSH2 0x1C0F JUMP JUMPDEST POP PUSH1 0x0 PUSH2 0x442 CALLER PUSH2 0xACD JUMP JUMPDEST SWAP1 POP PUSH1 0x0 DUP1 DUP3 PUSH1 0x40 MLOAD PUSH2 0x455 SWAP2 SWAP1 PUSH2 0x2537 JUMP JUMPDEST SWAP1 DUP2 MSTORE PUSH1 0x20 ADD PUSH1 0x40 MLOAD DUP1 SWAP2 SUB SWAP1 KECCAK256 DUP1 SLOAD PUSH2 0x46E SWAP1 PUSH2 0x24CA JUMP JUMPDEST DUP1 PUSH1 0x1F ADD PUSH1 0x20 DUP1 SWAP2 DIV MUL PUSH1 0x20 ADD PUSH1 0x40 MLOAD SWAP1 DUP2 ADD PUSH1 0x40 MSTORE DUP1 SWAP3 SWAP2 SWAP1 DUP2 DUP2 MSTORE PUSH1 0x20 ADD DUP3 DUP1 SLOAD PUSH2 0x49A SWAP1 PUSH2 0x24CA JUMP JUMPDEST DUP1 ISZERO PUSH2 0x4E7 JUMPI DUP1 PUSH1 0x1F LT PUSH2 0x4BC JUMPI PUSH2 0x100 DUP1 DUP4 SLOAD DIV MUL DUP4 MSTORE SWAP2 PUSH1 0x20 ADD SWAP2 PUSH2 0x4E7 JUMP JUMPDEST DUP3 ADD SWAP2 SWAP1 PUSH1 0x0 MSTORE PUSH1 0x20 PUSH1 0x0 KECCAK256 SWAP1 JUMPDEST DUP2 SLOAD DUP2 MSTORE SWAP1 PUSH1 0x1 ADD SWAP1 PUSH1 0x20 ADD DUP1 DUP4 GT PUSH2 0x4CA JUMPI DUP3 SWAP1 SUB PUSH1 0x1F AND DUP3 ADD SWAP2 JUMPDEST POP POP POP POP POP SWAP1 POP DUP5 PUSH1 0x0 DUP4 PUSH1 0x40 MLOAD PUSH2 0x4FF SWAP2 SWAP1 PUSH2 0x2537 JUMP JUMPDEST SWAP1 DUP2 MSTORE PUSH1 0x20 ADD PUSH1 0x40 MLOAD DUP1 SWAP2 SUB SWAP1 KECCAK256 SWAP1 DUP2 PUSH2 0x519 SWAP2 SWAP1 PUSH2 0x284D JUMP JUMPDEST POP PUSH1 0x0 DUP2 MLOAD SUB PUSH2 0x554 JUMPI DUP2 PUSH1 0x0 DUP7 PUSH1 0x40 MLOAD PUSH2 0x534 SWAP2 SWAP1 PUSH2 0x2537 JUMP JUMPDEST SWAP1 DUP2 MSTORE PUSH1 0x20 ADD PUSH1 0x40 MLOAD DUP1 SWAP2 SUB SWAP1 KECCAK256 SWAP1 DUP2 PUSH2 0x54E SWAP2 SWAP1 PUSH2 0x284D JUMP JUMPDEST POP PUSH2 0x581 JUMP JUMPDEST DUP1 PUSH1 0x0 DUP7 PUSH1 0x40 MLOAD PUSH2 0x565 SWAP2 SWAP1 PUSH2 0x2537 JUMP JUMPDEST SWAP1 DUP2 MSTORE PUSH1 0x20 ADD PUSH1 0x40 MLOAD DUP1 SWAP2 SUB SWAP1 KECCAK256 SWAP1 DUP2 PUSH2 0x57F SWAP2 SWAP1 PUSH2 0x284D JUMP JUMPDEST POP JUMPDEST PUSH32 0xA758369D21D836B8337F4E4928FA9645A718CE6CB6D395F8D77E81D1C8F0D560 DUP3 DUP7 PUSH1 0x40 MLOAD PUSH2 0x5B2 SWAP3 SWAP2 SWAP1 PUSH2 0x291F JUMP JUMPDEST PUSH1 0x40 MLOAD DUP1 SWAP2 SUB SWAP1 LOG1 POP POP POP POP POP JUMP JUMPDEST PUSH1 0x1 DUP3 DUP1 MLOAD PUSH1 0x20 DUP2 ADD DUP3 ADD DUP1 MLOAD DUP5 DUP3 MSTORE PUSH1 0x20 DUP4 ADD PUSH1 0x20 DUP6 ADD KECCAK256 DUP2 DUP4 MSTORE DUP1 SWAP6 POP POP POP POP POP POP DUP2 PUSH1 0x2 DUP2 LT PUSH2 0x5F3 JUMPI PUSH1 0x0 DUP1 REVERT JUMPDEST ADD PUSH1 0x0 SWAP2 POP SWAP2 POP POP SLOAD DUP2 JUMP JUMPDEST PUSH1 0x0 DUP1 PUSH1 0x4 PUSH8 0xFFFFFFFFFFFFFFFF DUP2 GT ISZERO PUSH2 0x61D JUMPI PUSH2 0x61C PUSH2 0x1DAA JUMP JUMPDEST JUMPDEST PUSH1 0x40 MLOAD SWAP1 DUP1 DUP3 MSTORE DUP1 PUSH1 0x20 MUL PUSH1 0x20 ADD DUP3 ADD PUSH1 0x40 MSTORE DUP1 ISZERO PUSH2 0x64B JUMPI DUP2 PUSH1 0x20 ADD PUSH1 0x20 DUP3 MUL DUP1 CALLDATASIZE DUP4 CALLDATACOPY DUP1 DUP3 ADD SWAP2 POP POP SWAP1 POP JUMPDEST POP SWAP1 POP PUSH1 0x0 JUMPDEST PUSH1 0x4 DUP2 LT ISZERO PUSH2 0x69E JUMPI DUP4 DUP2 PUSH1 0x4 DUP2 LT PUSH2 0x66D JUMPI PUSH2 0x66C PUSH2 0x2672 JUMP JUMPDEST JUMPDEST PUSH1 0x20 MUL ADD MLOAD DUP3 DUP3 DUP2 MLOAD DUP2 LT PUSH2 0x685 JUMPI PUSH2 0x684 PUSH2 0x2672 JUMP JUMPDEST JUMPDEST PUSH1 0x20 MUL PUSH1 0x20 ADD ADD DUP2 DUP2 MSTORE POP POP DUP1 DUP1 PUSH1 0x1 ADD SWAP2 POP POP PUSH2 0x651 JUMP JUMPDEST POP PUSH1 0x0 PUSH2 0x6AB DUP3 DUP7 PUSH2 0xDE6 JUMP JUMPDEST SUB PUSH2 0x6BA JUMPI PUSH1 0x1 SWAP2 POP POP PUSH2 0x6C0 JUMP JUMPDEST PUSH1 0x0 SWAP2 POP POP JUMPDEST SWAP3 SWAP2 POP POP JUMP JUMPDEST PUSH2 0x6CE PUSH2 0x1C4F JUMP JUMPDEST PUSH1 0x1 DUP3 PUSH1 0x40 MLOAD PUSH2 0x6DE SWAP2 SWAP1 PUSH2 0x2537 JUMP JUMPDEST SWAP1 DUP2 MSTORE PUSH1 0x20 ADD PUSH1 0x40 MLOAD DUP1 SWAP2 SUB SWAP1 KECCAK256 PUSH1 0x2 DUP1 PUSH1 0x20 MUL PUSH1 0x40 MLOAD SWAP1 DUP2 ADD PUSH1 0x40 MSTORE DUP1 SWAP3 SWAP2 SWAP1 DUP3 PUSH1 0x2 DUP1 ISZERO PUSH2 0x723 JUMPI PUSH1 0x20 MUL DUP3 ADD SWAP2 JUMPDEST DUP2 SLOAD DUP2 MSTORE PUSH1 0x20 ADD SWAP1 PUSH1 0x1 ADD SWAP1 DUP1 DUP4 GT PUSH2 0x70F JUMPI JUMPDEST POP POP POP POP POP SWAP1 POP SWAP2 SWAP1 POP JUMP JUMPDEST PUSH1 0x0 DUP1 DUP3 PUSH1 0x40 MLOAD PUSH2 0x740 SWAP2 SWAP1 PUSH2 0x2537 JUMP JUMPDEST SWAP1 DUP2 MSTORE PUSH1 0x20 ADD PUSH1 0x40 MLOAD DUP1 SWAP2 SUB SWAP1 KECCAK256 DUP1 SLOAD PUSH2 0x759 SWAP1 PUSH2 0x24CA JUMP JUMPDEST SWAP1 POP SUB PUSH2 0x79B JUMPI PUSH1 0x40 MLOAD PUSH32 0x8C379A000000000000000000000000000000000000000000000000000000000 DUP2 MSTORE PUSH1 0x4 ADD PUSH2 0x792 SWAP1 PUSH2 0x29C8 JUMP JUMPDEST PUSH1 0x40 MLOAD DUP1 SWAP2 SUB SWAP1 REVERT JUMPDEST PUSH1 0x0 PUSH2 0x7A6 CALLER PUSH2 0xACD JUMP JUMPDEST SWAP1 POP PUSH1 0x0 DUP3 PUSH1 0x40 MLOAD PUSH1 0x20 ADD PUSH2 0x7BB SWAP2 SWAP1 PUSH2 0x2537 JUMP JUMPDEST PUSH1 0x40 MLOAD PUSH1 0x20 DUP2 DUP4 SUB SUB DUP2 MSTORE SWAP1 PUSH1 0x40 MSTORE DUP1 MLOAD SWAP1 PUSH1 0x20 ADD KECCAK256 SWAP1 POP PUSH1 0x0 DUP3 PUSH1 0x40 MLOAD PUSH1 0x20 ADD PUSH2 0x7E6 SWAP2 SWAP1 PUSH2 0x2537 JUMP JUMPDEST PUSH1 0x40 MLOAD PUSH1 0x20 DUP2 DUP4 SUB SUB DUP2 MSTORE SWAP1 PUSH1 0x40 MSTORE DUP1 MLOAD SWAP1 PUSH1 0x20 ADD KECCAK256 SWAP1 POP PUSH1 0x0 DUP4 SWAP1 POP PUSH1 0x0 DUP1 DUP6 PUSH1 0x40 MLOAD PUSH2 0x814 SWAP2 SWAP1 PUSH2 0x2537 JUMP JUMPDEST SWAP1 DUP2 MSTORE PUSH1 0x20 ADD PUSH1 0x40 MLOAD DUP1 SWAP2 SUB SWAP1 KECCAK256 DUP1 SLOAD PUSH2 0x82D SWAP1 PUSH2 0x24CA JUMP JUMPDEST DUP1 PUSH1 0x1F ADD PUSH1 0x20 DUP1 SWAP2 DIV MUL PUSH1 0x20 ADD PUSH1 0x40 MLOAD SWAP1 DUP2 ADD PUSH1 0x40 MSTORE DUP1 SWAP3 SWAP2 SWAP1 DUP2 DUP2 MSTORE PUSH1 0x20 ADD DUP3 DUP1 SLOAD PUSH2 0x859 SWAP1 PUSH2 0x24CA JUMP JUMPDEST DUP1 ISZERO PUSH2 0x8A6 JUMPI DUP1 PUSH1 0x1F LT PUSH2 0x87B JUMPI PUSH2 0x100 DUP1 DUP4 SLOAD DIV MUL DUP4 MSTORE SWAP2 PUSH1 0x20 ADD SWAP2 PUSH2 0x8A6 JUMP JUMPDEST DUP3 ADD SWAP2 SWAP1 PUSH1 0x0 MSTORE PUSH1 0x20 PUSH1 0x0 KECCAK256 SWAP1 JUMPDEST DUP2 SLOAD DUP2 MSTORE SWAP1 PUSH1 0x1 ADD SWAP1 PUSH1 0x20 ADD DUP1 DUP4 GT PUSH2 0x889 JUMPI DUP3 SWAP1 SUB PUSH1 0x1F AND DUP3 ADD SWAP2 JUMPDEST POP POP POP POP POP SWAP1 POP PUSH1 0x0 DUP2 MLOAD SUB PUSH2 0x8F1 JUMPI PUSH1 0x40 MLOAD PUSH32 0x8C379A000000000000000000000000000000000000000000000000000000000 DUP2 MSTORE PUSH1 0x4 ADD PUSH2 0x8E8 SWAP1 PUSH2 0x2A5A JUMP JUMPDEST PUSH1 0x40 MLOAD DUP1 SWAP2 SUB SWAP1 REVERT JUMPDEST PUSH1 0x0 DUP2 PUSH1 0x40 MLOAD PUSH1 0x20 ADD PUSH2 0x904 SWAP2 SWAP1 PUSH2 0x2537 JUMP JUMPDEST PUSH1 0x40 MLOAD PUSH1 0x20 DUP2 DUP4 SUB SUB DUP2 MSTORE SWAP1 PUSH1 0x40 MSTORE DUP1 MLOAD SWAP1 PUSH1 0x20 ADD KECCAK256 SWAP1 POP JUMPDEST DUP1 DUP6 EQ PUSH2 0xA40 JUMPI DUP4 DUP2 SUB PUSH2 0x966 JUMPI PUSH1 0x40 MLOAD PUSH32 0x8C379A000000000000000000000000000000000000000000000000000000000 DUP2 MSTORE PUSH1 0x4 ADD PUSH2 0x95D SWAP1 PUSH2 0x2B12 JUMP JUMPDEST PUSH1 0x40 MLOAD DUP1 SWAP2 SUB SWAP1 REVERT JUMPDEST DUP2 SWAP3 POP PUSH1 0x0 DUP3 PUSH1 0x40 MLOAD PUSH2 0x979 SWAP2 SWAP1 PUSH2 0x2537 JUMP JUMPDEST SWAP1 DUP2 MSTORE PUSH1 0x20 ADD PUSH1 0x40 MLOAD DUP1 SWAP2 SUB SWAP1 KECCAK256 DUP1 SLOAD PUSH2 0x992 SWAP1 PUSH2 0x24CA JUMP JUMPDEST DUP1 PUSH1 0x1F ADD PUSH1 0x20 DUP1 SWAP2 DIV MUL PUSH1 0x20 ADD PUSH1 0x40 MLOAD SWAP1 DUP2 ADD PUSH1 0x40 MSTORE DUP1 SWAP3 SWAP2 SWAP1 DUP2 DUP2 MSTORE PUSH1 0x20 ADD DUP3 DUP1 SLOAD PUSH2 0x9BE SWAP1 PUSH2 0x24CA JUMP JUMPDEST DUP1 ISZERO PUSH2 0xA0B JUMPI DUP1 PUSH1 0x1F LT PUSH2 0x9E0 JUMPI PUSH2 0x100 DUP1 DUP4 SLOAD DIV MUL DUP4 MSTORE SWAP2 PUSH1 0x20 ADD SWAP2 PUSH2 0xA0B JUMP JUMPDEST DUP3 ADD SWAP2 SWAP1 PUSH1 0x0 MSTORE PUSH1 0x20 PUSH1 0x0 KECCAK256 SWAP1 JUMPDEST DUP2 SLOAD DUP2 MSTORE SWAP1 PUSH1 0x1 ADD SWAP1 PUSH1 0x20 ADD DUP1 DUP4 GT PUSH2 0x9EE JUMPI DUP3 SWAP1 SUB PUSH1 0x1F AND DUP3 ADD SWAP2 JUMPDEST POP POP POP POP POP SWAP2 POP DUP2 PUSH1 0x40 MLOAD PUSH1 0x20 ADD PUSH2 0xA23 SWAP2 SWAP1 PUSH2 0x2537 JUMP JUMPDEST PUSH1 0x40 MLOAD PUSH1 0x20 DUP2 DUP4 SUB SUB DUP2 MSTORE SWAP1 PUSH1 0x40 MSTORE DUP1 MLOAD SWAP1 PUSH1 0x20 ADD KECCAK256 SWAP1 POP PUSH2 0x91D JUMP JUMPDEST PUSH1 0x0 DUP8 PUSH1 0x40 MLOAD PUSH2 0xA50 SWAP2 SWAP1 PUSH2 0x2537 JUMP JUMPDEST SWAP1 DUP2 MSTORE PUSH1 0x20 ADD PUSH1 0x40 MLOAD DUP1 SWAP2 SUB SWAP1 KECCAK256 PUSH1 0x0 DUP5 PUSH1 0x40 MLOAD PUSH2 0xA6E SWAP2 SWAP1 PUSH2 0x2537 JUMP JUMPDEST SWAP1 DUP2 MSTORE PUSH1 0x20 ADD PUSH1 0x40 MLOAD DUP1 SWAP2 SUB SWAP1 KECCAK256 SWAP1 DUP2 PUSH2 0xA88 SWAP2 SWAP1 PUSH2 0x2B5D JUMP JUMPDEST POP PUSH1 0x40 MLOAD DUP1 PUSH1 0x20 ADD PUSH1 0x40 MSTORE DUP1 PUSH1 0x0 DUP2 MSTORE POP PUSH1 0x0 DUP9 PUSH1 0x40 MLOAD PUSH2 0xAA9 SWAP2 SWAP1 PUSH2 0x2537 JUMP JUMPDEST SWAP1 DUP2 MSTORE PUSH1 0x20 ADD PUSH1 0x40 MLOAD DUP1 SWAP2 SUB SWAP1 KECCAK256 SWAP1 DUP2 PUSH2 0xAC3 SWAP2 SWAP1 PUSH2 0x284D JUMP JUMPDEST POP POP POP POP POP POP POP POP JUMP JUMPDEST PUSH1 0x60 PUSH1 0x0 DUP3 PUSH1 0x40 MLOAD PUSH1 0x20 ADD PUSH2 0xAE2 SWAP2 SWAP1 PUSH2 0x2CBF JUMP JUMPDEST PUSH1 0x40 MLOAD PUSH1 0x20 DUP2 DUP4 SUB SUB DUP2 MSTORE SWAP1 PUSH1 0x40 MSTORE SWAP1 POP PUSH1 0x0 PUSH1 0x40 MLOAD DUP1 PUSH1 0x40 ADD PUSH1 0x40 MSTORE DUP1 PUSH1 0x10 DUP2 MSTORE PUSH1 0x20 ADD PUSH32 0x3031323334353637383961626364656600000000000000000000000000000000 DUP2 MSTORE POP SWAP1 POP PUSH1 0x0 PUSH1 0x2 DUP4 MLOAD PUSH2 0xB3D SWAP2 SWAP1 PUSH2 0x2D09 JUMP JUMPDEST PUSH1 0x2 PUSH2 0xB49 SWAP2 SWAP1 PUSH2 0x2D4B JUMP JUMPDEST PUSH8 0xFFFFFFFFFFFFFFFF DUP2 GT ISZERO PUSH2 0xB62 JUMPI PUSH2 0xB61 PUSH2 0x1DAA JUMP JUMPDEST JUMPDEST PUSH1 0x40 MLOAD SWAP1 DUP1 DUP3 MSTORE DUP1 PUSH1 0x1F ADD PUSH1 0x1F NOT AND PUSH1 0x20 ADD DUP3 ADD PUSH1 0x40 MSTORE DUP1 ISZERO PUSH2 0xB94 JUMPI DUP2 PUSH1 0x20 ADD PUSH1 0x1 DUP3 MUL DUP1 CALLDATASIZE DUP4 CALLDATACOPY DUP1 DUP3 ADD SWAP2 POP POP SWAP1 POP JUMPDEST POP SWAP1 POP PUSH32 0x3000000000000000000000000000000000000000000000000000000000000000 DUP2 PUSH1 0x0 DUP2 MLOAD DUP2 LT PUSH2 0xBCC JUMPI PUSH2 0xBCB PUSH2 0x2672 JUMP JUMPDEST JUMPDEST PUSH1 0x20 ADD ADD SWAP1 PUSH31 0xFFFFFFFFFFFFFFFFFFFFFFFFFFFFFFFFFFFFFFFFFFFFFFFFFFFFFFFFFFFFFF NOT AND SWAP1 DUP2 PUSH1 0x0 BYTE SWAP1 MSTORE8 POP PUSH32 0x7800000000000000000000000000000000000000000000000000000000000000 DUP2 PUSH1 0x1 DUP2 MLOAD DUP2 LT PUSH2 0xC30 JUMPI PUSH2 0xC2F PUSH2 0x2672 JUMP JUMPDEST JUMPDEST PUSH1 0x20 ADD ADD SWAP1 PUSH31 0xFFFFFFFFFFFFFFFFFFFFFFFFFFFFFFFFFFFFFFFFFFFFFFFFFFFFFFFFFFFFFF NOT AND SWAP1 DUP2 PUSH1 0x0 BYTE SWAP1 MSTORE8 POP PUSH1 0x0 JUMPDEST DUP4 MLOAD DUP2 LT ISZERO PUSH2 0xDDA JUMPI DUP3 PUSH1 0x4 DUP6 DUP4 DUP2 MLOAD DUP2 LT PUSH2 0xC81 JUMPI PUSH2 0xC80 PUSH2 0x2672 JUMP JUMPDEST JUMPDEST PUSH1 0x20 ADD ADD MLOAD PUSH1 0xF8 SHR PUSH1 0xF8 SHL PUSH31 0xFFFFFFFFFFFFFFFFFFFFFFFFFFFFFFFFFFFFFFFFFFFFFFFFFFFFFFFFFFFFFF NOT AND SWAP1 SHR PUSH1 0xF8 SHR PUSH1 0xFF AND DUP2 MLOAD DUP2 LT PUSH2 0xCC7 JUMPI PUSH2 0xCC6 PUSH2 0x2672 JUMP JUMPDEST JUMPDEST PUSH1 0x20 ADD ADD MLOAD PUSH1 0xF8 SHR PUSH1 0xF8 SHL DUP3 PUSH1 0x2 DUP4 PUSH2 0xCE0 SWAP2 SWAP1 PUSH2 0x2D09 JUMP JUMPDEST PUSH1 0x2 PUSH2 0xCEC SWAP2 SWAP1 PUSH2 0x2D4B JUMP JUMPDEST DUP2 MLOAD DUP2 LT PUSH2 0xCFD JUMPI PUSH2 0xCFC PUSH2 0x2672 JUMP JUMPDEST JUMPDEST PUSH1 0x20 ADD ADD SWAP1 PUSH31 0xFFFFFFFFFFFFFFFFFFFFFFFFFFFFFFFFFFFFFFFFFFFFFFFFFFFFFFFFFFFFFF NOT AND SWAP1 DUP2 PUSH1 0x0 BYTE SWAP1 MSTORE8 POP DUP3 PUSH1 0xF PUSH1 0xF8 SHL DUP6 DUP4 DUP2 MLOAD DUP2 LT PUSH2 0xD45 JUMPI PUSH2 0xD44 PUSH2 0x2672 JUMP JUMPDEST JUMPDEST PUSH1 0x20 ADD ADD MLOAD PUSH1 0xF8 SHR PUSH1 0xF8 SHL AND PUSH1 0xF8 SHR PUSH1 0xFF AND DUP2 MLOAD DUP2 LT PUSH2 0xD68 JUMPI PUSH2 0xD67 PUSH2 0x2672 JUMP JUMPDEST JUMPDEST PUSH1 0x20 ADD ADD MLOAD PUSH1 0xF8 SHR PUSH1 0xF8 SHL DUP3 PUSH1 0x2 DUP4 PUSH2 0xD81 SWAP2 SWAP1 PUSH2 0x2D09 JUMP JUMPDEST PUSH1 0x3 PUSH2 0xD8D SWAP2 SWAP1 PUSH2 0x2D4B JUMP JUMPDEST DUP2 MLOAD DUP2 LT PUSH2 0xD9E JUMPI PUSH2 0xD9D PUSH2 0x2672 JUMP JUMPDEST JUMPDEST PUSH1 0x20 ADD ADD SWAP1 PUSH31 0xFFFFFFFFFFFFFFFFFFFFFFFFFFFFFFFFFFFFFFFFFFFFFFFFFFFFFFFFFFFFFF NOT AND SWAP1 DUP2 PUSH1 0x0 BYTE SWAP1 MSTORE8 POP DUP1 DUP1 PUSH1 0x1 ADD SWAP2 POP POP PUSH2 0xC62 JUMP JUMPDEST POP DUP1 SWAP4 POP POP POP POP SWAP2 SWAP1 POP JUMP JUMPDEST PUSH1 0x0 DUP1 PUSH32 0x30644E72E131A029B85045B68181585D2833E84879B9709143E1F593F0000001 SWAP1 POP PUSH1 0x0 PUSH2 0xE16 PUSH2 0xF77 JUMP JUMPDEST SWAP1 POP DUP1 PUSH1 0x80 ADD MLOAD MLOAD PUSH1 0x1 DUP7 MLOAD PUSH2 0xE2C SWAP2 SWAP1 PUSH2 0x2D4B JUMP JUMPDEST EQ PUSH2 0xE36 JUMPI PUSH1 0x0 DUP1 REVERT JUMPDEST PUSH1 0x0 PUSH1 0x40 MLOAD DUP1 PUSH1 0x40 ADD PUSH1 0x40 MSTORE DUP1 PUSH1 0x0 DUP2 MSTORE PUSH1 0x20 ADD PUSH1 0x0 DUP2 MSTORE POP SWAP1 POP PUSH1 0x0 JUMPDEST DUP7 MLOAD DUP2 LT ISZERO PUSH2 0xEE9 JUMPI DUP4 DUP8 DUP3 DUP2 MLOAD DUP2 LT PUSH2 0xE71 JUMPI PUSH2 0xE70 PUSH2 0x2672 JUMP JUMPDEST JUMPDEST PUSH1 0x20 MUL PUSH1 0x20 ADD ADD MLOAD LT PUSH2 0xE83 JUMPI PUSH1 0x0 DUP1 REVERT JUMPDEST PUSH2 0xEDA DUP3 PUSH2 0xED5 DUP6 PUSH1 0x80 ADD MLOAD PUSH1 0x1 DUP6 PUSH2 0xE9C SWAP2 SWAP1 PUSH2 0x2D4B JUMP JUMPDEST DUP2 MLOAD DUP2 LT PUSH2 0xEAD JUMPI PUSH2 0xEAC PUSH2 0x2672 JUMP JUMPDEST JUMPDEST PUSH1 0x20 MUL PUSH1 0x20 ADD ADD MLOAD DUP11 DUP6 DUP2 MLOAD DUP2 LT PUSH2 0xEC8 JUMPI PUSH2 0xEC7 PUSH2 0x2672 JUMP JUMPDEST JUMPDEST PUSH1 0x20 MUL PUSH1 0x20 ADD ADD MLOAD PUSH2 0x14E3 JUMP JUMPDEST PUSH2 0x1585 JUMP JUMPDEST SWAP2 POP DUP1 DUP1 PUSH1 0x1 ADD SWAP2 POP POP PUSH2 0xE54 JUMP JUMPDEST POP PUSH2 0xF13 DUP2 DUP4 PUSH1 0x80 ADD MLOAD PUSH1 0x0 DUP2 MLOAD DUP2 LT PUSH2 0xF06 JUMPI PUSH2 0xF05 PUSH2 0x2672 JUMP JUMPDEST JUMPDEST PUSH1 0x20 MUL PUSH1 0x20 ADD ADD MLOAD PUSH2 0x1585 JUMP JUMPDEST SWAP1 POP PUSH2 0xF59 DUP6 PUSH1 0x0 ADD MLOAD DUP7 PUSH1 0x20 ADD MLOAD PUSH2 0xF2B DUP5 PUSH2 0x164D JUMP JUMPDEST DUP6 PUSH1 0x40 ADD MLOAD PUSH2 0xF3D DUP11 PUSH1 0x40 ADD MLOAD PUSH2 0x164D JUMP JUMPDEST DUP8 PUSH1 0x60 ADD MLOAD PUSH2 0xF4F DUP10 PUSH1 0x0 ADD MLOAD PUSH2 0x164D JUMP JUMPDEST DUP10 PUSH1 0x20 ADD MLOAD PUSH2 0x16F2 JUMP JUMPDEST PUSH2 0xF69 JUMPI PUSH1 0x1 SWAP4 POP POP POP POP PUSH2 0xF71 JUMP JUMPDEST PUSH1 0x0 SWAP4 POP POP POP POP JUMPDEST SWAP3 SWAP2 POP POP JUMP JUMPDEST PUSH2 0xF7F PUSH2 0x1C71 JUMP JUMPDEST PUSH1 0x40 MLOAD DUP1 PUSH1 0x40 ADD PUSH1 0x40 MSTORE DUP1 PUSH32 0x2F5E6AF506B96774E2925365C3321345AB256E893511FFA46ECD791A2B287B60 DUP2 MSTORE PUSH1 0x20 ADD PUSH32 0x5A0204A91BA0D8E72ECAFD94FC63EDCD0A2CCA50E7549D0D83BB0B0B000942A DUP2 MSTORE POP DUP2 PUSH1 0x0 ADD DUP2 SWAP1 MSTORE POP PUSH1 0x40 MLOAD DUP1 PUSH1 0x40 ADD PUSH1 0x40 MSTORE DUP1 PUSH1 0x40 MLOAD DUP1 PUSH1 0x40 ADD PUSH1 0x40 MSTORE DUP1 PUSH32 0xFC4D876C4B0000D6D623CCEDEFE8EA74E434F530B1DBC983368BF04934235ED DUP2 MSTORE PUSH1 0x20 ADD PUSH32 0x1FDD473EB14C6BDF4BD5657CC16142D3202F5E3BDC4154643552718D7E94010C DUP2 MSTORE POP DUP2 MSTORE PUSH1 0x20 ADD PUSH1 0x40 MLOAD DUP1 PUSH1 0x40 ADD PUSH1 0x40 MSTORE DUP1 PUSH32 0x28EA5438112033A6F687D6CC45889E190AC48E6D8531961DC40978FFB8D9D190 DUP2 MSTORE PUSH1 0x20 ADD PUSH32 0x158E624699F5391E0DC3A137F641AB56BA79D2E716606DA48F7B836A5931E810 DUP2 MSTORE POP DUP2 MSTORE POP DUP2 PUSH1 0x20 ADD DUP2 SWAP1 MSTORE POP PUSH1 0x40 MLOAD DUP1 PUSH1 0x40 ADD PUSH1 0x40 MSTORE DUP1 PUSH1 0x40 MLOAD DUP1 PUSH1 0x40 ADD PUSH1 0x40 MSTORE DUP1 PUSH32 0xB53988A08178909F759EDCD1A77EA41715AD14C7CAF6157ACD583DC41A9B310 DUP2 MSTORE PUSH1 0x20 ADD PUSH32 0x14791244C423D2BEB727A55784B31FCB5D92F0A7E192F2E3F9B7752633D56CBF DUP2 MSTORE POP DUP2 MSTORE PUSH1 0x20 ADD PUSH1 0x40 MLOAD DUP1 PUSH1 0x40 ADD PUSH1 0x40 MSTORE DUP1 PUSH32 0x1B624ABD12A5810D8D16EE53CC9CFBA66DE28FDDC0674B60B6944970C4719094 DUP2 MSTORE PUSH1 0x20 ADD PUSH32 0x9DF1760DD611DEE6DE8572575AB0B8142E7557BE61334C05B63D30DF9D08B42 DUP2 MSTORE POP DUP2 MSTORE POP DUP2 PUSH1 0x40 ADD DUP2 SWAP1 MSTORE POP PUSH1 0x40 MLOAD DUP1 PUSH1 0x40 ADD PUSH1 0x40 MSTORE DUP1 PUSH1 0x40 MLOAD DUP1 PUSH1 0x40 ADD PUSH1 0x40 MSTORE DUP1 PUSH32 0x1F74B0713025DB4DF4578D294F8B8F621810939FAC569CC7D79AD49180853776 DUP2 MSTORE PUSH1 0x20 ADD PUSH32 0x16F23C3152A8E86756A5D93344B1CE5CDEE88178D2508AD22522D1DD373260ED DUP2 MSTORE POP DUP2 MSTORE PUSH1 0x20 ADD PUSH1 0x40 MLOAD DUP1 PUSH1 0x40 ADD PUSH1 0x40 MSTORE DUP1 PUSH32 0x1034505B233386F7D899B1578CA346BC2DC0B5B000713EC6300761C70BF716B3 DUP2 MSTORE PUSH1 0x20 ADD PUSH32 0x19E53E7BD2B633E93403AFBD9A03FFD158FC363D8AF40ED1CB7DF23B339A21D5 DUP2 MSTORE POP DUP2 MSTORE POP DUP2 PUSH1 0x60 ADD DUP2 SWAP1 MSTORE POP PUSH1 0x5 PUSH8 0xFFFFFFFFFFFFFFFF DUP2 GT ISZERO PUSH2 0x1246 JUMPI PUSH2 0x1245 PUSH2 0x1DAA JUMP JUMPDEST JUMPDEST PUSH1 0x40 MLOAD SWAP1 DUP1 DUP3 MSTORE DUP1 PUSH1 0x20 MUL PUSH1 0x20 ADD DUP3 ADD PUSH1 0x40 MSTORE DUP1 ISZERO PUSH2 0x127F JUMPI DUP2 PUSH1 0x20 ADD JUMPDEST PUSH2 0x126C PUSH2 0x1CB8 JUMP JUMPDEST DUP2 MSTORE PUSH1 0x20 ADD SWAP1 PUSH1 0x1 SWAP1 SUB SWAP1 DUP2 PUSH2 0x1264 JUMPI SWAP1 POP JUMPDEST POP DUP2 PUSH1 0x80 ADD DUP2 SWAP1 MSTORE POP PUSH1 0x40 MLOAD DUP1 PUSH1 0x40 ADD PUSH1 0x40 MSTORE DUP1 PUSH32 0x25BD36B30A82E6F6AC8621D99E20A8AF6CA97DA2D7B5FE880901D61E60AE1CA1 DUP2 MSTORE PUSH1 0x20 ADD PUSH32 0x20EAAA7F9FAE79F789F96DFF742170C6E5FD18C96C284D75489CD66F659E63BA DUP2 MSTORE POP DUP2 PUSH1 0x80 ADD MLOAD PUSH1 0x0 DUP2 MLOAD DUP2 LT PUSH2 0x12F5 JUMPI PUSH2 0x12F4 PUSH2 0x2672 JUMP JUMPDEST JUMPDEST PUSH1 0x20 MUL PUSH1 0x20 ADD ADD DUP2 SWAP1 MSTORE POP PUSH1 0x40 MLOAD DUP1 PUSH1 0x40 ADD PUSH1 0x40 MSTORE DUP1 PUSH32 0x2B8507ACCBF4846476AAFB36DAD3C7F9694B317CF4951B1444DE897A27BB3A41 DUP2 MSTORE PUSH1 0x20 ADD PUSH32 0x154BE64C8B3B929A656048310F46EA999C243FA3931EF5FEBD675542F4B1BED2 DUP2 MSTORE POP DUP2 PUSH1 0x80 ADD MLOAD PUSH1 0x1 DUP2 MLOAD DUP2 LT PUSH2 0x136D JUMPI PUSH2 0x136C PUSH2 0x2672 JUMP JUMPDEST JUMPDEST PUSH1 0x20 MUL PUSH1 0x20 ADD ADD DUP2 SWAP1 MSTORE POP PUSH1 0x40 MLOAD DUP1 PUSH1 0x40 ADD PUSH1 0x40 MSTORE DUP1 PUSH32 0x298E5732C627EED58EB7F7A58DF2AC1699FE27953E3AC249A27D24AD2A2C3F4D DUP2 MSTORE PUSH1 0x20 ADD PUSH32 0x59CC84BFD7B0FB48297CBFBD56A05248ED2819265BB9FC0079CE4F21D4E70ED DUP2 MSTORE POP DUP2 PUSH1 0x80 ADD MLOAD PUSH1 0x2 DUP2 MLOAD DUP2 LT PUSH2 0x13E5 JUMPI PUSH2 0x13E4 PUSH2 0x2672 JUMP JUMPDEST JUMPDEST PUSH1 0x20 MUL PUSH1 0x20 ADD ADD DUP2 SWAP1 MSTORE POP PUSH1 0x40 MLOAD DUP1 PUSH1 0x40 ADD PUSH1 0x40 MSTORE DUP1 PUSH32 0x838C912682118E141DA1EC9EB259C180F860F28646729F361D94C94A8AA727F DUP2 MSTORE PUSH1 0x20 ADD PUSH32 0x1809DE65884E45C1229794A15468011DFC04B37AFCC2ED1FBA1FB508457E9AC DUP2 MSTORE POP DUP2 PUSH1 0x80 ADD MLOAD PUSH1 0x3 DUP2 MLOAD DUP2 LT PUSH2 0x145D JUMPI PUSH2 0x145C PUSH2 0x2672 JUMP JUMPDEST JUMPDEST PUSH1 0x20 MUL PUSH1 0x20 ADD ADD DUP2 SWAP1 MSTORE POP PUSH1 0x40 MLOAD DUP1 PUSH1 0x40 ADD PUSH1 0x40 MSTORE DUP1 PUSH32 0x462CE76CC1ED5D937AEB12932B1CAFF41052F0940E8527AAFDA3D080B677BA6 DUP2 MSTORE PUSH1 0x20 ADD PUSH32 0x15B1F680BDE4E1A42EC7A624CCC1083270AECF263137602F54EF7DB91440A0DD DUP2 MSTORE POP DUP2 PUSH1 0x80 ADD MLOAD PUSH1 0x4 DUP2 MLOAD DUP2 LT PUSH2 0x14D5 JUMPI PUSH2 0x14D4 PUSH2 0x2672 JUMP JUMPDEST JUMPDEST PUSH1 0x20 MUL PUSH1 0x20 ADD ADD DUP2 SWAP1 MSTORE POP SWAP1 JUMP JUMPDEST PUSH2 0x14EB PUSH2 0x1CB8 JUMP JUMPDEST PUSH2 0x14F3 PUSH2 0x1CD2 JUMP JUMPDEST DUP4 PUSH1 0x0 ADD MLOAD DUP2 PUSH1 0x0 PUSH1 0x3 DUP2 LT PUSH2 0x150C JUMPI PUSH2 0x150B PUSH2 0x2672 JUMP JUMPDEST JUMPDEST PUSH1 0x20 MUL ADD DUP2 DUP2 MSTORE POP POP DUP4 PUSH1 0x20 ADD MLOAD DUP2 PUSH1 0x1 PUSH1 0x3 DUP2 LT PUSH2 0x152E JUMPI PUSH2 0x152D PUSH2 0x2672 JUMP JUMPDEST JUMPDEST PUSH1 0x20 MUL ADD DUP2 DUP2 MSTORE POP POP DUP3 DUP2 PUSH1 0x2 PUSH1 0x3 DUP2 LT PUSH2 0x154C JUMPI PUSH2 0x154B PUSH2 0x2672 JUMP JUMPDEST JUMPDEST PUSH1 0x20 MUL ADD DUP2 DUP2 MSTORE POP POP PUSH1 0x0 PUSH1 0x60 DUP4 PUSH1 0x80 DUP5 PUSH1 0x7 PUSH2 0x7D0 GAS SUB STATICCALL SWAP1 POP DUP1 PUSH1 0x0 DUP2 SUB PUSH2 0x1572 JUMPI INVALID JUMPDEST POP DUP1 PUSH2 0x157D JUMPI PUSH1 0x0 DUP1 REVERT JUMPDEST POP POP SWAP3 SWAP2 POP POP JUMP JUMPDEST PUSH2 0x158D PUSH2 0x1CB8 JUMP JUMPDEST PUSH2 0x1595 PUSH2 0x1CF4 JUMP JUMPDEST DUP4 PUSH1 0x0 ADD MLOAD DUP2 PUSH1 0x0 PUSH1 0x4 DUP2 LT PUSH2 0x15AE JUMPI PUSH2 0x15AD PUSH2 0x2672 JUMP JUMPDEST JUMPDEST PUSH1 0x20 MUL ADD DUP2 DUP2 MSTORE POP POP DUP4 PUSH1 0x20 ADD MLOAD DUP2 PUSH1 0x1 PUSH1 0x4 DUP2 LT PUSH2 0x15D0 JUMPI PUSH2 0x15CF PUSH2 0x2672 JUMP JUMPDEST JUMPDEST PUSH1 0x20 MUL ADD DUP2 DUP2 MSTORE POP POP DUP3 PUSH1 0x0 ADD MLOAD DUP2 PUSH1 0x2 PUSH1 0x4 DUP2 LT PUSH2 0x15F2 JUMPI PUSH2 0x15F1 PUSH2 0x2672 JUMP JUMPDEST JUMPDEST PUSH1 0x20 MUL ADD DUP2 DUP2 MSTORE POP POP DUP3 PUSH1 0x20 ADD MLOAD DUP2 PUSH1 0x3 PUSH1 0x4 DUP2 LT PUSH2 0x1614 JUMPI PUSH2 0x1613 PUSH2 0x2672 JUMP JUMPDEST JUMPDEST PUSH1 0x20 MUL ADD DUP2 DUP2 MSTORE POP POP PUSH1 0x0 PUSH1 0x60 DUP4 PUSH1 0xC0 DUP5 PUSH1 0x6 PUSH2 0x7D0 GAS SUB STATICCALL SWAP1 POP DUP1 PUSH1 0x0 DUP2 SUB PUSH2 0x163A JUMPI INVALID JUMPDEST POP DUP1 PUSH2 0x1645 JUMPI PUSH1 0x0 DUP1 REVERT JUMPDEST POP POP SWAP3 SWAP2 POP POP JUMP JUMPDEST PUSH2 0x1655 PUSH2 0x1CB8 JUMP JUMPDEST PUSH1 0x0 PUSH32 0x30644E72E131A029B85045B68181585D97816A916871CA8D3C208C16D87CFD47 SWAP1 POP PUSH1 0x0 DUP4 PUSH1 0x0 ADD MLOAD EQ DUP1 ISZERO PUSH2 0x1692 JUMPI POP PUSH1 0x0 DUP4 PUSH1 0x20 ADD MLOAD EQ JUMPDEST ISZERO PUSH2 0x16B6 JUMPI PUSH1 0x40 MLOAD DUP1 PUSH1 0x40 ADD PUSH1 0x40 MSTORE DUP1 PUSH1 0x0 DUP2 MSTORE PUSH1 0x20 ADD PUSH1 0x0 DUP2 MSTORE POP SWAP2 POP POP PUSH2 0x16ED JUMP JUMPDEST PUSH1 0x40 MLOAD DUP1 PUSH1 0x40 ADD PUSH1 0x40 MSTORE DUP1 DUP5 PUSH1 0x0 ADD MLOAD DUP2 MSTORE PUSH1 0x20 ADD DUP3 DUP6 PUSH1 0x20 ADD MLOAD PUSH2 0x16DB SWAP2 SWAP1 PUSH2 0x2DAE JUMP JUMPDEST DUP4 PUSH2 0x16E6 SWAP2 SWAP1 PUSH2 0x2DDF JUMP JUMPDEST DUP2 MSTORE POP SWAP2 POP POP JUMPDEST SWAP2 SWAP1 POP JUMP JUMPDEST PUSH1 0x0 DUP1 PUSH1 0x4 PUSH8 0xFFFFFFFFFFFFFFFF DUP2 GT ISZERO PUSH2 0x1710 JUMPI PUSH2 0x170F PUSH2 0x1DAA JUMP JUMPDEST JUMPDEST PUSH1 0x40 MLOAD SWAP1 DUP1 DUP3 MSTORE DUP1 PUSH1 0x20 MUL PUSH1 0x20 ADD DUP3 ADD PUSH1 0x40 MSTORE DUP1 ISZERO PUSH2 0x1749 JUMPI DUP2 PUSH1 0x20 ADD JUMPDEST PUSH2 0x1736 PUSH2 0x1CB8 JUMP JUMPDEST DUP2 MSTORE PUSH1 0x20 ADD SWAP1 PUSH1 0x1 SWAP1 SUB SWAP1 DUP2 PUSH2 0x172E JUMPI SWAP1 POP JUMPDEST POP SWAP1 POP PUSH1 0x0 PUSH1 0x4 PUSH8 0xFFFFFFFFFFFFFFFF DUP2 GT ISZERO PUSH2 0x1769 JUMPI PUSH2 0x1768 PUSH2 0x1DAA JUMP JUMPDEST JUMPDEST PUSH1 0x40 MLOAD SWAP1 DUP1 DUP3 MSTORE DUP1 PUSH1 0x20 MUL PUSH1 0x20 ADD DUP3 ADD PUSH1 0x40 MSTORE DUP1 ISZERO PUSH2 0x17A2 JUMPI DUP2 PUSH1 0x20 ADD JUMPDEST PUSH2 0x178F PUSH2 0x1D16 JUMP JUMPDEST DUP2 MSTORE PUSH1 0x20 ADD SWAP1 PUSH1 0x1 SWAP1 SUB SWAP1 DUP2 PUSH2 0x1787 JUMPI SWAP1 POP JUMPDEST POP SWAP1 POP DUP11 DUP3 PUSH1 0x0 DUP2 MLOAD DUP2 LT PUSH2 0x17BA JUMPI PUSH2 0x17B9 PUSH2 0x2672 JUMP JUMPDEST JUMPDEST PUSH1 0x20 MUL PUSH1 0x20 ADD ADD DUP2 SWAP1 MSTORE POP DUP9 DUP3 PUSH1 0x1 DUP2 MLOAD DUP2 LT PUSH2 0x17DA JUMPI PUSH2 0x17D9 PUSH2 0x2672 JUMP JUMPDEST JUMPDEST PUSH1 0x20 MUL PUSH1 0x20 ADD ADD DUP2 SWAP1 MSTORE POP DUP7 DUP3 PUSH1 0x2 DUP2 MLOAD DUP2 LT PUSH2 0x17FA JUMPI PUSH2 0x17F9 PUSH2 0x2672 JUMP JUMPDEST JUMPDEST PUSH1 0x20 MUL PUSH1 0x20 ADD ADD DUP2 SWAP1 MSTORE POP DUP5 DUP3 PUSH1 0x3 DUP2 MLOAD DUP2 LT PUSH2 0x181A JUMPI PUSH2 0x1819 PUSH2 0x2672 JUMP JUMPDEST JUMPDEST PUSH1 0x20 MUL PUSH1 0x20 ADD ADD DUP2 SWAP1 MSTORE POP DUP10 DUP2 PUSH1 0x0 DUP2 MLOAD DUP2 LT PUSH2 0x183A JUMPI PUSH2 0x1839 PUSH2 0x2672 JUMP JUMPDEST JUMPDEST PUSH1 0x20 MUL PUSH1 0x20 ADD ADD DUP2 SWAP1 MSTORE POP DUP8 DUP2 PUSH1 0x1 DUP2 MLOAD DUP2 LT PUSH2 0x185A JUMPI PUSH2 0x1859 PUSH2 0x2672 JUMP JUMPDEST JUMPDEST PUSH1 0x20 MUL PUSH1 0x20 ADD ADD DUP2 SWAP1 MSTORE POP DUP6 DUP2 PUSH1 0x2 DUP2 MLOAD DUP2 LT PUSH2 0x187A JUMPI PUSH2 0x1879 PUSH2 0x2672 JUMP JUMPDEST JUMPDEST PUSH1 0x20 MUL PUSH1 0x20 ADD ADD DUP2 SWAP1 MSTORE POP DUP4 DUP2 PUSH1 0x3 DUP2 MLOAD DUP2 LT PUSH2 0x189A JUMPI PUSH2 0x1899 PUSH2 0x2672 JUMP JUMPDEST JUMPDEST PUSH1 0x20 MUL PUSH1 0x20 ADD ADD DUP2 SWAP1 MSTORE POP PUSH2 0x18AF DUP3 DUP3 PUSH2 0x18BF JUMP JUMPDEST SWAP3 POP POP POP SWAP9 SWAP8 POP POP POP POP POP POP POP POP JUMP JUMPDEST PUSH1 0x0 DUP2 MLOAD DUP4 MLOAD EQ PUSH2 0x18CF JUMPI PUSH1 0x0 DUP1 REVERT JUMPDEST PUSH1 0x0 DUP4 MLOAD SWAP1 POP PUSH1 0x0 PUSH1 0x6 DUP3 PUSH2 0x18E4 SWAP2 SWAP1 PUSH2 0x2D09 JUMP JUMPDEST SWAP1 POP PUSH1 0x0 DUP2 PUSH8 0xFFFFFFFFFFFFFFFF DUP2 GT ISZERO PUSH2 0x1902 JUMPI PUSH2 0x1901 PUSH2 0x1DAA JUMP JUMPDEST JUMPDEST PUSH1 0x40 MLOAD SWAP1 DUP1 DUP3 MSTORE DUP1 PUSH1 0x20 MUL PUSH1 0x20 ADD DUP3 ADD PUSH1 0x40 MSTORE DUP1 ISZERO PUSH2 0x1930 JUMPI DUP2 PUSH1 0x20 ADD PUSH1 0x20 DUP3 MUL DUP1 CALLDATASIZE DUP4 CALLDATACOPY DUP1 DUP3 ADD SWAP2 POP POP SWAP1 POP JUMPDEST POP SWAP1 POP PUSH1 0x0 JUMPDEST DUP4 DUP2 LT ISZERO PUSH2 0x1BAF JUMPI DUP7 DUP2 DUP2 MLOAD DUP2 LT PUSH2 0x1951 JUMPI PUSH2 0x1950 PUSH2 0x2672 JUMP JUMPDEST JUMPDEST PUSH1 0x20 MUL PUSH1 0x20 ADD ADD MLOAD PUSH1 0x0 ADD MLOAD DUP3 PUSH1 0x0 PUSH1 0x6 DUP5 PUSH2 0x196D SWAP2 SWAP1 PUSH2 0x2D09 JUMP JUMPDEST PUSH2 0x1977 SWAP2 SWAP1 PUSH2 0x2D4B JUMP JUMPDEST DUP2 MLOAD DUP2 LT PUSH2 0x1988 JUMPI PUSH2 0x1987 PUSH2 0x2672 JUMP JUMPDEST JUMPDEST PUSH1 0x20 MUL PUSH1 0x20 ADD ADD DUP2 DUP2 MSTORE POP POP DUP7 DUP2 DUP2 MLOAD DUP2 LT PUSH2 0x19A7 JUMPI PUSH2 0x19A6 PUSH2 0x2672 JUMP JUMPDEST JUMPDEST PUSH1 0x20 MUL PUSH1 0x20 ADD ADD MLOAD PUSH1 0x20 ADD MLOAD DUP3 PUSH1 0x1 PUSH1 0x6 DUP5 PUSH2 0x19C3 SWAP2 SWAP1 PUSH2 0x2D09 JUMP JUMPDEST PUSH2 0x19CD SWAP2 SWAP1 PUSH2 0x2D4B JUMP JUMPDEST DUP2 MLOAD DUP2 LT PUSH2 0x19DE JUMPI PUSH2 0x19DD PUSH2 0x2672 JUMP JUMPDEST JUMPDEST PUSH1 0x20 MUL PUSH1 0x20 ADD ADD DUP2 DUP2 MSTORE POP POP DUP6 DUP2 DUP2 MLOAD DUP2 LT PUSH2 0x19FD JUMPI PUSH2 0x19FC PUSH2 0x2672 JUMP JUMPDEST JUMPDEST PUSH1 0x20 MUL PUSH1 0x20 ADD ADD MLOAD PUSH1 0x0 ADD MLOAD PUSH1 0x1 PUSH1 0x2 DUP2 LT PUSH2 0x1A1C JUMPI PUSH2 0x1A1B PUSH2 0x2672 JUMP JUMPDEST JUMPDEST PUSH1 0x20 MUL ADD MLOAD DUP3 PUSH1 0x2 PUSH1 0x6 DUP5 PUSH2 0x1A31 SWAP2 SWAP1 PUSH2 0x2D09 JUMP JUMPDEST PUSH2 0x1A3B SWAP2 SWAP1 PUSH2 0x2D4B JUMP JUMPDEST DUP2 MLOAD DUP2 LT PUSH2 0x1A4C JUMPI PUSH2 0x1A4B PUSH2 0x2672 JUMP JUMPDEST JUMPDEST PUSH1 0x20 MUL PUSH1 0x20 ADD ADD DUP2 DUP2 MSTORE POP POP DUP6 DUP2 DUP2 MLOAD DUP2 LT PUSH2 0x1A6B JUMPI PUSH2 0x1A6A PUSH2 0x2672 JUMP JUMPDEST JUMPDEST PUSH1 0x20 MUL PUSH1 0x20 ADD ADD MLOAD PUSH1 0x0 ADD MLOAD PUSH1 0x0 PUSH1 0x2 DUP2 LT PUSH2 0x1A8A JUMPI PUSH2 0x1A89 PUSH2 0x2672 JUMP JUMPDEST JUMPDEST PUSH1 0x20 MUL ADD MLOAD DUP3 PUSH1 0x3 PUSH1 0x6 DUP5 PUSH2 0x1A9F SWAP2 SWAP1 PUSH2 0x2D09 JUMP JUMPDEST PUSH2 0x1AA9 SWAP2 SWAP1 PUSH2 0x2D4B JUMP JUMPDEST DUP2 MLOAD DUP2 LT PUSH2 0x1ABA JUMPI PUSH2 0x1AB9 PUSH2 0x2672 JUMP JUMPDEST JUMPDEST PUSH1 0x20 MUL PUSH1 0x20 ADD ADD DUP2 DUP2 MSTORE POP POP DUP6 DUP2 DUP2 MLOAD DUP2 LT PUSH2 0x1AD9 JUMPI PUSH2 0x1AD8 PUSH2 0x2672 JUMP JUMPDEST JUMPDEST PUSH1 0x20 MUL PUSH1 0x20 ADD ADD MLOAD PUSH1 0x20 ADD MLOAD PUSH1 0x1 PUSH1 0x2 DUP2 LT PUSH2 0x1AF8 JUMPI PUSH2 0x1AF7 PUSH2 0x2672 JUMP JUMPDEST JUMPDEST PUSH1 0x20 MUL ADD MLOAD DUP3 PUSH1 0x4 PUSH1 0x6 DUP5 PUSH2 0x1B0D SWAP2 SWAP1 PUSH2 0x2D09 JUMP JUMPDEST PUSH2 0x1B17 SWAP2 SWAP1 PUSH2 0x2D4B JUMP JUMPDEST DUP2 MLOAD DUP2 LT PUSH2 0x1B28 JUMPI PUSH2 0x1B27 PUSH2 0x2672 JUMP JUMPDEST JUMPDEST PUSH1 0x20 MUL PUSH1 0x20 ADD ADD DUP2 DUP2 MSTORE POP POP DUP6 DUP2 DUP2 MLOAD DUP2 LT PUSH2 0x1B47 JUMPI PUSH2 0x1B46 PUSH2 0x2672 JUMP JUMPDEST JUMPDEST PUSH1 0x20 MUL PUSH1 0x20 ADD ADD MLOAD PUSH1 0x20 ADD MLOAD PUSH1 0x0 PUSH1 0x2 DUP2 LT PUSH2 0x1B66 JUMPI PUSH2 0x1B65 PUSH2 0x2672 JUMP JUMPDEST JUMPDEST PUSH1 0x20 MUL ADD MLOAD DUP3 PUSH1 0x5 PUSH1 0x6 DUP5 PUSH2 0x1B7B SWAP2 SWAP1 PUSH2 0x2D09 JUMP JUMPDEST PUSH2 0x1B85 SWAP2 SWAP1 PUSH2 0x2D4B JUMP JUMPDEST DUP2 MLOAD DUP2 LT PUSH2 0x1B96 JUMPI PUSH2 0x1B95 PUSH2 0x2672 JUMP JUMPDEST JUMPDEST PUSH1 0x20 MUL PUSH1 0x20 ADD ADD DUP2 DUP2 MSTORE POP POP DUP1 DUP1 PUSH1 0x1 ADD SWAP2 POP POP PUSH2 0x1936 JUMP JUMPDEST POP PUSH2 0x1BB8 PUSH2 0x1D3C JUMP JUMPDEST PUSH1 0x0 PUSH1 0x20 DUP3 PUSH1 0x20 DUP7 MUL PUSH1 0x20 DUP7 ADD PUSH1 0x8 PUSH2 0x7D0 GAS SUB STATICCALL SWAP1 POP DUP1 PUSH1 0x0 DUP2 SUB PUSH2 0x1BDA JUMPI INVALID JUMPDEST POP DUP1 PUSH2 0x1BE5 JUMPI PUSH1 0x0 DUP1 REVERT JUMPDEST PUSH1 0x0 DUP3 PUSH1 0x0 PUSH1 0x1 DUP2 LT PUSH2 0x1BFB JUMPI PUSH2 0x1BFA PUSH2 0x2672 JUMP JUMPDEST JUMPDEST PUSH1 0x20 MUL ADD MLOAD EQ ISZERO SWAP6 POP POP POP POP POP POP SWAP3 SWAP2 POP POP JUMP JUMPDEST DUP3 PUSH1 0x2 DUP2 ADD SWAP3 DUP3 ISZERO PUSH2 0x1C3E JUMPI SWAP2 PUSH1 0x20 MUL DUP3 ADD JUMPDEST DUP3 DUP2 GT ISZERO PUSH2 0x1C3D JUMPI DUP3 MLOAD DUP3 SSTORE SWAP2 PUSH1 0x20 ADD SWAP2 SWAP1 PUSH1 0x1 ADD SWAP1 PUSH2 0x1C22 JUMP JUMPDEST JUMPDEST POP SWAP1 POP PUSH2 0x1C4B SWAP2 SWAP1 PUSH2 0x1D5E JUMP JUMPDEST POP SWAP1 JUMP JUMPDEST PUSH1 0x40 MLOAD DUP1 PUSH1 0x40 ADD PUSH1 0x40 MSTORE DUP1 PUSH1 0x2 SWAP1 PUSH1 0x20 DUP3 MUL DUP1 CALLDATASIZE DUP4 CALLDATACOPY DUP1 DUP3 ADD SWAP2 POP POP SWAP1 POP POP SWAP1 JUMP JUMPDEST PUSH1 0x40 MLOAD DUP1 PUSH1 0xA0 ADD PUSH1 0x40 MSTORE DUP1 PUSH2 0x1C84 PUSH2 0x1CB8 JUMP JUMPDEST DUP2 MSTORE PUSH1 0x20 ADD PUSH2 0x1C91 PUSH2 0x1D16 JUMP JUMPDEST DUP2 MSTORE PUSH1 0x20 ADD PUSH2 0x1C9E PUSH2 0x1D16 JUMP JUMPDEST DUP2 MSTORE PUSH1 0x20 ADD PUSH2 0x1CAB PUSH2 0x1D16 JUMP JUMPDEST DUP2 MSTORE PUSH1 0x20 ADD PUSH1 0x60 DUP2 MSTORE POP SWAP1 JUMP JUMPDEST PUSH1 0x40 MLOAD DUP1 PUSH1 0x40 ADD PUSH1 0x40 MSTORE DUP1 PUSH1 0x0 DUP2 MSTORE PUSH1 0x20 ADD PUSH1 0x0 DUP2 MSTORE POP SWAP1 JUMP JUMPDEST PUSH1 0x40 MLOAD DUP1 PUSH1 0x60 ADD PUSH1 0x40 MSTORE DUP1 PUSH1 0x3 SWAP1 PUSH1 0x20 DUP3 MUL DUP1 CALLDATASIZE DUP4 CALLDATACOPY DUP1 DUP3 ADD SWAP2 POP POP SWAP1 POP POP SWAP1 JUMP JUMPDEST PUSH1 0x40 MLOAD DUP1 PUSH1 0x80 ADD PUSH1 0x40 MSTORE DUP1 PUSH1 0x4 SWAP1 PUSH1 0x20 DUP3 MUL DUP1 CALLDATASIZE DUP4 CALLDATACOPY DUP1 DUP3 ADD SWAP2 POP POP SWAP1 POP POP SWAP1 JUMP JUMPDEST PUSH1 0x40 MLOAD DUP1 PUSH1 0x40 ADD PUSH1 0x40 MSTORE DUP1 PUSH2 0x1D29 PUSH2 0x1C4F JUMP JUMPDEST DUP2 MSTORE PUSH1 0x20 ADD PUSH2 0x1D36 PUSH2 0x1C4F JUMP JUMPDEST DUP2 MSTORE POP SWAP1 JUMP JUMPDEST PUSH1 0x40 MLOAD DUP1 PUSH1 0x20 ADD PUSH1 0x40 MSTORE DUP1 PUSH1 0x1 SWAP1 PUSH1 0x20 DUP3 MUL DUP1 CALLDATASIZE DUP4 CALLDATACOPY DUP1 DUP3 ADD SWAP2 POP POP SWAP1 POP POP SWAP1 JUMP JUMPDEST JUMPDEST DUP1 DUP3 GT ISZERO PUSH2 0x1D77 JUMPI PUSH1 0x0 DUP2 PUSH1 0x0 SWAP1 SSTORE POP PUSH1 0x1 ADD PUSH2 0x1D5F JUMP JUMPDEST POP SWAP1 JUMP JUMPDEST PUSH1 0x0 PUSH1 0x40 MLOAD SWAP1 POP SWAP1 JUMP JUMPDEST PUSH1 0x0 DUP1 REVERT JUMPDEST PUSH1 0x0 DUP1 REVERT JUMPDEST PUSH1 0x0 DUP1 REVERT JUMPDEST PUSH1 0x0 DUP1 REVERT JUMPDEST PUSH1 0x0 PUSH1 0x1F NOT PUSH1 0x1F DUP4 ADD AND SWAP1 POP SWAP2 SWAP1 POP JUMP JUMPDEST PUSH32 0x4E487B7100000000000000000000000000000000000000000000000000000000 PUSH1 0x0 MSTORE PUSH1 0x41 PUSH1 0x4 MSTORE PUSH1 0x24 PUSH1 0x0 REVERT JUMPDEST PUSH2 0x1DE2 DUP3 PUSH2 0x1D99 JUMP JUMPDEST DUP2 ADD DUP2 DUP2 LT PUSH8 0xFFFFFFFFFFFFFFFF DUP3 GT OR ISZERO PUSH2 0x1E01 JUMPI PUSH2 0x1E00 PUSH2 0x1DAA JUMP JUMPDEST JUMPDEST DUP1 PUSH1 0x40 MSTORE POP POP POP JUMP JUMPDEST PUSH1 0x0 PUSH2 0x1E14 PUSH2 0x1D7B JUMP JUMPDEST SWAP1 POP PUSH2 0x1E20 DUP3 DUP3 PUSH2 0x1DD9 JUMP JUMPDEST SWAP2 SWAP1 POP JUMP JUMPDEST PUSH1 0x0 PUSH8 0xFFFFFFFFFFFFFFFF DUP3 GT ISZERO PUSH2 0x1E40 JUMPI PUSH2 0x1E3F PUSH2 0x1DAA JUMP JUMPDEST JUMPDEST PUSH2 0x1E49 DUP3 PUSH2 0x1D99 JUMP JUMPDEST SWAP1 POP PUSH1 0x20 DUP2 ADD SWAP1 POP SWAP2 SWAP1 POP JUMP JUMPDEST DUP3 DUP2 DUP4 CALLDATACOPY PUSH1 0x0 DUP4 DUP4 ADD MSTORE POP POP POP JUMP JUMPDEST PUSH1 0x0 PUSH2 0x1E78 PUSH2 0x1E73 DUP5 PUSH2 0x1E25 JUMP JUMPDEST PUSH2 0x1E0A JUMP JUMPDEST SWAP1 POP DUP3 DUP2 MSTORE PUSH1 0x20 DUP2 ADD DUP5 DUP5 DUP5 ADD GT ISZERO PUSH2 0x1E94 JUMPI PUSH2 0x1E93 PUSH2 0x1D94 JUMP JUMPDEST JUMPDEST PUSH2 0x1E9F DUP5 DUP3 DUP6 PUSH2 0x1E56 JUMP JUMPDEST POP SWAP4 SWAP3 POP POP POP JUMP JUMPDEST PUSH1 0x0 DUP3 PUSH1 0x1F DUP4 ADD SLT PUSH2 0x1EBC JUMPI PUSH2 0x1EBB PUSH2 0x1D8F JUMP JUMPDEST JUMPDEST DUP2 CALLDATALOAD PUSH2 0x1ECC DUP5 DUP3 PUSH1 0x20 DUP7 ADD PUSH2 0x1E65 JUMP JUMPDEST SWAP2 POP POP SWAP3 SWAP2 POP POP JUMP JUMPDEST PUSH1 0x0 PUSH1 0x20 DUP3 DUP5 SUB SLT ISZERO PUSH2 0x1EEB JUMPI PUSH2 0x1EEA PUSH2 0x1D85 JUMP JUMPDEST JUMPDEST PUSH1 0x0 DUP3 ADD CALLDATALOAD PUSH8 0xFFFFFFFFFFFFFFFF DUP2 GT ISZERO PUSH2 0x1F09 JUMPI PUSH2 0x1F08 PUSH2 0x1D8A JUMP JUMPDEST JUMPDEST PUSH2 0x1F15 DUP5 DUP3 DUP6 ADD PUSH2 0x1EA7 JUMP JUMPDEST SWAP2 POP POP SWAP3 SWAP2 POP POP JUMP JUMPDEST PUSH1 0x0 DUP2 MLOAD SWAP1 POP SWAP2 SWAP1 POP JUMP JUMPDEST PUSH1 0x0 DUP3 DUP3 MSTORE PUSH1 0x20 DUP3 ADD SWAP1 POP SWAP3 SWAP2 POP POP JUMP JUMPDEST PUSH1 0x0 JUMPDEST DUP4 DUP2 LT ISZERO PUSH2 0x1F58 JUMPI DUP1 DUP3 ADD MLOAD DUP2 DUP5 ADD MSTORE PUSH1 0x20 DUP2 ADD SWAP1 POP PUSH2 0x1F3D JUMP JUMPDEST PUSH1 0x0 DUP5 DUP5 ADD MSTORE POP POP POP POP JUMP JUMPDEST PUSH1 0x0 PUSH2 0x1F6F DUP3 PUSH2 0x1F1E JUMP JUMPDEST PUSH2 0x1F79 DUP2 DUP6 PUSH2 0x1F29 JUMP JUMPDEST SWAP4 POP PUSH2 0x1F89 DUP2 DUP6 PUSH1 0x20 DUP7 ADD PUSH2 0x1F3A JUMP JUMPDEST PUSH2 0x1F92 DUP2 PUSH2 0x1D99 JUMP JUMPDEST DUP5 ADD SWAP2 POP POP SWAP3 SWAP2 POP POP JUMP JUMPDEST PUSH1 0x0 PUSH1 0x20 DUP3 ADD SWAP1 POP DUP2 DUP2 SUB PUSH1 0x0 DUP4 ADD MSTORE PUSH2 0x1FB7 DUP2 DUP5 PUSH2 0x1F64 JUMP JUMPDEST SWAP1 POP SWAP3 SWAP2 POP POP JUMP JUMPDEST PUSH1 0x0 DUP1 REVERT JUMPDEST PUSH1 0x0 DUP2 SWAP1 POP SWAP2 SWAP1 POP JUMP JUMPDEST PUSH2 0x1FD7 DUP2 PUSH2 0x1FC4 JUMP JUMPDEST DUP2 EQ PUSH2 0x1FE2 JUMPI PUSH1 0x0 DUP1 REVERT JUMPDEST POP JUMP JUMPDEST PUSH1 0x0 DUP2 CALLDATALOAD SWAP1 POP PUSH2 0x1FF4 DUP2 PUSH2 0x1FCE JUMP JUMPDEST SWAP3 SWAP2 POP POP JUMP JUMPDEST PUSH1 0x0 PUSH1 0x40 DUP3 DUP5 SUB SLT ISZERO PUSH2 0x2010 JUMPI PUSH2 0x200F PUSH2 0x1FBF JUMP JUMPDEST JUMPDEST PUSH2 0x201A PUSH1 0x40 PUSH2 0x1E0A JUMP JUMPDEST SWAP1 POP PUSH1 0x0 PUSH2 0x202A DUP5 DUP3 DUP6 ADD PUSH2 0x1FE5 JUMP JUMPDEST PUSH1 0x0 DUP4 ADD MSTORE POP PUSH1 0x20 PUSH2 0x203E DUP5 DUP3 DUP6 ADD PUSH2 0x1FE5 JUMP JUMPDEST PUSH1 0x20 DUP4 ADD MSTORE POP SWAP3 SWAP2 POP POP JUMP JUMPDEST PUSH1 0x0 PUSH8 0xFFFFFFFFFFFFFFFF DUP3 GT ISZERO PUSH2 0x2065 JUMPI PUSH2 0x2064 PUSH2 0x1DAA JUMP JUMPDEST JUMPDEST PUSH1 0x20 DUP3 MUL SWAP1 POP SWAP2 SWAP1 POP JUMP JUMPDEST PUSH1 0x0 DUP1 REVERT JUMPDEST PUSH1 0x0 PUSH2 0x2088 PUSH2 0x2083 DUP5 PUSH2 0x204A JUMP JUMPDEST PUSH2 0x1E0A JUMP JUMPDEST SWAP1 POP DUP1 PUSH1 0x20 DUP5 MUL DUP4 ADD DUP6 DUP2 GT ISZERO PUSH2 0x20A2 JUMPI PUSH2 0x20A1 PUSH2 0x2070 JUMP JUMPDEST JUMPDEST DUP4 JUMPDEST DUP2 DUP2 LT ISZERO PUSH2 0x20CB JUMPI DUP1 PUSH2 0x20B7 DUP9 DUP3 PUSH2 0x1FE5 JUMP JUMPDEST DUP5 MSTORE PUSH1 0x20 DUP5 ADD SWAP4 POP POP PUSH1 0x20 DUP2 ADD SWAP1 POP PUSH2 0x20A4 JUMP JUMPDEST POP POP POP SWAP4 SWAP3 POP POP POP JUMP JUMPDEST PUSH1 0x0 DUP3 PUSH1 0x1F DUP4 ADD SLT PUSH2 0x20EA JUMPI PUSH2 0x20E9 PUSH2 0x1D8F JUMP JUMPDEST JUMPDEST PUSH1 0x2 PUSH2 0x20F7 DUP5 DUP3 DUP6 PUSH2 0x2075 JUMP JUMPDEST SWAP2 POP POP SWAP3 SWAP2 POP POP JUMP JUMPDEST PUSH1 0x0 PUSH1 0x80 DUP3 DUP5 SUB SLT ISZERO PUSH2 0x2116 JUMPI PUSH2 0x2115 PUSH2 0x1FBF JUMP JUMPDEST JUMPDEST PUSH2 0x2120 PUSH1 0x40 PUSH2 0x1E0A JUMP JUMPDEST SWAP1 POP PUSH1 0x0 PUSH2 0x2130 DUP5 DUP3 DUP6 ADD PUSH2 0x20D5 JUMP JUMPDEST PUSH1 0x0 DUP4 ADD MSTORE POP PUSH1 0x40 PUSH2 0x2144 DUP5 DUP3 DUP6 ADD PUSH2 0x20D5 JUMP JUMPDEST PUSH1 0x20 DUP4 ADD MSTORE POP SWAP3 SWAP2 POP POP JUMP JUMPDEST PUSH1 0x0 PUSH2 0x100 DUP3 DUP5 SUB SLT ISZERO PUSH2 0x2167 JUMPI PUSH2 0x2166 PUSH2 0x1FBF JUMP JUMPDEST JUMPDEST PUSH2 0x2171 PUSH1 0x60 PUSH2 0x1E0A JUMP JUMPDEST SWAP1 POP PUSH1 0x0 PUSH2 0x2181 DUP5 DUP3 DUP6 ADD PUSH2 0x1FFA JUMP JUMPDEST PUSH1 0x0 DUP4 ADD MSTORE POP PUSH1 0x40 PUSH2 0x2195 DUP5 DUP3 DUP6 ADD PUSH2 0x2100 JUMP JUMPDEST PUSH1 0x20 DUP4 ADD MSTORE POP PUSH1 0xC0 PUSH2 0x21A9 DUP5 DUP3 DUP6 ADD PUSH2 0x1FFA JUMP JUMPDEST PUSH1 0x40 DUP4 ADD MSTORE POP SWAP3 SWAP2 POP POP JUMP JUMPDEST PUSH1 0x0 PUSH8 0xFFFFFFFFFFFFFFFF DUP3 GT ISZERO PUSH2 0x21D0 JUMPI PUSH2 0x21CF PUSH2 0x1DAA JUMP JUMPDEST JUMPDEST PUSH1 0x20 DUP3 MUL SWAP1 POP SWAP2 SWAP1 POP JUMP JUMPDEST PUSH1 0x0 PUSH2 0x21EE PUSH2 0x21E9 DUP5 PUSH2 0x21B5 JUMP JUMPDEST PUSH2 0x1E0A JUMP JUMPDEST SWAP1 POP DUP1 PUSH1 0x20 DUP5 MUL DUP4 ADD DUP6 DUP2 GT ISZERO PUSH2 0x2208 JUMPI PUSH2 0x2207 PUSH2 0x2070 JUMP JUMPDEST JUMPDEST DUP4 JUMPDEST DUP2 DUP2 LT ISZERO PUSH2 0x2231 JUMPI DUP1 PUSH2 0x221D DUP9 DUP3 PUSH2 0x1FE5 JUMP JUMPDEST DUP5 MSTORE PUSH1 0x20 DUP5 ADD SWAP4 POP POP PUSH1 0x20 DUP2 ADD SWAP1 POP PUSH2 0x220A JUMP JUMPDEST POP POP POP SWAP4 SWAP3 POP POP POP JUMP JUMPDEST PUSH1 0x0 DUP3 PUSH1 0x1F DUP4 ADD SLT PUSH2 0x2250 JUMPI PUSH2 0x224F PUSH2 0x1D8F JUMP JUMPDEST JUMPDEST PUSH1 0x4 PUSH2 0x225D DUP5 DUP3 DUP6 PUSH2 0x21DB JUMP JUMPDEST SWAP2 POP POP SWAP3 SWAP2 POP POP JUMP JUMPDEST PUSH1 0x0 DUP1 PUSH1 0x0 PUSH2 0x1A0 DUP5 DUP7 SUB SLT ISZERO PUSH2 0x2280 JUMPI PUSH2 0x227F PUSH2 0x1D85 JUMP JUMPDEST JUMPDEST PUSH1 0x0 DUP5 ADD CALLDATALOAD PUSH8 0xFFFFFFFFFFFFFFFF DUP2 GT ISZERO PUSH2 0x229E JUMPI PUSH2 0x229D PUSH2 0x1D8A JUMP JUMPDEST JUMPDEST PUSH2 0x22AA DUP7 DUP3 DUP8 ADD PUSH2 0x1EA7 JUMP JUMPDEST SWAP4 POP POP PUSH1 0x20 PUSH2 0x22BB DUP7 DUP3 DUP8 ADD PUSH2 0x2150 JUMP JUMPDEST SWAP3 POP POP PUSH2 0x120 PUSH2 0x22CD DUP7 DUP3 DUP8 ADD PUSH2 0x223B JUMP JUMPDEST SWAP2 POP POP SWAP3 POP SWAP3 POP SWAP3 JUMP JUMPDEST PUSH1 0x0 DUP1 PUSH1 0x40 DUP4 DUP6 SUB SLT ISZERO PUSH2 0x22EE JUMPI PUSH2 0x22ED PUSH2 0x1D85 JUMP JUMPDEST JUMPDEST PUSH1 0x0 DUP4 ADD CALLDATALOAD PUSH8 0xFFFFFFFFFFFFFFFF DUP2 GT ISZERO PUSH2 0x230C JUMPI PUSH2 0x230B PUSH2 0x1D8A JUMP JUMPDEST JUMPDEST PUSH2 0x2318 DUP6 DUP3 DUP7 ADD PUSH2 0x1EA7 JUMP JUMPDEST SWAP3 POP POP PUSH1 0x20 PUSH2 0x2329 DUP6 DUP3 DUP7 ADD PUSH2 0x1FE5 JUMP JUMPDEST SWAP2 POP POP SWAP3 POP SWAP3 SWAP1 POP JUMP JUMPDEST PUSH2 0x233C DUP2 PUSH2 0x1FC4 JUMP JUMPDEST DUP3 MSTORE POP POP JUMP JUMPDEST PUSH1 0x0 PUSH1 0x20 DUP3 ADD SWAP1 POP PUSH2 0x2357 PUSH1 0x0 DUP4 ADD DUP5 PUSH2 0x2333 JUMP JUMPDEST SWAP3 SWAP2 POP POP JUMP JUMPDEST PUSH1 0x0 DUP1 PUSH2 0x180 DUP4 DUP6 SUB SLT ISZERO PUSH2 0x2375 JUMPI PUSH2 0x2374 PUSH2 0x1D85 JUMP JUMPDEST JUMPDEST PUSH1 0x0 PUSH2 0x2383 DUP6 DUP3 DUP7 ADD PUSH2 0x2150 JUMP JUMPDEST SWAP3 POP POP PUSH2 0x100 PUSH2 0x2395 DUP6 DUP3 DUP7 ADD PUSH2 0x223B JUMP JUMPDEST SWAP2 POP POP SWAP3 POP SWAP3 SWAP1 POP JUMP JUMPDEST PUSH1 0x0 DUP2 ISZERO ISZERO SWAP1 POP SWAP2 SWAP1 POP JUMP JUMPDEST PUSH2 0x23B4 DUP2 PUSH2 0x239F JUMP JUMPDEST DUP3 MSTORE POP POP JUMP JUMPDEST PUSH1 0x0 PUSH1 0x20 DUP3 ADD SWAP1 POP PUSH2 0x23CF PUSH1 0x0 DUP4 ADD DUP5 PUSH2 0x23AB JUMP JUMPDEST SWAP3 SWAP2 POP POP JUMP JUMPDEST PUSH1 0x0 PUSH1 0x2 SWAP1 POP SWAP2 SWAP1 POP JUMP JUMPDEST PUSH1 0x0 DUP2 SWAP1 POP SWAP3 SWAP2 POP POP JUMP JUMPDEST PUSH1 0x0 DUP2 SWAP1 POP SWAP2 SWAP1 POP JUMP JUMPDEST PUSH2 0x23FE DUP2 PUSH2 0x1FC4 JUMP JUMPDEST DUP3 MSTORE POP POP JUMP JUMPDEST PUSH1 0x0 PUSH2 0x2410 DUP4 DUP4 PUSH2 0x23F5 JUMP JUMPDEST PUSH1 0x20 DUP4 ADD SWAP1 POP SWAP3 SWAP2 POP POP JUMP JUMPDEST PUSH1 0x0 PUSH1 0x20 DUP3 ADD SWAP1 POP SWAP2 SWAP1 POP JUMP JUMPDEST PUSH2 0x2432 DUP2 PUSH2 0x23D5 JUMP JUMPDEST PUSH2 0x243C DUP2 DUP5 PUSH2 0x23E0 JUMP JUMPDEST SWAP3 POP PUSH2 0x2447 DUP3 PUSH2 0x23EB JUMP JUMPDEST DUP1 PUSH1 0x0 JUMPDEST DUP4 DUP2 LT ISZERO PUSH2 0x2478 JUMPI DUP2 MLOAD PUSH2 0x245F DUP8 DUP3 PUSH2 0x2404 JUMP JUMPDEST SWAP7 POP PUSH2 0x246A DUP4 PUSH2 0x241C JUMP JUMPDEST SWAP3 POP POP PUSH1 0x1 DUP2 ADD SWAP1 POP PUSH2 0x244B JUMP JUMPDEST POP POP POP POP POP POP JUMP JUMPDEST PUSH1 0x0 PUSH1 0x40 DUP3 ADD SWAP1 POP PUSH2 0x2495 PUSH1 0x0 DUP4 ADD DUP5 PUSH2 0x2429 JUMP JUMPDEST SWAP3 SWAP2 POP POP JUMP JUMPDEST PUSH32 0x4E487B7100000000000000000000000000000000000000000000000000000000 PUSH1 0x0 MSTORE PUSH1 0x22 PUSH1 0x4 MSTORE PUSH1 0x24 PUSH1 0x0 REVERT JUMPDEST PUSH1 0x0 PUSH1 0x2 DUP3 DIV SWAP1 POP PUSH1 0x1 DUP3 AND DUP1 PUSH2 0x24E2 JUMPI PUSH1 0x7F DUP3 AND SWAP2 POP JUMPDEST PUSH1 0x20 DUP3 LT DUP2 SUB PUSH2 0x24F5 JUMPI PUSH2 0x24F4 PUSH2 0x249B JUMP JUMPDEST JUMPDEST POP SWAP2 SWAP1 POP JUMP JUMPDEST PUSH1 0x0 DUP2 SWAP1 POP SWAP3 SWAP2 POP POP JUMP JUMPDEST PUSH1 0x0 PUSH2 0x2511 DUP3 PUSH2 0x1F1E JUMP JUMPDEST PUSH2 0x251B DUP2 DUP6 PUSH2 0x24FB JUMP JUMPDEST SWAP4 POP PUSH2 0x252B DUP2 DUP6 PUSH1 0x20 DUP7 ADD PUSH2 0x1F3A JUMP JUMPDEST DUP1 DUP5 ADD SWAP2 POP POP SWAP3 SWAP2 POP POP JUMP JUMPDEST PUSH1 0x0 PUSH2 0x2543 DUP3 DUP5 PUSH2 0x2506 JUMP JUMPDEST SWAP2 POP DUP2 SWAP1 POP SWAP3 SWAP2 POP POP JUMP JUMPDEST PUSH32 0x6E65774964656E7469747920697320616C72656164792070617274206F662072 PUSH1 0x0 DUP3 ADD MSTORE PUSH32 0x656769737465726564206964656E746974696573000000000000000000000000 PUSH1 0x20 DUP3 ADD MSTORE POP JUMP JUMPDEST PUSH1 0x0 PUSH2 0x25AA PUSH1 0x34 DUP4 PUSH2 0x1F29 JUMP JUMPDEST SWAP2 POP PUSH2 0x25B5 DUP3 PUSH2 0x254E JUMP JUMPDEST PUSH1 0x40 DUP3 ADD SWAP1 POP SWAP2 SWAP1 POP JUMP JUMPDEST PUSH1 0x0 PUSH1 0x20 DUP3 ADD SWAP1 POP DUP2 DUP2 SUB PUSH1 0x0 DUP4 ADD MSTORE PUSH2 0x25D9 DUP2 PUSH2 0x259D JUMP JUMPDEST SWAP1 POP SWAP2 SWAP1 POP JUMP JUMPDEST PUSH32 0x70726F76696E67206F776E657273686970206F66206E65774964656E74697479 PUSH1 0x0 DUP3 ADD MSTORE PUSH32 0x206661696C656400000000000000000000000000000000000000000000000000 PUSH1 0x20 DUP3 ADD MSTORE POP JUMP JUMPDEST PUSH1 0x0 PUSH2 0x263C PUSH1 0x27 DUP4 PUSH2 0x1F29 JUMP JUMPDEST SWAP2 POP PUSH2 0x2647 DUP3 PUSH2 0x25E0 JUMP JUMPDEST PUSH1 0x40 DUP3 ADD SWAP1 POP SWAP2 SWAP1 POP JUMP JUMPDEST PUSH1 0x0 PUSH1 0x20 DUP3 ADD SWAP1 POP DUP2 DUP2 SUB PUSH1 0x0 DUP4 ADD MSTORE PUSH2 0x266B DUP2 PUSH2 0x262F JUMP JUMPDEST SWAP1 POP SWAP2 SWAP1 POP JUMP JUMPDEST PUSH32 0x4E487B7100000000000000000000000000000000000000000000000000000000 PUSH1 0x0 MSTORE PUSH1 0x32 PUSH1 0x4 MSTORE PUSH1 0x24 PUSH1 0x0 REVERT JUMPDEST PUSH1 0x0 DUP2 SWAP1 POP DUP2 PUSH1 0x0 MSTORE PUSH1 0x20 PUSH1 0x0 KECCAK256 SWAP1 POP SWAP2 SWAP1 POP JUMP JUMPDEST PUSH1 0x0 PUSH1 0x20 PUSH1 0x1F DUP4 ADD DIV SWAP1 POP SWAP2 SWAP1 POP JUMP JUMPDEST PUSH1 0x0 DUP3 DUP3 SHL SWAP1 POP SWAP3 SWAP2 POP POP JUMP JUMPDEST PUSH1 0x0 PUSH1 0x8 DUP4 MUL PUSH2 0x2703 PUSH32 0xFFFFFFFFFFFFFFFFFFFFFFFFFFFFFFFFFFFFFFFFFFFFFFFFFFFFFFFFFFFFFFFF DUP3 PUSH2 0x26C6 JUMP JUMPDEST PUSH2 0x270D DUP7 DUP4 PUSH2 0x26C6 JUMP JUMPDEST SWAP6 POP DUP1 NOT DUP5 AND SWAP4 POP DUP1 DUP7 AND DUP5 OR SWAP3 POP POP POP SWAP4 SWAP3 POP POP POP JUMP JUMPDEST PUSH1 0x0 DUP2 SWAP1 POP SWAP2 SWAP1 POP JUMP JUMPDEST PUSH1 0x0 PUSH2 0x274A PUSH2 0x2745 PUSH2 0x2740 DUP5 PUSH2 0x1FC4 JUMP JUMPDEST PUSH2 0x2725 JUMP JUMPDEST PUSH2 0x1FC4 JUMP JUMPDEST SWAP1 POP SWAP2 SWAP1 POP JUMP JUMPDEST PUSH1 0x0 DUP2 SWAP1 POP SWAP2 SWAP1 POP JUMP JUMPDEST PUSH2 0x2764 DUP4 PUSH2 0x272F JUMP JUMPDEST PUSH2 0x2778 PUSH2 0x2770 DUP3 PUSH2 0x2751 JUMP JUMPDEST DUP5 DUP5 SLOAD PUSH2 0x26D3 JUMP JUMPDEST DUP3 SSTORE POP POP POP POP JUMP JUMPDEST PUSH1 0x0 SWAP1 JUMP JUMPDEST PUSH2 0x278D PUSH2 0x2780 JUMP JUMPDEST PUSH2 0x2798 DUP2 DUP5 DUP5 PUSH2 0x275B JUMP JUMPDEST POP POP POP JUMP JUMPDEST JUMPDEST DUP2 DUP2 LT ISZERO PUSH2 0x27BC JUMPI PUSH2 0x27B1 PUSH1 0x0 DUP3 PUSH2 0x2785 JUMP JUMPDEST PUSH1 0x1 DUP2 ADD SWAP1 POP PUSH2 0x279E JUMP JUMPDEST POP POP JUMP JUMPDEST PUSH1 0x1F DUP3 GT ISZERO PUSH2 0x2801 JUMPI PUSH2 0x27D2 DUP2 PUSH2 0x26A1 JUMP JUMPDEST PUSH2 0x27DB DUP5 PUSH2 0x26B6 JUMP JUMPDEST DUP2 ADD PUSH1 0x20 DUP6 LT ISZERO PUSH2 0x27EA JUMPI DUP2 SWAP1 POP JUMPDEST PUSH2 0x27FE PUSH2 0x27F6 DUP6 PUSH2 0x26B6 JUMP JUMPDEST DUP4 ADD DUP3 PUSH2 0x279D JUMP JUMPDEST POP POP JUMPDEST POP POP POP JUMP JUMPDEST PUSH1 0x0 DUP3 DUP3 SHR SWAP1 POP SWAP3 SWAP2 POP POP JUMP JUMPDEST PUSH1 0x0 PUSH2 0x2824 PUSH1 0x0 NOT DUP5 PUSH1 0x8 MUL PUSH2 0x2806 JUMP JUMPDEST NOT DUP1 DUP4 AND SWAP2 POP POP SWAP3 SWAP2 POP POP JUMP JUMPDEST PUSH1 0x0 PUSH2 0x283D DUP4 DUP4 PUSH2 0x2813 JUMP JUMPDEST SWAP2 POP DUP3 PUSH1 0x2 MUL DUP3 OR SWAP1 POP SWAP3 SWAP2 POP POP JUMP JUMPDEST PUSH2 0x2856 DUP3 PUSH2 0x1F1E JUMP JUMPDEST PUSH8 0xFFFFFFFFFFFFFFFF DUP2 GT ISZERO PUSH2 0x286F JUMPI PUSH2 0x286E PUSH2 0x1DAA JUMP JUMPDEST JUMPDEST PUSH2 0x2879 DUP3 SLOAD PUSH2 0x24CA JUMP JUMPDEST PUSH2 0x2884 DUP3 DUP3 DUP6 PUSH2 0x27C0 JUMP JUMPDEST PUSH1 0x0 PUSH1 0x20 SWAP1 POP PUSH1 0x1F DUP4 GT PUSH1 0x1 DUP2 EQ PUSH2 0x28B7 JUMPI PUSH1 0x0 DUP5 ISZERO PUSH2 0x28A5 JUMPI DUP3 DUP8 ADD MLOAD SWAP1 POP JUMPDEST PUSH2 0x28AF DUP6 DUP3 PUSH2 0x2831 JUMP JUMPDEST DUP7 SSTORE POP PUSH2 0x2917 JUMP JUMPDEST PUSH1 0x1F NOT DUP5 AND PUSH2 0x28C5 DUP7 PUSH2 0x26A1 JUMP JUMPDEST PUSH1 0x0 JUMPDEST DUP3 DUP2 LT ISZERO PUSH2 0x28ED JUMPI DUP5 DUP10 ADD MLOAD DUP3 SSTORE PUSH1 0x1 DUP3 ADD SWAP2 POP PUSH1 0x20 DUP6 ADD SWAP5 POP PUSH1 0x20 DUP2 ADD SWAP1 POP PUSH2 0x28C8 JUMP JUMPDEST DUP7 DUP4 LT ISZERO PUSH2 0x290A JUMPI DUP5 DUP10 ADD MLOAD PUSH2 0x2906 PUSH1 0x1F DUP10 AND DUP3 PUSH2 0x2813 JUMP JUMPDEST DUP4 SSTORE POP JUMPDEST PUSH1 0x1 PUSH1 0x2 DUP9 MUL ADD DUP9 SSTORE POP POP POP JUMPDEST POP POP POP POP POP POP JUMP JUMPDEST PUSH1 0x0 PUSH1 0x40 DUP3 ADD SWAP1 POP DUP2 DUP2 SUB PUSH1 0x0 DUP4 ADD MSTORE PUSH2 0x2939 DUP2 DUP6 PUSH2 0x1F64 JUMP JUMPDEST SWAP1 POP DUP2 DUP2 SUB PUSH1 0x20 DUP4 ADD MSTORE PUSH2 0x294D DUP2 DUP5 PUSH2 0x1F64 JUMP JUMPDEST SWAP1 POP SWAP4 SWAP3 POP POP POP JUMP JUMPDEST PUSH32 0x746F426552656D6F7665644964656E74697479206973206E6F74207061727420 PUSH1 0x0 DUP3 ADD MSTORE PUSH32 0x6F662072656769737465726564206964656E7469746965730000000000000000 PUSH1 0x20 DUP3 ADD MSTORE POP JUMP JUMPDEST PUSH1 0x0 PUSH2 0x29B2 PUSH1 0x38 DUP4 PUSH2 0x1F29 JUMP JUMPDEST SWAP2 POP PUSH2 0x29BD DUP3 PUSH2 0x2956 JUMP JUMPDEST PUSH1 0x40 DUP3 ADD SWAP1 POP SWAP2 SWAP1 POP JUMP JUMPDEST PUSH1 0x0 PUSH1 0x20 DUP3 ADD SWAP1 POP DUP2 DUP2 SUB PUSH1 0x0 DUP4 ADD MSTORE PUSH2 0x29E1 DUP2 PUSH2 0x29A5 JUMP JUMPDEST SWAP1 POP SWAP2 SWAP1 POP JUMP JUMPDEST PUSH32 0x6D73672E73656E646572206973206E6F742070617274206F6620726567697374 PUSH1 0x0 DUP3 ADD MSTORE PUSH32 0x65726564206964656E7469746965730000000000000000000000000000000000 PUSH1 0x20 DUP3 ADD MSTORE POP JUMP JUMPDEST PUSH1 0x0 PUSH2 0x2A44 PUSH1 0x2F DUP4 PUSH2 0x1F29 JUMP JUMPDEST SWAP2 POP PUSH2 0x2A4F DUP3 PUSH2 0x29E8 JUMP JUMPDEST PUSH1 0x40 DUP3 ADD SWAP1 POP SWAP2 SWAP1 POP JUMP JUMPDEST PUSH1 0x0 PUSH1 0x20 DUP3 ADD SWAP1 POP DUP2 DUP2 SUB PUSH1 0x0 DUP4 ADD MSTORE PUSH2 0x2A73 DUP2 PUSH2 0x2A37 JUMP JUMPDEST SWAP1 POP SWAP2 SWAP1 POP JUMP JUMPDEST PUSH32 0x746F426552656D6F7665644964656E74697479206973206E6F74207061727420 PUSH1 0x0 DUP3 ADD MSTORE PUSH32 0x6F66206D73672E73656E64657227732063697263756C6172206C696E6B656420 PUSH1 0x20 DUP3 ADD MSTORE PUSH32 0x6C697374206F66206964656E7469746965730000000000000000000000000000 PUSH1 0x40 DUP3 ADD MSTORE POP JUMP JUMPDEST PUSH1 0x0 PUSH2 0x2AFC PUSH1 0x52 DUP4 PUSH2 0x1F29 JUMP JUMPDEST SWAP2 POP PUSH2 0x2B07 DUP3 PUSH2 0x2A7A JUMP JUMPDEST PUSH1 0x60 DUP3 ADD SWAP1 POP SWAP2 SWAP1 POP JUMP JUMPDEST PUSH1 0x0 PUSH1 0x20 DUP3 ADD SWAP1 POP DUP2 DUP2 SUB PUSH1 0x0 DUP4 ADD MSTORE PUSH2 0x2B2B DUP2 PUSH2 0x2AEF JUMP JUMPDEST SWAP1 POP SWAP2 SWAP1 POP JUMP JUMPDEST PUSH1 0x0 DUP2 SLOAD SWAP1 POP PUSH2 0x2B41 DUP2 PUSH2 0x24CA JUMP JUMPDEST SWAP1 POP SWAP2 SWAP1 POP JUMP JUMPDEST PUSH1 0x0 DUP2 SWAP1 POP DUP2 PUSH1 0x0 MSTORE PUSH1 0x20 PUSH1 0x0 KECCAK256 SWAP1 POP SWAP2 SWAP1 POP JUMP JUMPDEST DUP2 DUP2 SUB PUSH2 0x2B6B JUMPI POP POP PUSH2 0x2C43 JUMP JUMPDEST PUSH2 0x2B74 DUP3 PUSH2 0x2B32 JUMP JUMPDEST PUSH8 0xFFFFFFFFFFFFFFFF DUP2 GT ISZERO PUSH2 0x2B8D JUMPI PUSH2 0x2B8C PUSH2 0x1DAA JUMP JUMPDEST JUMPDEST PUSH2 0x2B97 DUP3 SLOAD PUSH2 0x24CA JUMP JUMPDEST PUSH2 0x2BA2 DUP3 DUP3 DUP6 PUSH2 0x27C0 JUMP JUMPDEST PUSH1 0x0 PUSH1 0x1F DUP4 GT PUSH1 0x1 DUP2 EQ PUSH2 0x2BD1 JUMPI PUSH1 0x0 DUP5 ISZERO PUSH2 0x2BBF JUMPI DUP3 DUP8 ADD SLOAD SWAP1 POP JUMPDEST PUSH2 0x2BC9 DUP6 DUP3 PUSH2 0x2831 JUMP JUMPDEST DUP7 SSTORE POP PUSH2 0x2C3C JUMP JUMPDEST PUSH1 0x1F NOT DUP5 AND PUSH2 0x2BDF DUP8 PUSH2 0x2B48 JUMP JUMPDEST SWAP7 POP PUSH2 0x2BEA DUP7 PUSH2 0x26A1 JUMP JUMPDEST PUSH1 0x0 JUMPDEST DUP3 DUP2 LT ISZERO PUSH2 0x2C12 JUMPI DUP5 DUP10 ADD SLOAD DUP3 SSTORE PUSH1 0x1 DUP3 ADD SWAP2 POP PUSH1 0x1 DUP6 ADD SWAP5 POP PUSH1 0x20 DUP2 ADD SWAP1 POP PUSH2 0x2BED JUMP JUMPDEST DUP7 DUP4 LT ISZERO PUSH2 0x2C2F JUMPI DUP5 DUP10 ADD SLOAD PUSH2 0x2C2B PUSH1 0x1F DUP10 AND DUP3 PUSH2 0x2813 JUMP JUMPDEST DUP4 SSTORE POP JUMPDEST PUSH1 0x1 PUSH1 0x2 DUP9 MUL ADD DUP9 SSTORE POP POP POP JUMPDEST POP POP POP POP POP POP JUMPDEST JUMP JUMPDEST PUSH1 0x0 PUSH20 0xFFFFFFFFFFFFFFFFFFFFFFFFFFFFFFFFFFFFFFFF DUP3 AND SWAP1 POP SWAP2 SWAP1 POP JUMP JUMPDEST PUSH1 0x0 PUSH2 0x2C70 DUP3 PUSH2 0x2C45 JUMP JUMPDEST SWAP1 POP SWAP2 SWAP1 POP JUMP JUMPDEST PUSH1 0x0 DUP2 PUSH1 0x60 SHL SWAP1 POP SWAP2 SWAP1 POP JUMP JUMPDEST PUSH1 0x0 PUSH2 0x2C8F DUP3 PUSH2 0x2C77 JUMP JUMPDEST SWAP1 POP SWAP2 SWAP1 POP JUMP JUMPDEST PUSH1 0x0 PUSH2 0x2CA1 DUP3 PUSH2 0x2C84 JUMP JUMPDEST SWAP1 POP SWAP2 SWAP1 POP JUMP JUMPDEST PUSH2 0x2CB9 PUSH2 0x2CB4 DUP3 PUSH2 0x2C65 JUMP JUMPDEST PUSH2 0x2C96 JUMP JUMPDEST DUP3 MSTORE POP POP JUMP JUMPDEST PUSH1 0x0 PUSH2 0x2CCB DUP3 DUP5 PUSH2 0x2CA8 JUMP JUMPDEST PUSH1 0x14 DUP3 ADD SWAP2 POP DUP2 SWAP1 POP SWAP3 SWAP2 POP POP JUMP JUMPDEST PUSH32 0x4E487B7100000000000000000000000000000000000000000000000000000000 PUSH1 0x0 MSTORE PUSH1 0x11 PUSH1 0x4 MSTORE PUSH1 0x24 PUSH1 0x0 REVERT JUMPDEST PUSH1 0x0 PUSH2 0x2D14 DUP3 PUSH2 0x1FC4 JUMP JUMPDEST SWAP2 POP PUSH2 0x2D1F DUP4 PUSH2 0x1FC4 JUMP JUMPDEST SWAP3 POP DUP3 DUP3 MUL PUSH2 0x2D2D DUP2 PUSH2 0x1FC4 JUMP JUMPDEST SWAP2 POP DUP3 DUP3 DIV DUP5 EQ DUP4 ISZERO OR PUSH2 0x2D44 JUMPI PUSH2 0x2D43 PUSH2 0x2CDA JUMP JUMPDEST JUMPDEST POP SWAP3 SWAP2 POP POP JUMP JUMPDEST PUSH1 0x0 PUSH2 0x2D56 DUP3 PUSH2 0x1FC4 JUMP JUMPDEST SWAP2 POP PUSH2 0x2D61 DUP4 PUSH2 0x1FC4 JUMP JUMPDEST SWAP3 POP DUP3 DUP3 ADD SWAP1 POP DUP1 DUP3 GT ISZERO PUSH2 0x2D79 JUMPI PUSH2 0x2D78 PUSH2 0x2CDA JUMP JUMPDEST JUMPDEST SWAP3 SWAP2 POP POP JUMP JUMPDEST PUSH32 0x4E487B7100000000000000000000000000000000000000000000000000000000 PUSH1 0x0 MSTORE PUSH1 0x12 PUSH1 0x4 MSTORE PUSH1 0x24 PUSH1 0x0 REVERT JUMPDEST PUSH1 0x0 PUSH2 0x2DB9 DUP3 PUSH2 0x1FC4 JUMP JUMPDEST SWAP2 POP PUSH2 0x2DC4 DUP4 PUSH2 0x1FC4 JUMP JUMPDEST SWAP3 POP DUP3 PUSH2 0x2DD4 JUMPI PUSH2 0x2DD3 PUSH2 0x2D7F JUMP JUMPDEST JUMPDEST DUP3 DUP3 MOD SWAP1 POP SWAP3 SWAP2 POP POP JUMP JUMPDEST PUSH1 0x0 PUSH2 0x2DEA DUP3 PUSH2 0x1FC4 JUMP JUMPDEST SWAP2 POP PUSH2 0x2DF5 DUP4 PUSH2 0x1FC4 JUMP JUMPDEST SWAP3 POP DUP3 DUP3 SUB SWAP1 POP DUP2 DUP2 GT ISZERO PUSH2 0x2E0D JUMPI PUSH2 0x2E0C PUSH2 0x2CDA JUMP JUMPDEST JUMPDEST SWAP3 SWAP2 POP POP JUMP INVALID LOG2 PUSH5 0x6970667358 0x22 SLT KECCAK256 SWAP8 0xD1 PUSH18 0x4DE65AAD3C1BF208DF74012EA9C053FB497E EQ PUSH31 0x1F4F992B986A684C7C64736F6C634300081B00330000000000000000000000 "},"methodIdentifiers":{"addIdentity(string,((uint256,uint256),(uint256[2],uint256[2]),(uint256,uint256)),uint256[4])":"09f1ae08","getNextIdentity(string)":"055d24c1","getPublicKey(string)":"bff90821","identities(string)":"01e21afb","publicKeys(string,uint256)":"3619059b","removeIdentity(string)":"ca364a3a","verifyTx(((uint256,uint256),(uint256[2],uint256[2]),(uint256,uint256)),uint256[4])":"799afa76"}}}}}