{
  "_format": "hh-sol-artifact-1",
  "contractName": "ODIM",
  "sourceName": "contracts/ODIM.sol",
  "abi": [
    {
      "anonymous": false,
      "inputs": [
        {
          "indexed": false,
          "internalType": "string",
          "name": "addedBy",
          "type": "string"
        },
        {
          "indexed": false,
          "internalType": "string",
          "name": "newIdentity",
          "type": "string"
        }
      ],
      "name": "IdentityAdded",
      "type": "event"
    },
    {
      "inputs": [
        {
          "internalType": "string",
          "name": "newIdentity",
          "type": "string"
        }
      ],
      "name": "addIdentity",
      "outputs": [],
      "stateMutability": "nonpayable",
      "type": "function"
    },
    {
      "inputs": [
        {
          "internalType": "string",
          "name": "key",
          "type": "string"
        }
      ],
      "name": "getNextIdentity",
      "outputs": [
        {
          "internalType": "string",
          "name": "",
          "type": "string"
        }
      ],
      "stateMutability": "view",
      "type": "function"
    },
    {
      "inputs": [
        {
          "internalType": "string",
          "name": "",
          "type": "string"
        }
      ],
      "name": "identities",
      "outputs": [
        {
          "internalType": "string",
          "name": "",
          "type": "string"
        }
      ],
      "stateMutability": "view",
      "type": "function"
    },
    {
      "inputs": [
        {
          "internalType": "string",
          "name": "toBeRemovedIdentity",
          "type": "string"
        }
      ],
      "name": "removeIdentity",
      "outputs": [],
      "stateMutability": "nonpayable",
      "type": "function"
    }
  ],
  "bytecode": "0x6080604052348015600f57600080fd5b506115d08061001f6000396000f3fe608060405234801561001057600080fd5b506004361061004c5760003560e01c806301e21afb14610051578063055d24c1146100815780633ce65e1f146100b1578063ca364a3a146100cd575b600080fd5b61006b60048036038101906100669190610c54565b6100e9565b6040516100789190610d1c565b60405180910390f35b61009b60048036038101906100969190610c54565b61019f565b6040516100a89190610d1c565b60405180910390f35b6100cb60048036038101906100c69190610c54565b61024f565b005b6100e760048036038101906100e29190610c54565b610443565b005b600081805160208101820180518482526020830160208501208183528095505050505050600091509050805461011e90610d6d565b80601f016020809104026020016040519081016040528092919081815260200182805461014a90610d6d565b80156101975780601f1061016c57610100808354040283529160200191610197565b820191906000526020600020905b81548152906001019060200180831161017a57829003601f168201915b505050505081565b60606000826040516101b19190610dda565b908152602001604051809103902080546101ca90610d6d565b80601f01602080910402602001604051908101604052809291908181526020018280546101f690610d6d565b80156102435780601f1061021857610100808354040283529160200191610243565b820191906000526020600020905b81548152906001019060200180831161022657829003601f168201915b50505050509050919050565b600080826040516102609190610dda565b9081526020016040518091039020805461027990610d6d565b9050146102bb576040517f08c379a00000000000000000000000000000000000000000000000000000000081526004016102b290610e63565b60405180910390fd5b60006102c6336107e1565b9050600080826040516102d99190610dda565b908152602001604051809103902080546102f290610d6d565b80601f016020809104026020016040519081016040528092919081815260200182805461031e90610d6d565b801561036b5780601f106103405761010080835404028352916020019161036b565b820191906000526020600020905b81548152906001019060200180831161034e57829003601f168201915b50505050509050826000836040516103839190610dda565b9081526020016040518091039020908161039d9190611039565b5060008151036103d857816000846040516103b89190610dda565b908152602001604051809103902090816103d29190611039565b50610405565b806000846040516103e99190610dda565b908152602001604051809103902090816104039190611039565b505b7fa758369d21d836b8337f4e4928fa9645a718ce6cb6d395f8d77e81d1c8f0d560828460405161043692919061110b565b60405180910390a1505050565b600080826040516104549190610dda565b9081526020016040518091039020805461046d90610d6d565b9050036104af576040517f08c379a00000000000000000000000000000000000000000000000000000000081526004016104a6906111b4565b60405180910390fd5b60006104ba336107e1565b90506000826040516020016104cf9190610dda565b6040516020818303038152906040528051906020012090506000826040516020016104fa9190610dda565b6040516020818303038152906040528051906020012090506000839050600080856040516105289190610dda565b9081526020016040518091039020805461054190610d6d565b80601f016020809104026020016040519081016040528092919081815260200182805461056d90610d6d565b80156105ba5780601f1061058f576101008083540402835291602001916105ba565b820191906000526020600020905b81548152906001019060200180831161059d57829003601f168201915b505050505090506000815103610605576040517f08c379a00000000000000000000000000000000000000000000000000000000081526004016105fc90611246565b60405180910390fd5b6000816040516020016106189190610dda565b6040516020818303038152906040528051906020012090505b8085146107545783810361067a576040517f08c379a0000000000000000000000000000000000000000000000000000000008152600401610671906112fe565b60405180910390fd5b81925060008260405161068d9190610dda565b908152602001604051809103902080546106a690610d6d565b80601f01602080910402602001604051908101604052809291908181526020018280546106d290610d6d565b801561071f5780601f106106f45761010080835404028352916020019161071f565b820191906000526020600020905b81548152906001019060200180831161070257829003601f168201915b50505050509150816040516020016107379190610dda565b604051602081830303815290604052805190602001209050610631565b6000876040516107649190610dda565b90815260200160405180910390206000846040516107829190610dda565b9081526020016040518091039020908161079c9190611349565b50604051806020016040528060008152506000886040516107bd9190610dda565b908152602001604051809103902090816107d79190611039565b5050505050505050565b60606000826040516020016107f691906114ab565b604051602081830303815290604052905060006040518060400160405280601081526020017f3031323334353637383961626364656600000000000000000000000000000000815250905060006002835161085191906114f5565b600261085d9190611537565b67ffffffffffffffff81111561087657610875610b29565b5b6040519080825280601f01601f1916602001820160405280156108a85781602001600182028036833780820191505090505b5090507f3000000000000000000000000000000000000000000000000000000000000000816000815181106108e0576108df61156b565b5b60200101907effffffffffffffffffffffffffffffffffffffffffffffffffffffffffffff1916908160001a9053507f7800000000000000000000000000000000000000000000000000000000000000816001815181106109445761094361156b565b5b60200101907effffffffffffffffffffffffffffffffffffffffffffffffffffffffffffff1916908160001a90535060005b8351811015610aee578260048583815181106109955761099461156b565b5b602001015160f81c60f81b7effffffffffffffffffffffffffffffffffffffffffffffffffffffffffffff1916901c60f81c60ff16815181106109db576109da61156b565b5b602001015160f81c60f81b826002836109f491906114f5565b6002610a009190611537565b81518110610a1157610a1061156b565b5b60200101907effffffffffffffffffffffffffffffffffffffffffffffffffffffffffffff1916908160001a90535082600f60f81b858381518110610a5957610a5861156b565b5b602001015160f81c60f81b1660f81c60ff1681518110610a7c57610a7b61156b565b5b602001015160f81c60f81b82600283610a9591906114f5565b6003610aa19190611537565b81518110610ab257610ab161156b565b5b60200101907effffffffffffffffffffffffffffffffffffffffffffffffffffffffffffff1916908160001a9053508080600101915050610976565b50809350505050919050565b6000604051905090565b600080fd5b600080fd5b600080fd5b600080fd5b6000601f19601f8301169050919050565b7f4e487b7100000000000000000000000000000000000000000000000000000000600052604160045260246000fd5b610b6182610b18565b810181811067ffffffffffffffff82111715610b8057610b7f610b29565b5b80604052505050565b6000610b93610afa565b9050610b9f8282610b58565b919050565b600067ffffffffffffffff821115610bbf57610bbe610b29565b5b610bc882610b18565b9050602081019050919050565b82818337600083830152505050565b6000610bf7610bf284610ba4565b610b89565b905082815260208101848484011115610c1357610c12610b13565b5b610c1e848285610bd5565b509392505050565b600082601f830112610c3b57610c3a610b0e565b5b8135610c4b848260208601610be4565b91505092915050565b600060208284031215610c6a57610c69610b04565b5b600082013567ffffffffffffffff811115610c8857610c87610b09565b5b610c9484828501610c26565b91505092915050565b600081519050919050565b600082825260208201905092915050565b60005b83811015610cd7578082015181840152602081019050610cbc565b60008484015250505050565b6000610cee82610c9d565b610cf88185610ca8565b9350610d08818560208601610cb9565b610d1181610b18565b840191505092915050565b60006020820190508181036000830152610d368184610ce3565b905092915050565b7f4e487b7100000000000000000000000000000000000000000000000000000000600052602260045260246000fd5b60006002820490506001821680610d8557607f821691505b602082108103610d9857610d97610d3e565b5b50919050565b600081905092915050565b6000610db482610c9d565b610dbe8185610d9e565b9350610dce818560208601610cb9565b80840191505092915050565b6000610de68284610da9565b915081905092915050565b7f6e65774964656e7469747920697320616c72656164792070617274206f66207260008201527f656769737465726564206964656e746974696573000000000000000000000000602082015250565b6000610e4d603483610ca8565b9150610e5882610df1565b604082019050919050565b60006020820190508181036000830152610e7c81610e40565b9050919050565b60008190508160005260206000209050919050565b60006020601f8301049050919050565b600082821b905092915050565b600060088302610ee57fffffffffffffffffffffffffffffffffffffffffffffffffffffffffffffffff82610ea8565b610eef8683610ea8565b95508019841693508086168417925050509392505050565b6000819050919050565b6000819050919050565b6000610f36610f31610f2c84610f07565b610f11565b610f07565b9050919050565b6000819050919050565b610f5083610f1b565b610f64610f5c82610f3d565b848454610eb5565b825550505050565b600090565b610f79610f6c565b610f84818484610f47565b505050565b5b81811015610fa857610f9d600082610f71565b600181019050610f8a565b5050565b601f821115610fed57610fbe81610e83565b610fc784610e98565b81016020851015610fd6578190505b610fea610fe285610e98565b830182610f89565b50505b505050565b600082821c905092915050565b600061101060001984600802610ff2565b1980831691505092915050565b60006110298383610fff565b9150826002028217905092915050565b61104282610c9d565b67ffffffffffffffff81111561105b5761105a610b29565b5b6110658254610d6d565b611070828285610fac565b600060209050601f8311600181146110a35760008415611091578287015190505b61109b858261101d565b865550611103565b601f1984166110b186610e83565b60005b828110156110d9578489015182556001820191506020850194506020810190506110b4565b868310156110f657848901516110f2601f891682610fff565b8355505b6001600288020188555050505b505050505050565b600060408201905081810360008301526111258185610ce3565b905081810360208301526111398184610ce3565b90509392505050565b7f746f426552656d6f7665644964656e74697479206973206e6f7420706172742060008201527f6f662072656769737465726564206964656e7469746965730000000000000000602082015250565b600061119e603883610ca8565b91506111a982611142565b604082019050919050565b600060208201905081810360008301526111cd81611191565b9050919050565b7f6d73672e73656e646572206973206e6f742070617274206f662072656769737460008201527f65726564206964656e7469746965730000000000000000000000000000000000602082015250565b6000611230602f83610ca8565b915061123b826111d4565b604082019050919050565b6000602082019050818103600083015261125f81611223565b9050919050565b7f746f426552656d6f7665644964656e74697479206973206e6f7420706172742060008201527f6f66206d73672e73656e64657227732063697263756c6172206c696e6b65642060208201527f6c697374206f66206964656e7469746965730000000000000000000000000000604082015250565b60006112e8605283610ca8565b91506112f382611266565b606082019050919050565b60006020820190508181036000830152611317816112db565b9050919050565b60008154905061132d81610d6d565b9050919050565b60008190508160005260206000209050919050565b81810361135757505061142f565b6113608261131e565b67ffffffffffffffff81111561137957611378610b29565b5b6113838254610d6d565b61138e828285610fac565b6000601f8311600181146113bd57600084156113ab578287015490505b6113b5858261101d565b865550611428565b601f1984166113cb87611334565b96506113d686610e83565b60005b828110156113fe578489015482556001820191506001850194506020810190506113d9565b8683101561141b5784890154611417601f891682610fff565b8355505b6001600288020188555050505b5050505050505b565b600073ffffffffffffffffffffffffffffffffffffffff82169050919050565b600061145c82611431565b9050919050565b60008160601b9050919050565b600061147b82611463565b9050919050565b600061148d82611470565b9050919050565b6114a56114a082611451565b611482565b82525050565b60006114b78284611494565b60148201915081905092915050565b7f4e487b7100000000000000000000000000000000000000000000000000000000600052601160045260246000fd5b600061150082610f07565b915061150b83610f07565b925082820261151981610f07565b915082820484148315176115305761152f6114c6565b5b5092915050565b600061154282610f07565b915061154d83610f07565b9250828201905080821115611565576115646114c6565b5b92915050565b7f4e487b7100000000000000000000000000000000000000000000000000000000600052603260045260246000fdfea264697066735822122027676e8124b589d5c51058d45520bb8048a447e9e1eafbc93eeea4d732c93d6b64736f6c634300081b0033",
  "linkReferences": {},
  "deployedLinkReferences": {}
}