{
  "_format": "hh-sol-artifact-1",
  "contractName": "ODIM",
  "sourceName": "contracts/ODIM.sol",
  "abi": [
    {
      "inputs": [
        {
          "internalType": "string",
          "name": "newIdentity",
          "type": "string"
        }
      ],
      "name": "addIdentity",
      "outputs": [],
      "stateMutability": "nonpayable",
      "type": "function"
    },
    {
      "inputs": [
        {
          "internalType": "string",
          "name": "key",
          "type": "string"
        }
      ],
      "name": "getNextIdentity",
      "outputs": [
        {
          "internalType": "string",
          "name": "",
          "type": "string"
        }
      ],
      "stateMutability": "view",
      "type": "function"
    },
    {
      "inputs": [
        {
          "internalType": "string",
          "name": "",
          "type": "string"
        }
      ],
      "name": "identities",
      "outputs": [
        {
          "internalType": "string",
          "name": "",
          "type": "string"
        }
      ],
      "stateMutability": "view",
      "type": "function"
    },
    {
      "inputs": [
        {
          "internalType": "string",
          "name": "toBeRemovedIdentity",
          "type": "string"
        }
      ],
      "name": "removeIdentity",
      "outputs": [],
      "stateMutability": "nonpayable",
      "type": "function"
    }
  ],
  "bytecode": "0x6080604052348015600f57600080fd5b506111e58061001f6000396000f3fe608060405234801561001057600080fd5b506004361061004c5760003560e01c806301e21afb14610051578063055d24c1146100815780633ce65e1f146100b1578063ca364a3a146100cd575b600080fd5b61006b60048036038101906100669190610aeb565b6100e9565b6040516100789190610bb3565b60405180910390f35b61009b60048036038101906100969190610aeb565b61019f565b6040516100a89190610bb3565b60405180910390f35b6100cb60048036038101906100c69190610aeb565b61024f565b005b6100e760048036038101906100e29190610aeb565b61039e565b005b600081805160208101820180518482526020830160208501208183528095505050505050600091509050805461011e90610c04565b80601f016020809104026020016040519081016040528092919081815260200182805461014a90610c04565b80156101975780601f1061016c57610100808354040283529160200191610197565b820191906000526020600020905b81548152906001019060200180831161017a57829003601f168201915b505050505081565b60606000826040516101b19190610c71565b908152602001604051809103902080546101ca90610c04565b80601f01602080910402602001604051908101604052809291908181526020018280546101f690610c04565b80156102435780601f1061021857610100808354040283529160200191610243565b820191906000526020600020905b81548152906001019060200180831161022657829003601f168201915b50505050509050919050565b600061025a3361068c565b90506000808260405161026d9190610c71565b9081526020016040518091039020805461028690610c04565b80601f01602080910402602001604051908101604052809291908181526020018280546102b290610c04565b80156102ff5780601f106102d4576101008083540402835291602001916102ff565b820191906000526020600020905b8154815290600101906020018083116102e257829003601f168201915b50505050509050826000836040516103179190610c71565b908152602001604051809103902090816103319190610e3e565b50600081510361036c578160008460405161034c9190610c71565b908152602001604051809103902090816103669190610e3e565b50610399565b8060008460405161037d9190610c71565b908152602001604051809103902090816103979190610e3e565b505b505050565b60006103a93361068c565b90506000826040516020016103be9190610c71565b6040516020818303038152906040528051906020012090506000826040516020016103e99190610c71565b6040516020818303038152906040528051906020012090506000839050600080856040516104179190610c71565b9081526020016040518091039020805461043090610c04565b80601f016020809104026020016040519081016040528092919081815260200182805461045c90610c04565b80156104a95780601f1061047e576101008083540402835291602001916104a9565b820191906000526020600020905b81548152906001019060200180831161048c57829003601f168201915b505050505090506000816040516020016104c39190610c71565b6040516020818303038152906040528051906020012090505b8085146105ff57838103610525576040517f08c379a000000000000000000000000000000000000000000000000000000000815260040161051c90610fa8565b60405180910390fd5b8192506000826040516105389190610c71565b9081526020016040518091039020805461055190610c04565b80601f016020809104026020016040519081016040528092919081815260200182805461057d90610c04565b80156105ca5780601f1061059f576101008083540402835291602001916105ca565b820191906000526020600020905b8154815290600101906020018083116105ad57829003601f168201915b50505050509150816040516020016105e29190610c71565b6040516020818303038152906040528051906020012090506104dc565b60008760405161060f9190610c71565b908152602001604051809103902060008460405161062d9190610c71565b908152602001604051809103902090816106479190610ff3565b50604051806020016040528060008152506000886040516106689190610c71565b908152602001604051809103902090816106829190610e3e565b5050505050505050565b606060008273ffffffffffffffffffffffffffffffffffffffff1660001b905060006040518060400160405280601081526020017f303132333435363738396162636465660000000000000000000000000000000081525090506000602a67ffffffffffffffff811115610703576107026109c0565b5b6040519080825280601f01601f1916602001820160405280156107355781602001600182028036833780820191505090505b5090507f30000000000000000000000000000000000000000000000000000000000000008160008151811061076d5761076c6110db565b5b60200101907effffffffffffffffffffffffffffffffffffffffffffffffffffffffffffff1916908160001a9053507f7800000000000000000000000000000000000000000000000000000000000000816001815181106107d1576107d06110db565b5b60200101907effffffffffffffffffffffffffffffffffffffffffffffffffffffffffffff1916908160001a90535060005b60148110156109855782600485600c8461081d9190611139565b6020811061082e5761082d6110db565b5b1a60f81b7effffffffffffffffffffffffffffffffffffffffffffffffffffffffffffff1916901c60f81c60ff168151811061086d5761086c6110db565b5b602001015160f81c60f81b82600283610886919061116d565b60026108929190611139565b815181106108a3576108a26110db565b5b60200101907effffffffffffffffffffffffffffffffffffffffffffffffffffffffffffff1916908160001a90535082600f60f81b85600c846108e69190611139565b602081106108f7576108f66110db565b5b1a60f81b1660f81c60ff1681518110610913576109126110db565b5b602001015160f81c60f81b8260028361092c919061116d565b60036109389190611139565b81518110610949576109486110db565b5b60200101907effffffffffffffffffffffffffffffffffffffffffffffffffffffffffffff1916908160001a9053508080600101915050610803565b50809350505050919050565b6000604051905090565b600080fd5b600080fd5b600080fd5b600080fd5b6000601f19601f8301169050919050565b7f4e487b7100000000000000000000000000000000000000000000000000000000600052604160045260246000fd5b6109f8826109af565b810181811067ffffffffffffffff82111715610a1757610a166109c0565b5b80604052505050565b6000610a2a610991565b9050610a3682826109ef565b919050565b600067ffffffffffffffff821115610a5657610a556109c0565b5b610a5f826109af565b9050602081019050919050565b82818337600083830152505050565b6000610a8e610a8984610a3b565b610a20565b905082815260208101848484011115610aaa57610aa96109aa565b5b610ab5848285610a6c565b509392505050565b600082601f830112610ad257610ad16109a5565b5b8135610ae2848260208601610a7b565b91505092915050565b600060208284031215610b0157610b0061099b565b5b600082013567ffffffffffffffff811115610b1f57610b1e6109a0565b5b610b2b84828501610abd565b91505092915050565b600081519050919050565b600082825260208201905092915050565b60005b83811015610b6e578082015181840152602081019050610b53565b60008484015250505050565b6000610b8582610b34565b610b8f8185610b3f565b9350610b9f818560208601610b50565b610ba8816109af565b840191505092915050565b60006020820190508181036000830152610bcd8184610b7a565b905092915050565b7f4e487b7100000000000000000000000000000000000000000000000000000000600052602260045260246000fd5b60006002820490506001821680610c1c57607f821691505b602082108103610c2f57610c2e610bd5565b5b50919050565b600081905092915050565b6000610c4b82610b34565b610c558185610c35565b9350610c65818560208601610b50565b80840191505092915050565b6000610c7d8284610c40565b915081905092915050565b60008190508160005260206000209050919050565b60006020601f8301049050919050565b600082821b905092915050565b600060088302610cea7fffffffffffffffffffffffffffffffffffffffffffffffffffffffffffffffff82610cad565b610cf48683610cad565b95508019841693508086168417925050509392505050565b6000819050919050565b6000819050919050565b6000610d3b610d36610d3184610d0c565b610d16565b610d0c565b9050919050565b6000819050919050565b610d5583610d20565b610d69610d6182610d42565b848454610cba565b825550505050565b600090565b610d7e610d71565b610d89818484610d4c565b505050565b5b81811015610dad57610da2600082610d76565b600181019050610d8f565b5050565b601f821115610df257610dc381610c88565b610dcc84610c9d565b81016020851015610ddb578190505b610def610de785610c9d565b830182610d8e565b50505b505050565b600082821c905092915050565b6000610e1560001984600802610df7565b1980831691505092915050565b6000610e2e8383610e04565b9150826002028217905092915050565b610e4782610b34565b67ffffffffffffffff811115610e6057610e5f6109c0565b5b610e6a8254610c04565b610e75828285610db1565b600060209050601f831160018114610ea85760008415610e96578287015190505b610ea08582610e22565b865550610f08565b601f198416610eb686610c88565b60005b82811015610ede57848901518255600182019150602085019450602081019050610eb9565b86831015610efb5784890151610ef7601f891682610e04565b8355505b6001600288020188555050505b505050505050565b7f746f426552656d6f7665644964656e74697479206973206e6f7420706172742060008201527f6f66207468652073616d652063697263756c6172206c696e6b6564206c69737460208201527f206173206d73672e73656e646572000000000000000000000000000000000000604082015250565b6000610f92604e83610b3f565b9150610f9d82610f10565b606082019050919050565b60006020820190508181036000830152610fc181610f85565b9050919050565b600081549050610fd781610c04565b9050919050565b60008190508160005260206000209050919050565b8181036110015750506110d9565b61100a82610fc8565b67ffffffffffffffff811115611023576110226109c0565b5b61102d8254610c04565b611038828285610db1565b6000601f8311600181146110675760008415611055578287015490505b61105f8582610e22565b8655506110d2565b601f19841661107587610fde565b965061108086610c88565b60005b828110156110a857848901548255600182019150600185019450602081019050611083565b868310156110c557848901546110c1601f891682610e04565b8355505b6001600288020188555050505b5050505050505b565b7f4e487b7100000000000000000000000000000000000000000000000000000000600052603260045260246000fd5b7f4e487b7100000000000000000000000000000000000000000000000000000000600052601160045260246000fd5b600061114482610d0c565b915061114f83610d0c565b92508282019050808211156111675761116661110a565b5b92915050565b600061117882610d0c565b915061118383610d0c565b925082820261119181610d0c565b915082820484148315176111a8576111a761110a565b5b509291505056fea26469706673582212201ca0c98f674eeb9a8d8b65efd604c0048eb50dbc83e6dacefe1b2b75f29fcd8d64736f6c634300081b0033",
  "linkReferences": {},
  "deployedLinkReferences": {}
}