{
  "_format": "hh-sol-artifact-1",
  "contractName": "ODIM",
  "sourceName": "contracts/ODIM.sol",
  "abi": [
    {
      "anonymous": false,
      "inputs": [
        {
          "indexed": false,
          "internalType": "string",
          "name": "addedBy",
          "type": "string"
        },
        {
          "indexed": false,
          "internalType": "string",
          "name": "newIdentity",
          "type": "string"
        }
      ],
      "name": "IdentityAdded",
      "type": "event"
    },
    {
      "anonymous": false,
      "inputs": [
        {
          "indexed": false,
          "internalType": "string",
          "name": "removedBy",
          "type": "string"
        },
        {
          "indexed": false,
          "internalType": "string",
          "name": "removedIdentity",
          "type": "string"
        }
      ],
      "name": "IdentityRemoved",
      "type": "event"
    },
    {
      "inputs": [
        {
          "internalType": "string",
          "name": "newIdentity",
          "type": "string"
        },
        {
          "components": [
            {
              "components": [
                {
                  "internalType": "uint256",
                  "name": "X",
                  "type": "uint256"
                },
                {
                  "internalType": "uint256",
                  "name": "Y",
                  "type": "uint256"
                }
              ],
              "internalType": "struct Pairing.G1Point",
              "name": "a",
              "type": "tuple"
            },
            {
              "components": [
                {
                  "internalType": "uint256[2]",
                  "name": "X",
                  "type": "uint256[2]"
                },
                {
                  "internalType": "uint256[2]",
                  "name": "Y",
                  "type": "uint256[2]"
                }
              ],
              "internalType": "struct Pairing.G2Point",
              "name": "b",
              "type": "tuple"
            },
            {
              "components": [
                {
                  "internalType": "uint256",
                  "name": "X",
                  "type": "uint256"
                },
                {
                  "internalType": "uint256",
                  "name": "Y",
                  "type": "uint256"
                }
              ],
              "internalType": "struct Pairing.G1Point",
              "name": "c",
              "type": "tuple"
            }
          ],
          "internalType": "struct ODIM.Proof",
          "name": "proof",
          "type": "tuple"
        },
        {
          "internalType": "uint256[4]",
          "name": "input",
          "type": "uint256[4]"
        }
      ],
      "name": "addIdentity",
      "outputs": [],
      "stateMutability": "nonpayable",
      "type": "function"
    },
    {
      "inputs": [
        {
          "internalType": "string",
          "name": "key",
          "type": "string"
        }
      ],
      "name": "getNextIdentity",
      "outputs": [
        {
          "internalType": "string",
          "name": "",
          "type": "string"
        }
      ],
      "stateMutability": "view",
      "type": "function"
    },
    {
      "inputs": [
        {
          "internalType": "string",
          "name": "identity",
          "type": "string"
        }
      ],
      "name": "getPublicKey",
      "outputs": [
        {
          "internalType": "uint256[2]",
          "name": "",
          "type": "uint256[2]"
        }
      ],
      "stateMutability": "view",
      "type": "function"
    },
    {
      "inputs": [
        {
          "internalType": "string",
          "name": "toBeRemovedIdentity",
          "type": "string"
        }
      ],
      "name": "removeIdentity",
      "outputs": [],
      "stateMutability": "nonpayable",
      "type": "function"
    },
    {
      "inputs": [
        {
          "components": [
            {
              "components": [
                {
                  "internalType": "uint256",
                  "name": "X",
                  "type": "uint256"
                },
                {
                  "internalType": "uint256",
                  "name": "Y",
                  "type": "uint256"
                }
              ],
              "internalType": "struct Pairing.G1Point",
              "name": "a",
              "type": "tuple"
            },
            {
              "components": [
                {
                  "internalType": "uint256[2]",
                  "name": "X",
                  "type": "uint256[2]"
                },
                {
                  "internalType": "uint256[2]",
                  "name": "Y",
                  "type": "uint256[2]"
                }
              ],
              "internalType": "struct Pairing.G2Point",
              "name": "b",
              "type": "tuple"
            },
            {
              "components": [
                {
                  "internalType": "uint256",
                  "name": "X",
                  "type": "uint256"
                },
                {
                  "internalType": "uint256",
                  "name": "Y",
                  "type": "uint256"
                }
              ],
              "internalType": "struct Pairing.G1Point",
              "name": "c",
              "type": "tuple"
            }
          ],
          "internalType": "struct ODIM.Proof",
          "name": "proof",
          "type": "tuple"
        },
        {
          "internalType": "uint256[4]",
          "name": "input",
          "type": "uint256[4]"
        }
      ],
      "name": "verifyTx",
      "outputs": [
        {
          "internalType": "bool",
          "name": "r",
          "type": "bool"
        }
      ],
      "stateMutability": "view",
      "type": "function"
    }
  ],
  "bytecode": "0x6080604052348015600f57600080fd5b50612cba8061001f6000396000f3fe608060405234801561001057600080fd5b50600436106100575760003560e01c8063055d24c11461005c57806309f1ae081461008c578063799afa76146100a8578063bff90821146100d8578063ca364a3a14610108575b600080fd5b61007660048036038101906100719190611dcc565b610124565b6040516100839190611e94565b60405180910390f35b6100a660048036038101906100a1919061215d565b6101d4565b005b6100c260048036038101906100bd91906121ce565b610485565b6040516100cf919061222b565b60405180910390f35b6100f260048036038101906100ed9190611dcc565b61054c565b6040516100ff91906122f1565b60405180910390f35b610122600480360381019061011d9190611dcc565b6105b5565b005b60606000826040516101369190612348565b9081526020016040518091039020805461014f9061238e565b80601f016020809104026020016040519081016040528092919081815260200182805461017b9061238e565b80156101c85780601f1061019d576101008083540402835291602001916101c8565b820191906000526020600020905b8154815290600101906020018083116101ab57829003601f168201915b50505050509050919050565b600080846040516101e59190612348565b908152602001604051809103902080546101fe9061238e565b905014610240576040517f08c379a000000000000000000000000000000000000000000000000000000000815260040161023790612431565b60405180910390fd5b61024a8282610485565b610289576040517f08c379a0000000000000000000000000000000000000000000000000000000008152600401610280906124c3565b60405180910390fd5b6040518060400160405280826000600481106102a8576102a76124e3565b5b60200201518152602001826001600481106102c6576102c56124e3565b5b60200201518152506001846040516102de9190612348565b90815260200160405180910390209060026102fa929190611af8565b506000610306336109b6565b9050600080826040516103199190612348565b908152602001604051809103902080546103329061238e565b80601f016020809104026020016040519081016040528092919081815260200182805461035e9061238e565b80156103ab5780601f10610380576101008083540402835291602001916103ab565b820191906000526020600020905b81548152906001019060200180831161038e57829003601f168201915b50505050509050846000836040516103c39190612348565b908152602001604051809103902090816103dd91906126be565b50600081510361041857816000866040516103f89190612348565b9081526020016040518091039020908161041291906126be565b50610445565b806000866040516104299190612348565b9081526020016040518091039020908161044391906126be565b505b7fa758369d21d836b8337f4e4928fa9645a718ce6cb6d395f8d77e81d1c8f0d5608286604051610476929190612790565b60405180910390a15050505050565b600080600467ffffffffffffffff8111156104a3576104a2611ca1565b5b6040519080825280602002602001820160405280156104d15781602001602082028036833780820191505090505b50905060005b6004811015610524578381600481106104f3576104f26124e3565b5b602002015182828151811061050b5761050a6124e3565b5b60200260200101818152505080806001019150506104d7565b5060006105318286610ccf565b03610540576001915050610546565b60009150505b92915050565b610554611b38565b6001826040516105649190612348565b90815260200160405180910390206002806020026040519081016040528092919082600280156105a9576020028201915b815481526020019060010190808311610595575b50505050509050919050565b600080826040516105c69190612348565b908152602001604051809103902080546105df9061238e565b905003610621576040517f08c379a000000000000000000000000000000000000000000000000000000000815260040161061890612839565b60405180910390fd5b600061062c336109b6565b90506000826040516020016106419190612348565b60405160208183030381529060405280519060200120905060008260405160200161066c9190612348565b60405160208183030381529060405280519060200120905060008390506000808560405161069a9190612348565b908152602001604051809103902080546106b39061238e565b80601f01602080910402602001604051908101604052809291908181526020018280546106df9061238e565b801561072c5780601f106107015761010080835404028352916020019161072c565b820191906000526020600020905b81548152906001019060200180831161070f57829003601f168201915b505050505090506000815103610777576040517f08c379a000000000000000000000000000000000000000000000000000000000815260040161076e906128cb565b60405180910390fd5b60008160405160200161078a9190612348565b6040516020818303038152906040528051906020012090505b8085146108c6578381036107ec576040517f08c379a00000000000000000000000000000000000000000000000000000000081526004016107e390612983565b60405180910390fd5b8192506000826040516107ff9190612348565b908152602001604051809103902080546108189061238e565b80601f01602080910402602001604051908101604052809291908181526020018280546108449061238e565b80156108915780601f1061086657610100808354040283529160200191610891565b820191906000526020600020905b81548152906001019060200180831161087457829003601f168201915b50505050509150816040516020016108a99190612348565b6040516020818303038152906040528051906020012090506107a3565b6000876040516108d69190612348565b90815260200160405180910390206000846040516108f49190612348565b9081526020016040518091039020908161090e91906129ce565b506040518060200160405280600081525060008860405161092f9190612348565b9081526020016040518091039020908161094991906126be565b5060018760405161095a9190612348565b908152602001604051809103902060006109749190611b5a565b7f71d4b586de62e0dd07f2ab987f1b608166194d3f4b54d915e8a10f4a5c957f8186886040516109a5929190612790565b60405180910390a150505050505050565b60606000826040516020016109cb9190612b30565b604051602081830303815290604052905060006040518060400160405280601081526020017f30313233343536373839616263646566000000000000000000000000000000008152509050600060028351610a269190612b7a565b6002610a329190612bbc565b67ffffffffffffffff811115610a4b57610a4a611ca1565b5b6040519080825280601f01601f191660200182016040528015610a7d5781602001600182028036833780820191505090505b5090507f300000000000000000000000000000000000000000000000000000000000000081600081518110610ab557610ab46124e3565b5b60200101907effffffffffffffffffffffffffffffffffffffffffffffffffffffffffffff1916908160001a9053507f780000000000000000000000000000000000000000000000000000000000000081600181518110610b1957610b186124e3565b5b60200101907effffffffffffffffffffffffffffffffffffffffffffffffffffffffffffff1916908160001a90535060005b8351811015610cc357826004858381518110610b6a57610b696124e3565b5b602001015160f81c60f81b7effffffffffffffffffffffffffffffffffffffffffffffffffffffffffffff1916901c60f81c60ff1681518110610bb057610baf6124e3565b5b602001015160f81c60f81b82600283610bc99190612b7a565b6002610bd59190612bbc565b81518110610be657610be56124e3565b5b60200101907effffffffffffffffffffffffffffffffffffffffffffffffffffffffffffff1916908160001a90535082600f60f81b858381518110610c2e57610c2d6124e3565b5b602001015160f81c60f81b1660f81c60ff1681518110610c5157610c506124e3565b5b602001015160f81c60f81b82600283610c6a9190612b7a565b6003610c769190612bbc565b81518110610c8757610c866124e3565b5b60200101907effffffffffffffffffffffffffffffffffffffffffffffffffffffffffffff1916908160001a9053508080600101915050610b4b565b50809350505050919050565b6000807f30644e72e131a029b85045b68181585d2833e84879b9709143e1f593f000000190506000610cff610e60565b905080608001515160018651610d159190612bbc565b14610d1f57600080fd5b60006040518060400160405280600081526020016000815250905060005b8651811015610dd25783878281518110610d5a57610d596124e3565b5b602002602001015110610d6c57600080fd5b610dc382610dbe8560800151600185610d859190612bbc565b81518110610d9657610d956124e3565b5b60200260200101518a8581518110610db157610db06124e3565b5b60200260200101516113cc565b61146e565b91508080600101915050610d3d565b50610dfc818360800151600081518110610def57610dee6124e3565b5b602002602001015161146e565b9050610e4285600001518660200151610e1484611536565b8560400151610e268a60400151611536565b8760600151610e388960000151611536565b89602001516115db565b610e525760019350505050610e5a565b600093505050505b92915050565b610e68611b68565b60405180604001604052807f2f5e6af506b96774e2925365c3321345ab256e893511ffa46ecd791a2b287b6081526020017f05a0204a91ba0d8e72ecafd94fc63edcd0a2cca50e7549d0d83bb0b0b000942a8152508160000181905250604051806040016040528060405180604001604052807f0fc4d876c4b0000d6d623ccedefe8ea74e434f530b1dbc983368bf04934235ed81526020017f1fdd473eb14c6bdf4bd5657cc16142d3202f5e3bdc4154643552718d7e94010c815250815260200160405180604001604052807f28ea5438112033a6f687d6cc45889e190ac48e6d8531961dc40978ffb8d9d19081526020017f158e624699f5391e0dc3a137f641ab56ba79d2e716606da48f7b836a5931e8108152508152508160200181905250604051806040016040528060405180604001604052807f0b53988a08178909f759edcd1a77ea41715ad14c7caf6157acd583dc41a9b31081526020017f14791244c423d2beb727a55784b31fcb5d92f0a7e192f2e3f9b7752633d56cbf815250815260200160405180604001604052807f1b624abd12a5810d8d16ee53cc9cfba66de28fddc0674b60b6944970c471909481526020017f09df1760dd611dee6de8572575ab0b8142e7557be61334c05b63d30df9d08b428152508152508160400181905250604051806040016040528060405180604001604052807f1f74b0713025db4df4578d294f8b8f621810939fac569cc7d79ad4918085377681526020017f16f23c3152a8e86756a5d93344b1ce5cdee88178d2508ad22522d1dd373260ed815250815260200160405180604001604052807f1034505b233386f7d899b1578ca346bc2dc0b5b000713ec6300761c70bf716b381526020017f19e53e7bd2b633e93403afbd9a03ffd158fc363d8af40ed1cb7df23b339a21d58152508152508160600181905250600567ffffffffffffffff81111561112f5761112e611ca1565b5b60405190808252806020026020018201604052801561116857816020015b611155611baf565b81526020019060019003908161114d5790505b50816080018190525060405180604001604052807f25bd36b30a82e6f6ac8621d99e20a8af6ca97da2d7b5fe880901d61e60ae1ca181526020017f20eaaa7f9fae79f789f96dff742170c6e5fd18c96c284d75489cd66f659e63ba81525081608001516000815181106111de576111dd6124e3565b5b602002602001018190525060405180604001604052807f2b8507accbf4846476aafb36dad3c7f9694b317cf4951b1444de897a27bb3a4181526020017f154be64c8b3b929a656048310f46ea999c243fa3931ef5febd675542f4b1bed28152508160800151600181518110611256576112556124e3565b5b602002602001018190525060405180604001604052807f298e5732c627eed58eb7f7a58df2ac1699fe27953e3ac249a27d24ad2a2c3f4d81526020017f059cc84bfd7b0fb48297cbfbd56a05248ed2819265bb9fc0079ce4f21d4e70ed81525081608001516002815181106112ce576112cd6124e3565b5b602002602001018190525060405180604001604052807f0838c912682118e141da1ec9eb259c180f860f28646729f361d94c94a8aa727f81526020017f01809de65884e45c1229794a15468011dfc04b37afcc2ed1fba1fb508457e9ac8152508160800151600381518110611346576113456124e3565b5b602002602001018190525060405180604001604052807f0462ce76cc1ed5d937aeb12932b1caff41052f0940e8527aafda3d080b677ba681526020017f15b1f680bde4e1a42ec7a624ccc1083270aecf263137602f54ef7db91440a0dd81525081608001516004815181106113be576113bd6124e3565b5b602002602001018190525090565b6113d4611baf565b6113dc611bc9565b8360000151816000600381106113f5576113f46124e3565b5b602002018181525050836020015181600160038110611417576114166124e3565b5b6020020181815250508281600260038110611435576114346124e3565b5b602002018181525050600060608360808460076107d05a03fa9050806000810361145b57fe5b508061146657600080fd5b505092915050565b611476611baf565b61147e611beb565b836000015181600060048110611497576114966124e3565b5b6020020181815250508360200151816001600481106114b9576114b86124e3565b5b6020020181815250508260000151816002600481106114db576114da6124e3565b5b6020020181815250508260200151816003600481106114fd576114fc6124e3565b5b602002018181525050600060608360c08460066107d05a03fa9050806000810361152357fe5b508061152e57600080fd5b505092915050565b61153e611baf565b60007f30644e72e131a029b85045b68181585d97816a916871ca8d3c208c16d87cfd4790506000836000015114801561157b575060008360200151145b1561159f5760405180604001604052806000815260200160008152509150506115d6565b6040518060400160405280846000015181526020018285602001516115c49190612c1f565b836115cf9190612c50565b8152509150505b919050565b600080600467ffffffffffffffff8111156115f9576115f8611ca1565b5b60405190808252806020026020018201604052801561163257816020015b61161f611baf565b8152602001906001900390816116175790505b5090506000600467ffffffffffffffff81111561165257611651611ca1565b5b60405190808252806020026020018201604052801561168b57816020015b611678611c0d565b8152602001906001900390816116705790505b5090508a826000815181106116a3576116a26124e3565b5b602002602001018190525088826001815181106116c3576116c26124e3565b5b602002602001018190525086826002815181106116e3576116e26124e3565b5b60200260200101819052508482600381518110611703576117026124e3565b5b60200260200101819052508981600081518110611723576117226124e3565b5b60200260200101819052508781600181518110611743576117426124e3565b5b60200260200101819052508581600281518110611763576117626124e3565b5b60200260200101819052508381600381518110611783576117826124e3565b5b602002602001018190525061179882826117a8565b9250505098975050505050505050565b600081518351146117b857600080fd5b60008351905060006006826117cd9190612b7a565b905060008167ffffffffffffffff8111156117eb576117ea611ca1565b5b6040519080825280602002602001820160405280156118195781602001602082028036833780820191505090505b50905060005b83811015611a985786818151811061183a576118396124e3565b5b6020026020010151600001518260006006846118569190612b7a565b6118609190612bbc565b81518110611871576118706124e3565b5b6020026020010181815250508681815181106118905761188f6124e3565b5b6020026020010151602001518260016006846118ac9190612b7a565b6118b69190612bbc565b815181106118c7576118c66124e3565b5b6020026020010181815250508581815181106118e6576118e56124e3565b5b602002602001015160000151600160028110611905576119046124e3565b5b602002015182600260068461191a9190612b7a565b6119249190612bbc565b81518110611935576119346124e3565b5b602002602001018181525050858181518110611954576119536124e3565b5b602002602001015160000151600060028110611973576119726124e3565b5b60200201518260036006846119889190612b7a565b6119929190612bbc565b815181106119a3576119a26124e3565b5b6020026020010181815250508581815181106119c2576119c16124e3565b5b6020026020010151602001516001600281106119e1576119e06124e3565b5b60200201518260046006846119f69190612b7a565b611a009190612bbc565b81518110611a1157611a106124e3565b5b602002602001018181525050858181518110611a3057611a2f6124e3565b5b602002602001015160200151600060028110611a4f57611a4e6124e3565b5b6020020151826005600684611a649190612b7a565b611a6e9190612bbc565b81518110611a7f57611a7e6124e3565b5b602002602001018181525050808060010191505061181f565b50611aa1611c33565b6000602082602086026020860160086107d05a03fa90508060008103611ac357fe5b5080611ace57600080fd5b600082600060018110611ae457611ae36124e3565b5b602002015114159550505050505092915050565b8260028101928215611b27579160200282015b82811115611b26578251825591602001919060010190611b0b565b5b509050611b349190611c55565b5090565b6040518060400160405280600290602082028036833780820191505090505090565b506000815560010160009055565b6040518060a00160405280611b7b611baf565b8152602001611b88611c0d565b8152602001611b95611c0d565b8152602001611ba2611c0d565b8152602001606081525090565b604051806040016040528060008152602001600081525090565b6040518060600160405280600390602082028036833780820191505090505090565b6040518060800160405280600490602082028036833780820191505090505090565b6040518060400160405280611c20611b38565b8152602001611c2d611b38565b81525090565b6040518060200160405280600190602082028036833780820191505090505090565b5b80821115611c6e576000816000905550600101611c56565b5090565b6000604051905090565b600080fd5b600080fd5b600080fd5b600080fd5b6000601f19601f8301169050919050565b7f4e487b7100000000000000000000000000000000000000000000000000000000600052604160045260246000fd5b611cd982611c90565b810181811067ffffffffffffffff82111715611cf857611cf7611ca1565b5b80604052505050565b6000611d0b611c72565b9050611d178282611cd0565b919050565b600067ffffffffffffffff821115611d3757611d36611ca1565b5b611d4082611c90565b9050602081019050919050565b82818337600083830152505050565b6000611d6f611d6a84611d1c565b611d01565b905082815260208101848484011115611d8b57611d8a611c8b565b5b611d96848285611d4d565b509392505050565b600082601f830112611db357611db2611c86565b5b8135611dc3848260208601611d5c565b91505092915050565b600060208284031215611de257611de1611c7c565b5b600082013567ffffffffffffffff811115611e0057611dff611c81565b5b611e0c84828501611d9e565b91505092915050565b600081519050919050565b600082825260208201905092915050565b60005b83811015611e4f578082015181840152602081019050611e34565b60008484015250505050565b6000611e6682611e15565b611e708185611e20565b9350611e80818560208601611e31565b611e8981611c90565b840191505092915050565b60006020820190508181036000830152611eae8184611e5b565b905092915050565b600080fd5b6000819050919050565b611ece81611ebb565b8114611ed957600080fd5b50565b600081359050611eeb81611ec5565b92915050565b600060408284031215611f0757611f06611eb6565b5b611f116040611d01565b90506000611f2184828501611edc565b6000830152506020611f3584828501611edc565b60208301525092915050565b600067ffffffffffffffff821115611f5c57611f5b611ca1565b5b602082029050919050565b600080fd5b6000611f7f611f7a84611f41565b611d01565b90508060208402830185811115611f9957611f98611f67565b5b835b81811015611fc25780611fae8882611edc565b845260208401935050602081019050611f9b565b5050509392505050565b600082601f830112611fe157611fe0611c86565b5b6002611fee848285611f6c565b91505092915050565b60006080828403121561200d5761200c611eb6565b5b6120176040611d01565b9050600061202784828501611fcc565b600083015250604061203b84828501611fcc565b60208301525092915050565b6000610100828403121561205e5761205d611eb6565b5b6120686060611d01565b9050600061207884828501611ef1565b600083015250604061208c84828501611ff7565b60208301525060c06120a084828501611ef1565b60408301525092915050565b600067ffffffffffffffff8211156120c7576120c6611ca1565b5b602082029050919050565b60006120e56120e0846120ac565b611d01565b905080602084028301858111156120ff576120fe611f67565b5b835b8181101561212857806121148882611edc565b845260208401935050602081019050612101565b5050509392505050565b600082601f83011261214757612146611c86565b5b60046121548482856120d2565b91505092915050565b60008060006101a0848603121561217757612176611c7c565b5b600084013567ffffffffffffffff81111561219557612194611c81565b5b6121a186828701611d9e565b93505060206121b286828701612047565b9250506101206121c486828701612132565b9150509250925092565b60008061018083850312156121e6576121e5611c7c565b5b60006121f485828601612047565b92505061010061220685828601612132565b9150509250929050565b60008115159050919050565b61222581612210565b82525050565b6000602082019050612240600083018461221c565b92915050565b600060029050919050565b600081905092915050565b6000819050919050565b61226f81611ebb565b82525050565b60006122818383612266565b60208301905092915050565b6000602082019050919050565b6122a381612246565b6122ad8184612251565b92506122b88261225c565b8060005b838110156122e95781516122d08782612275565b96506122db8361228d565b9250506001810190506122bc565b505050505050565b6000604082019050612306600083018461229a565b92915050565b600081905092915050565b600061232282611e15565b61232c818561230c565b935061233c818560208601611e31565b80840191505092915050565b60006123548284612317565b915081905092915050565b7f4e487b7100000000000000000000000000000000000000000000000000000000600052602260045260246000fd5b600060028204905060018216806123a657607f821691505b6020821081036123b9576123b861235f565b5b50919050565b7f6e65774964656e7469747920697320616c72656164792070617274206f66207260008201527f656769737465726564206964656e746974696573000000000000000000000000602082015250565b600061241b603483611e20565b9150612426826123bf565b604082019050919050565b6000602082019050818103600083015261244a8161240e565b9050919050565b7f70726f76696e67206f776e657273686970206f66206e65774964656e7469747960008201527f206661696c656400000000000000000000000000000000000000000000000000602082015250565b60006124ad602783611e20565b91506124b882612451565b604082019050919050565b600060208201905081810360008301526124dc816124a0565b9050919050565b7f4e487b7100000000000000000000000000000000000000000000000000000000600052603260045260246000fd5b60008190508160005260206000209050919050565b60006020601f8301049050919050565b600082821b905092915050565b6000600883026125747fffffffffffffffffffffffffffffffffffffffffffffffffffffffffffffffff82612537565b61257e8683612537565b95508019841693508086168417925050509392505050565b6000819050919050565b60006125bb6125b66125b184611ebb565b612596565b611ebb565b9050919050565b6000819050919050565b6125d5836125a0565b6125e96125e1826125c2565b848454612544565b825550505050565b600090565b6125fe6125f1565b6126098184846125cc565b505050565b5b8181101561262d576126226000826125f6565b60018101905061260f565b5050565b601f8211156126725761264381612512565b61264c84612527565b8101602085101561265b578190505b61266f61266785612527565b83018261260e565b50505b505050565b600082821c905092915050565b600061269560001984600802612677565b1980831691505092915050565b60006126ae8383612684565b9150826002028217905092915050565b6126c782611e15565b67ffffffffffffffff8111156126e0576126df611ca1565b5b6126ea825461238e565b6126f5828285612631565b600060209050601f8311600181146127285760008415612716578287015190505b61272085826126a2565b865550612788565b601f19841661273686612512565b60005b8281101561275e57848901518255600182019150602085019450602081019050612739565b8683101561277b5784890151612777601f891682612684565b8355505b6001600288020188555050505b505050505050565b600060408201905081810360008301526127aa8185611e5b565b905081810360208301526127be8184611e5b565b90509392505050565b7f746f426552656d6f7665644964656e74697479206973206e6f7420706172742060008201527f6f662072656769737465726564206964656e7469746965730000000000000000602082015250565b6000612823603883611e20565b915061282e826127c7565b604082019050919050565b6000602082019050818103600083015261285281612816565b9050919050565b7f6d73672e73656e646572206973206e6f742070617274206f662072656769737460008201527f65726564206964656e7469746965730000000000000000000000000000000000602082015250565b60006128b5602f83611e20565b91506128c082612859565b604082019050919050565b600060208201905081810360008301526128e4816128a8565b9050919050565b7f746f426552656d6f7665644964656e74697479206973206e6f7420706172742060008201527f6f66206d73672e73656e64657227732063697263756c6172206c696e6b65642060208201527f6c697374206f66206964656e7469746965730000000000000000000000000000604082015250565b600061296d605283611e20565b9150612978826128eb565b606082019050919050565b6000602082019050818103600083015261299c81612960565b9050919050565b6000815490506129b28161238e565b9050919050565b60008190508160005260206000209050919050565b8181036129dc575050612ab4565b6129e5826129a3565b67ffffffffffffffff8111156129fe576129fd611ca1565b5b612a08825461238e565b612a13828285612631565b6000601f831160018114612a425760008415612a30578287015490505b612a3a85826126a2565b865550612aad565b601f198416612a50876129b9565b9650612a5b86612512565b60005b82811015612a8357848901548255600182019150600185019450602081019050612a5e565b86831015612aa05784890154612a9c601f891682612684565b8355505b6001600288020188555050505b5050505050505b565b600073ffffffffffffffffffffffffffffffffffffffff82169050919050565b6000612ae182612ab6565b9050919050565b60008160601b9050919050565b6000612b0082612ae8565b9050919050565b6000612b1282612af5565b9050919050565b612b2a612b2582612ad6565b612b07565b82525050565b6000612b3c8284612b19565b60148201915081905092915050565b7f4e487b7100000000000000000000000000000000000000000000000000000000600052601160045260246000fd5b6000612b8582611ebb565b9150612b9083611ebb565b9250828202612b9e81611ebb565b91508282048414831517612bb557612bb4612b4b565b5b5092915050565b6000612bc782611ebb565b9150612bd283611ebb565b9250828201905080821115612bea57612be9612b4b565b5b92915050565b7f4e487b7100000000000000000000000000000000000000000000000000000000600052601260045260246000fd5b6000612c2a82611ebb565b9150612c3583611ebb565b925082612c4557612c44612bf0565b5b828206905092915050565b6000612c5b82611ebb565b9150612c6683611ebb565b9250828203905081811115612c7e57612c7d612b4b565b5b9291505056fea2646970667358221220c1cf906f6383180c0005bbe76b3bfde223c58813f6597f7f5fb9699f2b96aae464736f6c634300081b0033",
  "linkReferences": {},
  "deployedLinkReferences": {}
}