{
  "_format": "hh-sol-artifact-1",
  "contractName": "Verifier",
  "sourceName": "contracts/Verifier.sol",
  "abi": [
    {
      "anonymous": false,
      "inputs": [
        {
          "indexed": false,
          "internalType": "string",
          "name": "addedBy",
          "type": "string"
        },
        {
          "indexed": false,
          "internalType": "string",
          "name": "newIdentity",
          "type": "string"
        }
      ],
      "name": "IdentityAdded",
      "type": "event"
    },
    {
      "inputs": [
        {
          "internalType": "string",
          "name": "newIdentity",
          "type": "string"
        },
        {
          "components": [
            {
              "components": [
                {
                  "internalType": "uint256",
                  "name": "X",
                  "type": "uint256"
                },
                {
                  "internalType": "uint256",
                  "name": "Y",
                  "type": "uint256"
                }
              ],
              "internalType": "struct Pairing.G1Point",
              "name": "a",
              "type": "tuple"
            },
            {
              "components": [
                {
                  "internalType": "uint256[2]",
                  "name": "X",
                  "type": "uint256[2]"
                },
                {
                  "internalType": "uint256[2]",
                  "name": "Y",
                  "type": "uint256[2]"
                }
              ],
              "internalType": "struct Pairing.G2Point",
              "name": "b",
              "type": "tuple"
            },
            {
              "components": [
                {
                  "internalType": "uint256",
                  "name": "X",
                  "type": "uint256"
                },
                {
                  "internalType": "uint256",
                  "name": "Y",
                  "type": "uint256"
                }
              ],
              "internalType": "struct Pairing.G1Point",
              "name": "c",
              "type": "tuple"
            }
          ],
          "internalType": "struct Verifier.Proof",
          "name": "proof",
          "type": "tuple"
        },
        {
          "internalType": "uint256[4]",
          "name": "input",
          "type": "uint256[4]"
        }
      ],
      "name": "addIdentity",
      "outputs": [],
      "stateMutability": "nonpayable",
      "type": "function"
    },
    {
      "inputs": [
        {
          "internalType": "string",
          "name": "key",
          "type": "string"
        }
      ],
      "name": "getNextIdentity",
      "outputs": [
        {
          "internalType": "string",
          "name": "",
          "type": "string"
        }
      ],
      "stateMutability": "view",
      "type": "function"
    },
    {
      "inputs": [
        {
          "internalType": "string",
          "name": "key",
          "type": "string"
        }
      ],
      "name": "getPublicKey",
      "outputs": [
        {
          "internalType": "uint256[2]",
          "name": "",
          "type": "uint256[2]"
        }
      ],
      "stateMutability": "view",
      "type": "function"
    },
    {
      "inputs": [
        {
          "internalType": "string",
          "name": "",
          "type": "string"
        }
      ],
      "name": "identities",
      "outputs": [
        {
          "internalType": "string",
          "name": "",
          "type": "string"
        }
      ],
      "stateMutability": "view",
      "type": "function"
    },
    {
      "inputs": [
        {
          "internalType": "string",
          "name": "",
          "type": "string"
        },
        {
          "internalType": "uint256",
          "name": "",
          "type": "uint256"
        }
      ],
      "name": "publicKeys",
      "outputs": [
        {
          "internalType": "uint256",
          "name": "",
          "type": "uint256"
        }
      ],
      "stateMutability": "view",
      "type": "function"
    },
    {
      "inputs": [
        {
          "internalType": "string",
          "name": "toBeRemovedIdentity",
          "type": "string"
        }
      ],
      "name": "removeIdentity",
      "outputs": [],
      "stateMutability": "nonpayable",
      "type": "function"
    },
    {
      "inputs": [
        {
          "components": [
            {
              "components": [
                {
                  "internalType": "uint256",
                  "name": "X",
                  "type": "uint256"
                },
                {
                  "internalType": "uint256",
                  "name": "Y",
                  "type": "uint256"
                }
              ],
              "internalType": "struct Pairing.G1Point",
              "name": "a",
              "type": "tuple"
            },
            {
              "components": [
                {
                  "internalType": "uint256[2]",
                  "name": "X",
                  "type": "uint256[2]"
                },
                {
                  "internalType": "uint256[2]",
                  "name": "Y",
                  "type": "uint256[2]"
                }
              ],
              "internalType": "struct Pairing.G2Point",
              "name": "b",
              "type": "tuple"
            },
            {
              "components": [
                {
                  "internalType": "uint256",
                  "name": "X",
                  "type": "uint256"
                },
                {
                  "internalType": "uint256",
                  "name": "Y",
                  "type": "uint256"
                }
              ],
              "internalType": "struct Pairing.G1Point",
              "name": "c",
              "type": "tuple"
            }
          ],
          "internalType": "struct Verifier.Proof",
          "name": "proof",
          "type": "tuple"
        },
        {
          "internalType": "uint256[4]",
          "name": "input",
          "type": "uint256[4]"
        }
      ],
      "name": "verifyTx",
      "outputs": [
        {
          "internalType": "bool",
          "name": "r",
          "type": "bool"
        }
      ],
      "stateMutability": "view",
      "type": "function"
    }
  ],
  "bytecode": "0x6080604052348015600f57600080fd5b50612e498061001f6000396000f3fe608060405234801561001057600080fd5b506004361061007d5760003560e01c80633619059b1161005b5780633619059b146100fe578063799afa761461012e578063bff908211461015e578063ca364a3a1461018e5761007d565b806301e21afb14610082578063055d24c1146100b257806309f1ae08146100e2575b600080fd5b61009c60048036038101906100979190611ed5565b6101aa565b6040516100a99190611f9d565b60405180910390f35b6100cc60048036038101906100c79190611ed5565b610260565b6040516100d99190611f9d565b60405180910390f35b6100fc60048036038101906100f79190612266565b610310565b005b610118600480360381019061011391906122d7565b6105c1565b6040516101259190612342565b60405180910390f35b6101486004803603810190610143919061235d565b6105ff565b60405161015591906123ba565b60405180910390f35b61017860048036038101906101739190611ed5565b6106c6565b6040516101859190612480565b60405180910390f35b6101a860048036038101906101a39190611ed5565b61072f565b005b60008180516020810182018051848252602083016020850120818352809550505050505060009150905080546101df906124ca565b80601f016020809104026020016040519081016040528092919081815260200182805461020b906124ca565b80156102585780601f1061022d57610100808354040283529160200191610258565b820191906000526020600020905b81548152906001019060200180831161023b57829003601f168201915b505050505081565b60606000826040516102729190612537565b9081526020016040518091039020805461028b906124ca565b80601f01602080910402602001604051908101604052809291908181526020018280546102b7906124ca565b80156103045780601f106102d957610100808354040283529160200191610304565b820191906000526020600020905b8154815290600101906020018083116102e757829003601f168201915b50505050509050919050565b600080846040516103219190612537565b9081526020016040518091039020805461033a906124ca565b90501461037c576040517f08c379a0000000000000000000000000000000000000000000000000000000008152600401610373906125c0565b60405180910390fd5b61038682826105ff565b6103c5576040517f08c379a00000000000000000000000000000000000000000000000000000000081526004016103bc90612652565b60405180910390fd5b6040518060400160405280826000600481106103e4576103e3612672565b5b602002015181526020018260016004811061040257610401612672565b5b602002015181525060018460405161041a9190612537565b9081526020016040518091039020906002610436929190611c0f565b50600061044233610acd565b9050600080826040516104559190612537565b9081526020016040518091039020805461046e906124ca565b80601f016020809104026020016040519081016040528092919081815260200182805461049a906124ca565b80156104e75780601f106104bc576101008083540402835291602001916104e7565b820191906000526020600020905b8154815290600101906020018083116104ca57829003601f168201915b50505050509050846000836040516104ff9190612537565b90815260200160405180910390209081610519919061284d565b50600081510361055457816000866040516105349190612537565b9081526020016040518091039020908161054e919061284d565b50610581565b806000866040516105659190612537565b9081526020016040518091039020908161057f919061284d565b505b7fa758369d21d836b8337f4e4928fa9645a718ce6cb6d395f8d77e81d1c8f0d56082866040516105b292919061291f565b60405180910390a15050505050565b60018280516020810182018051848252602083016020850120818352809550505050505081600281106105f357600080fd5b01600091509150505481565b600080600467ffffffffffffffff81111561061d5761061c611daa565b5b60405190808252806020026020018201604052801561064b5781602001602082028036833780820191505090505b50905060005b600481101561069e5783816004811061066d5761066c612672565b5b602002015182828151811061068557610684612672565b5b6020026020010181815250508080600101915050610651565b5060006106ab8286610de6565b036106ba5760019150506106c0565b60009150505b92915050565b6106ce611c4f565b6001826040516106de9190612537565b9081526020016040518091039020600280602002604051908101604052809291908260028015610723576020028201915b81548152602001906001019080831161070f575b50505050509050919050565b600080826040516107409190612537565b90815260200160405180910390208054610759906124ca565b90500361079b576040517f08c379a0000000000000000000000000000000000000000000000000000000008152600401610792906129c8565b60405180910390fd5b60006107a633610acd565b90506000826040516020016107bb9190612537565b6040516020818303038152906040528051906020012090506000826040516020016107e69190612537565b6040516020818303038152906040528051906020012090506000839050600080856040516108149190612537565b9081526020016040518091039020805461082d906124ca565b80601f0160208091040260200160405190810160405280929190818152602001828054610859906124ca565b80156108a65780601f1061087b576101008083540402835291602001916108a6565b820191906000526020600020905b81548152906001019060200180831161088957829003601f168201915b5050505050905060008151036108f1576040517f08c379a00000000000000000000000000000000000000000000000000000000081526004016108e890612a5a565b60405180910390fd5b6000816040516020016109049190612537565b6040516020818303038152906040528051906020012090505b808514610a4057838103610966576040517f08c379a000000000000000000000000000000000000000000000000000000000815260040161095d90612b12565b60405180910390fd5b8192506000826040516109799190612537565b90815260200160405180910390208054610992906124ca565b80601f01602080910402602001604051908101604052809291908181526020018280546109be906124ca565b8015610a0b5780601f106109e057610100808354040283529160200191610a0b565b820191906000526020600020905b8154815290600101906020018083116109ee57829003601f168201915b5050505050915081604051602001610a239190612537565b60405160208183030381529060405280519060200120905061091d565b600087604051610a509190612537565b9081526020016040518091039020600084604051610a6e9190612537565b90815260200160405180910390209081610a889190612b5d565b5060405180602001604052806000815250600088604051610aa99190612537565b90815260200160405180910390209081610ac3919061284d565b5050505050505050565b6060600082604051602001610ae29190612cbf565b604051602081830303815290604052905060006040518060400160405280601081526020017f30313233343536373839616263646566000000000000000000000000000000008152509050600060028351610b3d9190612d09565b6002610b499190612d4b565b67ffffffffffffffff811115610b6257610b61611daa565b5b6040519080825280601f01601f191660200182016040528015610b945781602001600182028036833780820191505090505b5090507f300000000000000000000000000000000000000000000000000000000000000081600081518110610bcc57610bcb612672565b5b60200101907effffffffffffffffffffffffffffffffffffffffffffffffffffffffffffff1916908160001a9053507f780000000000000000000000000000000000000000000000000000000000000081600181518110610c3057610c2f612672565b5b60200101907effffffffffffffffffffffffffffffffffffffffffffffffffffffffffffff1916908160001a90535060005b8351811015610dda57826004858381518110610c8157610c80612672565b5b602001015160f81c60f81b7effffffffffffffffffffffffffffffffffffffffffffffffffffffffffffff1916901c60f81c60ff1681518110610cc757610cc6612672565b5b602001015160f81c60f81b82600283610ce09190612d09565b6002610cec9190612d4b565b81518110610cfd57610cfc612672565b5b60200101907effffffffffffffffffffffffffffffffffffffffffffffffffffffffffffff1916908160001a90535082600f60f81b858381518110610d4557610d44612672565b5b602001015160f81c60f81b1660f81c60ff1681518110610d6857610d67612672565b5b602001015160f81c60f81b82600283610d819190612d09565b6003610d8d9190612d4b565b81518110610d9e57610d9d612672565b5b60200101907effffffffffffffffffffffffffffffffffffffffffffffffffffffffffffff1916908160001a9053508080600101915050610c62565b50809350505050919050565b6000807f30644e72e131a029b85045b68181585d2833e84879b9709143e1f593f000000190506000610e16610f77565b905080608001515160018651610e2c9190612d4b565b14610e3657600080fd5b60006040518060400160405280600081526020016000815250905060005b8651811015610ee95783878281518110610e7157610e70612672565b5b602002602001015110610e8357600080fd5b610eda82610ed58560800151600185610e9c9190612d4b565b81518110610ead57610eac612672565b5b60200260200101518a8581518110610ec857610ec7612672565b5b60200260200101516114e3565b611585565b91508080600101915050610e54565b50610f13818360800151600081518110610f0657610f05612672565b5b6020026020010151611585565b9050610f5985600001518660200151610f2b8461164d565b8560400151610f3d8a6040015161164d565b8760600151610f4f896000015161164d565b89602001516116f2565b610f695760019350505050610f71565b600093505050505b92915050565b610f7f611c71565b60405180604001604052807f2f5e6af506b96774e2925365c3321345ab256e893511ffa46ecd791a2b287b6081526020017f05a0204a91ba0d8e72ecafd94fc63edcd0a2cca50e7549d0d83bb0b0b000942a8152508160000181905250604051806040016040528060405180604001604052807f0fc4d876c4b0000d6d623ccedefe8ea74e434f530b1dbc983368bf04934235ed81526020017f1fdd473eb14c6bdf4bd5657cc16142d3202f5e3bdc4154643552718d7e94010c815250815260200160405180604001604052807f28ea5438112033a6f687d6cc45889e190ac48e6d8531961dc40978ffb8d9d19081526020017f158e624699f5391e0dc3a137f641ab56ba79d2e716606da48f7b836a5931e8108152508152508160200181905250604051806040016040528060405180604001604052807f0b53988a08178909f759edcd1a77ea41715ad14c7caf6157acd583dc41a9b31081526020017f14791244c423d2beb727a55784b31fcb5d92f0a7e192f2e3f9b7752633d56cbf815250815260200160405180604001604052807f1b624abd12a5810d8d16ee53cc9cfba66de28fddc0674b60b6944970c471909481526020017f09df1760dd611dee6de8572575ab0b8142e7557be61334c05b63d30df9d08b428152508152508160400181905250604051806040016040528060405180604001604052807f1f74b0713025db4df4578d294f8b8f621810939fac569cc7d79ad4918085377681526020017f16f23c3152a8e86756a5d93344b1ce5cdee88178d2508ad22522d1dd373260ed815250815260200160405180604001604052807f1034505b233386f7d899b1578ca346bc2dc0b5b000713ec6300761c70bf716b381526020017f19e53e7bd2b633e93403afbd9a03ffd158fc363d8af40ed1cb7df23b339a21d58152508152508160600181905250600567ffffffffffffffff81111561124657611245611daa565b5b60405190808252806020026020018201604052801561127f57816020015b61126c611cb8565b8152602001906001900390816112645790505b50816080018190525060405180604001604052807f25bd36b30a82e6f6ac8621d99e20a8af6ca97da2d7b5fe880901d61e60ae1ca181526020017f20eaaa7f9fae79f789f96dff742170c6e5fd18c96c284d75489cd66f659e63ba81525081608001516000815181106112f5576112f4612672565b5b602002602001018190525060405180604001604052807f2b8507accbf4846476aafb36dad3c7f9694b317cf4951b1444de897a27bb3a4181526020017f154be64c8b3b929a656048310f46ea999c243fa3931ef5febd675542f4b1bed2815250816080015160018151811061136d5761136c612672565b5b602002602001018190525060405180604001604052807f298e5732c627eed58eb7f7a58df2ac1699fe27953e3ac249a27d24ad2a2c3f4d81526020017f059cc84bfd7b0fb48297cbfbd56a05248ed2819265bb9fc0079ce4f21d4e70ed81525081608001516002815181106113e5576113e4612672565b5b602002602001018190525060405180604001604052807f0838c912682118e141da1ec9eb259c180f860f28646729f361d94c94a8aa727f81526020017f01809de65884e45c1229794a15468011dfc04b37afcc2ed1fba1fb508457e9ac815250816080015160038151811061145d5761145c612672565b5b602002602001018190525060405180604001604052807f0462ce76cc1ed5d937aeb12932b1caff41052f0940e8527aafda3d080b677ba681526020017f15b1f680bde4e1a42ec7a624ccc1083270aecf263137602f54ef7db91440a0dd81525081608001516004815181106114d5576114d4612672565b5b602002602001018190525090565b6114eb611cb8565b6114f3611cd2565b83600001518160006003811061150c5761150b612672565b5b60200201818152505083602001518160016003811061152e5761152d612672565b5b602002018181525050828160026003811061154c5761154b612672565b5b602002018181525050600060608360808460076107d05a03fa9050806000810361157257fe5b508061157d57600080fd5b505092915050565b61158d611cb8565b611595611cf4565b8360000151816000600481106115ae576115ad612672565b5b6020020181815250508360200151816001600481106115d0576115cf612672565b5b6020020181815250508260000151816002600481106115f2576115f1612672565b5b60200201818152505082602001518160036004811061161457611613612672565b5b602002018181525050600060608360c08460066107d05a03fa9050806000810361163a57fe5b508061164557600080fd5b505092915050565b611655611cb8565b60007f30644e72e131a029b85045b68181585d97816a916871ca8d3c208c16d87cfd47905060008360000151148015611692575060008360200151145b156116b65760405180604001604052806000815260200160008152509150506116ed565b6040518060400160405280846000015181526020018285602001516116db9190612dae565b836116e69190612ddf565b8152509150505b919050565b600080600467ffffffffffffffff8111156117105761170f611daa565b5b60405190808252806020026020018201604052801561174957816020015b611736611cb8565b81526020019060019003908161172e5790505b5090506000600467ffffffffffffffff81111561176957611768611daa565b5b6040519080825280602002602001820160405280156117a257816020015b61178f611d16565b8152602001906001900390816117875790505b5090508a826000815181106117ba576117b9612672565b5b602002602001018190525088826001815181106117da576117d9612672565b5b602002602001018190525086826002815181106117fa576117f9612672565b5b6020026020010181905250848260038151811061181a57611819612672565b5b6020026020010181905250898160008151811061183a57611839612672565b5b6020026020010181905250878160018151811061185a57611859612672565b5b6020026020010181905250858160028151811061187a57611879612672565b5b6020026020010181905250838160038151811061189a57611899612672565b5b60200260200101819052506118af82826118bf565b9250505098975050505050505050565b600081518351146118cf57600080fd5b60008351905060006006826118e49190612d09565b905060008167ffffffffffffffff81111561190257611901611daa565b5b6040519080825280602002602001820160405280156119305781602001602082028036833780820191505090505b50905060005b83811015611baf5786818151811061195157611950612672565b5b60200260200101516000015182600060068461196d9190612d09565b6119779190612d4b565b8151811061198857611987612672565b5b6020026020010181815250508681815181106119a7576119a6612672565b5b6020026020010151602001518260016006846119c39190612d09565b6119cd9190612d4b565b815181106119de576119dd612672565b5b6020026020010181815250508581815181106119fd576119fc612672565b5b602002602001015160000151600160028110611a1c57611a1b612672565b5b6020020151826002600684611a319190612d09565b611a3b9190612d4b565b81518110611a4c57611a4b612672565b5b602002602001018181525050858181518110611a6b57611a6a612672565b5b602002602001015160000151600060028110611a8a57611a89612672565b5b6020020151826003600684611a9f9190612d09565b611aa99190612d4b565b81518110611aba57611ab9612672565b5b602002602001018181525050858181518110611ad957611ad8612672565b5b602002602001015160200151600160028110611af857611af7612672565b5b6020020151826004600684611b0d9190612d09565b611b179190612d4b565b81518110611b2857611b27612672565b5b602002602001018181525050858181518110611b4757611b46612672565b5b602002602001015160200151600060028110611b6657611b65612672565b5b6020020151826005600684611b7b9190612d09565b611b859190612d4b565b81518110611b9657611b95612672565b5b6020026020010181815250508080600101915050611936565b50611bb8611d3c565b6000602082602086026020860160086107d05a03fa90508060008103611bda57fe5b5080611be557600080fd5b600082600060018110611bfb57611bfa612672565b5b602002015114159550505050505092915050565b8260028101928215611c3e579160200282015b82811115611c3d578251825591602001919060010190611c22565b5b509050611c4b9190611d5e565b5090565b6040518060400160405280600290602082028036833780820191505090505090565b6040518060a00160405280611c84611cb8565b8152602001611c91611d16565b8152602001611c9e611d16565b8152602001611cab611d16565b8152602001606081525090565b604051806040016040528060008152602001600081525090565b6040518060600160405280600390602082028036833780820191505090505090565b6040518060800160405280600490602082028036833780820191505090505090565b6040518060400160405280611d29611c4f565b8152602001611d36611c4f565b81525090565b6040518060200160405280600190602082028036833780820191505090505090565b5b80821115611d77576000816000905550600101611d5f565b5090565b6000604051905090565b600080fd5b600080fd5b600080fd5b600080fd5b6000601f19601f8301169050919050565b7f4e487b7100000000000000000000000000000000000000000000000000000000600052604160045260246000fd5b611de282611d99565b810181811067ffffffffffffffff82111715611e0157611e00611daa565b5b80604052505050565b6000611e14611d7b565b9050611e208282611dd9565b919050565b600067ffffffffffffffff821115611e4057611e3f611daa565b5b611e4982611d99565b9050602081019050919050565b82818337600083830152505050565b6000611e78611e7384611e25565b611e0a565b905082815260208101848484011115611e9457611e93611d94565b5b611e9f848285611e56565b509392505050565b600082601f830112611ebc57611ebb611d8f565b5b8135611ecc848260208601611e65565b91505092915050565b600060208284031215611eeb57611eea611d85565b5b600082013567ffffffffffffffff811115611f0957611f08611d8a565b5b611f1584828501611ea7565b91505092915050565b600081519050919050565b600082825260208201905092915050565b60005b83811015611f58578082015181840152602081019050611f3d565b60008484015250505050565b6000611f6f82611f1e565b611f798185611f29565b9350611f89818560208601611f3a565b611f9281611d99565b840191505092915050565b60006020820190508181036000830152611fb78184611f64565b905092915050565b600080fd5b6000819050919050565b611fd781611fc4565b8114611fe257600080fd5b50565b600081359050611ff481611fce565b92915050565b6000604082840312156120105761200f611fbf565b5b61201a6040611e0a565b9050600061202a84828501611fe5565b600083015250602061203e84828501611fe5565b60208301525092915050565b600067ffffffffffffffff82111561206557612064611daa565b5b602082029050919050565b600080fd5b60006120886120838461204a565b611e0a565b905080602084028301858111156120a2576120a1612070565b5b835b818110156120cb57806120b78882611fe5565b8452602084019350506020810190506120a4565b5050509392505050565b600082601f8301126120ea576120e9611d8f565b5b60026120f7848285612075565b91505092915050565b60006080828403121561211657612115611fbf565b5b6121206040611e0a565b90506000612130848285016120d5565b6000830152506040612144848285016120d5565b60208301525092915050565b6000610100828403121561216757612166611fbf565b5b6121716060611e0a565b9050600061218184828501611ffa565b600083015250604061219584828501612100565b60208301525060c06121a984828501611ffa565b60408301525092915050565b600067ffffffffffffffff8211156121d0576121cf611daa565b5b602082029050919050565b60006121ee6121e9846121b5565b611e0a565b9050806020840283018581111561220857612207612070565b5b835b81811015612231578061221d8882611fe5565b84526020840193505060208101905061220a565b5050509392505050565b600082601f8301126122505761224f611d8f565b5b600461225d8482856121db565b91505092915050565b60008060006101a084860312156122805761227f611d85565b5b600084013567ffffffffffffffff81111561229e5761229d611d8a565b5b6122aa86828701611ea7565b93505060206122bb86828701612150565b9250506101206122cd8682870161223b565b9150509250925092565b600080604083850312156122ee576122ed611d85565b5b600083013567ffffffffffffffff81111561230c5761230b611d8a565b5b61231885828601611ea7565b925050602061232985828601611fe5565b9150509250929050565b61233c81611fc4565b82525050565b60006020820190506123576000830184612333565b92915050565b600080610180838503121561237557612374611d85565b5b600061238385828601612150565b9250506101006123958582860161223b565b9150509250929050565b60008115159050919050565b6123b48161239f565b82525050565b60006020820190506123cf60008301846123ab565b92915050565b600060029050919050565b600081905092915050565b6000819050919050565b6123fe81611fc4565b82525050565b600061241083836123f5565b60208301905092915050565b6000602082019050919050565b612432816123d5565b61243c81846123e0565b9250612447826123eb565b8060005b8381101561247857815161245f8782612404565b965061246a8361241c565b92505060018101905061244b565b505050505050565b60006040820190506124956000830184612429565b92915050565b7f4e487b7100000000000000000000000000000000000000000000000000000000600052602260045260246000fd5b600060028204905060018216806124e257607f821691505b6020821081036124f5576124f461249b565b5b50919050565b600081905092915050565b600061251182611f1e565b61251b81856124fb565b935061252b818560208601611f3a565b80840191505092915050565b60006125438284612506565b915081905092915050565b7f6e65774964656e7469747920697320616c72656164792070617274206f66207260008201527f656769737465726564206964656e746974696573000000000000000000000000602082015250565b60006125aa603483611f29565b91506125b58261254e565b604082019050919050565b600060208201905081810360008301526125d98161259d565b9050919050565b7f70726f76696e67206f776e657273686970206f66206e65774964656e7469747960008201527f206661696c656400000000000000000000000000000000000000000000000000602082015250565b600061263c602783611f29565b9150612647826125e0565b604082019050919050565b6000602082019050818103600083015261266b8161262f565b9050919050565b7f4e487b7100000000000000000000000000000000000000000000000000000000600052603260045260246000fd5b60008190508160005260206000209050919050565b60006020601f8301049050919050565b600082821b905092915050565b6000600883026127037fffffffffffffffffffffffffffffffffffffffffffffffffffffffffffffffff826126c6565b61270d86836126c6565b95508019841693508086168417925050509392505050565b6000819050919050565b600061274a61274561274084611fc4565b612725565b611fc4565b9050919050565b6000819050919050565b6127648361272f565b61277861277082612751565b8484546126d3565b825550505050565b600090565b61278d612780565b61279881848461275b565b505050565b5b818110156127bc576127b1600082612785565b60018101905061279e565b5050565b601f821115612801576127d2816126a1565b6127db846126b6565b810160208510156127ea578190505b6127fe6127f6856126b6565b83018261279d565b50505b505050565b600082821c905092915050565b600061282460001984600802612806565b1980831691505092915050565b600061283d8383612813565b9150826002028217905092915050565b61285682611f1e565b67ffffffffffffffff81111561286f5761286e611daa565b5b61287982546124ca565b6128848282856127c0565b600060209050601f8311600181146128b757600084156128a5578287015190505b6128af8582612831565b865550612917565b601f1984166128c5866126a1565b60005b828110156128ed578489015182556001820191506020850194506020810190506128c8565b8683101561290a5784890151612906601f891682612813565b8355505b6001600288020188555050505b505050505050565b600060408201905081810360008301526129398185611f64565b9050818103602083015261294d8184611f64565b90509392505050565b7f746f426552656d6f7665644964656e74697479206973206e6f7420706172742060008201527f6f662072656769737465726564206964656e7469746965730000000000000000602082015250565b60006129b2603883611f29565b91506129bd82612956565b604082019050919050565b600060208201905081810360008301526129e1816129a5565b9050919050565b7f6d73672e73656e646572206973206e6f742070617274206f662072656769737460008201527f65726564206964656e7469746965730000000000000000000000000000000000602082015250565b6000612a44602f83611f29565b9150612a4f826129e8565b604082019050919050565b60006020820190508181036000830152612a7381612a37565b9050919050565b7f746f426552656d6f7665644964656e74697479206973206e6f7420706172742060008201527f6f66206d73672e73656e64657227732063697263756c6172206c696e6b65642060208201527f6c697374206f66206964656e7469746965730000000000000000000000000000604082015250565b6000612afc605283611f29565b9150612b0782612a7a565b606082019050919050565b60006020820190508181036000830152612b2b81612aef565b9050919050565b600081549050612b41816124ca565b9050919050565b60008190508160005260206000209050919050565b818103612b6b575050612c43565b612b7482612b32565b67ffffffffffffffff811115612b8d57612b8c611daa565b5b612b9782546124ca565b612ba28282856127c0565b6000601f831160018114612bd15760008415612bbf578287015490505b612bc98582612831565b865550612c3c565b601f198416612bdf87612b48565b9650612bea866126a1565b60005b82811015612c1257848901548255600182019150600185019450602081019050612bed565b86831015612c2f5784890154612c2b601f891682612813565b8355505b6001600288020188555050505b5050505050505b565b600073ffffffffffffffffffffffffffffffffffffffff82169050919050565b6000612c7082612c45565b9050919050565b60008160601b9050919050565b6000612c8f82612c77565b9050919050565b6000612ca182612c84565b9050919050565b612cb9612cb482612c65565b612c96565b82525050565b6000612ccb8284612ca8565b60148201915081905092915050565b7f4e487b7100000000000000000000000000000000000000000000000000000000600052601160045260246000fd5b6000612d1482611fc4565b9150612d1f83611fc4565b9250828202612d2d81611fc4565b91508282048414831517612d4457612d43612cda565b5b5092915050565b6000612d5682611fc4565b9150612d6183611fc4565b9250828201905080821115612d7957612d78612cda565b5b92915050565b7f4e487b7100000000000000000000000000000000000000000000000000000000600052601260045260246000fd5b6000612db982611fc4565b9150612dc483611fc4565b925082612dd457612dd3612d7f565b5b828206905092915050565b6000612dea82611fc4565b9150612df583611fc4565b9250828203905081811115612e0d57612e0c612cda565b5b9291505056fea264697066735822122097d1714de65aad3c1bf208df74012ea9c053fb497e147e1f4f992b986a684c7c64736f6c634300081b0033",
  "linkReferences": {},
  "deployedLinkReferences": {}
}